8=FIXT.1.1|9=79|35=A|34=1|49=ACCEPTOR|52=20190605-08:01:20.609|56=INITIATOR|98=0|108=20|1137=7|10=153|8=FIXT.1.1|9=69|35=2|34=2|49=ACCEPTOR|52=20190605-08:01:20.609|56=INITIATOR|7=1|16=0|10=172|8=FIXT.1.1|9=126|35=3|34=3|49=ACCEPTOR|52=20190605-08:01:36.964|56=INITIATOR|45=3|58=Tag not defined for this message type|371=54|372=AE|373=2|10=062|8=FIXT.1.1|9=69|35=1|34=4|49=ACCEPTOR|52=20190605-08:01:44.971|56=INITIATOR|112=TEST|10=076|8=FIXT.1.1|9=60|35=0|34=5|49=ACCEPTOR|52=20190605-08:02:04.654|56=INITIATOR|10=044|8=FIXT.1.1|9=60|35=0|34=6|49=ACCEPTOR|52=20190605-08:02:24.673|56=INITIATOR|10=048|8=FIXT.1.1|9=60|35=0|34=7|49=ACCEPTOR|52=20190605-08:02:44.691|56=INITIATOR|10=051|8=FIXT.1.1|9=60|35=0|34=8|49=ACCEPTOR|52=20190605-08:03:04.709|56=INITIATOR|10=049|8=FIXT.1.1|9=60|35=0|34=9|49=ACCEPTOR|52=20190605-08:03:24.727|56=INITIATOR|10=052|8=FIXT.1.1|9=61|35=0|34=10|49=ACCEPTOR|52=20190605-08:03:44.744|56=INITIATOR|10=094|8=FIXT.1.1|9=61|35=0|34=11|49=ACCEPTOR|52=20190605-08:04:04.763|56=INITIATOR|10=093|8=FIXT.1.1|9=61|35=0|34=12|49=ACCEPTOR|52=20190605-08:04:24.779|56=INITIATOR|10=103|8=FIXT.1.1|9=61|35=0|34=13|49=ACCEPTOR|52=20190605-08:04:44.798|56=INITIATOR|10=107|8=FIXT.1.1|9=61|35=0|34=14|49=ACCEPTOR|52=20190605-08:05:04.818|56=INITIATOR|10=098|8=FIXT.1.1|9=61|35=0|34=15|49=ACCEPTOR|52=20190605-08:05:24.838|56=INITIATOR|10=103|8=FIXT.1.1|9=61|35=0|34=16|49=ACCEPTOR|52=20190605-08:05:44.858|56=INITIATOR|10=108|8=FIXT.1.1|9=61|35=0|34=17|49=ACCEPTOR|52=20190605-08:06:04.877|56=INITIATOR|10=107|8=FIXT.1.1|9=61|35=0|34=18|49=ACCEPTOR|52=20190605-08:06:24.896|56=INITIATOR|10=111|8=FIXT.1.1|9=61|35=0|34=19|49=ACCEPTOR|52=20190605-08:06:44.915|56=INITIATOR|10=106|8=FIXT.1.1|9=61|35=0|34=20|49=ACCEPTOR|52=20190605-08:07:04.933|56=INITIATOR|10=095|8=FIXT.1.1|9=61|35=0|34=21|49=ACCEPTOR|52=20190605-08:07:24.947|56=INITIATOR|10=103|8=FIXT.1.1|9=61|35=0|34=22|49=ACCEPTOR|52=20190605-08:07:44.967|56=INITIATOR|10=108|8=FIXT.1.1|9=61|35=0|34=23|49=ACCEPTOR|52=20190605-08:08:04.985|56=INITIATOR|10=106|8=FIXT.1.1|9=61|35=0|34=24|49=ACCEPTOR|52=20190605-08:08:24.004|56=INITIATOR|10=091|8=FIXT.1.1|9=61|35=0|34=25|49=ACCEPTOR|52=20190605-08:08:44.025|56=INITIATOR|10=097|8=FIXT.1.1|9=61|35=0|34=26|49=ACCEPTOR|52=20190605-08:09:04.042|56=INITIATOR|10=094|8=FIXT.1.1|9=61|35=0|34=27|49=ACCEPTOR|52=20190605-08:09:24.103|56=INITIATOR|10=095|8=FIXT.1.1|9=61|35=0|34=28|49=ACCEPTOR|52=20190605-08:09:44.123|56=INITIATOR|10=100|8=FIXT.1.1|9=61|35=0|34=29|49=ACCEPTOR|52=20190605-08:10:04.140|56=INITIATOR|10=088|8=FIXT.1.1|9=61|35=0|34=30|49=ACCEPTOR|52=20190605-08:10:24.154|56=INITIATOR|10=087|8=FIXT.1.1|9=61|35=0|34=31|49=ACCEPTOR|52=20190605-08:10:44.172|56=INITIATOR|10=090|8=FIXT.1.1|9=61|35=0|34=32|49=ACCEPTOR|52=20190605-08:11:04.191|56=INITIATOR|10=089|8=FIXT.1.1|9=61|35=0|34=33|49=ACCEPTOR|52=20190605-08:11:24.211|56=INITIATOR|10=085|8=FIXT.1.1|9=61|35=0|34=34|49=ACCEPTOR|52=20190605-08:11:44.228|56=INITIATOR|10=096|8=FIXT.1.1|9=61|35=0|34=35|49=ACCEPTOR|52=20190605-08:12:04.245|56=INITIATOR|10=093|8=FIXT.1.1|9=61|35=0|34=36|49=ACCEPTOR|52=20190605-08:12:24.264|56=INITIATOR|10=097|8=FIXT.1.1|9=61|35=0|34=37|49=ACCEPTOR|52=20190605-08:12:44.282|56=INITIATOR|10=100|8=FIXT.1.1|9=61|35=0|34=38|49=ACCEPTOR|52=20190605-08:13:04.300|56=INITIATOR|10=089|8=FIXT.1.1|9=61|35=0|34=39|49=ACCEPTOR|52=20190605-08:13:24.318|56=INITIATOR|10=101|8=FIXT.1.1|9=61|35=0|34=40|49=ACCEPTOR|52=20190605-08:13:44.337|56=INITIATOR|10=096|8=FIXT.1.1|9=61|35=0|34=41|49=ACCEPTOR|52=20190605-08:14:04.356|56=INITIATOR|10=095|8=FIXT.1.1|9=61|35=0|34=42|49=ACCEPTOR|52=20190605-08:14:24.376|56=INITIATOR|10=100|8=FIXT.1.1|9=61|35=0|34=43|49=ACCEPTOR|52=20190605-08:14:44.403|56=INITIATOR|10=094|8=FIXT.1.1|9=61|35=0|34=44|49=ACCEPTOR|52=20190605-08:15:04.418|56=INITIATOR|10=098|8=FIXT.1.1|9=61|35=0|34=45|49=ACCEPTOR|52=20190605-08:15:24.438|56=INITIATOR|10=103|8=FIXT.1.1|9=61|35=0|34=46|49=ACCEPTOR|52=20190605-08:15:44.456|56=INITIATOR|10=106|8=FIXT.1.1|9=61|35=0|34=47|49=ACCEPTOR|52=20190605-08:16:04.474|56=INITIATOR|10=104|8=FIXT.1.1|9=61|35=0|34=48|49=ACCEPTOR|52=20190605-08:16:24.494|56=INITIATOR|10=109|8=FIXT.1.1|9=61|35=0|34=49|49=ACCEPTOR|52=20190605-08:16:44.511|56=INITIATOR|10=102|8=FIXT.1.1|9=61|35=0|34=50|49=ACCEPTOR|52=20190605-08:17:04.530|56=INITIATOR|10=092|8=FIXT.1.1|9=61|35=0|34=51|49=ACCEPTOR|52=20190605-08:17:24.550|56=INITIATOR|10=097|8=FIXT.1.1|9=80|35=A|34=52|49=ACCEPTOR|52=20190605-08:18:23.190|56=INITIATOR|98=0|108=20|1137=7|10=205|8=FIXT.1.1|9=71|35=2|34=53|49=ACCEPTOR|52=20190605-08:18:23.190|56=INITIATOR|7=52|16=0|10=023|8=FIXT.1.1|9=61|35=0|34=54|49=ACCEPTOR|52=20190605-08:18:43.197|56=INITIATOR|10=109|8=FIXT.1.1|9=128|35=3|34=55|49=ACCEPTOR|52=20190605-08:18:47.387|56=INITIATOR|45=55|58=Tag not defined for this message type|371=54|372=AE|373=2|10=183|8=FIXT.1.1|9=61|35=0|34=56|49=ACCEPTOR|52=20190605-08:19:07.204|56=INITIATOR|10=101|8=FIXT.1.1|9=61|35=0|34=57|49=ACCEPTOR|52=20190605-08:19:27.222|56=INITIATOR|10=104|8=FIXT.1.1|9=61|35=0|34=58|49=ACCEPTOR|52=20190605-08:19:47.241|56=INITIATOR|10=108|8=FIXT.1.1|9=61|35=0|34=59|49=ACCEPTOR|52=20190605-08:20:07.261|56=INITIATOR|10=099|8=FIXT.1.1|9=80|35=A|34=60|49=ACCEPTOR|52=20190605-08:59:38.837|56=INITIATOR|98=0|108=20|1137=7|10=223|8=FIXT.1.1|9=71|35=2|34=61|49=ACCEPTOR|52=20190605-08:59:38.837|56=INITIATOR|7=60|16=0|10=040|8=FIXT.1.1|9=128|35=3|34=62|49=ACCEPTOR|52=20190605-08:59:47.371|56=INITIATOR|45=62|58=Tag not defined for this message type|371=54|372=AE|373=2|10=177|8=FIXT.1.1|9=70|35=1|34=63|49=ACCEPTOR|52=20190605-09:00:02.385|56=INITIATOR|112=TEST|10=114|8=FIXT.1.1|9=61|35=0|34=64|49=ACCEPTOR|52=20190605-09:00:22.406|56=INITIATOR|10=092|8=FIXT.1.1|9=61|35=0|34=65|49=ACCEPTOR|52=20190605-09:00:42.426|56=INITIATOR|10=097|8=FIXT.1.1|9=61|35=0|34=66|49=ACCEPTOR|52=20190605-09:01:02.445|56=INITIATOR|10=096|8=FIXT.1.1|9=61|35=0|34=67|49=ACCEPTOR|52=20190605-09:01:22.464|56=INITIATOR|10=100|8=FIXT.1.1|9=61|35=0|34=68|49=ACCEPTOR|52=20190605-09:01:42.483|56=INITIATOR|10=104|8=FIXT.1.1|9=61|35=0|34=69|49=ACCEPTOR|52=20190605-09:02:02.504|56=INITIATOR|10=096|8=FIXT.1.1|9=61|35=0|34=70|49=ACCEPTOR|52=20190605-09:02:22.522|56=INITIATOR|10=090|8=FIXT.1.1|9=61|35=0|34=71|49=ACCEPTOR|52=20190605-09:02:42.541|56=INITIATOR|10=094|8=FIXT.1.1|9=61|35=0|34=72|49=ACCEPTOR|52=20190605-09:03:02.559|56=INITIATOR|10=101|8=FIXT.1.1|9=61|35=0|34=73|49=ACCEPTOR|52=20190605-09:03:22.005|56=INITIATOR|10=090|8=FIXT.1.1|9=61|35=0|34=74|49=ACCEPTOR|52=20190605-09:03:42.024|56=INITIATOR|10=094|8=FIXT.1.1|9=61|35=0|34=75|49=ACCEPTOR|52=20190605-09:04:02.038|56=INITIATOR|10=097|8=FIXT.1.1|9=61|35=0|34=76|49=ACCEPTOR|52=20190605-09:04:22.057|56=INITIATOR|10=101|8=FIXT.1.1|9=61|35=0|34=77|49=ACCEPTOR|52=20190605-09:04:42.076|56=INITIATOR|10=105|8=FIXT.1.1|9=61|35=0|34=78|49=ACCEPTOR|52=20190605-09:05:02.095|56=INITIATOR|10=104|8=FIXT.1.1|9=61|35=0|34=79|49=ACCEPTOR|52=20190605-09:05:22.114|56=INITIATOR|10=099|8=FIXT.1.1|9=61|35=0|34=80|49=ACCEPTOR|52=20190605-09:05:42.132|56=INITIATOR|10=093|8=FIXT.1.1|9=61|35=0|34=81|49=ACCEPTOR|52=20190605-09:06:02.152|56=INITIATOR|10=093|8=FIXT.1.1|9=61|35=0|34=82|49=ACCEPTOR|52=20190605-09:06:22.170|56=INITIATOR|10=096|8=FIXT.1.1|9=61|35=0|34=83|49=ACCEPTOR|52=20190605-09:06:42.399|56=INITIATOR|10=112|8=FIXT.1.1|9=61|35=0|34=84|49=ACCEPTOR|52=20190605-09:07:02.417|56=INITIATOR|10=101|8=FIXT.1.1|9=61|35=0|34=85|49=ACCEPTOR|52=20190605-09:07:22.434|56=INITIATOR|10=103|8=FIXT.1.1|9=61|35=0|34=86|49=ACCEPTOR|52=20190605-09:07:42.454|56=INITIATOR|10=108|8=FIXT.1.1|9=61|35=0|34=87|49=ACCEPTOR|52=20190605-09:08:02.473|56=INITIATOR|10=107|8=FIXT.1.1|9=61|35=0|34=88|49=ACCEPTOR|52=20190605-09:08:22.490|56=INITIATOR|10=109|8=FIXT.1.1|9=61|35=0|34=89|49=ACCEPTOR|52=20190605-09:08:42.508|56=INITIATOR|10=112|8=FIXT.1.1|9=61|35=0|34=90|49=ACCEPTOR|52=20190605-09:09:02.525|56=INITIATOR|10=100|8=FIXT.1.1|9=80|35=A|34=91|49=ACCEPTOR|52=20190605-09:09:35.621|56=INITIATOR|98=0|108=20|1137=7|10=211|8=FIXT.1.1|9=71|35=2|34=92|49=ACCEPTOR|52=20190605-09:09:35.622|56=INITIATOR|7=91|16=0|10=033|8=FIXT.1.1|9=61|35=0|34=93|49=ACCEPTOR|52=20190605-09:09:55.598|56=INITIATOR|10=121|8=FIXT.1.1|9=61|35=0|34=94|49=ACCEPTOR|52=20190605-09:10:15.615|56=INITIATOR|10=100|8=FIXT.1.1|9=61|35=0|34=95|49=ACCEPTOR|52=20190605-09:10:35.634|56=INITIATOR|10=104|8=FIXT.1.1|9=61|35=0|34=96|49=ACCEPTOR|52=20190605-09:10:55.652|56=INITIATOR|10=107|8=FIXT.1.1|9=61|35=0|34=97|49=ACCEPTOR|52=20190605-09:11:15.671|56=INITIATOR|10=106|8=FIXT.1.1|9=61|35=0|34=98|49=ACCEPTOR|52=20190605-09:11:35.689|56=INITIATOR|10=118|8=FIXT.1.1|9=61|35=0|34=99|49=ACCEPTOR|52=20190605-09:11:55.706|56=INITIATOR|10=111|8=FIXT.1.1|9=130|35=3|34=100|49=ACCEPTOR|52=20190605-09:11:56.229|56=INITIATOR|45=100|58=Tag not defined for this message type|371=54|372=AE|373=2|10=243|8=FIXT.1.1|9=62|35=0|34=101|49=ACCEPTOR|52=20190605-09:12:16.249|56=INITIATOR|10=144|8=FIXT.1.1|9=62|35=0|34=102|49=ACCEPTOR|52=20190605-09:12:36.270|56=INITIATOR|10=141|8=FIXT.1.1|9=62|35=0|34=103|49=ACCEPTOR|52=20190605-09:12:56.290|56=INITIATOR|10=146|8=FIXT.1.1|9=62|35=0|34=104|49=ACCEPTOR|52=20190605-09:13:16.309|56=INITIATOR|10=145|8=FIXT.1.1|9=62|35=0|34=105|49=ACCEPTOR|52=20190605-09:13:36.329|56=INITIATOR|10=150|8=FIXT.1.1|9=62|35=0|34=106|49=ACCEPTOR|52=20190605-09:13:56.347|56=INITIATOR|10=153|8=FIXT.1.1|9=62|35=0|34=107|49=ACCEPTOR|52=20190605-09:14:16.367|56=INITIATOR|10=153|8=FIXT.1.1|9=62|35=0|34=108|49=ACCEPTOR|52=20190605-09:14:36.388|56=INITIATOR|10=159|8=FIXT.1.1|9=62|35=0|34=109|49=ACCEPTOR|52=20190605-09:14:56.408|56=INITIATOR|10=155|8=FIXT.1.1|9=62|35=0|34=110|49=ACCEPTOR|52=20190605-09:15:16.427|56=INITIATOR|10=145|8=FIXT.1.1|9=62|35=0|34=111|49=ACCEPTOR|52=20190605-09:15:36.444|56=INITIATOR|10=147|8=FIXT.1.1|9=62|35=0|34=112|49=ACCEPTOR|52=20190605-09:15:56.461|56=INITIATOR|10=149|8=FIXT.1.1|9=62|35=0|34=113|49=ACCEPTOR|52=20190605-09:16:16.479|56=INITIATOR|10=156|8=FIXT.1.1|9=62|35=0|34=114|49=ACCEPTOR|52=20190605-09:16:36.499|56=INITIATOR|10=161|8=FIXT.1.1|9=62|35=0|34=115|49=ACCEPTOR|52=20190605-09:16:56.519|56=INITIATOR|10=157|8=FIXT.1.1|9=62|35=0|34=116|49=ACCEPTOR|52=20190605-09:17:16.003|56=INITIATOR|10=143|8=FIXT.1.1|9=62|35=0|34=117|49=ACCEPTOR|52=20190605-09:17:36.018|56=INITIATOR|10=152|8=FIXT.1.1|9=62|35=0|34=118|49=ACCEPTOR|52=20190605-09:17:56.035|56=INITIATOR|10=154|8=FIXT.1.1|9=62|35=0|34=119|49=ACCEPTOR|52=20190605-09:18:16.052|56=INITIATOR|10=151|8=FIXT.1.1|9=62|35=0|34=120|49=ACCEPTOR|52=20190605-09:18:36.073|56=INITIATOR|10=148|8=FIXT.1.1|9=62|35=0|34=121|49=ACCEPTOR|52=20190605-09:18:56.090|56=INITIATOR|10=150|8=FIXT.1.1|9=62|35=0|34=122|49=ACCEPTOR|52=20190605-09:19:16.107|56=INITIATOR|10=147|8=FIXT.1.1|9=62|35=0|34=123|49=ACCEPTOR|52=20190605-09:19:36.125|56=INITIATOR|10=150|8=FIXT.1.1|9=62|35=0|34=124|49=ACCEPTOR|52=20190605-09:19:56.142|56=INITIATOR|10=152|8=FIXT.1.1|9=62|35=0|34=125|49=ACCEPTOR|52=20190605-09:20:16.160|56=INITIATOR|10=141|8=FIXT.1.1|9=62|35=0|34=126|49=ACCEPTOR|52=20190605-09:20:36.178|56=INITIATOR|10=153|8=FIXT.1.1|9=62|35=0|34=127|49=ACCEPTOR|52=20190605-09:20:56.197|56=INITIATOR|10=157|8=FIXT.1.1|9=62|35=0|34=128|49=ACCEPTOR|52=20190605-09:21:16.213|56=INITIATOR|10=144|8=FIXT.1.1|9=62|35=0|34=129|49=ACCEPTOR|52=20190605-09:21:36.231|56=INITIATOR|10=147|8=FIXT.1.1|9=62|35=0|34=130|49=ACCEPTOR|52=20190605-09:21:56.249|56=INITIATOR|10=150|8=FIXT.1.1|9=62|35=0|34=131|49=ACCEPTOR|52=20190605-09:22:16.269|56=INITIATOR|10=150|8=FIXT.1.1|9=62|35=0|34=132|49=ACCEPTOR|52=20190605-09:22:36.286|56=INITIATOR|10=152|8=FIXT.1.1|9=62|35=0|34=133|49=ACCEPTOR|52=20190605-09:22:56.303|56=INITIATOR|10=145|8=FIXT.1.1|9=62|35=0|34=134|49=ACCEPTOR|52=20190605-09:23:16.321|56=INITIATOR|10=143|8=FIXT.1.1|9=62|35=0|34=135|49=ACCEPTOR|52=20190605-09:23:36.362|56=INITIATOR|10=151|8=FIXT.1.1|9=62|35=0|34=136|49=ACCEPTOR|52=20190605-09:23:56.378|56=INITIATOR|10=161|8=FIXT.1.1|9=62|35=0|34=137|49=ACCEPTOR|52=20190605-09:24:16.396|56=INITIATOR|10=159|8=FIXT.1.1|9=62|35=0|34=138|49=ACCEPTOR|52=20190605-09:24:36.415|56=INITIATOR|10=154|8=FIXT.1.1|9=62|35=0|34=139|49=ACCEPTOR|52=20190605-09:24:56.432|56=INITIATOR|10=156|8=FIXT.1.1|9=62|35=0|34=140|49=ACCEPTOR|52=20190605-09:25:16.450|56=INITIATOR|10=145|8=FIXT.1.1|9=62|35=0|34=141|49=ACCEPTOR|52=20190605-09:25:36.471|56=INITIATOR|10=151|8=FIXT.1.1|9=62|35=0|34=142|49=ACCEPTOR|52=20190605-09:25:56.490|56=INITIATOR|10=155|8=FIXT.1.1|9=62|35=0|34=143|49=ACCEPTOR|52=20190605-09:26:16.508|56=INITIATOR|10=153|8=FIXT.1.1|9=62|35=0|34=144|49=ACCEPTOR|52=20190605-09:26:36.529|56=INITIATOR|10=159|8=FIXT.1.1|9=62|35=0|34=145|49=ACCEPTOR|52=20190605-09:26:56.547|56=INITIATOR|10=162|8=FIXT.1.1|9=62|35=0|34=146|49=ACCEPTOR|52=20190605-09:27:16.567|56=INITIATOR|10=162|8=FIXT.1.1|9=62|35=0|34=147|49=ACCEPTOR|52=20190605-09:27:36.587|56=INITIATOR|10=167|