8=FIXT.1.1|9=157|35=D|34=1|49=INITIATOR|52=20190603-05:47:37.955|56=ACCEPTOR|11=0E0Z86K00000|22=1|38=200|40=2|48=06051GDX4|54=1|55=BAC|60=20190603-11:17:37.951|218=100|423=6|10=000|8=FIXT.1.1|9=105|35=A|34=2|49=INITIATOR|52=20190603-05:47:37.955|56=ACCEPTOR|98=0|108=20|553=USERNAME|554=PASSWORD|1137=7|10=091|8=FIXT.1.1|9=60|35=0|34=3|49=INITIATOR|52=20190603-05:47:58.605|56=ACCEPTOR|10=051|8=FIXT.1.1|9=60|35=0|34=4|49=INITIATOR|52=20190603-05:48:18.996|56=ACCEPTOR|10=062|8=FIXT.1.1|9=60|35=0|34=5|49=INITIATOR|52=20190603-05:48:38.016|56=ACCEPTOR|10=048|8=FIXT.1.1|9=60|35=0|34=6|49=INITIATOR|52=20190603-05:48:58.038|56=ACCEPTOR|10=055|8=FIXT.1.1|9=60|35=0|34=7|49=INITIATOR|52=20190603-05:49:18.059|56=ACCEPTOR|10=056|8=FIXT.1.1|9=157|35=D|34=8|49=INITIATOR|52=20190603-05:49:25.488|56=ACCEPTOR|11=0E0Z86K00000|22=1|38=200|40=2|48=06051GDX4|54=1|55=BAC|60=20190603-11:19:25.486|218=100|423=6|10=009|8=FIXT.1.1|9=60|35=0|34=9|49=INITIATOR|52=20190603-05:49:45.087|56=ACCEPTOR|10=059|8=FIXT.1.1|9=61|35=0|34=10|49=INITIATOR|52=20190603-05:50:05.105|56=ACCEPTOR|10=079|8=FIXT.1.1|9=61|35=0|34=11|49=INITIATOR|52=20190603-05:50:25.126|56=ACCEPTOR|10=085|8=FIXT.1.1|9=61|35=0|34=12|49=INITIATOR|52=20190603-05:50:45.148|56=ACCEPTOR|10=092|8=FIXT.1.1|9=61|35=0|34=13|49=INITIATOR|52=20190603-05:51:05.167|56=ACCEPTOR|10=091|8=FIXT.1.1|9=61|35=0|34=14|49=INITIATOR|52=20190603-05:51:25.190|56=ACCEPTOR|10=090|8=FIXT.1.1|9=61|35=0|34=15|49=INITIATOR|52=20190603-05:51:45.212|56=ACCEPTOR|10=088|8=FIXT.1.1|9=158|35=D|34=16|49=INITIATOR|52=20190603-05:51:59.385|56=ACCEPTOR|11=0E0Z86K00000|22=1|38=200|40=2|48=06051GDX4|54=1|55=BAC|60=20190603-11:21:59.384|218=100|423=6|10=050|8=FIXT.1.1|9=61|35=0|34=17|49=INITIATOR|52=20190603-05:52:19.246|56=ACCEPTOR|10=099|8=FIXT.1.1|9=61|35=0|34=18|49=INITIATOR|52=20190603-05:52:39.267|56=ACCEPTOR|10=105|8=FIXT.1.1|9=61|35=0|34=19|49=INITIATOR|52=20190603-05:52:59.288|56=ACCEPTOR|10=111|8=FIXT.1.1|9=61|35=0|34=20|49=INITIATOR|52=20190603-05:53:19.050|56=ACCEPTOR|10=087|8=FIXT.1.1|9=61|35=0|34=21|49=INITIATOR|52=20190603-05:53:39.326|56=ACCEPTOR|10=096|8=FIXT.1.1|9=61|35=0|34=22|49=INITIATOR|52=20190603-05:53:59.348|56=ACCEPTOR|10=103|8=FIXT.1.1|9=61|35=0|34=23|49=INITIATOR|52=20190603-05:54:19.368|56=ACCEPTOR|10=103|8=FIXT.1.1|9=61|35=0|34=24|49=INITIATOR|52=20190603-05:54:39.388|56=ACCEPTOR|10=108|8=FIXT.1.1|9=61|35=0|34=25|49=INITIATOR|52=20190603-05:54:59.412|56=ACCEPTOR|10=099|8=FIXT.1.1|9=61|35=0|34=26|49=INITIATOR|52=20190603-05:55:19.432|56=ACCEPTOR|10=099|8=FIXT.1.1|9=61|35=0|34=27|49=INITIATOR|52=20190603-05:55:39.450|56=ACCEPTOR|10=102|8=FIXT.1.1|9=61|35=0|34=28|49=INITIATOR|52=20190603-05:55:59.470|56=ACCEPTOR|10=107|8=FIXT.1.1|9=61|35=0|34=29|49=INITIATOR|52=20190603-05:56:19.488|56=ACCEPTOR|10=114|8=FIXT.1.1|9=61|35=0|34=30|49=INITIATOR|52=20190603-05:56:39.509|56=ACCEPTOR|10=102|8=FIXT.1.1|9=61|35=0|34=31|49=INITIATOR|52=20190603-05:56:59.530|56=ACCEPTOR|10=099|8=FIXT.1.1|9=61|35=0|34=32|49=INITIATOR|52=20190603-05:57:19.551|56=ACCEPTOR|10=100|8=FIXT.1.1|9=61|35=0|34=33|49=INITIATOR|52=20190603-05:57:39.569|56=ACCEPTOR|10=112|8=FIXT.1.1|9=61|35=0|34=34|49=INITIATOR|52=20190603-05:57:59.590|56=ACCEPTOR|10=109|8=FIXT.1.1|9=61|35=0|34=35|49=INITIATOR|52=20190603-05:58:19.610|56=ACCEPTOR|10=100|8=FIXT.1.1|9=61|35=0|34=36|49=INITIATOR|52=20190603-05:58:39.627|56=ACCEPTOR|10=111|8=FIXT.1.1|9=61|35=0|34=37|49=INITIATOR|52=20190603-05:58:59.647|56=ACCEPTOR|10=116|8=FIXT.1.1|9=61|35=0|34=38|49=INITIATOR|52=20190603-05:59:19.050|56=ACCEPTOR|10=102|8=FIXT.1.1|9=61|35=0|34=39|49=INITIATOR|52=20190603-05:59:39.689|56=ACCEPTOR|10=123|8=FIXT.1.1|9=61|35=0|34=40|49=INITIATOR|52=20190603-05:59:59.708|56=ACCEPTOR|10=109|8=FIXT.1.1|9=61|35=0|34=41|49=INITIATOR|52=20190603-06:00:19.190|56=ACCEPTOR|10=088|8=FIXT.1.1|9=61|35=0|34=42|49=INITIATOR|52=20190603-06:00:39.749|56=ACCEPTOR|10=101|8=FIXT.1.1|9=61|35=0|34=43|49=INITIATOR|52=20190603-06:00:59.103|56=ACCEPTOR|10=088|8=FIXT.1.1|9=61|35=0|34=44|49=INITIATOR|52=20190603-06:01:19.791|56=ACCEPTOR|10=099|8=FIXT.1.1|9=61|35=0|34=45|49=INITIATOR|52=20190603-06:01:39.201|56=ACCEPTOR|10=088|8=FIXT.1.1|9=61|35=0|34=46|49=INITIATOR|52=20190603-06:01:59.833|56=ACCEPTOR|10=102|8=FIXT.1.1|9=61|35=0|34=47|49=INITIATOR|52=20190603-06:02:19.197|56=ACCEPTOR|10=103|8=FIXT.1.1|9=61|35=0|34=48|49=INITIATOR|52=20190603-06:02:39.874|56=ACCEPTOR|10=108|8=FIXT.1.1|9=61|35=0|34=49|49=INITIATOR|52=20190603-06:02:59.353|56=ACCEPTOR|10=103|8=FIXT.1.1|9=61|35=0|34=50|49=INITIATOR|52=20190603-06:03:19.915|56=ACCEPTOR|10=096|8=FIXT.1.1|9=61|35=0|34=51|49=INITIATOR|52=20190603-06:03:39.936|56=ACCEPTOR|10=102|8=FIXT.1.1|9=61|35=0|34=52|49=INITIATOR|52=20190603-06:03:59.958|56=ACCEPTOR|10=109|8=FIXT.1.1|9=61|35=0|34=53|49=INITIATOR|52=20190603-06:04:19.978|56=ACCEPTOR|10=109|8=FIXT.1.1|9=61|35=0|34=54|49=INITIATOR|52=20190603-06:04:39.997|56=ACCEPTOR|10=113|8=FIXT.1.1|9=61|35=0|34=55|49=INITIATOR|52=20190603-06:04:59.015|56=ACCEPTOR|10=097|8=FIXT.1.1|9=61|35=0|34=56|49=INITIATOR|52=20190603-06:05:19.036|56=ACCEPTOR|10=098|8=FIXT.1.1|9=61|35=0|34=57|49=INITIATOR|52=20190603-06:05:39.057|56=ACCEPTOR|10=104|8=FIXT.1.1|9=61|35=0|34=58|49=INITIATOR|52=20190603-06:05:59.075|56=ACCEPTOR|10=107|8=FIXT.1.1|9=61|35=0|34=59|49=INITIATOR|52=20190603-06:06:19.097|56=ACCEPTOR|10=109|8=FIXT.1.1|9=61|35=0|34=60|49=INITIATOR|52=20190603-06:06:39.120|56=ACCEPTOR|10=090|8=FIXT.1.1|9=61|35=0|34=61|49=INITIATOR|52=20190603-06:06:59.142|56=ACCEPTOR|10=097|8=FIXT.1.1|9=61|35=0|34=62|49=INITIATOR|52=20190603-06:07:19.163|56=ACCEPTOR|10=098|8=FIXT.1.1|9=61|35=0|34=63|49=INITIATOR|52=20190603-06:07:39.183|56=ACCEPTOR|10=103|8=FIXT.1.1|9=61|35=0|34=64|49=INITIATOR|52=20190603-06:07:59.202|56=ACCEPTOR|10=098|8=FIXT.1.1|9=61|35=0|34=65|49=INITIATOR|52=20190603-06:08:19.223|56=ACCEPTOR|10=099|8=FIXT.1.1|9=61|35=0|34=66|49=INITIATOR|52=20190603-06:08:39.244|56=ACCEPTOR|10=105|8=FIXT.1.1|9=61|35=0|34=67|49=INITIATOR|52=20190603-06:08:59.264|56=ACCEPTOR|10=110|8=FIXT.1.1|9=61|35=0|34=68|49=INITIATOR|52=20190603-06:09:19.284|56=ACCEPTOR|10=110|8=FIXT.1.1|9=61|35=0|34=69|49=INITIATOR|52=20190603-06:09:39.306|56=ACCEPTOR|10=108|8=FIXT.1.1|9=61|35=0|34=70|49=INITIATOR|52=20190603-06:09:59.326|56=ACCEPTOR|10=104|8=FIXT.1.1|9=61|35=0|34=71|49=INITIATOR|52=20190603-06:10:19.348|56=ACCEPTOR|10=097|8=FIXT.1.1|9=61|35=0|34=72|49=INITIATOR|52=20190603-06:10:39.371|56=ACCEPTOR|10=096|8=FIXT.1.1|9=61|35=0|34=73|49=INITIATOR|52=20190603-06:10:59.393|56=ACCEPTOR|10=103|8=FIXT.1.1|9=61|35=0|34=74|49=INITIATOR|52=20190603-06:11:19.416|56=ACCEPTOR|10=097|8=FIXT.1.1|9=61|35=0|34=75|49=INITIATOR|52=20190603-06:11:39.437|56=ACCEPTOR|10=103|8=FIXT.1.1|9=61|35=0|34=76|49=INITIATOR|52=20190603-06:11:59.458|56=ACCEPTOR|10=109|8=FIXT.1.1|9=61|35=0|34=77|49=INITIATOR|52=20190603-06:12:19.481|56=ACCEPTOR|10=103|8=FIXT.1.1|9=61|35=0|34=78|49=INITIATOR|52=20190603-06:12:39.503|56=ACCEPTOR|10=101|8=FIXT.1.1|9=61|35=0|34=79|49=INITIATOR|52=20190603-06:12:59.524|56=ACCEPTOR|10=107|8=FIXT.1.1|9=61|35=0|34=80|49=INITIATOR|52=20190603-06:13:19.545|56=ACCEPTOR|10=099|8=FIXT.1.1|9=61|35=0|34=81|49=INITIATOR|52=20190603-06:13:39.567|56=ACCEPTOR|10=106|8=FIXT.1.1|9=61|35=0|34=82|49=INITIATOR|52=20190603-06:13:59.588|56=ACCEPTOR|10=112|8=FIXT.1.1|9=61|35=0|34=83|49=INITIATOR|52=20190603-06:14:19.030|56=ACCEPTOR|10=092|8=FIXT.1.1|9=61|35=0|34=84|49=INITIATOR|52=20190603-06:14:39.631|56=ACCEPTOR|10=102|8=FIXT.1.1|9=61|35=0|34=85|49=INITIATOR|52=20190603-06:14:59.110|56=ACCEPTOR|10=097|8=FIXT.1.1|9=61|35=0|34=86|49=INITIATOR|52=20190603-06:15:19.674|56=ACCEPTOR|10=110|8=FIXT.1.1|9=61|35=0|34=87|49=INITIATOR|52=20190603-06:15:39.695|56=ACCEPTOR|10=116|8=FIXT.1.1|9=61|35=0|34=88|49=INITIATOR|52=20190603-06:15:59.212|56=ACCEPTOR|10=104|8=FIXT.1.1|9=61|35=0|34=89|49=INITIATOR|52=20190603-06:16:19.736|56=ACCEPTOR|10=113|8=FIXT.1.1|9=61|35=0|34=90|49=INITIATOR|52=20190603-06:16:39.292|56=ACCEPTOR|10=104|8=FIXT.1.1|9=61|35=0|34=91|49=INITIATOR|52=20190603-06:16:59.777|56=ACCEPTOR|10=115|8=FIXT.1.1|9=61|35=0|34=92|49=INITIATOR|52=20190603-06:17:19.221|56=ACCEPTOR|10=097|8=FIXT.1.1|9=61|35=0|34=93|49=INITIATOR|52=20190603-06:17:39.820|56=ACCEPTOR|10=105|8=FIXT.1.1|9=61|35=0|34=94|49=INITIATOR|52=20190603-06:17:59.162|56=ACCEPTOR|10=107|8=FIXT.1.1|9=61|35=0|34=95|49=INITIATOR|52=20190603-06:18:19.863|56=ACCEPTOR|10=113|8=FIXT.1.1|9=61|35=0|34=96|49=INITIATOR|52=20190603-06:18:39.201|56=ACCEPTOR|10=102|8=FIXT.1.1|9=61|35=0|34=97|49=INITIATOR|52=20190603-06:18:59.907|56=ACCEPTOR|10=118|8=FIXT.1.1|9=61|35=0|34=98|49=INITIATOR|52=20190603-06:19:19.928|56=ACCEPTOR|10=119|8=FIXT.1.1|9=61|35=0|34=99|49=INITIATOR|52=20190603-06:19:39.950|56=ACCEPTOR|10=117|8=FIXT.1.1|9=62|35=0|34=100|49=INITIATOR|52=20190603-06:19:59.970|56=ACCEPTOR|10=153|8=FIXT.1.1|9=62|35=0|34=101|49=INITIATOR|52=20190603-06:20:19.992|56=ACCEPTOR|10=146|8=FIXT.1.1|9=62|35=0|34=102|49=INITIATOR|52=20190603-06:20:39.013|56=ACCEPTOR|10=133|8=FIXT.1.1|9=62|35=0|34=103|49=INITIATOR|52=20190603-06:20:59.034|56=ACCEPTOR|10=139|8=FIXT.1.1|9=62|35=0|34=104|49=INITIATOR|52=20190603-06:21:19.055|56=ACCEPTOR|10=140|8=FIXT.1.1|9=62|35=0|34=105|49=INITIATOR|52=20190603-06:21:39.077|56=ACCEPTOR|10=147|8=FIXT.1.1|9=62|35=0|34=106|49=INITIATOR|52=20190603-06:21:59.099|56=ACCEPTOR|10=154|8=FIXT.1.1|9=62|35=0|34=107|49=INITIATOR|52=20190603-06:22:19.121|56=ACCEPTOR|10=138|8=FIXT.1.1|9=62|35=0|34=108|49=INITIATOR|52=20190603-06:22:39.140|56=ACCEPTOR|10=142|8=FIXT.1.1|9=62|35=0|34=109|49=INITIATOR|52=20190603-06:22:59.161|56=ACCEPTOR|10=148|8=FIXT.1.1|9=62|35=0|34=110|49=INITIATOR|52=20190603-06:23:19.183|56=ACCEPTOR|10=141|8=FIXT.1.1|9=62|35=0|34=111|49=INITIATOR|52=20190603-06:23:39.203|56=ACCEPTOR|10=137|8=FIXT.1.1|9=62|35=0|34=112|49=INITIATOR|52=20190603-06:23:59.225|56=ACCEPTOR|10=144|8=FIXT.1.1|9=62|35=0|34=113|49=INITIATOR|52=20190603-06:24:19.247|56=ACCEPTOR|10=146|8=FIXT.1.1|9=62|35=0|34=114|49=INITIATOR|52=20190603-06:24:39.269|56=ACCEPTOR|10=153|8=FIXT.1.1|9=62|35=0|34=115|49=INITIATOR|52=20190603-06:24:59.289|56=ACCEPTOR|10=158|8=FIXT.1.1|9=62|35=0|34=116|49=INITIATOR|52=20190603-06:25:19.311|56=ACCEPTOR|10=142|8=FIXT.1.1|9=62|35=0|34=117|49=INITIATOR|52=20190603-06:25:39.333|56=ACCEPTOR|10=149|8=FIXT.1.1|9=62|35=0|34=118|49=INITIATOR|52=20190603-06:25:59.355|56=ACCEPTOR|10=156|8=FIXT.1.1|9=62|35=0|34=119|49=INITIATOR|52=20190603-06:26:19.377|56=ACCEPTOR|10=158|8=FIXT.1.1|9=62|35=0|34=120|49=INITIATOR|52=20190603-06:26:39.398|56=ACCEPTOR|10=155|8=FIXT.1.1|9=62|35=0|34=121|49=INITIATOR|52=20190603-06:26:59.420|56=ACCEPTOR|10=144|8=FIXT.1.1|9=62|35=0|34=122|49=INITIATOR|52=20190603-06:27:19.442|56=ACCEPTOR|10=146|8=FIXT.1.1|9=62|35=0|34=123|49=INITIATOR|52=20190603-06:27:39.462|56=ACCEPTOR|10=151|8=FIXT.1.1|9=62|35=0|34=124|49=INITIATOR|52=20190603-06:27:59.483|56=ACCEPTOR|10=157|8=FIXT.1.1|9=62|35=0|34=125|49=INITIATOR|52=20190603-06:28:19.505|56=ACCEPTOR|10=150|8=FIXT.1.1|9=62|35=0|34=126|49=INITIATOR|52=20190603-06:28:39.527|56=ACCEPTOR|10=157|8=FIXT.1.1|9=62|35=0|34=127|49=INITIATOR|52=20190603-06:28:59.550|56=ACCEPTOR|10=156|8=FIXT.1.1|9=62|35=0|34=128|49=INITIATOR|52=20190603-06:29:19.572|56=ACCEPTOR|10=158|8=FIXT.1.1|9=62|35=0|34=129|49=INITIATOR|52=20190603-06:29:39.589|56=ACCEPTOR|10=169|8=FIXT.1.1|9=62|35=0|34=130|49=INITIATOR|52=20190603-06:29:59.609|56=ACCEPTOR|10=156|8=FIXT.1.1|9=62|35=0|34=131|49=INITIATOR|52=20190603-06:30:19.017|56=ACCEPTOR|10=138|8=FIXT.1.1|9=62|35=0|34=132|49=INITIATOR|52=20190603-06:30:39.652|56=ACCEPTOR|10=146|8=FIXT.1.1|9=62|35=0|34=133|49=INITIATOR|52=20190603-06:30:59.148|56=ACCEPTOR|10=149|8=FIXT.1.1|9=62|35=0|34=134|49=INITIATOR|52=20190603-06:31:19.694|56=ACCEPTOR|10=153|8=FIXT.1.1|9=62|35=0|34=135|49=INITIATOR|52=20190603-06:31:39.039|56=ACCEPTOR|10=149|8=FIXT.1.1|9=62|35=0|34=136|49=INITIATOR|52=20190603-06:31:59.734|56=ACCEPTOR|10=154|8=FIXT.1.1|9=62|35=0|34=137|49=INITIATOR|52=20190603-06:32:19.109|56=ACCEPTOR|10=148|8=FIXT.1.1|9=62|35=0|34=138|49=INITIATOR|52=20190603-06:32:39.779|56=ACCEPTOR|10=164|8=FIXT.1.1|9=62|35=0|34=139|49=INITIATOR|52=20190603-06:32:59.134|56=ACCEPTOR|10=152|8=FIXT.1.1|9=62|35=0|34=140|49=INITIATOR|52=20190603-06:33:19.822|56=ACCEPTOR|10=145|8=FIXT.1.1|9=62|35=0|34=141|49=INITIATOR|52=20190603-06:33:39.844|56=ACCEPTOR|10=152|8=FIXT.1.1|9=107|35=A|34=142|49=INITIATOR|52=20190603-06:34:07.872|56=ACCEPTOR|98=0|108=20|553=USERNAME|554=PASSWORD|1137=7|10=186|8=FIXT.1.1|9=107|35=A|34=143|49=INITIATOR|52=20190603-06:34:37.906|56=ACCEPTOR|98=0|108=20|553=USERNAME|554=PASSWORD|1137=7|10=188|8=FIXT.1.1|9=107|35=A|34=144|49=INITIATOR|52=20190603-06:35:07.937|56=ACCEPTOR|98=0|108=20|553=USERNAME|554=PASSWORD|1137=7|10=191|8=FIXT.1.1|9=107|35=A|34=145|49=INITIATOR|52=20190603-06:35:37.971|56=ACCEPTOR|98=0|108=20|553=USERNAME|554=PASSWORD|1137=7|10=193|8=FIXT.1.1|9=107|35=A|34=146|49=INITIATOR|52=20190603-06:36:08.004|56=ACCEPTOR|98=0|108=20|553=USERNAME|554=PASSWORD|1137=7|10=180|8=FIXT.1.1|9=107|35=A|34=147|49=INITIATOR|52=20190603-06:36:37.034|56=ACCEPTOR|98=0|108=20|553=USERNAME|554=PASSWORD|1137=7|10=186|8=FIXT.1.1|9=107|35=A|34=148|49=INITIATOR|52=20190603-06:37:07.065|56=ACCEPTOR|98=0|108=20|553=USERNAME|554=PASSWORD|1137=7|10=189|8=FIXT.1.1|9=107|35=A|34=149|49=INITIATOR|52=20190603-06:37:37.097|56=ACCEPTOR|98=0|108=20|553=USERNAME|554=PASSWORD|1137=7|10=198|8=FIXT.1.1|9=107|35=A|34=150|49=INITIATOR|52=20190603-06:38:07.129|56=ACCEPTOR|98=0|108=20|553=USERNAME|554=PASSWORD|1137=7|10=184|8=FIXT.1.1|9=107|35=A|34=151|49=INITIATOR|52=20190603-06:38:37.161|56=ACCEPTOR|98=0|108=20|553=USERNAME|554=PASSWORD|1137=7|10=184|8=FIXT.1.1|9=107|35=A|34=152|49=INITIATOR|52=20190603-06:39:07.193|56=ACCEPTOR|98=0|108=20|553=USERNAME|554=PASSWORD|1137=7|10=188|8=FIXT.1.1|9=107|35=A|34=153|49=INITIATOR|52=20190603-06:39:37.222|56=ACCEPTOR|98=0|108=20|553=USERNAME|554=PASSWORD|1137=7|10=185|8=FIXT.1.1|9=107|35=A|34=154|49=INITIATOR|52=20190603-06:40:07.252|56=ACCEPTOR|98=0|108=20|553=USERNAME|554=PASSWORD|1137=7|10=178|8=FIXT.1.1|9=107|35=A|34=155|49=INITIATOR|52=20190603-06:40:37.279|56=ACCEPTOR|98=0|108=20|553=USERNAME|554=PASSWORD|1137=7|10=191|8=FIXT.1.1|9=107|35=A|34=156|49=INITIATOR|52=20190603-06:41:07.301|56=ACCEPTOR|98=0|108=20|553=USERNAME|554=PASSWORD|1137=7|10=176|8=FIXT.1.1|9=107|35=A|34=157|49=INITIATOR|52=20190603-06:41:37.333|56=ACCEPTOR|98=0|108=20|553=USERNAME|554=PASSWORD|1137=7|10=185|8=FIXT.1.1|9=107|35=A|34=158|49=INITIATOR|52=20190603-06:42:07.362|56=ACCEPTOR|98=0|108=20|553=USERNAME|554=PASSWORD|1137=7|10=186|8=FIXT.1.1|9=107|35=A|34=159|49=INITIATOR|52=20190603-06:42:37.391|56=ACCEPTOR|98=0|108=20|553=USERNAME|554=PASSWORD|1137=7|10=192|8=FIXT.1.1|9=107|35=A|34=160|49=INITIATOR|52=20190603-06:43:07.420|56=ACCEPTOR|98=0|108=20|553=USERNAME|554=PASSWORD|1137=7|10=175|8=FIXT.1.1|9=107|35=A|34=161|49=INITIATOR|52=20190603-06:43:37.449|56=ACCEPTOR|98=0|108=20|553=USERNAME|554=PASSWORD|1137=7|10=190|8=FIXT.1.1|9=107|35=A|34=162|49=INITIATOR|52=20190603-06:44:07.478|56=ACCEPTOR|98=0|108=20|553=USERNAME|554=PASSWORD|1137=7|10=191|8=FIXT.1.1|9=107|35=A|34=163|49=INITIATOR|52=20190603-06:44:37.507|56=ACCEPTOR|98=0|108=20|553=USERNAME|554=PASSWORD|1137=7|10=188|8=FIXT.1.1|9=107|35=A|34=164|49=INITIATOR|52=20190603-06:45:07.537|56=ACCEPTOR|98=0|108=20|553=USERNAME|554=PASSWORD|1137=7|10=190|8=FIXT.1.1|9=107|35=A|34=165|49=INITIATOR|52=20190603-06:45:37.567|56=ACCEPTOR|98=0|108=20|553=USERNAME|554=PASSWORD|1137=7|10=197|8=FIXT.1.1|9=107|35=A|34=166|49=INITIATOR|52=20190603-06:46:07.596|56=ACCEPTOR|98=0|108=20|553=USERNAME|554=PASSWORD|1137=7|10=198|8=FIXT.1.1|9=107|35=A|34=167|49=INITIATOR|52=20190603-06:46:37.622|56=ACCEPTOR|98=0|108=20|553=USERNAME|554=PASSWORD|1137=7|10=192|8=FIXT.1.1|9=107|35=A|34=168|49=INITIATOR|52=20190603-06:47:07.651|56=ACCEPTOR|98=0|108=20|553=USERNAME|554=PASSWORD|1137=7|10=193|8=FIXT.1.1|9=107|35=A|34=169|49=INITIATOR|52=20190603-06:47:37.682|56=ACCEPTOR|98=0|108=20|553=USERNAME|554=PASSWORD|1137=7|10=201|8=FIXT.1.1|9=107|35=A|34=170|49=INITIATOR|52=20190603-06:48:07.713|56=ACCEPTOR|98=0|108=20|553=USERNAME|554=PASSWORD|1137=7|10=186|8=FIXT.1.1|9=107|35=A|34=171|49=INITIATOR|52=20190603-06:48:37.742|56=ACCEPTOR|98=0|108=20|553=USERNAME|554=PASSWORD|1137=7|10=192|8=FIXT.1.1|9=107|35=A|34=172|49=INITIATOR|52=20190603-06:49:07.770|56=ACCEPTOR|98=0|108=20|553=USERNAME|554=PASSWORD|1137=7|10=192|8=FIXT.1.1|9=107|35=A|34=173|49=INITIATOR|52=20190603-06:49:37.798|56=ACCEPTOR|98=0|108=20|553=USERNAME|554=PASSWORD|1137=7|10=206|8=FIXT.1.1|9=107|35=A|34=174|49=INITIATOR|52=20190603-06:50:07.828|56=ACCEPTOR|98=0|108=20|553=USERNAME|554=PASSWORD|1137=7|10=190|8=FIXT.1.1|9=107|35=A|34=175|49=INITIATOR|52=20190603-06:50:37.856|56=ACCEPTOR|98=0|108=20|553=USERNAME|554=PASSWORD|1137=7|10=195|8=FIXT.1.1|9=107|35=A|34=176|49=INITIATOR|52=20190603-06:51:07.886|56=ACCEPTOR|98=0|108=20|553=USERNAME|554=PASSWORD|1137=7|10=197|8=FIXT.1.1|9=107|35=A|34=177|49=INITIATOR|52=20190603-06:51:37.916|56=ACCEPTOR|98=0|108=20|553=USERNAME|554=PASSWORD|1137=7|10=195|8=FIXT.1.1|9=107|35=A|34=178|49=INITIATOR|52=20190603-06:52:07.945|56=ACCEPTOR|98=0|108=20|553=USERNAME|554=PASSWORD|1137=7|10=196|8=FIXT.1.1|9=107|35=A|34=179|49=INITIATOR|52=20190603-06:52:37.969|56=ACCEPTOR|98=0|108=20|553=USERNAME|554=PASSWORD|1137=7|10=206|8=FIXT.1.1|9=107|35=A|34=180|49=INITIATOR|52=20190603-06:53:08.001|56=ACCEPTOR|98=0|108=20|553=USERNAME|554=PASSWORD|1137=7|10=174|8=FIXT.1.1|9=107|35=A|34=181|49=INITIATOR|52=20190603-06:53:37.028|56=ACCEPTOR|98=0|108=20|553=USERNAME|554=PASSWORD|1137=7|10=186|8=FIXT.1.1|9=107|35=A|34=182|49=INITIATOR|52=20190603-06:54:07.058|56=ACCEPTOR|98=0|108=20|553=USERNAME|554=PASSWORD|1137=7|10=188|8=FIXT.1.1|9=107|35=A|34=183|49=INITIATOR|52=20190603-06:54:37.089|56=ACCEPTOR|98=0|108=20|553=USERNAME|554=PASSWORD|1137=7|10=196|8=FIXT.1.1|9=107|35=A|34=184|49=INITIATOR|52=20190603-06:55:07.118|56=ACCEPTOR|98=0|108=20|553=USERNAME|554=PASSWORD|1137=7|10=188|8=FIXT.1.1|9=107|35=A|34=185|49=INITIATOR|52=20190603-06:55:37.148|56=ACCEPTOR|98=0|108=20|553=USERNAME|554=PASSWORD|1137=7|10=195|8=FIXT.1.1|9=107|35=A|34=186|49=INITIATOR|52=20190603-06:56:07.179|56=ACCEPTOR|98=0|108=20|553=USERNAME|554=PASSWORD|1137=7|10=198|8=FIXT.1.1|9=107|35=A|34=187|49=INITIATOR|52=20190603-06:56:37.206|56=ACCEPTOR|98=0|108=20|553=USERNAME|554=PASSWORD|1137=7|10=193|8=FIXT.1.1|9=107|35=A|34=188|49=INITIATOR|52=20190603-06:57:07.236|56=ACCEPTOR|98=0|108=20|553=USERNAME|554=PASSWORD|1137=7|10=195|8=FIXT.1.1|9=107|35=A|34=189|49=INITIATOR|52=20190603-06:57:37.266|56=ACCEPTOR|98=0|108=20|553=USERNAME|554=PASSWORD|1137=7|10=202|8=FIXT.1.1|9=107|35=A|34=190|49=INITIATOR|52=20190603-06:58:07.293|56=ACCEPTOR|98=0|108=20|553=USERNAME|554=PASSWORD|1137=7|10=192|8=FIXT.1.1|9=107|35=A|34=191|49=INITIATOR|52=20190603-06:58:37.324|56=ACCEPTOR|98=0|108=20|553=USERNAME|554=PASSWORD|1137=7|10=191|8=FIXT.1.1|9=107|35=A|34=192|49=INITIATOR|52=20190603-06:59:07.353|56=ACCEPTOR|98=0|108=20|553=USERNAME|554=PASSWORD|1137=7|10=192|8=FIXT.1.1|9=107|35=A|34=193|49=INITIATOR|52=20190603-06:59:37.385|56=ACCEPTOR|98=0|108=20|553=USERNAME|554=PASSWORD|1137=7|10=201|8=FIXT.1.1|9=107|35=A|34=194|49=INITIATOR|52=20190603-07:00:07.415|56=ACCEPTOR|98=0|108=20|553=USERNAME|554=PASSWORD|1137=7|10=180|8=FIXT.1.1|9=107|35=A|34=195|49=INITIATOR|52=20190603-07:00:37.445|56=ACCEPTOR|98=0|108=20|553=USERNAME|554=PASSWORD|1137=7|10=187|8=FIXT.1.1|9=107|35=A|34=196|49=INITIATOR|52=20190603-07:01:07.475|56=ACCEPTOR|98=0|108=20|553=USERNAME|554=PASSWORD|1137=7|10=189|8=FIXT.1.1|9=107|35=A|34=197|49=INITIATOR|52=20190603-07:01:37.505|56=ACCEPTOR|98=0|108=20|553=USERNAME|554=PASSWORD|1137=7|10=187|8=FIXT.1.1|9=107|35=A|34=198|49=INITIATOR|52=20190603-07:02:07.533|56=ACCEPTOR|98=0|108=20|553=USERNAME|554=PASSWORD|1137=7|10=187|8=FIXT.1.1|9=107|35=A|34=199|49=INITIATOR|52=20190603-07:02:37.563|56=ACCEPTOR|98=0|108=20|553=USERNAME|554=PASSWORD|1137=7|10=194|8=FIXT.1.1|9=107|35=A|34=200|49=INITIATOR|52=20190603-07:03:07.594|56=ACCEPTOR|98=0|108=20|553=USERNAME|554=PASSWORD|1137=7|10=179|8=FIXT.1.1|9=107|35=A|34=201|49=INITIATOR|52=20190603-07:03:37.624|56=ACCEPTOR|98=0|108=20|553=USERNAME|554=PASSWORD|1137=7|10=177|8=FIXT.1.1|9=107|35=A|34=202|49=INITIATOR|52=20190603-07:04:07.653|56=ACCEPTOR|98=0|108=20|553=USERNAME|554=PASSWORD|1137=7|10=178|8=FIXT.1.1|9=107|35=A|34=203|49=INITIATOR|52=20190603-07:04:37.684|56=ACCEPTOR|98=0|108=20|553=USERNAME|554=PASSWORD|1137=7|10=186|8=FIXT.1.1|9=107|35=A|34=204|49=INITIATOR|52=20190603-07:05:07.712|56=ACCEPTOR|98=0|108=20|553=USERNAME|554=PASSWORD|1137=7|10=177|8=FIXT.1.1|9=107|35=A|34=205|49=INITIATOR|52=20190603-07:05:37.741|56=ACCEPTOR|98=0|108=20|553=USERNAME|554=PASSWORD|1137=7|10=183|8=FIXT.1.1|9=107|35=A|34=206|49=INITIATOR|52=20190603-07:06:07.768|56=ACCEPTOR|98=0|108=20|553=USERNAME|554=PASSWORD|1137=7|10=191|8=FIXT.1.1|9=107|35=A|34=207|49=INITIATOR|52=20190603-07:06:37.797|56=ACCEPTOR|98=0|108=20|553=USERNAME|554=PASSWORD|1137=7|10=197|8=FIXT.1.1|9=107|35=A|34=208|49=INITIATOR|52=20190603-07:07:07.821|56=ACCEPTOR|98=0|108=20|553=USERNAME|554=PASSWORD|1137=7|10=184|8=FIXT.1.1|9=107|35=A|34=209|49=INITIATOR|52=20190603-07:07:37.851|56=ACCEPTOR|98=0|108=20|553=USERNAME|554=PASSWORD|1137=7|10=191|8=FIXT.1.1|9=107|35=A|34=210|49=INITIATOR|52=20190603-07:08:07.878|56=ACCEPTOR|98=0|108=20|553=USERNAME|554=PASSWORD|1137=7|10=190|8=FIXT.1.1|9=107|35=A|34=211|49=INITIATOR|52=20190603-07:08:37.908|56=ACCEPTOR|98=0|108=20|553=USERNAME|554=PASSWORD|1137=7|10=188|8=FIXT.1.1|9=107|35=A|34=212|49=INITIATOR|52=20190603-07:09:07.935|56=ACCEPTOR|98=0|108=20|553=USERNAME|554=PASSWORD|1137=7|10=187|8=FIXT.1.1|9=107|35=A|34=213|49=INITIATOR|52=20190603-07:09:37.963|56=ACCEPTOR|98=0|108=20|553=USERNAME|554=PASSWORD|1137=7|10=192|8=FIXT.1.1|9=107|35=A|34=214|49=INITIATOR|52=20190603-07:10:07.992|56=ACCEPTOR|98=0|108=20|553=USERNAME|554=PASSWORD|1137=7|10=184|8=FIXT.1.1|9=107|35=A|34=215|49=INITIATOR|52=20190603-07:10:37.022|56=ACCEPTOR|98=0|108=20|553=USERNAME|554=PASSWORD|1137=7|10=172|8=FIXT.1.1|9=107|35=A|34=216|49=INITIATOR|52=20190603-07:11:07.050|56=ACCEPTOR|98=0|108=20|553=USERNAME|554=PASSWORD|1137=7|10=172|8=FIXT.1.1|9=107|35=A|34=217|49=INITIATOR|52=20190603-07:11:37.075|56=ACCEPTOR|98=0|108=20|553=USERNAME|554=PASSWORD|1137=7|10=183|8=FIXT.1.1|9=107|35=A|34=218|49=INITIATOR|52=20190603-07:12:07.107|56=ACCEPTOR|98=0|108=20|553=USERNAME|554=PASSWORD|1137=7|10=178|8=FIXT.1.1|9=107|35=A|34=219|49=INITIATOR|52=20190603-07:12:37.138|56=ACCEPTOR|98=0|108=20|553=USERNAME|554=PASSWORD|1137=7|10=186|8=FIXT.1.1|9=107|35=A|34=220|49=INITIATOR|52=20190603-07:13:07.168|56=ACCEPTOR|98=0|108=20|553=USERNAME|554=PASSWORD|1137=7|10=179|8=FIXT.1.1|9=107|35=A|34=221|49=INITIATOR|52=20190603-07:13:37.200|56=ACCEPTOR|98=0|108=20|553=USERNAME|554=PASSWORD|1137=7|10=170|8=FIXT.1.1|9=107|35=A|34=222|49=INITIATOR|52=20190603-07:14:07.230|56=ACCEPTOR|98=0|108=20|553=USERNAME|554=PASSWORD|1137=7|10=172|8=FIXT.1.1|9=107|35=A|34=223|49=INITIATOR|52=20190603-07:14:37.257|56=ACCEPTOR|98=0|108=20|553=USERNAME|554=PASSWORD|1137=7|10=185|8=FIXT.1.1|9=107|35=A|34=224|49=INITIATOR|52=20190603-07:15:07.288|56=ACCEPTOR|98=0|108=20|553=USERNAME|554=PASSWORD|1137=7|10=188|8=FIXT.1.1|9=107|35=A|34=225|49=INITIATOR|52=20190603-07:15:37.318|56=ACCEPTOR|98=0|108=20|553=USERNAME|554=PASSWORD|1137=7|10=186|8=FIXT.1.1|9=107|35=A|34=226|49=INITIATOR|52=20190603-07:16:07.347|56=ACCEPTOR|98=0|108=20|553=USERNAME|554=PASSWORD|1137=7|10=187|8=FIXT.1.1|9=107|35=A|34=227|49=INITIATOR|52=20190603-07:16:37.379|56=ACCEPTOR|98=0|108=20|553=USERNAME|554=PASSWORD|1137=7|10=196|8=FIXT.1.1|9=107|35=A|34=228|49=INITIATOR|52=20190603-07:17:07.409|56=ACCEPTOR|98=0|108=20|553=USERNAME|554=PASSWORD|1137=7|10=189|8=FIXT.1.1|9=107|35=A|34=229|49=INITIATOR|52=20190603-07:17:37.441|56=ACCEPTOR|98=0|108=20|553=USERNAME|554=PASSWORD|1137=7|10=189|8=FIXT.1.1|9=107|35=A|34=230|49=INITIATOR|52=20190603-07:18:07.471|56=ACCEPTOR|98=0|108=20|553=USERNAME|554=PASSWORD|1137=7|10=182|8=FIXT.1.1|9=107|35=A|34=231|49=INITIATOR|52=20190603-07:18:37.501|56=ACCEPTOR|98=0|108=20|553=USERNAME|554=PASSWORD|1137=7|10=180|8=FIXT.1.1|9=107|35=A|34=232|49=INITIATOR|52=20190603-07:19:07.533|56=ACCEPTOR|98=0|108=20|553=USERNAME|554=PASSWORD|1137=7|10=184|8=FIXT.1.1|9=107|35=A|34=233|49=INITIATOR|52=20190603-07:19:37.565|56=ACCEPTOR|98=0|108=20|553=USERNAME|554=PASSWORD|1137=7|10=193|8=FIXT.1.1|9=107|35=A|34=234|49=INITIATOR|52=20190603-07:20:07.599|56=ACCEPTOR|98=0|108=20|553=USERNAME|554=PASSWORD|1137=7|10=190|8=FIXT.1.1|9=107|35=A|34=235|49=INITIATOR|52=20190603-07:20:37.629|56=ACCEPTOR|98=0|108=20|553=USERNAME|554=PASSWORD|1137=7|10=188|8=FIXT.1.1|9=107|35=A|34=236|49=INITIATOR|52=20190603-07:21:07.661|56=ACCEPTOR|98=0|108=20|553=USERNAME|554=PASSWORD|1137=7|10=183|8=FIXT.1.1|9=107|35=A|34=237|49=INITIATOR|52=20190603-07:21:37.692|56=ACCEPTOR|98=0|108=20|553=USERNAME|554=PASSWORD|1137=7|10=191|8=FIXT.1.1|9=107|35=A|34=238|49=INITIATOR|52=20190603-07:22:07.721|56=ACCEPTOR|98=0|108=20|553=USERNAME|554=PASSWORD|1137=7|10=183|8=FIXT.1.1|9=107|35=A|34=239|49=INITIATOR|52=20190603-07:22:37.752|56=ACCEPTOR|98=0|108=20|553=USERNAME|554=PASSWORD|1137=7|10=191|8=FIXT.1.1|9=107|35=A|34=240|49=INITIATOR|52=20190603-07:23:07.782|56=ACCEPTOR|98=0|108=20|553=USERNAME|554=PASSWORD|1137=7|10=184|8=FIXT.1.1|9=107|35=A|34=241|49=INITIATOR|52=20190603-07:23:37.813|56=ACCEPTOR|98=0|108=20|553=USERNAME|554=PASSWORD|1137=7|10=183|8=FIXT.1.1|9=107|35=A|34=242|49=INITIATOR|52=20190603-07:24:07.845|56=ACCEPTOR|98=0|108=20|553=USERNAME|554=PASSWORD|1137=7|10=187|8=FIXT.1.1|9=107|35=A|34=243|49=INITIATOR|52=20190603-07:24:37.878|56=ACCEPTOR|98=0|108=20|553=USERNAME|554=PASSWORD|1137=7|10=197|8=FIXT.1.1|9=107|35=A|34=244|49=INITIATOR|52=20190603-07:25:07.909|56=ACCEPTOR|98=0|108=20|553=USERNAME|554=PASSWORD|1137=7|10=191|8=FIXT.1.1|9=107|35=A|34=245|49=INITIATOR|52=20190603-07:25:37.940|56=ACCEPTOR|98=0|108=20|553=USERNAME|554=PASSWORD|1137=7|10=190|8=FIXT.1.1|9=107|35=A|34=246|49=INITIATOR|52=20190603-07:26:07.969|56=ACCEPTOR|98=0|108=20|553=USERNAME|554=PASSWORD|1137=7|10=200|8=FIXT.1.1|9=107|35=A|34=247|49=INITIATOR|52=20190603-07:26:38.000|56=ACCEPTOR|98=0|108=20|553=USERNAME|554=PASSWORD|1137=7|10=181|8=FIXT.1.1|9=107|35=A|34=248|49=INITIATOR|52=20190603-07:27:07.022|56=ACCEPTOR|98=0|108=20|553=USERNAME|554=PASSWORD|1137=7|10=183|8=FIXT.1.1|9=107|35=A|34=249|49=INITIATOR|52=20190603-07:27:37.051|56=ACCEPTOR|98=0|108=20|553=USERNAME|554=PASSWORD|1137=7|10=189|8=FIXT.1.1|9=107|35=A|34=250|49=INITIATOR|52=20190603-07:28:07.081|56=ACCEPTOR|98=0|108=20|553=USERNAME|554=PASSWORD|1137=7|10=182|8=FIXT.1.1|9=107|35=A|34=251|49=INITIATOR|52=20190603-07:28:37.112|56=ACCEPTOR|98=0|108=20|553=USERNAME|554=PASSWORD|1137=7|10=181|8=FIXT.1.1|9=107|35=A|34=252|49=INITIATOR|52=20190603-07:29:07.141|56=ACCEPTOR|98=0|108=20|553=USERNAME|554=PASSWORD|1137=7|10=182|8=FIXT.1.1|9=107|35=A|34=253|49=INITIATOR|52=20190603-07:29:37.173|56=ACCEPTOR|98=0|108=20|553=USERNAME|554=PASSWORD|1137=7|10=191|8=FIXT.1.1|9=107|35=A|34=254|49=INITIATOR|52=20190603-07:30:07.205|56=ACCEPTOR|98=0|108=20|553=USERNAME|554=PASSWORD|1137=7|10=177|8=FIXT.1.1|9=107|35=A|34=255|49=INITIATOR|52=20190603-07:30:37.235|56=ACCEPTOR|98=0|108=20|553=USERNAME|554=PASSWORD|1137=7|10=184|8=FIXT.1.1|9=107|35=A|34=256|49=INITIATOR|52=20190603-07:31:07.267|56=ACCEPTOR|98=0|108=20|553=USERNAME|554=PASSWORD|1137=7|10=188|8=FIXT.1.1|9=107|35=A|34=257|49=INITIATOR|52=20190603-07:31:37.298|56=ACCEPTOR|98=0|108=20|553=USERNAME|554=PASSWORD|1137=7|10=196|8=FIXT.1.1|9=107|35=A|34=258|49=INITIATOR|52=20190603-07:32:07.330|56=ACCEPTOR|98=0|108=20|553=USERNAME|554=PASSWORD|1137=7|10=182|8=FIXT.1.1|9=107|35=A|34=259|49=INITIATOR|52=20190603-07:32:37.362|56=ACCEPTOR|98=0|108=20|553=USERNAME|554=PASSWORD|1137=7|10=191|8=FIXT.1.1|9=107|35=A|34=260|49=INITIATOR|52=20190603-07:33:07.393|56=ACCEPTOR|98=0|108=20|553=USERNAME|554=PASSWORD|1137=7|10=185|8=FIXT.1.1|9=107|35=A|34=261|49=INITIATOR|52=20190603-07:33:37.427|56=ACCEPTOR|98=0|108=20|553=USERNAME|554=PASSWORD|1137=7|10=187|8=FIXT.1.1|9=107|35=A|34=262|49=INITIATOR|52=20190603-07:34:07.458|56=ACCEPTOR|98=0|108=20|553=USERNAME|554=PASSWORD|1137=7|10=190|8=FIXT.1.1|9=107|35=A|34=263|49=INITIATOR|52=20190603-07:34:37.488|56=ACCEPTOR|98=0|108=20|553=USERNAME|554=PASSWORD|1137=7|10=197|8=FIXT.1.1|9=107|35=A|34=264|49=INITIATOR|52=20190603-07:35:07.518|56=ACCEPTOR|98=0|108=20|553=USERNAME|554=PASSWORD|1137=7|10=190|8=FIXT.1.1|9=107|35=A|34=265|49=INITIATOR|52=20190603-07:35:37.549|56=ACCEPTOR|98=0|108=20|553=USERNAME|554=PASSWORD|1137=7|10=198|8=FIXT.1.1|9=107|35=A|34=266|49=INITIATOR|52=20190603-07:36:07.579|56=ACCEPTOR|98=0|108=20|553=USERNAME|554=PASSWORD|1137=7|10=200|8=FIXT.1.1|9=107|35=A|34=267|49=INITIATOR|52=20190603-07:36:37.608|56=ACCEPTOR|98=0|108=20|553=USERNAME|554=PASSWORD|1137=7|10=197|8=FIXT.1.1|9=107|35=A|34=268|49=INITIATOR|52=20190603-07:37:07.637|56=ACCEPTOR|98=0|108=20|553=USERNAME|554=PASSWORD|1137=7|10=198|8=FIXT.1.1|9=107|35=A|34=269|49=INITIATOR|52=20190603-07:37:37.669|56=ACCEPTOR|98=0|108=20|553=USERNAME|554=PASSWORD|1137=7|10=207|8=FIXT.1.1|9=107|35=A|34=270|49=INITIATOR|52=20190603-07:38:07.701|56=ACCEPTOR|98=0|108=20|553=USERNAME|554=PASSWORD|1137=7|10=184|8=FIXT.1.1|9=107|35=A|34=271|49=INITIATOR|52=20190603-07:38:37.717|56=ACCEPTOR|98=0|108=20|553=USERNAME|554=PASSWORD|1137=7|10=195|8=FIXT.1.1|9=107|35=A|34=272|49=INITIATOR|52=20190603-07:39:07.750|56=ACCEPTOR|98=0|108=20|553=USERNAME|554=PASSWORD|1137=7|10=191|8=FIXT.1.1|9=107|35=A|34=273|49=INITIATOR|52=20190603-07:39:37.781|56=ACCEPTOR|98=0|108=20|553=USERNAME|554=PASSWORD|1137=7|10=199|8=FIXT.1.1|9=107|35=A|34=274|49=INITIATOR|52=20190603-07:40:07.814|56=ACCEPTOR|98=0|108=20|553=USERNAME|554=PASSWORD|1137=7|10=186|8=FIXT.1.1|9=107|35=A|34=275|49=INITIATOR|52=20190603-07:40:37.847|56=ACCEPTOR|98=0|108=20|553=USERNAME|554=PASSWORD|1137=7|10=196|8=FIXT.1.1|9=107|35=A|34=276|49=INITIATOR|52=20190603-07:41:07.879|56=ACCEPTOR|98=0|108=20|553=USERNAME|554=PASSWORD|1137=7|10=200|8=FIXT.1.1|9=107|35=A|34=277|49=INITIATOR|52=20190603-07:41:37.913|56=ACCEPTOR|98=0|108=20|553=USERNAME|554=PASSWORD|1137=7|10=193|8=FIXT.1.1|9=107|35=A|34=278|49=INITIATOR|52=20190603-07:42:07.944|56=ACCEPTOR|98=0|108=20|553=USERNAME|554=PASSWORD|1137=7|10=196|8=FIXT.1.1|9=107|35=A|34=279|49=INITIATOR|52=20190603-07:42:37.975|56=ACCEPTOR|98=0|108=20|553=USERNAME|554=PASSWORD|1137=7|10=204|8=FIXT.1.1|9=107|35=A|34=280|49=INITIATOR|52=20190603-07:43:07.006|56=ACCEPTOR|98=0|108=20|553=USERNAME|554=PASSWORD|1137=7|10=179|8=FIXT.1.1|9=107|35=A|34=281|49=INITIATOR|52=20190603-07:43:37.034|56=ACCEPTOR|98=0|108=20|553=USERNAME|554=PASSWORD|1137=7|10=184|8=FIXT.1.1|9=107|35=A|34=282|49=INITIATOR|52=20190603-07:44:07.062|56=ACCEPTOR|98=0|108=20|553=USERNAME|554=PASSWORD|1137=7|10=184|8=FIXT.1.1|9=107|35=A|34=283|49=INITIATOR|52=20190603-07:44:37.091|56=ACCEPTOR|98=0|108=20|553=USERNAME|554=PASSWORD|1137=7|10=190|8=FIXT.1.1|9=107|35=A|34=284|49=INITIATOR|52=20190603-07:45:07.123|56=ACCEPTOR|98=0|108=20|553=USERNAME|554=PASSWORD|1137=7|10=185|8=FIXT.1.1|9=107|35=A|34=285|49=INITIATOR|52=20190603-07:45:37.153|56=ACCEPTOR|98=0|108=20|553=USERNAME|554=PASSWORD|1137=7|10=192|8=FIXT.1.1|9=107|35=A|34=286|49=INITIATOR|52=20190603-07:46:07.184|56=ACCEPTOR|98=0|108=20|553=USERNAME|554=PASSWORD|1137=7|10=195|8=FIXT.1.1|9=107|35=A|34=287|49=INITIATOR|52=20190603-07:46:37.215|56=ACCEPTOR|98=0|108=20|553=USERNAME|554=PASSWORD|1137=7|10=194|8=FIXT.1.1|9=107|35=A|34=288|49=INITIATOR|52=20190603-07:47:07.247|56=ACCEPTOR|98=0|108=20|553=USERNAME|554=PASSWORD|1137=7|10=198|8=FIXT.1.1|9=107|35=A|34=289|49=INITIATOR|52=20190603-07:47:37.280|56=ACCEPTOR|98=0|108=20|553=USERNAME|554=PASSWORD|1137=7|10=199|8=FIXT.1.1|9=107|35=A|34=290|49=INITIATOR|52=20190603-07:48:07.313|56=ACCEPTOR|98=0|108=20|553=USERNAME|554=PASSWORD|1137=7|10=186|8=FIXT.1.1|9=107|35=A|34=291|49=INITIATOR|52=20190603-07:48:37.345|56=ACCEPTOR|98=0|108=20|553=USERNAME|554=PASSWORD|1137=7|10=195|8=FIXT.1.1|9=107|35=A|34=292|49=INITIATOR|52=20190603-07:49:07.377|56=ACCEPTOR|98=0|108=20|553=USERNAME|554=PASSWORD|1137=7|10=199|8=FIXT.1.1|9=107|35=A|34=293|49=INITIATOR|52=20190603-07:49:37.409|56=ACCEPTOR|98=0|108=20|553=USERNAME|554=PASSWORD|1137=7|10=199|8=FIXT.1.1|9=107|35=A|34=294|49=INITIATOR|52=20190603-07:50:07.440|56=ACCEPTOR|98=0|108=20|553=USERNAME|554=PASSWORD|1137=7|10=184|8=FIXT.1.1|9=107|35=A|34=295|49=INITIATOR|52=20190603-07:50:37.473|56=ACCEPTOR|98=0|108=20|553=USERNAME|554=PASSWORD|1137=7|10=194|8=FIXT.1.1|9=107|35=A|34=296|49=INITIATOR|52=20190603-07:51:07.505|56=ACCEPTOR|98=0|108=20|553=USERNAME|554=PASSWORD|1137=7|10=189|8=FIXT.1.1|9=107|35=A|34=297|49=INITIATOR|52=20190603-07:51:37.537|56=ACCEPTOR|98=0|108=20|553=USERNAME|554=PASSWORD|1137=7|10=198|8=FIXT.1.1|9=107|35=A|34=298|49=INITIATOR|52=20190603-07:52:07.566|56=ACCEPTOR|98=0|108=20|553=USERNAME|554=PASSWORD|1137=7|10=199|8=FIXT.1.1|9=107|35=A|34=299|49=INITIATOR|52=20190603-07:52:37.593|56=ACCEPTOR|98=0|108=20|553=USERNAME|554=PASSWORD|1137=7|10=203|8=FIXT.1.1|9=107|35=A|34=300|49=INITIATOR|52=20190603-07:53:07.624|56=ACCEPTOR|98=0|108=20|553=USERNAME|554=PASSWORD|1137=7|10=179|8=FIXT.1.1|9=107|35=A|34=301|49=INITIATOR|52=20190603-07:53:37.652|56=ACCEPTOR|98=0|108=20|553=USERNAME|554=PASSWORD|1137=7|10=184|8=FIXT.1.1|9=107|35=A|34=302|49=INITIATOR|52=20190603-07:54:07.682|56=ACCEPTOR|98=0|108=20|553=USERNAME|554=PASSWORD|1137=7|10=186|8=FIXT.1.1|9=107|35=A|34=303|49=INITIATOR|52=20190603-07:54:37.713|56=ACCEPTOR|98=0|108=20|553=USERNAME|554=PASSWORD|1137=7|10=185|8=FIXT.1.1|9=107|35=A|34=304|49=INITIATOR|52=20190603-07:55:07.742|56=ACCEPTOR|98=0|108=20|553=USERNAME|554=PASSWORD|1137=7|10=186|8=FIXT.1.1|9=107|35=A|34=305|49=INITIATOR|52=20190603-07:55:37.773|56=ACCEPTOR|98=0|108=20|553=USERNAME|554=PASSWORD|1137=7|10=194|8=FIXT.1.1|9=107|35=A|34=306|49=INITIATOR|52=20190603-07:56:07.806|56=ACCEPTOR|98=0|108=20|553=USERNAME|554=PASSWORD|1137=7|10=190|8=FIXT.1.1|9=107|35=A|34=307|49=INITIATOR|52=20190603-07:56:37.838|56=ACCEPTOR|98=0|108=20|553=USERNAME|554=PASSWORD|1137=7|10=199|8=FIXT.1.1|9=107|35=A|34=308|49=INITIATOR|52=20190603-07:57:07.870|56=ACCEPTOR|98=0|108=20|553=USERNAME|554=PASSWORD|1137=7|10=194|8=FIXT.1.1|9=107|35=A|34=309|49=INITIATOR|52=20190603-07:57:37.900|56=ACCEPTOR|98=0|108=20|553=USERNAME|554=PASSWORD|1137=7|10=192|8=FIXT.1.1|9=107|35=A|34=310|49=INITIATOR|52=20190603-07:58:07.930|56=ACCEPTOR|98=0|108=20|553=USERNAME|554=PASSWORD|1137=7|10=185|8=FIXT.1.1|9=107|35=A|34=311|49=INITIATOR|52=20190603-07:58:37.961|56=ACCEPTOR|98=0|108=20|553=USERNAME|554=PASSWORD|1137=7|10=193|8=FIXT.1.1|9=107|35=A|34=312|49=INITIATOR|52=20190603-07:59:07.994|56=ACCEPTOR|98=0|108=20|553=USERNAME|554=PASSWORD|1137=7|10=198|8=FIXT.1.1|9=107|35=A|34=313|49=INITIATOR|52=20190603-07:59:37.025|56=ACCEPTOR|98=0|108=20|553=USERNAME|554=PASSWORD|1137=7|10=187|8=FIXT.1.1|9=107|35=A|34=314|49=INITIATOR|52=20190603-08:00:07.055|56=ACCEPTOR|98=0|108=20|553=USERNAME|554=PASSWORD|1137=7|10=175|8=FIXT.1.1|9=107|35=A|34=315|49=INITIATOR|52=20190603-08:00:37.087|56=ACCEPTOR|98=0|108=20|553=USERNAME|554=PASSWORD|1137=7|10=184|8=FIXT.1.1|9=107|35=A|34=316|49=INITIATOR|52=20190603-08:01:07.118|56=ACCEPTOR|98=0|108=20|553=USERNAME|554=PASSWORD|1137=7|10=178|8=FIXT.1.1|9=107|35=A|34=317|49=INITIATOR|52=20190603-08:01:37.148|56=ACCEPTOR|98=0|108=20|553=USERNAME|554=PASSWORD|1137=7|10=185|8=FIXT.1.1|9=107|35=A|34=318|49=INITIATOR|52=20190603-08:02:07.178|56=ACCEPTOR|98=0|108=20|553=USERNAME|554=PASSWORD|1137=7|10=187|8=FIXT.1.1|9=107|35=A|34=319|49=INITIATOR|52=20190603-08:02:37.203|56=ACCEPTOR|98=0|108=20|553=USERNAME|554=PASSWORD|1137=7|10=180|8=FIXT.1.1|9=107|35=A|34=320|49=INITIATOR|52=20190603-08:03:07.235|56=ACCEPTOR|98=0|108=20|553=USERNAME|554=PASSWORD|1137=7|10=175|8=FIXT.1.1|9=107|35=A|34=321|49=INITIATOR|52=20190603-08:03:37.266|56=ACCEPTOR|98=0|108=20|553=USERNAME|554=PASSWORD|1137=7|10=183|8=FIXT.1.1|9=107|35=A|34=322|49=INITIATOR|52=20190603-08:04:07.298|56=ACCEPTOR|98=0|108=20|553=USERNAME|554=PASSWORD|1137=7|10=187|8=FIXT.1.1|9=107|35=A|34=323|49=INITIATOR|52=20190603-08:04:37.329|56=ACCEPTOR|98=0|108=20|553=USERNAME|554=PASSWORD|1137=7|10=186|8=FIXT.1.1|9=107|35=A|34=324|49=INITIATOR|52=20190603-08:05:07.358|56=ACCEPTOR|98=0|108=20|553=USERNAME|554=PASSWORD|1137=7|10=187|8=FIXT.1.1|9=107|35=A|34=325|49=INITIATOR|52=20190603-08:05:37.389|56=ACCEPTOR|98=0|108=20|553=USERNAME|554=PASSWORD|1137=7|10=195|8=FIXT.1.1|9=107|35=A|34=326|49=INITIATOR|52=20190603-08:06:07.421|56=ACCEPTOR|98=0|108=20|553=USERNAME|554=PASSWORD|1137=7|10=181|8=FIXT.1.1|9=107|35=A|34=327|49=INITIATOR|52=20190603-08:06:37.453|56=ACCEPTOR|98=0|108=20|553=USERNAME|554=PASSWORD|1137=7|10=190|8=FIXT.1.1|9=107|35=A|34=328|49=INITIATOR|52=20190603-08:07:07.481|56=ACCEPTOR|98=0|108=20|553=USERNAME|554=PASSWORD|1137=7|10=190|8=FIXT.1.1|9=107|35=A|34=329|49=INITIATOR|52=20190603-08:07:37.513|56=ACCEPTOR|98=0|108=20|553=USERNAME|554=PASSWORD|1137=7|10=190|8=FIXT.1.1|9=107|35=A|34=330|49=INITIATOR|52=20190603-08:08:07.545|56=ACCEPTOR|98=0|108=20|553=USERNAME|554=PASSWORD|1137=7|10=185|8=FIXT.1.1|9=107|35=A|34=331|49=INITIATOR|52=20190603-08:08:37.577|56=ACCEPTOR|98=0|108=20|553=USERNAME|554=PASSWORD|1137=7|10=194|8=FIXT.1.1|9=107|35=A|34=332|49=INITIATOR|52=20190603-08:09:07.610|56=ACCEPTOR|98=0|108=20|553=USERNAME|554=PASSWORD|1137=7|10=181|8=FIXT.1.1|9=107|35=A|34=333|49=INITIATOR|52=20190603-08:09:37.640|56=ACCEPTOR|98=0|108=20|553=USERNAME|554=PASSWORD|1137=7|10=188|8=FIXT.1.1|9=107|35=A|34=334|49=INITIATOR|52=20190603-08:10:07.671|56=ACCEPTOR|98=0|108=20|553=USERNAME|554=PASSWORD|1137=7|10=182|8=FIXT.1.1|9=107|35=A|34=335|49=INITIATOR|52=20190603-08:10:37.701|56=ACCEPTOR|98=0|108=20|553=USERNAME|554=PASSWORD|1137=7|10=180|8=FIXT.1.1|9=107|35=A|34=336|49=INITIATOR|52=20190603-08:11:07.729|56=ACCEPTOR|98=0|108=20|553=USERNAME|554=PASSWORD|1137=7|10=189|8=FIXT.1.1|9=107|35=A|34=337|49=INITIATOR|52=20190603-08:11:37.760|56=ACCEPTOR|98=0|108=20|553=USERNAME|554=PASSWORD|1137=7|10=188|8=FIXT.1.1|9=107|35=A|34=338|49=INITIATOR|52=20190603-08:12:07.789|56=ACCEPTOR|98=0|108=20|553=USERNAME|554=PASSWORD|1137=7|10=198|8=FIXT.1.1|9=107|35=A|34=339|49=INITIATOR|52=20190603-08:12:37.818|56=ACCEPTOR|98=0|108=20|553=USERNAME|554=PASSWORD|1137=7|10=195|8=FIXT.1.1|9=107|35=A|34=340|49=INITIATOR|52=20190603-08:13:07.849|56=ACCEPTOR|98=0|108=20|553=USERNAME|554=PASSWORD|1137=7|10=189|8=FIXT.1.1|9=107|35=A|34=341|49=INITIATOR|52=20190603-08:13:37.879|56=ACCEPTOR|98=0|108=20|553=USERNAME|554=PASSWORD|1137=7|10=196|8=FIXT.1.1|9=107|35=A|34=342|49=INITIATOR|52=20190603-08:14:07.909|56=ACCEPTOR|98=0|108=20|553=USERNAME|554=PASSWORD|1137=7|10=189|8=FIXT.1.1|9=107|35=A|34=343|49=INITIATOR|52=20190603-08:14:37.941|56=ACCEPTOR|98=0|108=20|553=USERNAME|554=PASSWORD|1137=7|10=189|8=FIXT.1.1|9=107|35=A|34=344|49=INITIATOR|52=20190603-08:15:07.973|56=ACCEPTOR|98=0|108=20|553=USERNAME|554=PASSWORD|1137=7|10=193|8=FIXT.1.1|9=107|35=A|34=345|49=INITIATOR|52=20190603-08:15:38.004|56=ACCEPTOR|98=0|108=20|553=USERNAME|554=PASSWORD|1137=7|10=183|8=FIXT.1.1|9=107|35=A|34=346|49=INITIATOR|52=20190603-08:16:07.034|56=ACCEPTOR|98=0|108=20|553=USERNAME|554=PASSWORD|1137=7|10=184|8=FIXT.1.1|9=107|35=A|34=347|49=INITIATOR|52=20190603-08:16:37.065|56=ACCEPTOR|98=0|108=20|553=USERNAME|554=PASSWORD|1137=7|10=192|8=FIXT.1.1|9=107|35=A|34=348|49=INITIATOR|52=20190603-08:17:07.094|56=ACCEPTOR|98=0|108=20|553=USERNAME|554=PASSWORD|1137=7|10=193|8=FIXT.1.1|9=107|35=A|34=349|49=INITIATOR|52=20190603-08:17:37.124|56=ACCEPTOR|98=0|108=20|553=USERNAME|554=PASSWORD|1137=7|10=191|8=FIXT.1.1|9=107|35=A|34=350|49=INITIATOR|52=20190603-08:18:07.156|56=ACCEPTOR|98=0|108=20|553=USERNAME|554=PASSWORD|1137=7|10=186|8=FIXT.1.1|9=107|35=A|34=351|49=INITIATOR|52=20190603-08:18:37.189|56=ACCEPTOR|98=0|108=20|553=USERNAME|554=PASSWORD|1137=7|10=196|8=FIXT.1.1|9=107|35=A|34=352|49=INITIATOR|52=20190603-08:19:07.221|56=ACCEPTOR|98=0|108=20|553=USERNAME|554=PASSWORD|1137=7|10=182|8=FIXT.1.1|9=107|35=A|34=353|49=INITIATOR|52=20190603-08:19:37.253|56=ACCEPTOR|98=0|108=20|553=USERNAME|554=PASSWORD|1137=7|10=191|8=FIXT.1.1|9=107|35=A|34=354|49=INITIATOR|52=20190603-08:20:07.284|56=ACCEPTOR|98=0|108=20|553=USERNAME|554=PASSWORD|1137=7|10=185|8=FIXT.1.1|9=107|35=A|34=355|49=INITIATOR|52=20190603-08:20:37.316|56=ACCEPTOR|98=0|108=20|553=USERNAME|554=PASSWORD|1137=7|10=185|8=FIXT.1.1|9=107|35=A|34=356|49=INITIATOR|52=20190603-08:21:07.348|56=ACCEPTOR|98=0|108=20|553=USERNAME|554=PASSWORD|1137=7|10=189|8=FIXT.1.1|9=107|35=A|34=357|49=INITIATOR|52=20190603-08:21:37.381|56=ACCEPTOR|98=0|108=20|553=USERNAME|554=PASSWORD|1137=7|10=190|8=FIXT.1.1|9=107|35=A|34=358|49=INITIATOR|52=20190603-08:22:07.414|56=ACCEPTOR|98=0|108=20|553=USERNAME|554=PASSWORD|1137=7|10=186|8=FIXT.1.1|9=107|35=A|34=359|49=INITIATOR|52=20190603-08:22:37.445|56=ACCEPTOR|98=0|108=20|553=USERNAME|554=PASSWORD|1137=7|10=194|8=FIXT.1.1|9=107|35=A|34=360|49=INITIATOR|52=20190603-08:23:07.476|56=ACCEPTOR|98=0|108=20|553=USERNAME|554=PASSWORD|1137=7|10=188|8=FIXT.1.1|9=107|35=A|34=361|49=INITIATOR|52=20190603-08:23:37.507|56=ACCEPTOR|98=0|108=20|553=USERNAME|554=PASSWORD|1137=7|10=187|8=FIXT.1.1|9=107|35=A|34=362|49=INITIATOR|52=20190603-08:24:07.538|56=ACCEPTOR|98=0|108=20|553=USERNAME|554=PASSWORD|1137=7|10=190|8=FIXT.1.1|9=107|35=A|34=363|49=INITIATOR|52=20190603-08:24:37.569|56=ACCEPTOR|98=0|108=20|553=USERNAME|554=PASSWORD|1137=7|10=198|8=FIXT.1.1|9=107|35=A|34=364|49=INITIATOR|52=20190603-08:25:07.600|56=ACCEPTOR|98=0|108=20|553=USERNAME|554=PASSWORD|1137=7|10=183|8=FIXT.1.1|9=107|35=A|34=365|49=INITIATOR|52=20190603-08:25:37.629|56=ACCEPTOR|98=0|108=20|553=USERNAME|554=PASSWORD|1137=7|10=198|8=FIXT.1.1|9=107|35=A|34=366|49=INITIATOR|52=20190603-08:26:07.660|56=ACCEPTOR|98=0|108=20|553=USERNAME|554=PASSWORD|1137=7|10=192|8=FIXT.1.1|9=107|35=A|34=367|49=INITIATOR|52=20190603-08:26:37.691|56=ACCEPTOR|98=0|108=20|553=USERNAME|554=PASSWORD|1137=7|10=200|8=FIXT.1.1|9=107|35=A|34=368|49=INITIATOR|52=20190603-08:27:07.722|56=ACCEPTOR|98=0|108=20|553=USERNAME|554=PASSWORD|1137=7|10=194|8=FIXT.1.1|9=107|35=A|34=369|49=INITIATOR|52=20190603-08:27:37.752|56=ACCEPTOR|98=0|108=20|553=USERNAME|554=PASSWORD|1137=7|10=201|8=FIXT.1.1|9=107|35=A|34=370|49=INITIATOR|52=20190603-08:28:07.784|56=ACCEPTOR|98=0|108=20|553=USERNAME|554=PASSWORD|1137=7|10=196|8=FIXT.1.1|9=107|35=A|34=371|49=INITIATOR|52=20190603-08:28:37.815|56=ACCEPTOR|98=0|108=20|553=USERNAME|554=PASSWORD|1137=7|10=195|8=FIXT.1.1|9=107|35=A|34=372|49=INITIATOR|52=20190603-08:29:07.848|56=ACCEPTOR|98=0|108=20|553=USERNAME|554=PASSWORD|1137=7|10=200|8=FIXT.1.1|9=107|35=A|34=373|49=INITIATOR|52=20190603-08:29:37.880|56=ACCEPTOR|98=0|108=20|553=USERNAME|554=PASSWORD|1137=7|10=200|8=FIXT.1.1|9=107|35=A|34=374|49=INITIATOR|52=20190603-08:30:07.913|56=ACCEPTOR|98=0|108=20|553=USERNAME|554=PASSWORD|1137=7|10=187|8=FIXT.1.1|9=107|35=A|34=375|49=INITIATOR|52=20190603-08:30:37.944|56=ACCEPTOR|98=0|108=20|553=USERNAME|554=PASSWORD|1137=7|10=195|8=FIXT.1.1|9=107|35=A|34=376|49=INITIATOR|52=20190603-08:31:07.976|56=ACCEPTOR|98=0|108=20|553=USERNAME|554=PASSWORD|1137=7|10=199|8=FIXT.1.1|9=107|35=A|34=377|49=INITIATOR|52=20190603-08:31:37.002|56=ACCEPTOR|98=0|108=20|553=USERNAME|554=PASSWORD|1137=7|10=183|8=FIXT.1.1|9=107|35=A|34=378|49=INITIATOR|52=20190603-08:32:07.034|56=ACCEPTOR|98=0|108=20|553=USERNAME|554=PASSWORD|1137=7|10=187|8=FIXT.1.1|9=107|35=A|34=379|49=INITIATOR|52=20190603-08:32:37.065|56=ACCEPTOR|98=0|108=20|553=USERNAME|554=PASSWORD|1137=7|10=195|8=FIXT.1.1|9=107|35=A|34=380|49=INITIATOR|52=20190603-08:33:07.097|56=ACCEPTOR|98=0|108=20|553=USERNAME|554=PASSWORD|1137=7|10=190|8=FIXT.1.1|9=107|35=A|34=381|49=INITIATOR|52=20190603-08:33:37.128|56=ACCEPTOR|98=0|108=20|553=USERNAME|554=PASSWORD|1137=7|10=189|8=FIXT.1.1|9=107|35=A|34=382|49=INITIATOR|52=20190603-08:34:07.159|56=ACCEPTOR|98=0|108=20|553=USERNAME|554=PASSWORD|1137=7|10=192|8=FIXT.1.1|9=107|35=A|34=383|49=INITIATOR|52=20190603-08:34:37.190|56=ACCEPTOR|98=0|108=20|553=USERNAME|554=PASSWORD|1137=7|10=191|8=FIXT.1.1|9=107|35=A|34=384|49=INITIATOR|52=20190603-08:35:07.220|56=ACCEPTOR|98=0|108=20|553=USERNAME|554=PASSWORD|1137=7|10=184|8=FIXT.1.1|9=107|35=A|34=385|49=INITIATOR|52=20190603-08:35:37.248|56=ACCEPTOR|98=0|108=20|553=USERNAME|554=PASSWORD|1137=7|10=198|8=FIXT.1.1|9=107|35=A|34=386|49=INITIATOR|52=20190603-08:36:07.280|56=ACCEPTOR|98=0|108=20|553=USERNAME|554=PASSWORD|1137=7|10=193|8=FIXT.1.1|9=107|35=A|34=387|49=INITIATOR|52=20190603-08:36:37.312|56=ACCEPTOR|98=0|108=20|553=USERNAME|554=PASSWORD|1137=7|10=193|8=FIXT.1.1|9=107|35=A|34=388|49=INITIATOR|52=20190603-08:37:07.343|56=ACCEPTOR|98=0|108=20|553=USERNAME|554=PASSWORD|1137=7|10=196|8=FIXT.1.1|9=107|35=A|34=389|49=INITIATOR|52=20190603-08:37:37.375|56=ACCEPTOR|98=0|108=20|553=USERNAME|554=PASSWORD|1137=7|10=205|8=FIXT.1.1|9=107|35=A|34=390|49=INITIATOR|52=20190603-08:38:07.406|56=ACCEPTOR|98=0|108=20|553=USERNAME|554=PASSWORD|1137=7|10=190|8=FIXT.1.1|9=107|35=A|34=391|49=INITIATOR|52=20190603-08:38:37.436|56=ACCEPTOR|98=0|108=20|553=USERNAME|554=PASSWORD|1137=7|10=197|8=FIXT.1.1|9=107|35=A|34=392|49=INITIATOR|52=20190603-08:39:07.467|56=ACCEPTOR|98=0|108=20|553=USERNAME|554=PASSWORD|1137=7|10=200|8=FIXT.1.1|9=107|35=A|34=393|49=INITIATOR|52=20190603-08:39:37.499|56=ACCEPTOR|98=0|108=20|553=USERNAME|554=PASSWORD|1137=7|10=209|8=FIXT.1.1|9=107|35=A|34=394|49=INITIATOR|52=20190603-08:40:07.530|56=ACCEPTOR|98=0|108=20|553=USERNAME|554=PASSWORD|1137=7|10=185|8=FIXT.1.1|9=107|35=A|34=395|49=INITIATOR|52=20190603-08:40:37.564|56=ACCEPTOR|98=0|108=20|553=USERNAME|554=PASSWORD|1137=7|10=196|8=FIXT.1.1|9=107|35=A|34=396|49=INITIATOR|52=20190603-08:41:07.592|56=ACCEPTOR|98=0|108=20|553=USERNAME|554=PASSWORD|1137=7|10=196|8=FIXT.1.1|9=107|35=A|34=397|49=INITIATOR|52=20190603-08:41:37.624|56=ACCEPTOR|98=0|108=20|553=USERNAME|554=PASSWORD|1137=7|10=196|8=FIXT.1.1|9=107|35=A|34=398|49=INITIATOR|52=20190603-08:42:07.657|56=ACCEPTOR|98=0|108=20|553=USERNAME|554=PASSWORD|1137=7|10=201|8=FIXT.1.1|9=107|35=A|34=399|49=INITIATOR|52=20190603-08:42:37.688|56=ACCEPTOR|98=0|108=20|553=USERNAME|554=PASSWORD|1137=7|10=209|8=FIXT.1.1|9=107|35=A|34=400|49=INITIATOR|52=20190603-08:43:07.719|56=ACCEPTOR|98=0|108=20|553=USERNAME|554=PASSWORD|1137=7|10=185|8=FIXT.1.1|9=107|35=A|34=401|49=INITIATOR|52=20190603-08:43:37.750|56=ACCEPTOR|98=0|108=20|553=USERNAME|554=PASSWORD|1137=7|10=184|8=FIXT.1.1|9=107|35=A|34=402|49=INITIATOR|52=20190603-08:44:07.782|56=ACCEPTOR|98=0|108=20|553=USERNAME|554=PASSWORD|1137=7|10=188|8=FIXT.1.1|9=107|35=A|34=403|49=INITIATOR|52=20190603-08:44:37.816|56=ACCEPTOR|98=0|108=20|553=USERNAME|554=PASSWORD|1137=7|10=190|8=FIXT.1.1|9=107|35=A|34=404|49=INITIATOR|52=20190603-08:45:07.845|56=ACCEPTOR|98=0|108=20|553=USERNAME|554=PASSWORD|1137=7|10=191|8=FIXT.1.1|9=107|35=A|34=405|49=INITIATOR|52=20190603-08:45:37.877|56=ACCEPTOR|98=0|108=20|553=USERNAME|554=PASSWORD|1137=7|10=200|8=FIXT.1.1|9=107|35=A|34=406|49=INITIATOR|52=20190603-08:46:07.910|56=ACCEPTOR|98=0|108=20|553=USERNAME|554=PASSWORD|1137=7|10=187|8=FIXT.1.1|9=107|35=A|34=407|49=INITIATOR|52=20190603-08:46:37.943|56=ACCEPTOR|98=0|108=20|553=USERNAME|554=PASSWORD|1137=7|10=197|8=FIXT.1.1|9=107|35=A|34=408|49=INITIATOR|52=20190603-08:47:07.966|56=ACCEPTOR|98=0|108=20|553=USERNAME|554=PASSWORD|1137=7|10=201|8=FIXT.1.1|9=107|35=A|34=409|49=INITIATOR|52=20190603-08:47:37.997|56=ACCEPTOR|98=0|108=20|553=USERNAME|554=PASSWORD|1137=7|10=209|8=FIXT.1.1|9=107|35=A|34=410|49=INITIATOR|52=20190603-08:48:07.028|56=ACCEPTOR|98=0|108=20|553=USERNAME|554=PASSWORD|1137=7|10=184|8=FIXT.1.1|9=107|35=A|34=411|49=INITIATOR|52=20190603-08:48:37.058|56=ACCEPTOR|98=0|108=20|553=USERNAME|554=PASSWORD|1137=7|10=191|8=FIXT.1.1|9=107|35=A|34=412|49=INITIATOR|52=20190603-08:49:07.092|56=ACCEPTOR|98=0|108=20|553=USERNAME|554=PASSWORD|1137=7|10=188|8=FIXT.1.1|9=107|35=A|34=413|49=INITIATOR|52=20190603-08:49:37.122|56=ACCEPTOR|98=0|108=20|553=USERNAME|554=PASSWORD|1137=7|10=186|8=FIXT.1.1|9=107|35=A|34=414|49=INITIATOR|52=20190603-08:50:07.156|56=ACCEPTOR|98=0|108=20|553=USERNAME|554=PASSWORD|1137=7|10=183|8=FIXT.1.1|9=107|35=A|34=415|49=INITIATOR|52=20190603-08:50:37.189|56=ACCEPTOR|98=0|108=20|553=USERNAME|554=PASSWORD|1137=7|10=193|8=FIXT.1.1|9=107|35=A|34=416|49=INITIATOR|52=20190603-08:51:07.221|56=ACCEPTOR|98=0|108=20|553=USERNAME|554=PASSWORD|1137=7|10=179|8=FIXT.1.1|9=107|35=A|34=417|49=INITIATOR|52=20190603-08:51:37.253|56=ACCEPTOR|98=0|108=20|553=USERNAME|554=PASSWORD|1137=7|10=188|8=FIXT.1.1|9=107|35=A|34=418|49=INITIATOR|52=20190603-08:52:07.285|56=ACCEPTOR|98=0|108=20|553=USERNAME|554=PASSWORD|1137=7|10=192|8=FIXT.1.1|9=107|35=A|34=419|49=INITIATOR|52=20190603-08:52:37.319|56=ACCEPTOR|98=0|108=20|553=USERNAME|554=PASSWORD|1137=7|10=194|8=FIXT.1.1|9=107|35=A|34=420|49=INITIATOR|52=20190603-08:53:07.349|56=ACCEPTOR|98=0|108=20|553=USERNAME|554=PASSWORD|1137=7|10=187|8=FIXT.1.1|9=107|35=A|34=421|49=INITIATOR|52=20190603-08:53:37.378|56=ACCEPTOR|98=0|108=20|553=USERNAME|554=PASSWORD|1137=7|10=193|8=FIXT.1.1|9=107|35=A|34=422|49=INITIATOR|52=20190603-08:54:07.407|56=ACCEPTOR|98=0|108=20|553=USERNAME|554=PASSWORD|1137=7|10=185|8=FIXT.1.1|9=107|35=A|34=423|49=INITIATOR|52=20190603-08:54:37.439|56=ACCEPTOR|98=0|108=20|553=USERNAME|554=PASSWORD|1137=7|10=194|8=FIXT.1.1|9=107|35=A|34=424|49=INITIATOR|52=20190603-08:55:07.470|56=ACCEPTOR|98=0|108=20|553=USERNAME|554=PASSWORD|1137=7|10=188|8=FIXT.1.1|9=107|35=A|34=425|49=INITIATOR|52=20190603-08:55:37.502|56=ACCEPTOR|98=0|108=20|553=USERNAME|554=PASSWORD|1137=7|10=188|8=FIXT.1.1|9=107|35=A|34=426|49=INITIATOR|52=20190603-08:56:07.536|56=ACCEPTOR|98=0|108=20|553=USERNAME|554=PASSWORD|1137=7|10=194|8=FIXT.1.1|9=107|35=A|34=427|49=INITIATOR|52=20190603-08:56:37.571|56=ACCEPTOR|98=0|108=20|553=USERNAME|554=PASSWORD|1137=7|10=197|8=FIXT.1.1|9=107|35=A|34=428|49=INITIATOR|52=20190603-08:57:07.604|56=ACCEPTOR|98=0|108=20|553=USERNAME|554=PASSWORD|1137=7|10=193|8=FIXT.1.1|9=107|35=A|34=429|49=INITIATOR|52=20190603-08:57:37.633|56=ACCEPTOR|98=0|108=20|553=USERNAME|554=PASSWORD|1137=7|10=199|8=FIXT.1.1|9=107|35=A|34=430|49=INITIATOR|52=20190603-08:58:07.660|56=ACCEPTOR|98=0|108=20|553=USERNAME|554=PASSWORD|1137=7|10=189|8=FIXT.1.1|9=107|35=A|34=431|49=INITIATOR|52=20190603-08:58:37.689|56=ACCEPTOR|98=0|108=20|553=USERNAME|554=PASSWORD|1137=7|10=204|8=FIXT.1.1|9=107|35=A|34=432|49=INITIATOR|52=20190603-08:59:07.717|56=ACCEPTOR|98=0|108=20|553=USERNAME|554=PASSWORD|1137=7|10=195|8=FIXT.1.1|9=107|35=A|34=433|49=INITIATOR|52=20190603-08:59:37.747|56=ACCEPTOR|98=0|108=20|553=USERNAME|554=PASSWORD|1137=7|10=202|8=FIXT.1.1|9=107|35=A|34=434|49=INITIATOR|52=20190603-09:00:07.776|56=ACCEPTOR|98=0|108=20|553=USERNAME|554=PASSWORD|1137=7|10=189|8=FIXT.1.1|9=107|35=A|34=435|49=INITIATOR|52=20190603-09:00:37.804|56=ACCEPTOR|98=0|108=20|553=USERNAME|554=PASSWORD|1137=7|10=185|8=FIXT.1.1|9=107|35=A|34=436|49=INITIATOR|52=20190603-09:01:07.834|56=ACCEPTOR|98=0|108=20|553=USERNAME|554=PASSWORD|1137=7|10=187|8=FIXT.1.1|9=107|35=A|34=437|49=INITIATOR|52=20190603-09:01:37.861|56=ACCEPTOR|98=0|108=20|553=USERNAME|554=PASSWORD|1137=7|10=191|8=FIXT.1.1|9=107|35=A|34=438|49=INITIATOR|52=20190603-09:02:07.890|56=ACCEPTOR|98=0|108=20|553=USERNAME|554=PASSWORD|1137=7|10=192|8=FIXT.1.1|9=107|35=A|34=439|49=INITIATOR|52=20190603-09:02:37.919|56=ACCEPTOR|98=0|108=20|553=USERNAME|554=PASSWORD|1137=7|10=198|8=FIXT.1.1|9=107|35=A|34=440|49=INITIATOR|52=20190603-09:03:07.950|56=ACCEPTOR|98=0|108=20|553=USERNAME|554=PASSWORD|1137=7|10=183|8=FIXT.1.1|9=107|35=A|34=441|49=INITIATOR|52=20190603-09:03:37.979|56=ACCEPTOR|98=0|108=20|553=USERNAME|554=PASSWORD|1137=7|10=198|8=FIXT.1.1|9=107|35=A|34=442|49=INITIATOR|52=20190603-09:04:07.011|56=ACCEPTOR|98=0|108=20|553=USERNAME|554=PASSWORD|1137=7|10=174|8=FIXT.1.1|9=107|35=A|34=443|49=INITIATOR|52=20190603-09:04:37.042|56=ACCEPTOR|98=0|108=20|553=USERNAME|554=PASSWORD|1137=7|10=182|8=FIXT.1.1|9=107|35=A|34=444|49=INITIATOR|52=20190603-09:05:07.071|56=ACCEPTOR|98=0|108=20|553=USERNAME|554=PASSWORD|1137=7|10=183|8=FIXT.1.1|9=107|35=A|34=445|49=INITIATOR|52=20190603-09:05:37.102|56=ACCEPTOR|98=0|108=20|553=USERNAME|554=PASSWORD|1137=7|10=182|8=FIXT.1.1|9=107|35=A|34=446|49=INITIATOR|52=20190603-09:06:07.130|56=ACCEPTOR|98=0|108=20|553=USERNAME|554=PASSWORD|1137=7|10=182|8=FIXT.1.1|9=107|35=A|34=447|49=INITIATOR|52=20190603-09:06:37.157|56=ACCEPTOR|98=0|108=20|553=USERNAME|554=PASSWORD|1137=7|10=195|8=FIXT.1.1|9=107|35=A|34=448|49=INITIATOR|52=20190603-09:07:07.186|56=ACCEPTOR|98=0|108=20|553=USERNAME|554=PASSWORD|1137=7|10=196|8=FIXT.1.1|9=107|35=A|34=449|49=INITIATOR|52=20190603-09:07:37.216|56=ACCEPTOR|98=0|108=20|553=USERNAME|554=PASSWORD|1137=7|10=194|8=FIXT.1.1|9=107|35=A|34=450|49=INITIATOR|52=20190603-09:08:07.246|56=ACCEPTOR|98=0|108=20|553=USERNAME|554=PASSWORD|1137=7|10=187|8=FIXT.1.1|9=107|35=A|34=451|49=INITIATOR|52=20190603-09:08:37.275|56=ACCEPTOR|98=0|108=20|553=USERNAME|554=PASSWORD|1137=7|10=193|8=FIXT.1.1|9=107|35=A|34=452|49=INITIATOR|52=20190603-09:09:07.305|56=ACCEPTOR|98=0|108=20|553=USERNAME|554=PASSWORD|1137=7|10=186|8=FIXT.1.1|9=107|35=A|34=453|49=INITIATOR|52=20190603-09:09:37.334|56=ACCEPTOR|98=0|108=20|553=USERNAME|554=PASSWORD|1137=7|10=192|8=FIXT.1.1|9=107|35=A|34=454|49=INITIATOR|52=20190603-09:10:07.363|56=ACCEPTOR|98=0|108=20|553=USERNAME|554=PASSWORD|1137=7|10=184|8=FIXT.1.1|9=107|35=A|34=455|49=INITIATOR|52=20190603-09:10:37.391|56=ACCEPTOR|98=0|108=20|553=USERNAME|554=PASSWORD|1137=7|10=189|8=FIXT.1.1|9=107|35=A|34=456|49=INITIATOR|52=20190603-09:11:07.422|56=ACCEPTOR|98=0|108=20|553=USERNAME|554=PASSWORD|1137=7|10=183|8=FIXT.1.1|9=107|35=A|34=457|49=INITIATOR|52=20190603-09:11:37.452|56=ACCEPTOR|98=0|108=20|553=USERNAME|554=PASSWORD|1137=7|10=190|8=FIXT.1.1|9=107|35=A|34=458|49=INITIATOR|52=20190603-09:12:07.480|56=ACCEPTOR|98=0|108=20|553=USERNAME|554=PASSWORD|1137=7|10=190|8=FIXT.1.1|9=107|35=A|34=459|49=INITIATOR|52=20190603-09:12:37.508|56=ACCEPTOR|98=0|108=20|553=USERNAME|554=PASSWORD|1137=7|10=195|8=FIXT.1.1|9=107|35=A|34=460|49=INITIATOR|52=20190603-09:13:07.537|56=ACCEPTOR|98=0|108=20|553=USERNAME|554=PASSWORD|1137=7|10=187|8=FIXT.1.1|9=107|35=A|34=461|49=INITIATOR|52=20190603-09:13:37.568|56=ACCEPTOR|98=0|108=20|553=USERNAME|554=PASSWORD|1137=7|10=195|8=FIXT.1.1|9=107|35=A|34=462|49=INITIATOR|52=20190603-09:14:07.597|56=ACCEPTOR|98=0|108=20|553=USERNAME|554=PASSWORD|1137=7|10=196|8=FIXT.1.1|9=107|35=A|34=463|49=INITIATOR|52=20190603-09:14:37.626|56=ACCEPTOR|98=0|108=20|553=USERNAME|554=PASSWORD|1137=7|10=193|8=FIXT.1.1|9=107|35=A|34=464|49=INITIATOR|52=20190603-09:15:07.656|56=ACCEPTOR|98=0|108=20|553=USERNAME|554=PASSWORD|1137=7|10=195|8=FIXT.1.1|9=107|35=A|34=465|49=INITIATOR|52=20190603-09:15:37.687|56=ACCEPTOR|98=0|108=20|553=USERNAME|554=PASSWORD|1137=7|10=203|8=FIXT.1.1|9=107|35=A|34=466|49=INITIATOR|52=20190603-09:16:07.715|56=ACCEPTOR|98=0|108=20|553=USERNAME|554=PASSWORD|1137=7|10=194|8=FIXT.1.1|9=107|35=A|34=467|49=INITIATOR|52=20190603-09:16:37.744|56=ACCEPTOR|98=0|108=20|553=USERNAME|554=PASSWORD|1137=7|10=200|8=FIXT.1.1|9=107|35=A|34=468|49=INITIATOR|52=20190603-09:17:07.775|56=ACCEPTOR|98=0|108=20|553=USERNAME|554=PASSWORD|1137=7|10=203|8=FIXT.1.1|9=107|35=A|34=469|49=INITIATOR|52=20190603-09:17:37.806|56=ACCEPTOR|98=0|108=20|553=USERNAME|554=PASSWORD|1137=7|10=202|8=FIXT.1.1|9=107|35=A|34=470|49=INITIATOR|52=20190603-09:18:07.835|56=ACCEPTOR|98=0|108=20|553=USERNAME|554=PASSWORD|1137=7|10=194|8=FIXT.1.1|9=107|35=A|34=471|49=INITIATOR|52=20190603-09:18:37.864|56=ACCEPTOR|98=0|108=20|553=USERNAME|554=PASSWORD|1137=7|10=200|8=FIXT.1.1|9=107|35=A|34=472|49=INITIATOR|52=20190603-09:19:07.893|56=ACCEPTOR|98=0|108=20|553=USERNAME|554=PASSWORD|1137=7|10=201|8=FIXT.1.1|9=107|35=A|34=473|49=INITIATOR|52=20190603-09:19:37.923|56=ACCEPTOR|98=0|108=20|553=USERNAME|554=PASSWORD|1137=7|10=199|8=FIXT.1.1|9=107|35=A|34=474|49=INITIATOR|52=20190603-09:20:07.950|56=ACCEPTOR|98=0|108=20|553=USERNAME|554=PASSWORD|1137=7|10=189|8=FIXT.1.1|9=107|35=A|34=475|49=INITIATOR|52=20190603-09:20:37.977|56=ACCEPTOR|98=0|108=20|553=USERNAME|554=PASSWORD|1137=7|10=202|8=FIXT.1.1|9=107|35=A|34=476|49=INITIATOR|52=20190603-09:21:07.005|56=ACCEPTOR|98=0|108=20|553=USERNAME|554=PASSWORD|1137=7|10=183|8=FIXT.1.1|9=107|35=A|34=477|49=INITIATOR|52=20190603-09:21:37.033|56=ACCEPTOR|98=0|108=20|553=USERNAME|554=PASSWORD|1137=7|10=188|8=FIXT.1.1|9=107|35=A|34=478|49=INITIATOR|52=20190603-09:22:07.064|56=ACCEPTOR|98=0|108=20|553=USERNAME|554=PASSWORD|1137=7|10=191|8=FIXT.1.1|9=107|35=A|34=479|49=INITIATOR|52=20190603-09:22:37.090|56=ACCEPTOR|98=0|108=20|553=USERNAME|554=PASSWORD|1137=7|10=194|8=FIXT.1.1|9=107|35=A|34=480|49=INITIATOR|52=20190603-09:23:07.119|56=ACCEPTOR|98=0|108=20|553=USERNAME|554=PASSWORD|1137=7|10=186|8=FIXT.1.1|9=107|35=A|34=481|49=INITIATOR|52=20190603-09:23:37.148|56=ACCEPTOR|98=0|108=20|553=USERNAME|554=PASSWORD|1137=7|10=192|8=FIXT.1.1|9=107|35=A|34=482|49=INITIATOR|52=20190603-09:24:07.177|56=ACCEPTOR|98=0|108=20|553=USERNAME|554=PASSWORD|1137=7|10=193|8=FIXT.1.1|9=107|35=A|34=483|49=INITIATOR|52=20190603-09:24:37.206|56=ACCEPTOR|98=0|108=20|553=USERNAME|554=PASSWORD|1137=7|10=190|8=FIXT.1.1|9=107|35=A|34=484|49=INITIATOR|52=20190603-09:25:07.238|56=ACCEPTOR|98=0|108=20|553=USERNAME|554=PASSWORD|1137=7|10=194|8=FIXT.1.1|9=107|35=A|34=485|49=INITIATOR|52=20190603-09:25:37.267|56=ACCEPTOR|98=0|108=20|553=USERNAME|554=PASSWORD|1137=7|10=200|8=FIXT.1.1|9=107|35=A|34=486|49=INITIATOR|52=20190603-09:26:07.298|56=ACCEPTOR|98=0|108=20|553=USERNAME|554=PASSWORD|1137=7|10=203|8=FIXT.1.1|9=107|35=A|34=487|49=INITIATOR|52=20190603-09:26:37.329|56=ACCEPTOR|98=0|108=20|553=USERNAME|554=PASSWORD|1137=7|10=202|8=FIXT.1.1|9=107|35=A|34=488|49=INITIATOR|52=20190603-09:27:07.358|56=ACCEPTOR|98=0|108=20|553=USERNAME|554=PASSWORD|1137=7|10=203|8=FIXT.1.1|9=107|35=A|34=489|49=INITIATOR|52=20190603-09:27:37.390|56=ACCEPTOR|98=0|108=20|553=USERNAME|554=PASSWORD|1137=7|10=203|8=FIXT.1.1|9=107|35=A|34=490|49=INITIATOR|52=20190603-09:28:07.422|56=ACCEPTOR|98=0|108=20|553=USERNAME|554=PASSWORD|1137=7|10=189|8=FIXT.1.1|9=107|35=A|34=491|49=INITIATOR|52=20190603-09:28:37.453|56=ACCEPTOR|98=0|108=20|553=USERNAME|554=PASSWORD|1137=7|10=197|8=FIXT.1.1|9=107|35=A|34=492|49=INITIATOR|52=20190603-09:29:07.482|56=ACCEPTOR|98=0|108=20|553=USERNAME|554=PASSWORD|1137=7|10=198|8=FIXT.1.1|9=107|35=A|34=493|49=INITIATOR|52=20190603-09:29:37.514|56=ACCEPTOR|98=0|108=20|553=USERNAME|554=PASSWORD|1137=7|10=198|8=FIXT.1.1|9=107|35=A|34=494|49=INITIATOR|52=20190603-09:30:07.546|56=ACCEPTOR|98=0|108=20|553=USERNAME|554=PASSWORD|1137=7|10=193|8=FIXT.1.1|9=107|35=A|34=495|49=INITIATOR|52=20190603-09:30:37.579|56=ACCEPTOR|98=0|108=20|553=USERNAME|554=PASSWORD|1137=7|10=203|8=FIXT.1.1|9=107|35=A|34=496|49=INITIATOR|52=20190603-09:31:07.610|56=ACCEPTOR|98=0|108=20|553=USERNAME|554=PASSWORD|1137=7|10=188|8=FIXT.1.1|9=107|35=A|34=497|49=INITIATOR|52=20190603-09:31:37.640|56=ACCEPTOR|98=0|108=20|553=USERNAME|554=PASSWORD|1137=7|10=195|8=FIXT.1.1|9=107|35=A|34=498|49=INITIATOR|52=20190603-09:32:07.670|56=ACCEPTOR|98=0|108=20|553=USERNAME|554=PASSWORD|1137=7|10=197|8=FIXT.1.1|9=107|35=A|34=499|49=INITIATOR|52=20190603-09:32:37.698|56=ACCEPTOR|98=0|108=20|553=USERNAME|554=PASSWORD|1137=7|10=211|8=FIXT.1.1|9=107|35=A|34=500|49=INITIATOR|52=20190603-09:33:07.729|56=ACCEPTOR|98=0|108=20|553=USERNAME|554=PASSWORD|1137=7|10=187|8=FIXT.1.1|9=107|35=A|34=501|49=INITIATOR|52=20190603-09:33:37.756|56=ACCEPTOR|98=0|108=20|553=USERNAME|554=PASSWORD|1137=7|10=191|8=FIXT.1.1|9=107|35=A|34=502|49=INITIATOR|52=20190603-09:34:07.785|56=ACCEPTOR|98=0|108=20|553=USERNAME|554=PASSWORD|1137=7|10=192|8=FIXT.1.1|9=107|35=A|34=503|49=INITIATOR|52=20190603-09:34:37.816|56=ACCEPTOR|98=0|108=20|553=USERNAME|554=PASSWORD|1137=7|10=191|8=FIXT.1.1|9=107|35=A|34=504|49=INITIATOR|52=20190603-09:35:07.845|56=ACCEPTOR|98=0|108=20|553=USERNAME|554=PASSWORD|1137=7|10=192|8=FIXT.1.1|9=107|35=A|34=505|49=INITIATOR|52=20190603-09:35:37.872|56=ACCEPTOR|98=0|108=20|553=USERNAME|554=PASSWORD|1137=7|10=196|8=FIXT.1.1|9=107|35=A|34=506|49=INITIATOR|52=20190603-09:36:07.902|56=ACCEPTOR|98=0|108=20|553=USERNAME|554=PASSWORD|1137=7|10=189|8=FIXT.1.1|9=107|35=A|34=507|49=INITIATOR|52=20190603-09:36:37.934|56=ACCEPTOR|98=0|108=20|553=USERNAME|554=PASSWORD|1137=7|10=198|8=FIXT.1.1|9=107|35=A|34=508|49=INITIATOR|52=20190603-09:37:07.964|56=ACCEPTOR|98=0|108=20|553=USERNAME|554=PASSWORD|1137=7|10=200|8=FIXT.1.1|9=107|35=A|34=509|49=INITIATOR|52=20190603-09:37:37.993|56=ACCEPTOR|98=0|108=20|553=USERNAME|554=PASSWORD|1137=7|10=206|8=FIXT.1.1|9=107|35=A|34=510|49=INITIATOR|52=20190603-09:38:07.020|56=ACCEPTOR|98=0|108=20|553=USERNAME|554=PASSWORD|1137=7|10=177|8=FIXT.1.1|9=107|35=A|34=511|49=INITIATOR|52=20190603-09:38:37.050|56=ACCEPTOR|98=0|108=20|553=USERNAME|554=PASSWORD|1137=7|10=184|8=FIXT.1.1|9=107|35=A|34=512|49=INITIATOR|52=20190603-09:39:07.081|56=ACCEPTOR|98=0|108=20|553=USERNAME|554=PASSWORD|1137=7|10=187|8=FIXT.1.1|9=107|35=A|34=513|49=INITIATOR|52=20190603-09:39:37.111|56=ACCEPTOR|98=0|108=20|553=USERNAME|554=PASSWORD|1137=7|10=185|8=FIXT.1.1|9=107|35=A|34=514|49=INITIATOR|52=20190603-09:40:07.140|56=ACCEPTOR|98=0|108=20|553=USERNAME|554=PASSWORD|1137=7|10=177|8=FIXT.1.1|9=107|35=A|34=515|49=INITIATOR|52=20190603-09:40:37.173|56=ACCEPTOR|98=0|108=20|553=USERNAME|554=PASSWORD|1137=7|10=187|8=FIXT.1.1|9=107|35=A|34=516|49=INITIATOR|52=20190603-09:41:07.205|56=ACCEPTOR|98=0|108=20|553=USERNAME|554=PASSWORD|1137=7|10=182|8=FIXT.1.1|9=107|35=A|34=517|49=INITIATOR|52=20190603-09:41:37.238|56=ACCEPTOR|98=0|108=20|553=USERNAME|554=PASSWORD|1137=7|10=192|8=FIXT.1.1|9=107|35=A|34=518|49=INITIATOR|52=20190603-09:42:07.266|56=ACCEPTOR|98=0|108=20|553=USERNAME|554=PASSWORD|1137=7|10=192|8=FIXT.1.1|9=107|35=A|34=519|49=INITIATOR|52=20190603-09:42:37.298|56=ACCEPTOR|98=0|108=20|553=USERNAME|554=PASSWORD|1137=7|10=201|8=FIXT.1.1|9=107|35=A|34=520|49=INITIATOR|52=20190603-09:43:07.330|56=ACCEPTOR|98=0|108=20|553=USERNAME|554=PASSWORD|1137=7|10=178|8=FIXT.1.1|9=107|35=A|34=521|49=INITIATOR|52=20190603-09:43:37.361|56=ACCEPTOR|98=0|108=20|553=USERNAME|554=PASSWORD|1137=7|10=186|8=FIXT.1.1|9=107|35=A|34=522|49=INITIATOR|52=20190603-09:44:07.390|56=ACCEPTOR|98=0|108=20|553=USERNAME|554=PASSWORD|1137=7|10=187|8=FIXT.1.1|9=107|35=A|34=523|49=INITIATOR|52=20190603-09:44:37.423|56=ACCEPTOR|98=0|108=20|553=USERNAME|554=PASSWORD|1137=7|10=188|8=FIXT.1.1|9=107|35=A|34=524|49=INITIATOR|52=20190603-09:45:07.455|56=ACCEPTOR|98=0|108=20|553=USERNAME|554=PASSWORD|1137=7|10=192|8=FIXT.1.1|9=107|35=A|34=525|49=INITIATOR|52=20190603-09:45:37.487|56=ACCEPTOR|98=0|108=20|553=USERNAME|554=PASSWORD|1137=7|10=201|8=FIXT.1.1|9=107|35=A|34=526|49=INITIATOR|52=20190603-09:46:07.519|56=ACCEPTOR|98=0|108=20|553=USERNAME|554=PASSWORD|1137=7|10=196|8=FIXT.1.1|9=107|35=A|34=527|49=INITIATOR|52=20190603-09:46:37.549|56=ACCEPTOR|98=0|108=20|553=USERNAME|554=PASSWORD|1137=7|10=203|8=FIXT.1.1|9=107|35=A|34=528|49=INITIATOR|52=20190603-09:47:07.581|56=ACCEPTOR|98=0|108=20|553=USERNAME|554=PASSWORD|1137=7|10=198|8=FIXT.1.1|9=107|35=A|34=529|49=INITIATOR|52=20190603-09:47:37.612|56=ACCEPTOR|98=0|108=20|553=USERNAME|554=PASSWORD|1137=7|10=197|8=FIXT.1.1|9=107|35=A|34=530|49=INITIATOR|52=20190603-09:48:07.643|56=ACCEPTOR|98=0|108=20|553=USERNAME|554=PASSWORD|1137=7|10=191|8=FIXT.1.1|9=107|35=A|34=531|49=INITIATOR|52=20190603-09:48:37.675|56=ACCEPTOR|98=0|108=20|553=USERNAME|554=PASSWORD|1137=7|10=200|8=FIXT.1.1|9=107|35=A|34=532|49=INITIATOR|52=20190603-09:49:07.706|56=ACCEPTOR|98=0|108=20|553=USERNAME|554=PASSWORD|1137=7|10=194|8=FIXT.1.1|9=107|35=A|34=533|49=INITIATOR|52=20190603-09:49:37.737|56=ACCEPTOR|98=0|108=20|553=USERNAME|554=PASSWORD|1137=7|10=202|8=FIXT.1.1|9=107|35=A|34=534|49=INITIATOR|52=20190603-09:50:07.766|56=ACCEPTOR|98=0|108=20|553=USERNAME|554=PASSWORD|1137=7|10=194|8=FIXT.1.1|9=107|35=A|34=535|49=INITIATOR|52=20190603-09:50:37.795|56=ACCEPTOR|98=0|108=20|553=USERNAME|554=PASSWORD|1137=7|10=200|8=FIXT.1.1|9=107|35=A|34=536|49=INITIATOR|52=20190603-09:51:07.824|56=ACCEPTOR|98=0|108=20|553=USERNAME|554=PASSWORD|1137=7|10=192|8=FIXT.1.1|9=107|35=A|34=537|49=INITIATOR|52=20190603-09:51:37.854|56=ACCEPTOR|98=0|108=20|553=USERNAME|554=PASSWORD|1137=7|10=199|8=FIXT.1.1|9=107|35=A|34=538|49=INITIATOR|52=20190603-09:52:07.886|56=ACCEPTOR|98=0|108=20|553=USERNAME|554=PASSWORD|1137=7|10=203|8=FIXT.1.1|9=107|35=A|34=539|49=INITIATOR|52=20190603-09:52:37.918|56=ACCEPTOR|98=0|108=20|553=USERNAME|554=PASSWORD|1137=7|10=203|8=FIXT.1.1|9=107|35=A|34=540|49=INITIATOR|52=20190603-09:53:07.949|56=ACCEPTOR|98=0|108=20|553=USERNAME|554=PASSWORD|1137=7|10=197|8=FIXT.1.1|9=107|35=A|34=541|49=INITIATOR|52=20190603-09:53:37.981|56=ACCEPTOR|98=0|108=20|553=USERNAME|554=PASSWORD|1137=7|10=197|8=FIXT.1.1|9=107|35=A|34=542|49=INITIATOR|52=20190603-09:54:07.009|56=ACCEPTOR|98=0|108=20|553=USERNAME|554=PASSWORD|1137=7|10=187|8=FIXT.1.1|9=107|35=A|34=543|49=INITIATOR|52=20190603-09:54:37.039|56=ACCEPTOR|98=0|108=20|553=USERNAME|554=PASSWORD|1137=7|10=194|8=FIXT.1.1|9=107|35=A|34=544|49=INITIATOR|52=20190603-09:55:07.069|56=ACCEPTOR|98=0|108=20|553=USERNAME|554=PASSWORD|1137=7|10=196|8=FIXT.1.1|9=107|35=A|34=545|49=INITIATOR|52=20190603-09:55:37.102|56=ACCEPTOR|98=0|108=20|553=USERNAME|554=PASSWORD|1137=7|10=188|8=FIXT.1.1|9=107|35=A|34=546|49=INITIATOR|52=20190603-09:56:07.129|56=ACCEPTOR|98=0|108=20|553=USERNAME|554=PASSWORD|1137=7|10=196|8=FIXT.1.1|9=107|35=A|34=547|49=INITIATOR|52=20190603-09:56:37.160|56=ACCEPTOR|98=0|108=20|553=USERNAME|554=PASSWORD|1137=7|10=195|8=FIXT.1.1|9=107|35=A|34=548|49=INITIATOR|52=20190603-09:57:07.191|56=ACCEPTOR|98=0|108=20|553=USERNAME|554=PASSWORD|1137=7|10=198|8=FIXT.1.1|9=107|35=A|34=549|49=INITIATOR|52=20190603-09:57:37.222|56=ACCEPTOR|98=0|108=20|553=USERNAME|554=PASSWORD|1137=7|10=197|8=FIXT.1.1|9=107|35=A|34=550|49=INITIATOR|52=20190603-09:58:07.253|56=ACCEPTOR|98=0|108=20|553=USERNAME|554=PASSWORD|1137=7|10=191|8=FIXT.1.1|9=107|35=A|34=551|49=INITIATOR|52=20190603-09:58:37.283|56=ACCEPTOR|98=0|108=20|553=USERNAME|554=PASSWORD|1137=7|10=198|8=FIXT.1.1|9=107|35=A|34=552|49=INITIATOR|52=20190603-09:59:07.313|56=ACCEPTOR|98=0|108=20|553=USERNAME|554=PASSWORD|1137=7|10=191|8=FIXT.1.1|9=107|35=A|34=553|49=INITIATOR|52=20190603-09:59:37.346|56=ACCEPTOR|98=0|108=20|553=USERNAME|554=PASSWORD|1137=7|10=201|8=FIXT.1.1|9=107|35=A|34=554|49=INITIATOR|52=20190603-10:00:07.377|56=ACCEPTOR|98=0|108=20|553=USERNAME|554=PASSWORD|1137=7|10=181|8=FIXT.1.1|9=107|35=A|34=555|49=INITIATOR|52=20190603-10:00:37.406|56=ACCEPTOR|98=0|108=20|553=USERNAME|554=PASSWORD|1137=7|10=178|8=FIXT.1.1|9=107|35=A|34=556|49=INITIATOR|52=20190603-10:01:07.438|56=ACCEPTOR|98=0|108=20|553=USERNAME|554=PASSWORD|1137=7|10=182|8=FIXT.1.1|9=107|35=A|34=557|49=INITIATOR|52=20190603-10:01:37.473|56=ACCEPTOR|98=0|108=20|553=USERNAME|554=PASSWORD|1137=7|10=185|8=FIXT.1.1|9=107|35=A|34=558|49=INITIATOR|52=20190603-10:02:07.505|56=ACCEPTOR|98=0|108=20|553=USERNAME|554=PASSWORD|1137=7|10=180|8=FIXT.1.1|9=107|35=A|34=559|49=INITIATOR|52=20190603-10:02:37.534|56=ACCEPTOR|98=0|108=20|553=USERNAME|554=PASSWORD|1137=7|10=186|8=FIXT.1.1|9=107|35=A|34=560|49=INITIATOR|52=20190603-10:03:07.566|56=ACCEPTOR|98=0|108=20|553=USERNAME|554=PASSWORD|1137=7|10=181|8=FIXT.1.1|9=107|35=A|34=561|49=INITIATOR|52=20190603-10:03:37.597|56=ACCEPTOR|98=0|108=20|553=USERNAME|554=PASSWORD|1137=7|10=189|8=FIXT.1.1|9=107|35=A|34=562|49=INITIATOR|52=20190603-10:04:07.626|56=ACCEPTOR|98=0|108=20|553=USERNAME|554=PASSWORD|1137=7|10=181|8=FIXT.1.1|9=107|35=A|34=563|49=INITIATOR|52=20190603-10:04:37.659|56=ACCEPTOR|98=0|108=20|553=USERNAME|554=PASSWORD|1137=7|10=191|8=FIXT.1.1|9=107|35=A|34=564|49=INITIATOR|52=20190603-10:05:07.689|56=ACCEPTOR|98=0|108=20|553=USERNAME|554=PASSWORD|1137=7|10=193|8=FIXT.1.1|9=107|35=A|34=565|49=INITIATOR|52=20190603-10:05:37.721|56=ACCEPTOR|98=0|108=20|553=USERNAME|554=PASSWORD|1137=7|10=184|8=FIXT.1.1|9=107|35=A|34=566|49=INITIATOR|52=20190603-10:06:07.754|56=ACCEPTOR|98=0|108=20|553=USERNAME|554=PASSWORD|1137=7|10=189|8=FIXT.1.1|9=107|35=A|34=567|49=INITIATOR|52=20190603-10:06:37.783|56=ACCEPTOR|98=0|108=20|553=USERNAME|554=PASSWORD|1137=7|10=195|8=FIXT.1.1|9=107|35=A|34=568|49=INITIATOR|52=20190603-10:07:07.813|56=ACCEPTOR|98=0|108=20|553=USERNAME|554=PASSWORD|1137=7|10=188|8=FIXT.1.1|9=107|35=A|34=569|49=INITIATOR|52=20190603-10:07:37.843|56=ACCEPTOR|98=0|108=20|553=USERNAME|554=PASSWORD|1137=7|10=195|8=FIXT.1.1|9=107|35=A|34=570|49=INITIATOR|52=20190603-10:08:07.877|56=ACCEPTOR|98=0|108=20|553=USERNAME|554=PASSWORD|1137=7|10=192|8=FIXT.1.1|9=107|35=A|34=571|49=INITIATOR|52=20190603-10:08:37.906|56=ACCEPTOR|98=0|108=20|553=USERNAME|554=PASSWORD|1137=7|10=189|8=FIXT.1.1|9=107|35=A|34=572|49=INITIATOR|52=20190603-10:09:07.937|56=ACCEPTOR|98=0|108=20|553=USERNAME|554=PASSWORD|1137=7|10=192|8=FIXT.1.1|9=107|35=A|34=573|49=INITIATOR|52=20190603-10:09:37.969|56=ACCEPTOR|98=0|108=20|553=USERNAME|554=PASSWORD|1137=7|10=201|8=FIXT.1.1|9=107|35=A|34=574|49=INITIATOR|52=20190603-10:10:07.999|56=ACCEPTOR|98=0|108=20|553=USERNAME|554=PASSWORD|1137=7|10=194|8=FIXT.1.1|9=107|35=A|34=575|49=INITIATOR|52=20190603-10:10:37.029|56=ACCEPTOR|98=0|108=20|553=USERNAME|554=PASSWORD|1137=7|10=182|8=FIXT.1.1|9=107|35=A|34=576|49=INITIATOR|52=20190603-10:11:07.061|56=ACCEPTOR|98=0|108=20|553=USERNAME|554=PASSWORD|1137=7|10=177|8=FIXT.1.1|9=107|35=A|34=577|49=INITIATOR|52=20190603-10:11:37.093|56=ACCEPTOR|98=0|108=20|553=USERNAME|554=PASSWORD|1137=7|10=186|8=FIXT.1.1|9=107|35=A|34=578|49=INITIATOR|52=20190603-10:12:07.123|56=ACCEPTOR|98=0|108=20|553=USERNAME|554=PASSWORD|1137=7|10=179|8=FIXT.1.1|9=107|35=A|34=579|49=INITIATOR|52=20190603-10:12:37.154|56=ACCEPTOR|98=0|108=20|553=USERNAME|554=PASSWORD|1137=7|10=187|8=FIXT.1.1|9=107|35=A|34=580|49=INITIATOR|52=20190603-10:13:07.186|56=ACCEPTOR|98=0|108=20|553=USERNAME|554=PASSWORD|1137=7|10=182|8=FIXT.1.1|9=107|35=A|34=581|49=INITIATOR|52=20190603-10:13:37.217|56=ACCEPTOR|98=0|108=20|553=USERNAME|554=PASSWORD|1137=7|10=181|8=FIXT.1.1|9=107|35=A|34=582|49=INITIATOR|52=20190603-10:14:07.249|56=ACCEPTOR|98=0|108=20|553=USERNAME|554=PASSWORD|1137=7|10=185|8=FIXT.1.1|9=107|35=A|34=583|49=INITIATOR|52=20190603-10:14:37.280|56=ACCEPTOR|98=0|108=20|553=USERNAME|554=PASSWORD|1137=7|10=184|8=FIXT.1.1|9=107|35=A|34=584|49=INITIATOR|52=20190603-10:15:07.310|56=ACCEPTOR|98=0|108=20|553=USERNAME|554=PASSWORD|1137=7|10=177|8=FIXT.1.1|9=107|35=A|34=585|49=INITIATOR|52=20190603-10:15:37.341|56=ACCEPTOR|98=0|108=20|553=USERNAME|554=PASSWORD|1137=7|10=185|8=FIXT.1.1|9=107|35=A|34=586|49=INITIATOR|52=20190603-10:16:07.374|56=ACCEPTOR|98=0|108=20|553=USERNAME|554=PASSWORD|1137=7|10=190|8=FIXT.1.1|9=107|35=A|34=587|49=INITIATOR|52=20190603-10:16:37.405|56=ACCEPTOR|98=0|108=20|553=USERNAME|554=PASSWORD|1137=7|10=189|8=FIXT.1.1|9=107|35=A|34=588|49=INITIATOR|52=20190603-10:17:07.435|56=ACCEPTOR|98=0|108=20|553=USERNAME|554=PASSWORD|1137=7|10=191|8=FIXT.1.1|9=107|35=A|34=589|49=INITIATOR|52=20190603-10:17:37.465|56=ACCEPTOR|98=0|108=20|553=USERNAME|554=PASSWORD|1137=7|10=198|8=FIXT.1.1|9=107|35=A|34=590|49=INITIATOR|52=20190603-10:18:07.497|56=ACCEPTOR|98=0|108=20|553=USERNAME|554=PASSWORD|1137=7|10=193|8=FIXT.1.1|9=107|35=A|34=591|49=INITIATOR|52=20190603-10:18:37.524|56=ACCEPTOR|98=0|108=20|553=USERNAME|554=PASSWORD|1137=7|10=188|8=FIXT.1.1|9=107|35=A|34=592|49=INITIATOR|52=20190603-10:19:07.555|56=ACCEPTOR|98=0|108=20|553=USERNAME|554=PASSWORD|1137=7|10=191|8=FIXT.1.1|9=107|35=A|34=593|49=INITIATOR|52=20190603-10:19:37.586|56=ACCEPTOR|98=0|108=20|553=USERNAME|554=PASSWORD|1137=7|10=199|8=FIXT.1.1|9=107|35=A|34=594|49=INITIATOR|52=20190603-10:20:07.617|56=ACCEPTOR|98=0|108=20|553=USERNAME|554=PASSWORD|1137=7|10=184|8=FIXT.1.1|9=107|35=A|34=595|49=INITIATOR|52=20190603-10:20:37.647|56=ACCEPTOR|98=0|108=20|553=USERNAME|554=PASSWORD|1137=7|10=191|8=FIXT.1.1|9=107|35=A|34=596|49=INITIATOR|52=20190603-10:21:07.679|56=ACCEPTOR|98=0|108=20|553=USERNAME|554=PASSWORD|1137=7|10=195|8=FIXT.1.1|9=107|35=A|34=597|49=INITIATOR|52=20190603-10:21:37.711|56=ACCEPTOR|98=0|108=20|553=USERNAME|554=PASSWORD|1137=7|10=186|8=FIXT.1.1|9=107|35=A|34=598|49=INITIATOR|52=20190603-10:22:07.742|56=ACCEPTOR|98=0|108=20|553=USERNAME|554=PASSWORD|1137=7|10=189|8=FIXT.1.1|9=107|35=A|34=599|49=INITIATOR|52=20190603-10:22:37.773|56=ACCEPTOR|98=0|108=20|553=USERNAME|554=PASSWORD|1137=7|10=197|8=FIXT.1.1|9=107|35=A|34=600|49=INITIATOR|52=20190603-10:23:07.804|56=ACCEPTOR|98=0|108=20|553=USERNAME|554=PASSWORD|1137=7|10=173|8=FIXT.1.1|9=107|35=A|34=601|49=INITIATOR|52=20190603-10:23:37.833|56=ACCEPTOR|98=0|108=20|553=USERNAME|554=PASSWORD|1137=7|10=179|8=FIXT.1.1|9=107|35=A|34=602|49=INITIATOR|52=20190603-10:24:07.865|56=ACCEPTOR|98=0|108=20|553=USERNAME|554=PASSWORD|1137=7|10=183|8=FIXT.1.1|9=107|35=A|34=603|49=INITIATOR|52=20190603-10:24:37.897|56=ACCEPTOR|98=0|108=20|553=USERNAME|554=PASSWORD|1137=7|10=192|8=FIXT.1.1|9=107|35=A|34=604|49=INITIATOR|52=20190603-10:25:07.929|56=ACCEPTOR|98=0|108=20|553=USERNAME|554=PASSWORD|1137=7|10=187|8=FIXT.1.1|9=107|35=A|34=605|49=INITIATOR|52=20190603-10:25:37.960|56=ACCEPTOR|98=0|108=20|553=USERNAME|554=PASSWORD|1137=7|10=186|8=FIXT.1.1|9=107|35=A|34=606|49=INITIATOR|52=20190603-10:26:07.993|56=ACCEPTOR|98=0|108=20|553=USERNAME|554=PASSWORD|1137=7|10=191|8=FIXT.1.1|9=107|35=A|34=607|49=INITIATOR|52=20190603-10:26:37.023|56=ACCEPTOR|98=0|108=20|553=USERNAME|554=PASSWORD|1137=7|10=179|8=FIXT.1.1|9=107|35=A|34=608|49=INITIATOR|52=20190603-10:27:07.054|56=ACCEPTOR|98=0|108=20|553=USERNAME|554=PASSWORD|1137=7|10=182|8=FIXT.1.1|9=107|35=A|34=609|49=INITIATOR|52=20190603-10:27:37.086|56=ACCEPTOR|98=0|108=20|553=USERNAME|554=PASSWORD|1137=7|10=191|8=FIXT.1.1|9=107|35=A|34=610|49=INITIATOR|52=20190603-10:28:07.116|56=ACCEPTOR|98=0|108=20|553=USERNAME|554=PASSWORD|1137=7|10=175|8=FIXT.1.1|9=107|35=A|34=611|49=INITIATOR|52=20190603-10:28:37.147|56=ACCEPTOR|98=0|108=20|553=USERNAME|554=PASSWORD|1137=7|10=183|8=FIXT.1.1|9=107|35=A|34=612|49=INITIATOR|52=20190603-10:29:07.178|56=ACCEPTOR|98=0|108=20|553=USERNAME|554=PASSWORD|1137=7|10=186|8=FIXT.1.1|9=107|35=A|34=613|49=INITIATOR|52=20190603-10:29:37.212|56=ACCEPTOR|98=0|108=20|553=USERNAME|554=PASSWORD|1137=7|10=179|8=FIXT.1.1|9=107|35=A|34=614|49=INITIATOR|52=20190603-10:30:07.244|56=ACCEPTOR|98=0|108=20|553=USERNAME|554=PASSWORD|1137=7|10=174|8=FIXT.1.1|9=107|35=A|34=615|49=INITIATOR|52=20190603-10:30:37.270|56=ACCEPTOR|98=0|108=20|553=USERNAME|554=PASSWORD|1137=7|10=177|8=FIXT.1.1|9=107|35=A|34=616|49=INITIATOR|52=20190603-10:31:07.301|56=ACCEPTOR|98=0|108=20|553=USERNAME|554=PASSWORD|1137=7|10=171|8=FIXT.1.1|9=107|35=A|34=617|49=INITIATOR|52=20190603-10:31:37.333|56=ACCEPTOR|98=0|108=20|553=USERNAME|554=PASSWORD|1137=7|10=180|8=FIXT.1.1|9=107|35=A|34=618|49=INITIATOR|52=20190603-10:32:07.363|56=ACCEPTOR|98=0|108=20|553=USERNAME|554=PASSWORD|1137=7|10=182|8=FIXT.1.1|9=107|35=A|34=619|49=INITIATOR|52=20190603-10:32:37.392|56=ACCEPTOR|98=0|108=20|553=USERNAME|554=PASSWORD|1137=7|10=188|8=FIXT.1.1|9=107|35=A|34=620|49=INITIATOR|52=20190603-10:33:07.425|56=ACCEPTOR|98=0|108=20|553=USERNAME|554=PASSWORD|1137=7|10=175|8=FIXT.1.1|9=107|35=A|34=621|49=INITIATOR|52=20190603-10:33:37.456|56=ACCEPTOR|98=0|108=20|553=USERNAME|554=PASSWORD|1137=7|10=183|8=FIXT.1.1|9=107|35=A|34=622|49=INITIATOR|52=20190603-10:34:07.486|56=ACCEPTOR|98=0|108=20|553=USERNAME|554=PASSWORD|1137=7|10=185|8=FIXT.1.1|9=107|35=A|34=623|49=INITIATOR|52=20190603-10:34:37.518|56=ACCEPTOR|98=0|108=20|553=USERNAME|554=PASSWORD|1137=7|10=185|8=FIXT.1.1|9=107|35=A|34=624|49=INITIATOR|52=20190603-10:35:07.549|56=ACCEPTOR|98=0|108=20|553=USERNAME|554=PASSWORD|1137=7|10=188|8=FIXT.1.1|9=107|35=A|34=625|49=INITIATOR|52=20190603-10:35:37.580|56=ACCEPTOR|98=0|108=20|553=USERNAME|554=PASSWORD|1137=7|10=187|8=FIXT.1.1|9=107|35=A|34=626|49=INITIATOR|52=20190603-10:36:07.611|56=ACCEPTOR|98=0|108=20|553=USERNAME|554=PASSWORD|1137=7|10=181|8=FIXT.1.1|9=107|35=A|34=627|49=INITIATOR|52=20190603-10:36:37.644|56=ACCEPTOR|98=0|108=20|553=USERNAME|554=PASSWORD|1137=7|10=191|8=FIXT.1.1|9=107|35=A|34=628|49=INITIATOR|52=20190603-10:37:07.676|56=ACCEPTOR|98=0|108=20|553=USERNAME|554=PASSWORD|1137=7|10=195|8=FIXT.1.1|9=107|35=A|34=629|49=INITIATOR|52=20190603-10:37:37.710|56=ACCEPTOR|98=0|108=20|553=USERNAME|554=PASSWORD|1137=7|10=188|8=FIXT.1.1|9=107|35=A|34=630|49=INITIATOR|52=20190603-10:38:07.742|56=ACCEPTOR|98=0|108=20|553=USERNAME|554=PASSWORD|1137=7|10=183|8=FIXT.1.1|9=107|35=A|34=631|49=INITIATOR|52=20190603-10:38:37.772|56=ACCEPTOR|98=0|108=20|553=USERNAME|554=PASSWORD|1137=7|10=190|8=FIXT.1.1|9=107|35=A|34=632|49=INITIATOR|52=20190603-10:39:07.804|56=ACCEPTOR|98=0|108=20|553=USERNAME|554=PASSWORD|1137=7|10=185|8=FIXT.1.1|9=107|35=A|34=633|49=INITIATOR|52=20190603-10:39:37.837|56=ACCEPTOR|98=0|108=20|553=USERNAME|554=PASSWORD|1137=7|10=195|8=FIXT.1.1|9=107|35=A|34=634|49=INITIATOR|52=20190603-10:40:07.869|56=ACCEPTOR|98=0|108=20|553=USERNAME|554=PASSWORD|1137=7|10=190|8=FIXT.1.1|9=107|35=A|34=635|49=INITIATOR|52=20190603-10:40:37.901|56=ACCEPTOR|98=0|108=20|553=USERNAME|554=PASSWORD|1137=7|10=181|8=FIXT.1.1|9=107|35=A|34=636|49=INITIATOR|52=20190603-10:41:07.932|56=ACCEPTOR|98=0|108=20|553=USERNAME|554=PASSWORD|1137=7|10=184|8=FIXT.1.1|9=107|35=A|34=637|49=INITIATOR|52=20190603-10:41:37.961|56=ACCEPTOR|98=0|108=20|553=USERNAME|554=PASSWORD|1137=7|10=190|8=FIXT.1.1|9=107|35=A|34=638|49=INITIATOR|52=20190603-10:42:07.994|56=ACCEPTOR|98=0|108=20|553=USERNAME|554=PASSWORD|1137=7|10=195|8=FIXT.1.1|9=107|35=A|34=639|49=INITIATOR|52=20190603-10:42:37.023|56=ACCEPTOR|98=0|108=20|553=USERNAME|554=PASSWORD|1137=7|10=182|8=FIXT.1.1|9=107|35=A|34=640|49=INITIATOR|52=20190603-10:43:07.055|56=ACCEPTOR|98=0|108=20|553=USERNAME|554=PASSWORD|1137=7|10=177|8=FIXT.1.1|9=107|35=A|34=641|49=INITIATOR|52=20190603-10:43:37.087|56=ACCEPTOR|98=0|108=20|553=USERNAME|554=PASSWORD|1137=7|10=186|8=FIXT.1.1|9=107|35=A|34=642|49=INITIATOR|52=20190603-10:44:07.115|56=ACCEPTOR|98=0|108=20|553=USERNAME|554=PASSWORD|1137=7|10=177|8=FIXT.1.1|9=107|35=A|34=643|49=INITIATOR|52=20190603-10:44:37.145|56=ACCEPTOR|98=0|108=20|553=USERNAME|554=PASSWORD|1137=7|10=184|8=FIXT.1.1|9=107|35=A|34=644|49=INITIATOR|52=20190603-10:45:07.176|56=ACCEPTOR|98=0|108=20|553=USERNAME|554=PASSWORD|1137=7|10=187|8=FIXT.1.1|9=107|35=A|34=645|49=INITIATOR|52=20190603-10:45:37.209|56=ACCEPTOR|98=0|108=20|553=USERNAME|554=PASSWORD|1137=7|10=188|8=FIXT.1.1|9=107|35=A|34=646|49=INITIATOR|52=20190603-10:46:07.240|56=ACCEPTOR|98=0|108=20|553=USERNAME|554=PASSWORD|1137=7|10=182|8=FIXT.1.1|9=107|35=A|34=647|49=INITIATOR|52=20190603-10:46:37.271|56=ACCEPTOR|98=0|108=20|553=USERNAME|554=PASSWORD|1137=7|10=190|8=FIXT.1.1|9=107|35=A|34=648|49=INITIATOR|52=20190603-10:47:07.303|56=ACCEPTOR|98=0|108=20|553=USERNAME|554=PASSWORD|1137=7|10=185|8=FIXT.1.1|9=107|35=A|34=649|49=INITIATOR|52=20190603-10:47:37.333|56=ACCEPTOR|98=0|108=20|553=USERNAME|554=PASSWORD|1137=7|10=192|8=FIXT.1.1|9=107|35=A|34=650|49=INITIATOR|52=20190603-10:48:07.363|56=ACCEPTOR|98=0|108=20|553=USERNAME|554=PASSWORD|1137=7|10=185|8=FIXT.1.1|9=107|35=A|34=651|49=INITIATOR|52=20190603-10:48:37.394|56=ACCEPTOR|98=0|108=20|553=USERNAME|554=PASSWORD|1137=7|10=193|8=FIXT.1.1|9=107|35=A|34=652|49=INITIATOR|52=20190603-10:49:07.426|56=ACCEPTOR|98=0|108=20|553=USERNAME|554=PASSWORD|1137=7|10=188|8=FIXT.1.1|9=107|35=A|34=653|49=INITIATOR|52=20190603-10:49:37.458|56=ACCEPTOR|98=0|108=20|553=USERNAME|554=PASSWORD|1137=7|10=197|8=FIXT.1.1|9=107|35=A|34=654|49=INITIATOR|52=20190603-10:50:07.489|56=ACCEPTOR|98=0|108=20|553=USERNAME|554=PASSWORD|1137=7|10=191|8=FIXT.1.1|9=107|35=A|34=655|49=INITIATOR|52=20190603-10:50:37.521|56=ACCEPTOR|98=0|108=20|553=USERNAME|554=PASSWORD|1137=7|10=182|8=FIXT.1.1|9=107|35=A|34=656|49=INITIATOR|52=20190603-10:51:07.552|56=ACCEPTOR|98=0|108=20|553=USERNAME|554=PASSWORD|1137=7|10=185|8=FIXT.1.1|9=107|35=A|34=657|49=INITIATOR|52=20190603-10:51:37.580|56=ACCEPTOR|98=0|108=20|553=USERNAME|554=PASSWORD|1137=7|10=190|8=FIXT.1.1|9=107|35=A|34=658|49=INITIATOR|52=20190603-10:52:07.612|56=ACCEPTOR|98=0|108=20|553=USERNAME|554=PASSWORD|1137=7|10=185|8=FIXT.1.1|9=107|35=A|34=659|49=INITIATOR|52=20190603-10:52:37.644|56=ACCEPTOR|98=0|108=20|553=USERNAME|554=PASSWORD|1137=7|10=194|8=FIXT.1.1|9=107|35=A|34=660|49=INITIATOR|52=20190603-10:53:07.675|56=ACCEPTOR|98=0|108=20|553=USERNAME|554=PASSWORD|1137=7|10=188|8=FIXT.1.1|9=107|35=A|34=661|49=INITIATOR|52=20190603-10:53:37.689|56=ACCEPTOR|98=0|108=20|553=USERNAME|554=PASSWORD|1137=7|10=197|8=FIXT.1.1|9=107|35=A|34=662|49=INITIATOR|52=20190603-10:54:07.722|56=ACCEPTOR|98=0|108=20|553=USERNAME|554=PASSWORD|1137=7|10=184|8=FIXT.1.1|9=107|35=A|34=663|49=INITIATOR|52=20190603-10:54:37.755|56=ACCEPTOR|98=0|108=20|553=USERNAME|554=PASSWORD|1137=7|10=194|8=FIXT.1.1|9=107|35=A|34=664|49=INITIATOR|52=20190603-10:55:07.782|56=ACCEPTOR|98=0|108=20|553=USERNAME|554=PASSWORD|1137=7|10=193|8=FIXT.1.1|9=107|35=A|34=665|49=INITIATOR|52=20190603-10:55:37.815|56=ACCEPTOR|98=0|108=20|553=USERNAME|554=PASSWORD|1137=7|10=194|8=FIXT.1.1|9=107|35=A|34=666|49=INITIATOR|52=20190603-10:56:07.844|56=ACCEPTOR|98=0|108=20|553=USERNAME|554=PASSWORD|1137=7|10=195|8=FIXT.1.1|9=107|35=A|34=667|49=INITIATOR|52=20190603-10:56:37.874|56=ACCEPTOR|98=0|108=20|553=USERNAME|554=PASSWORD|1137=7|10=202|8=FIXT.1.1|9=107|35=A|34=668|49=INITIATOR|52=20190603-10:57:07.908|56=ACCEPTOR|98=0|108=20|553=USERNAME|554=PASSWORD|1137=7|10=199|8=FIXT.1.1|9=107|35=A|34=669|49=INITIATOR|52=20190603-10:57:37.940|56=ACCEPTOR|98=0|108=20|553=USERNAME|554=PASSWORD|1137=7|10=199|8=FIXT.1.1|9=107|35=A|34=670|49=INITIATOR|52=20190603-10:58:07.971|56=ACCEPTOR|98=0|108=20|553=USERNAME|554=PASSWORD|1137=7|10=193|8=FIXT.1.1|9=107|35=A|34=671|49=INITIATOR|52=20190603-10:58:38.004|56=ACCEPTOR|98=0|108=20|553=USERNAME|554=PASSWORD|1137=7|10=185|8=FIXT.1.1|9=107|35=A|34=672|49=INITIATOR|52=20190603-10:59:07.035|56=ACCEPTOR|98=0|108=20|553=USERNAME|554=PASSWORD|1137=7|10=187|8=FIXT.1.1|9=107|35=A|34=673|49=INITIATOR|52=20190603-10:59:37.067|56=ACCEPTOR|98=0|108=20|553=USERNAME|554=PASSWORD|1137=7|10=196|8=FIXT.1.1|9=107|35=A|34=674|49=INITIATOR|52=20190603-11:00:07.095|56=ACCEPTOR|98=0|108=20|553=USERNAME|554=PASSWORD|1137=7|10=182|8=FIXT.1.1|9=107|35=A|34=675|49=INITIATOR|52=20190603-11:00:37.124|56=ACCEPTOR|98=0|108=20|553=USERNAME|554=PASSWORD|1137=7|10=179|8=FIXT.1.1|9=107|35=A|34=676|49=INITIATOR|52=20190603-11:01:07.153|56=ACCEPTOR|98=0|108=20|553=USERNAME|554=PASSWORD|1137=7|10=180|8=FIXT.1.1|9=107|35=A|34=677|49=INITIATOR|52=20190603-11:01:37.183|56=ACCEPTOR|98=0|108=20|553=USERNAME|554=PASSWORD|1137=7|10=187|8=FIXT.1.1|9=107|35=A|34=678|49=INITIATOR|52=20190603-11:02:07.213|56=ACCEPTOR|98=0|108=20|553=USERNAME|554=PASSWORD|1137=7|10=180|8=FIXT.1.1|9=107|35=A|34=679|49=INITIATOR|52=20190603-11:02:37.244|56=ACCEPTOR|98=0|108=20|553=USERNAME|554=PASSWORD|1137=7|10=188|8=FIXT.1.1|9=107|35=A|34=680|49=INITIATOR|52=20190603-11:03:07.273|56=ACCEPTOR|98=0|108=20|553=USERNAME|554=PASSWORD|1137=7|10=180|8=FIXT.1.1|9=107|35=A|34=681|49=INITIATOR|52=20190603-11:03:37.301|56=ACCEPTOR|98=0|108=20|553=USERNAME|554=PASSWORD|1137=7|10=176|8=FIXT.1.1|9=107|35=A|34=682|49=INITIATOR|52=20190603-11:04:07.332|56=ACCEPTOR|98=0|108=20|553=USERNAME|554=PASSWORD|1137=7|10=179|8=FIXT.1.1|9=107|35=A|34=683|49=INITIATOR|52=20190603-11:04:37.364|56=ACCEPTOR|98=0|108=20|553=USERNAME|554=PASSWORD|1137=7|10=188|8=FIXT.1.1|9=107|35=A|34=684|49=INITIATOR|52=20190603-11:05:07.389|56=ACCEPTOR|98=0|108=20|553=USERNAME|554=PASSWORD|1137=7|10=194|8=FIXT.1.1|9=107|35=A|34=685|49=INITIATOR|52=20190603-11:05:37.420|56=ACCEPTOR|98=0|108=20|553=USERNAME|554=PASSWORD|1137=7|10=184|8=FIXT.1.1|9=107|35=A|34=686|49=INITIATOR|52=20190603-11:06:07.450|56=ACCEPTOR|98=0|108=20|553=USERNAME|554=PASSWORD|1137=7|10=186|8=FIXT.1.1|9=107|35=A|34=687|49=INITIATOR|52=20190603-11:06:37.481|56=ACCEPTOR|98=0|108=20|553=USERNAME|554=PASSWORD|1137=7|10=194|8=FIXT.1.1|9=107|35=A|34=688|49=INITIATOR|52=20190603-11:07:07.508|56=ACCEPTOR|98=0|108=20|553=USERNAME|554=PASSWORD|1137=7|10=193|8=FIXT.1.1|9=107|35=A|34=689|49=INITIATOR|52=20190603-11:07:37.540|56=ACCEPTOR|98=0|108=20|553=USERNAME|554=PASSWORD|1137=7|10=193|8=FIXT.1.1|9=107|35=A|34=690|49=INITIATOR|52=20190603-11:08:07.571|56=ACCEPTOR|98=0|108=20|553=USERNAME|554=PASSWORD|1137=7|10=187|8=FIXT.1.1|9=107|35=A|34=691|49=INITIATOR|52=20190603-11:08:37.599|56=ACCEPTOR|98=0|108=20|553=USERNAME|554=PASSWORD|1137=7|10=201|8=FIXT.1.1|9=107|35=A|34=692|49=INITIATOR|52=20190603-11:09:07.630|56=ACCEPTOR|98=0|108=20|553=USERNAME|554=PASSWORD|1137=7|10=186|8=FIXT.1.1|9=107|35=A|34=693|49=INITIATOR|52=20190603-11:09:37.663|56=ACCEPTOR|98=0|108=20|553=USERNAME|554=PASSWORD|1137=7|10=196|8=FIXT.1.1|9=107|35=A|34=694|49=INITIATOR|52=20190603-11:10:07.695|56=ACCEPTOR|98=0|108=20|553=USERNAME|554=PASSWORD|1137=7|10=191|8=FIXT.1.1|9=107|35=A|34=695|49=INITIATOR|52=20190603-11:10:37.728|56=ACCEPTOR|98=0|108=20|553=USERNAME|554=PASSWORD|1137=7|10=192|8=FIXT.1.1|9=107|35=A|34=696|49=INITIATOR|52=20190603-11:11:07.759|56=ACCEPTOR|98=0|108=20|553=USERNAME|554=PASSWORD|1137=7|10=195|8=FIXT.1.1|9=107|35=A|34=697|49=INITIATOR|52=20190603-11:11:37.789|56=ACCEPTOR|98=0|108=20|553=USERNAME|554=PASSWORD|1137=7|10=202|8=FIXT.1.1|9=107|35=A|34=698|49=INITIATOR|52=20190603-11:12:07.819|56=ACCEPTOR|98=0|108=20|553=USERNAME|554=PASSWORD|1137=7|10=195|8=FIXT.1.1|9=107|35=A|34=699|49=INITIATOR|52=20190603-11:12:37.851|56=ACCEPTOR|98=0|108=20|553=USERNAME|554=PASSWORD|1137=7|10=195|8=FIXT.1.1|9=107|35=A|34=700|49=INITIATOR|52=20190603-11:13:07.885|56=ACCEPTOR|98=0|108=20|553=USERNAME|554=PASSWORD|1137=7|10=183|8=FIXT.1.1|9=107|35=A|34=701|49=INITIATOR|52=20190603-11:13:37.917|56=ACCEPTOR|98=0|108=20|553=USERNAME|554=PASSWORD|1137=7|10=183|8=FIXT.1.1|9=107|35=A|34=702|49=INITIATOR|52=20190603-11:14:07.950|56=ACCEPTOR|98=0|108=20|553=USERNAME|554=PASSWORD|1137=7|10=179|8=FIXT.1.1|9=107|35=A|34=703|49=INITIATOR|52=20190603-11:14:37.981|56=ACCEPTOR|98=0|108=20|553=USERNAME|554=PASSWORD|1137=7|10=187|8=FIXT.1.1|9=107|35=A|34=704|49=INITIATOR|52=20190603-11:15:07.012|56=ACCEPTOR|98=0|108=20|553=USERNAME|554=PASSWORD|1137=7|10=171|8=FIXT.1.1|9=107|35=A|34=705|49=INITIATOR|52=20190603-11:15:37.045|56=ACCEPTOR|98=0|108=20|553=USERNAME|554=PASSWORD|1137=7|10=181|8=FIXT.1.1|9=107|35=A|34=706|49=INITIATOR|52=20190603-11:16:07.077|56=ACCEPTOR|98=0|108=20|553=USERNAME|554=PASSWORD|1137=7|10=185|8=FIXT.1.1|9=107|35=A|34=707|49=INITIATOR|52=20190603-11:16:37.106|56=ACCEPTOR|98=0|108=20|553=USERNAME|554=PASSWORD|1137=7|10=182|8=FIXT.1.1|9=107|35=A|34=708|49=INITIATOR|52=20190603-11:17:07.138|56=ACCEPTOR|98=0|108=20|553=USERNAME|554=PASSWORD|1137=7|10=186|8=FIXT.1.1|9=107|35=A|34=709|49=INITIATOR|52=20190603-11:17:37.170|56=ACCEPTOR|98=0|108=20|553=USERNAME|554=PASSWORD|1137=7|10=186|8=FIXT.1.1|9=107|35=A|34=710|49=INITIATOR|52=20190603-11:18:07.203|56=ACCEPTOR|98=0|108=20|553=USERNAME|554=PASSWORD|1137=7|10=173|8=FIXT.1.1|9=107|35=A|34=711|49=INITIATOR|52=20190603-11:18:37.235|56=ACCEPTOR|98=0|108=20|553=USERNAME|554=PASSWORD|1137=7|10=182|8=FIXT.1.1|9=107|35=A|34=712|49=INITIATOR|52=20190603-11:19:07.266|56=ACCEPTOR|98=0|108=20|553=USERNAME|554=PASSWORD|1137=7|10=185|8=FIXT.1.1|9=107|35=A|34=713|49=INITIATOR|52=20190603-11:19:37.298|56=ACCEPTOR|98=0|108=20|553=USERNAME|554=PASSWORD|1137=7|10=194|8=FIXT.1.1|9=107|35=A|34=714|49=INITIATOR|52=20190603-11:20:07.330|56=ACCEPTOR|98=0|108=20|553=USERNAME|554=PASSWORD|1137=7|10=171|8=FIXT.1.1|9=107|35=A|34=715|49=INITIATOR|52=20190603-11:20:37.361|56=ACCEPTOR|98=0|108=20|553=USERNAME|554=PASSWORD|1137=7|10=179|8=FIXT.1.1|9=107|35=A|34=716|49=INITIATOR|52=20190603-11:21:07.389|56=ACCEPTOR|98=0|108=20|553=USERNAME|554=PASSWORD|1137=7|10=188|8=FIXT.1.1|9=107|35=A|34=717|49=INITIATOR|52=20190603-11:21:37.416|56=ACCEPTOR|98=0|108=20|553=USERNAME|554=PASSWORD|1137=7|10=183|8=FIXT.1.1|9=107|35=A|34=718|49=INITIATOR|52=20190603-11:22:07.446|56=ACCEPTOR|98=0|108=20|553=USERNAME|554=PASSWORD|1137=7|10=185|8=FIXT.1.1|9=107|35=A|34=719|49=INITIATOR|52=20190603-11:22:37.477|56=ACCEPTOR|98=0|108=20|553=USERNAME|554=PASSWORD|1137=7|10=193|8=FIXT.1.1|9=107|35=A|34=720|49=INITIATOR|52=20190603-11:23:07.507|56=ACCEPTOR|98=0|108=20|553=USERNAME|554=PASSWORD|1137=7|10=177|8=FIXT.1.1|9=107|35=A|34=721|49=INITIATOR|52=20190603-11:23:37.539|56=ACCEPTOR|98=0|108=20|553=USERNAME|554=PASSWORD|1137=7|10=186|8=FIXT.1.1|9=107|35=A|34=722|49=INITIATOR|52=20190603-11:24:07.572|56=ACCEPTOR|98=0|108=20|553=USERNAME|554=PASSWORD|1137=7|10=182|8=FIXT.1.1|9=107|35=A|34=723|49=INITIATOR|52=20190603-11:24:37.604|56=ACCEPTOR|98=0|108=20|553=USERNAME|554=PASSWORD|1137=7|10=182|8=FIXT.1.1|9=107|35=A|34=724|49=INITIATOR|52=20190603-11:25:07.632|56=ACCEPTOR|98=0|108=20|553=USERNAME|554=PASSWORD|1137=7|10=182|8=FIXT.1.1|9=107|35=A|34=725|49=INITIATOR|52=20190603-11:25:37.663|56=ACCEPTOR|98=0|108=20|553=USERNAME|554=PASSWORD|1137=7|10=190|8=FIXT.1.1|9=107|35=A|34=726|49=INITIATOR|52=20190603-11:26:07.694|56=ACCEPTOR|98=0|108=20|553=USERNAME|554=PASSWORD|1137=7|10=193|8=FIXT.1.1|9=107|35=A|34=727|49=INITIATOR|52=20190603-11:26:37.726|56=ACCEPTOR|98=0|108=20|553=USERNAME|554=PASSWORD|1137=7|10=193|8=FIXT.1.1|9=107|35=A|34=728|49=INITIATOR|52=20190603-11:27:07.758|56=ACCEPTOR|98=0|108=20|553=USERNAME|554=PASSWORD|1137=7|10=197|8=FIXT.1.1|9=107|35=A|34=729|49=INITIATOR|52=20190603-11:27:37.783|56=ACCEPTOR|98=0|108=20|553=USERNAME|554=PASSWORD|1137=7|10=199|8=FIXT.1.1|9=107|35=A|34=730|49=INITIATOR|52=20190603-11:28:07.812|56=ACCEPTOR|98=0|108=20|553=USERNAME|554=PASSWORD|1137=7|10=182|8=FIXT.1.1|9=107|35=A|34=731|49=INITIATOR|52=20190603-11:28:37.845|56=ACCEPTOR|98=0|108=20|553=USERNAME|554=PASSWORD|1137=7|10=192|8=FIXT.1.1|9=107|35=A|34=732|49=INITIATOR|52=20190603-11:29:07.880|56=ACCEPTOR|98=0|108=20|553=USERNAME|554=PASSWORD|1137=7|10=190|8=FIXT.1.1|9=107|35=A|34=733|49=INITIATOR|52=20190603-11:29:37.911|56=ACCEPTOR|98=0|108=20|553=USERNAME|554=PASSWORD|1137=7|10=189|8=FIXT.1.1|9=107|35=A|34=734|49=INITIATOR|52=20190603-11:30:07.942|56=ACCEPTOR|98=0|108=20|553=USERNAME|554=PASSWORD|1137=7|10=183|8=FIXT.1.1|9=107|35=A|34=735|49=INITIATOR|52=20190603-11:30:37.974|56=ACCEPTOR|98=0|108=20|553=USERNAME|554=PASSWORD|1137=7|10=192|8=FIXT.1.1|9=107|35=A|34=736|49=INITIATOR|52=20190603-11:31:08.005|56=ACCEPTOR|98=0|108=20|553=USERNAME|554=PASSWORD|1137=7|10=177|8=FIXT.1.1|9=107|35=A|34=737|49=INITIATOR|52=20190603-11:31:38.038|56=ACCEPTOR|98=0|108=20|553=USERNAME|554=PASSWORD|1137=7|10=187|8=FIXT.1.1|9=107|35=A|34=738|49=INITIATOR|52=20190603-11:32:08.071|56=ACCEPTOR|98=0|108=20|553=USERNAME|554=PASSWORD|1137=7|10=183|8=FIXT.1.1|9=107|35=A|34=739|49=INITIATOR|52=20190603-11:32:38.102|56=ACCEPTOR|98=0|108=20|553=USERNAME|554=PASSWORD|1137=7|10=182|8=FIXT.1.1|9=107|35=A|34=740|49=INITIATOR|52=20190603-11:33:08.134|56=ACCEPTOR|98=0|108=20|553=USERNAME|554=PASSWORD|1137=7|10=177|8=FIXT.1.1|9=107|35=A|34=741|49=INITIATOR|52=20190603-11:33:38.165|56=ACCEPTOR|98=0|108=20|553=USERNAME|554=PASSWORD|1137=7|10=185|8=FIXT.1.1|9=107|35=A|34=742|49=INITIATOR|52=20190603-11:34:08.196|56=ACCEPTOR|98=0|108=20|553=USERNAME|554=PASSWORD|1137=7|10=188|8=FIXT.1.1|9=107|35=A|34=743|49=INITIATOR|52=20190603-11:34:38.229|56=ACCEPTOR|98=0|108=20|553=USERNAME|554=PASSWORD|1137=7|10=189|8=FIXT.1.1|9=107|35=A|34=744|49=INITIATOR|52=20190603-11:35:08.263|56=ACCEPTOR|98=0|108=20|553=USERNAME|554=PASSWORD|1137=7|10=186|8=FIXT.1.1|9=107|35=A|34=745|49=INITIATOR|52=20190603-11:35:38.292|56=ACCEPTOR|98=0|108=20|553=USERNAME|554=PASSWORD|1137=7|10=192|8=FIXT.1.1|9=107|35=A|34=746|49=INITIATOR|52=20190603-11:36:08.322|56=ACCEPTOR|98=0|108=20|553=USERNAME|554=PASSWORD|1137=7|10=185|8=FIXT.1.1|9=107|35=A|34=747|49=INITIATOR|52=20190603-11:36:38.354|56=ACCEPTOR|98=0|108=20|553=USERNAME|554=PASSWORD|1137=7|10=194|8=FIXT.1.1|9=107|35=A|34=748|49=INITIATOR|52=20190603-11:37:08.387|56=ACCEPTOR|98=0|108=20|553=USERNAME|554=PASSWORD|1137=7|10=199|8=FIXT.1.1|9=107|35=A|34=749|49=INITIATOR|52=20190603-11:37:38.418|56=ACCEPTOR|98=0|108=20|553=USERNAME|554=PASSWORD|1137=7|10=198|8=FIXT.1.1|9=107|35=A|34=750|49=INITIATOR|52=20190603-11:38:08.449|56=ACCEPTOR|98=0|108=20|553=USERNAME|554=PASSWORD|1137=7|10=192|8=FIXT.1.1|9=107|35=A|34=751|49=INITIATOR|52=20190603-11:38:38.477|56=ACCEPTOR|98=0|108=20|553=USERNAME|554=PASSWORD|1137=7|10=197|8=FIXT.1.1|9=107|35=A|34=752|49=INITIATOR|52=20190603-11:39:08.497|56=ACCEPTOR|98=0|108=20|553=USERNAME|554=PASSWORD|1137=7|10=198|8=FIXT.1.1|9=107|35=A|34=753|49=INITIATOR|52=20190603-11:39:38.526|56=ACCEPTOR|98=0|108=20|553=USERNAME|554=PASSWORD|1137=7|10=195|8=FIXT.1.1|9=107|35=A|34=754|49=INITIATOR|52=20190603-11:40:08.555|56=ACCEPTOR|98=0|108=20|553=USERNAME|554=PASSWORD|1137=7|10=187|8=FIXT.1.1|9=107|35=A|34=755|49=INITIATOR|52=20190603-11:40:38.584|56=ACCEPTOR|98=0|108=20|553=USERNAME|554=PASSWORD|1137=7|10=193|8=FIXT.1.1|9=107|35=A|34=756|49=INITIATOR|52=20190603-11:41:08.611|56=ACCEPTOR|98=0|108=20|553=USERNAME|554=PASSWORD|1137=7|10=183|8=FIXT.1.1|9=107|35=A|34=757|49=INITIATOR|52=20190603-11:41:38.641|56=ACCEPTOR|98=0|108=20|553=USERNAME|554=PASSWORD|1137=7|10=190|8=FIXT.1.1|9=107|35=A|34=758|49=INITIATOR|52=20190603-11:42:08.671|56=ACCEPTOR|98=0|108=20|553=USERNAME|554=PASSWORD|1137=7|10=192|8=FIXT.1.1|9=107|35=A|34=759|49=INITIATOR|52=20190603-11:42:38.701|56=ACCEPTOR|98=0|108=20|553=USERNAME|554=PASSWORD|1137=7|10=190|8=FIXT.1.1|9=107|35=A|34=760|49=INITIATOR|52=20190603-11:43:08.733|56=ACCEPTOR|98=0|108=20|553=USERNAME|554=PASSWORD|1137=7|10=185|8=FIXT.1.1|9=107|35=A|34=761|49=INITIATOR|52=20190603-11:43:38.765|56=ACCEPTOR|98=0|108=20|553=USERNAME|554=PASSWORD|1137=7|10=194|8=FIXT.1.1|9=107|35=A|34=762|49=INITIATOR|52=20190603-11:44:08.797|56=ACCEPTOR|98=0|108=20|553=USERNAME|554=PASSWORD|1137=7|10=198|8=FIXT.1.1|9=107|35=A|34=763|49=INITIATOR|52=20190603-11:44:38.828|56=ACCEPTOR|98=0|108=20|553=USERNAME|554=PASSWORD|1137=7|10=197|8=FIXT.1.1|9=107|35=A|34=764|49=INITIATOR|52=20190603-11:45:08.859|56=ACCEPTOR|98=0|108=20|553=USERNAME|554=PASSWORD|1137=7|10=200|8=FIXT.1.1|9=107|35=A|34=765|49=INITIATOR|52=20190603-11:45:38.888|56=ACCEPTOR|98=0|108=20|553=USERNAME|554=PASSWORD|1137=7|10=206|8=FIXT.1.1|9=107|35=A|34=766|49=INITIATOR|52=20190603-11:46:08.918|56=ACCEPTOR|98=0|108=20|553=USERNAME|554=PASSWORD|1137=7|10=199|8=FIXT.1.1|9=107|35=A|34=767|49=INITIATOR|52=20190603-11:46:38.949|56=ACCEPTOR|98=0|108=20|553=USERNAME|554=PASSWORD|1137=7|10=207|8=FIXT.1.1|9=107|35=A|34=768|49=INITIATOR|52=20190603-11:47:08.982|56=ACCEPTOR|98=0|108=20|553=USERNAME|554=PASSWORD|1137=7|10=203|8=FIXT.1.1|9=107|35=A|34=769|49=INITIATOR|52=20190603-11:47:38.013|56=ACCEPTOR|98=0|108=20|553=USERNAME|554=PASSWORD|1137=7|10=192|8=FIXT.1.1|9=107|35=A|34=770|49=INITIATOR|52=20190603-11:48:08.043|56=ACCEPTOR|98=0|108=20|553=USERNAME|554=PASSWORD|1137=7|10=185|8=FIXT.1.1|9=107|35=A|34=771|49=INITIATOR|52=20190603-11:48:38.073|56=ACCEPTOR|98=0|108=20|553=USERNAME|554=PASSWORD|1137=7|10=192|8=FIXT.1.1|9=107|35=A|34=772|49=INITIATOR|52=20190603-11:49:08.106|56=ACCEPTOR|98=0|108=20|553=USERNAME|554=PASSWORD|1137=7|10=188|8=FIXT.1.1|9=107|35=A|34=773|49=INITIATOR|52=20190603-11:49:38.136|56=ACCEPTOR|98=0|108=20|553=USERNAME|554=PASSWORD|1137=7|10=195|8=FIXT.1.1|9=107|35=A|34=774|49=INITIATOR|52=20190603-11:50:08.168|56=ACCEPTOR|98=0|108=20|553=USERNAME|554=PASSWORD|1137=7|10=190|8=FIXT.1.1|9=107|35=A|34=775|49=INITIATOR|52=20190603-11:50:38.193|56=ACCEPTOR|98=0|108=20|553=USERNAME|554=PASSWORD|1137=7|10=192|8=FIXT.1.1|9=107|35=A|34=776|49=INITIATOR|52=20190603-11:51:08.224|56=ACCEPTOR|98=0|108=20|553=USERNAME|554=PASSWORD|1137=7|10=186|8=FIXT.1.1|9=107|35=A|34=777|49=INITIATOR|52=20190603-11:51:38.252|56=ACCEPTOR|98=0|108=20|553=USERNAME|554=PASSWORD|1137=7|10=191|8=FIXT.1.1|9=107|35=A|34=778|49=INITIATOR|52=20190603-11:52:08.283|56=ACCEPTOR|98=0|108=20|553=USERNAME|554=PASSWORD|1137=7|10=194|8=FIXT.1.1|9=107|35=A|34=779|49=INITIATOR|52=20190603-11:52:38.314|56=ACCEPTOR|98=0|108=20|553=USERNAME|554=PASSWORD|1137=7|10=193|8=FIXT.1.1|9=107|35=A|34=780|49=INITIATOR|52=20190603-11:53:08.345|56=ACCEPTOR|98=0|108=20|553=USERNAME|554=PASSWORD|1137=7|10=187|8=FIXT.1.1|9=107|35=A|34=781|49=INITIATOR|52=20190603-11:53:38.374|56=ACCEPTOR|98=0|108=20|553=USERNAME|554=PASSWORD|1137=7|10=193|8=FIXT.1.1|9=107|35=A|34=782|49=INITIATOR|52=20190603-11:54:08.404|56=ACCEPTOR|98=0|108=20|553=USERNAME|554=PASSWORD|1137=7|10=186|8=FIXT.1.1|9=107|35=A|34=783|49=INITIATOR|52=20190603-11:54:38.431|56=ACCEPTOR|98=0|108=20|553=USERNAME|554=PASSWORD|1137=7|10=190|8=FIXT.1.1|9=107|35=A|34=784|49=INITIATOR|52=20190603-11:55:08.461|56=ACCEPTOR|98=0|108=20|553=USERNAME|554=PASSWORD|1137=7|10=192|8=FIXT.1.1|9=107|35=A|34=785|49=INITIATOR|52=20190603-11:55:38.490|56=ACCEPTOR|98=0|108=20|553=USERNAME|554=PASSWORD|1137=7|10=198|8=FIXT.1.1|9=107|35=A|34=786|49=INITIATOR|52=20190603-11:56:08.521|56=ACCEPTOR|98=0|108=20|553=USERNAME|554=PASSWORD|1137=7|10=192|8=FIXT.1.1|9=107|35=A|34=787|49=INITIATOR|52=20190603-11:56:38.553|56=ACCEPTOR|98=0|108=20|553=USERNAME|554=PASSWORD|1137=7|10=201|8=FIXT.1.1|9=107|35=A|34=788|49=INITIATOR|52=20190603-11:57:08.581|56=ACCEPTOR|98=0|108=20|553=USERNAME|554=PASSWORD|1137=7|10=201|8=FIXT.1.1|9=107|35=A|34=789|49=INITIATOR|52=20190603-11:57:38.612|56=ACCEPTOR|98=0|108=20|553=USERNAME|554=PASSWORD|1137=7|10=200|8=FIXT.1.1|9=107|35=A|34=790|49=INITIATOR|52=20190603-11:58:08.643|56=ACCEPTOR|98=0|108=20|553=USERNAME|554=PASSWORD|1137=7|10=194|8=FIXT.1.1|9=107|35=A|34=791|49=INITIATOR|52=20190603-11:58:38.672|56=ACCEPTOR|98=0|108=20|553=USERNAME|554=PASSWORD|1137=7|10=200|8=FIXT.1.1|9=107|35=A|34=792|49=INITIATOR|52=20190603-11:59:08.701|56=ACCEPTOR|98=0|108=20|553=USERNAME|554=PASSWORD|1137=7|10=192|8=FIXT.1.1|9=107|35=A|34=793|49=INITIATOR|52=20190603-11:59:38.729|56=ACCEPTOR|98=0|108=20|553=USERNAME|554=PASSWORD|1137=7|10=206|8=FIXT.1.1|9=107|35=A|34=794|49=INITIATOR|52=20190603-12:00:08.759|56=ACCEPTOR|98=0|108=20|553=USERNAME|554=PASSWORD|1137=7|10=194|8=FIXT.1.1|9=107|35=A|34=795|49=INITIATOR|52=20190603-12:00:38.790|56=ACCEPTOR|98=0|108=20|553=USERNAME|554=PASSWORD|1137=7|10=193|8=FIXT.1.1|9=107|35=A|34=796|49=INITIATOR|52=20190603-12:01:08.821|56=ACCEPTOR|98=0|108=20|553=USERNAME|554=PASSWORD|1137=7|10=187|8=FIXT.1.1|9=107|35=A|34=797|49=INITIATOR|52=20190603-12:01:38.853|56=ACCEPTOR|98=0|108=20|553=USERNAME|554=PASSWORD|1137=7|10=196|8=FIXT.1.1|9=107|35=A|34=798|49=INITIATOR|52=20190603-12:02:08.877|56=ACCEPTOR|98=0|108=20|553=USERNAME|554=PASSWORD|1137=7|10=201|8=FIXT.1.1|9=107|35=A|34=799|49=INITIATOR|52=20190603-12:02:38.907|56=ACCEPTOR|98=0|108=20|553=USERNAME|554=PASSWORD|1137=7|10=199|8=FIXT.1.1|9=107|35=A|34=800|49=INITIATOR|52=20190603-12:03:08.939|56=ACCEPTOR|98=0|108=20|553=USERNAME|554=PASSWORD|1137=7|10=185|8=FIXT.1.1|9=107|35=A|34=801|49=INITIATOR|52=20190603-12:03:38.970|56=ACCEPTOR|98=0|108=20|553=USERNAME|554=PASSWORD|1137=7|10=184|8=FIXT.1.1|9=107|35=A|34=802|49=INITIATOR|52=20190603-12:04:09.000|56=ACCEPTOR|98=0|108=20|553=USERNAME|554=PASSWORD|1137=7|10=168|8=FIXT.1.1|9=107|35=A|34=803|49=INITIATOR|52=20190603-12:04:38.032|56=ACCEPTOR|98=0|108=20|553=USERNAME|554=PASSWORD|1137=7|10=176|8=FIXT.1.1|9=107|35=A|34=804|49=INITIATOR|52=20190603-12:05:08.063|56=ACCEPTOR|98=0|108=20|553=USERNAME|554=PASSWORD|1137=7|10=179|8=FIXT.1.1|9=107|35=A|34=805|49=INITIATOR|52=20190603-12:05:38.095|56=ACCEPTOR|98=0|108=20|553=USERNAME|554=PASSWORD|1137=7|10=188|8=FIXT.1.1|9=107|35=A|34=806|49=INITIATOR|52=20190603-12:06:08.122|56=ACCEPTOR|98=0|108=20|553=USERNAME|554=PASSWORD|1137=7|10=178|8=FIXT.1.1|9=107|35=A|34=807|49=INITIATOR|52=20190603-12:06:38.154|56=ACCEPTOR|98=0|108=20|553=USERNAME|554=PASSWORD|1137=7|10=187|8=FIXT.1.1|9=107|35=A|34=808|49=INITIATOR|52=20190603-12:07:08.186|56=ACCEPTOR|98=0|108=20|553=USERNAME|554=PASSWORD|1137=7|10=191|8=FIXT.1.1|9=107|35=A|34=809|49=INITIATOR|52=20190603-12:07:38.217|56=ACCEPTOR|98=0|108=20|553=USERNAME|554=PASSWORD|1137=7|10=190|8=FIXT.1.1|9=107|35=A|34=810|49=INITIATOR|52=20190603-12:08:08.247|56=ACCEPTOR|98=0|108=20|553=USERNAME|554=PASSWORD|1137=7|10=183|8=FIXT.1.1|9=107|35=A|34=811|49=INITIATOR|52=20190603-12:08:38.280|56=ACCEPTOR|98=0|108=20|553=USERNAME|554=PASSWORD|1137=7|10=184|8=FIXT.1.1|9=