8=FIXT.1.1|9=99|35=A|34=1|49=DINOSAUR|52=20190604-06:58:24.539|56=NEX|98=0|108=20|553=USERNAME|554=PASSWORD|1137=7|10=128|8=FIXT.1.1|9=99|35=A|34=2|49=DINOSAUR|52=20190604-06:58:54.568|56=NEX|98=0|108=20|553=USERNAME|554=PASSWORD|1137=7|10=134|8=FIXT.1.1|9=99|35=A|34=3|49=DINOSAUR|52=20190604-06:59:24.595|56=NEX|98=0|108=20|553=USERNAME|554=PASSWORD|1137=7|10=133|8=FIXT.1.1|9=99|35=A|34=4|49=DINOSAUR|52=20190604-06:59:54.640|56=NEX|98=0|108=20|553=USERNAME|554=PASSWORD|1137=7|10=128|8=FIXT.1.1|9=99|35=A|34=5|49=DINOSAUR|52=20190604-07:00:51.234|56=NEX|98=0|108=20|553=USERNAME|554=PASSWORD|1137=7|10=112|8=FIXT.1.1|9=99|35=A|34=6|49=DINOSAUR|52=20190604-07:01:21.257|56=NEX|98=0|108=20|553=USERNAME|554=PASSWORD|1137=7|10=116|8=FIXT.1.1|9=99|35=A|34=7|49=DINOSAUR|52=20190604-07:01:51.285|56=NEX|98=0|108=20|553=USERNAME|554=PASSWORD|1137=7|10=121|8=FIXT.1.1|9=99|35=A|34=8|49=DINOSAUR|52=20190604-07:02:21.313|56=NEX|98=0|108=20|553=USERNAME|554=PASSWORD|1137=7|10=112|8=FIXT.1.1|9=99|35=A|34=9|49=DINOSAUR|52=20190604-07:02:43.404|56=NEX|98=0|108=20|553=USERNAME|554=PASSWORD|1137=7|10=118|8=FIXT.1.1|9=100|35=A|34=10|49=DINOSAUR|52=20190604-07:03:19.424|56=NEX|98=0|108=20|553=USERNAME|554=PASSWORD|1137=7|10=195|8=FIXT.1.1|9=100|35=A|34=11|49=DINOSAUR|52=20190604-07:08:37.718|56=NEX|98=0|108=20|553=USERNAME|554=PASSWORD|1137=7|10=207|8=FIXT.1.1|9=100|35=A|34=12|49=DINOSAUR|52=20190604-07:09:07.746|56=NEX|98=0|108=20|553=USERNAME|554=PASSWORD|1137=7|10=207|8=FIXT.1.1|9=100|35=A|34=13|49=DINOSAUR|52=20190604-07:09:37.776|56=NEX|98=0|108=20|553=USERNAME|554=PASSWORD|1137=7|10=214|8=FIXT.1.1|9=100|35=A|34=14|49=DINOSAUR|52=20190604-07:10:07.805|56=NEX|98=0|108=20|553=USERNAME|554=PASSWORD|1137=7|10=197|8=FIXT.1.1|9=100|35=A|34=15|49=DINOSAUR|52=20190604-07:10:37.835|56=NEX|98=0|108=20|553=USERNAME|554=PASSWORD|1137=7|10=204|8=FIXT.1.1|9=100|35=A|34=16|49=DINOSAUR|52=20190604-07:11:07.865|56=NEX|98=0|108=20|553=USERNAME|554=PASSWORD|1137=7|10=206|8=FIXT.1.1|9=100|35=A|34=17|49=DINOSAUR|52=20190604-07:11:37.894|56=NEX|98=0|108=20|553=USERNAME|554=PASSWORD|1137=7|10=212|8=FIXT.1.1|9=100|35=A|34=18|49=DINOSAUR|52=20190604-07:12:07.922|56=NEX|98=0|108=20|553=USERNAME|554=PASSWORD|1137=7|10=203|8=FIXT.1.1|9=100|35=A|34=19|49=DINOSAUR|52=20190604-07:12:37.949|56=NEX|98=0|108=20|553=USERNAME|554=PASSWORD|1137=7|10=216|8=FIXT.1.1|9=100|35=A|34=20|49=DINOSAUR|52=20190604-07:13:07.981|56=NEX|98=0|108=20|553=USERNAME|554=PASSWORD|1137=7|10=202|8=FIXT.1.1|9=100|35=A|34=21|49=DINOSAUR|52=20190604-07:13:37.010|56=NEX|98=0|108=20|553=USERNAME|554=PASSWORD|1137=7|10=189|8=FIXT.1.1|9=100|35=A|34=22|49=DINOSAUR|52=20190604-07:14:07.038|56=NEX|98=0|108=20|553=USERNAME|554=PASSWORD|1137=7|10=198|8=FIXT.1.1|9=100|35=A|34=23|49=DINOSAUR|52=20190604-07:14:37.069|56=NEX|98=0|108=20|553=USERNAME|554=PASSWORD|1137=7|10=206|8=FIXT.1.1|9=100|35=A|34=24|49=DINOSAUR|52=20190604-07:15:07.097|56=NEX|98=0|108=20|553=USERNAME|554=PASSWORD|1137=7|10=206|8=FIXT.1.1|9=100|35=A|34=25|49=DINOSAUR|52=20190604-07:15:37.127|56=NEX|98=0|108=20|553=USERNAME|554=PASSWORD|1137=7|10=204|8=FIXT.1.1|9=100|35=A|34=26|49=DINOSAUR|52=20190604-07:16:07.157|56=NEX|98=0|108=20|553=USERNAME|554=PASSWORD|1137=7|10=206|8=FIXT.1.1|9=100|35=A|34=27|49=DINOSAUR|52=20190604-07:16:37.185|56=NEX|98=0|108=20|553=USERNAME|554=PASSWORD|1137=7|10=211|8=FIXT.1.1|9=100|35=A|34=28|49=DINOSAUR|52=20190604-07:17:07.213|56=NEX|98=0|108=20|553=USERNAME|554=PASSWORD|1137=7|10=202|8=FIXT.1.1|9=100|35=A|34=29|49=DINOSAUR|52=20190604-07:17:37.244|56=NEX|98=0|108=20|553=USERNAME|554=PASSWORD|1137=7|10=210|8=FIXT.1.1|9=100|35=A|34=30|49=DINOSAUR|52=20190604-07:18:07.273|56=NEX|98=0|108=20|553=USERNAME|554=PASSWORD|1137=7|10=202|8=FIXT.1.1|9=100|35=A|34=31|49=DINOSAUR|52=20190604-07:18:37.302|56=NEX|98=0|108=20|553=USERNAME|554=PASSWORD|1137=7|10=199|8=FIXT.1.1|9=100|35=A|34=32|49=DINOSAUR|52=20190604-07:19:07.332|56=NEX|98=0|108=20|553=USERNAME|554=PASSWORD|1137=7|10=201|8=FIXT.1.1|9=100|35=A|34=33|49=DINOSAUR|52=20190604-07:19:37.363|56=NEX|98=0|108=20|553=USERNAME|554=PASSWORD|1137=7|10=209|8=FIXT.1.1|9=100|35=A|34=34|49=DINOSAUR|52=20190604-07:20:07.390|56=NEX|98=0|108=20|553=USERNAME|554=PASSWORD|1137=7|10=199|8=FIXT.1.1|9=100|35=A|34=35|49=DINOSAUR|52=20190604-07:20:37.417|56=NEX|98=0|108=20|553=USERNAME|554=PASSWORD|1137=7|10=203|8=FIXT.1.1|9=100|35=A|34=36|49=DINOSAUR|52=20190604-07:21:07.441|56=NEX|98=0|108=20|553=USERNAME|554=PASSWORD|1137=7|10=199|