8=FIXT.1.1|9=158|35=D|34=1|49=INITIATOR3|52=20190604-06:08:02.981|56=ACCEPTOR|11=0E0Z86K00000|22=1|38=200|40=2|48=06051GDX4|54=1|55=BAC|60=20190604-11:38:02.979|218=100|423=6|10=048|8=FIXT.1.1|9=106|35=A|34=2|49=INITIATOR3|52=20190604-06:08:02.981|56=ACCEPTOR|98=0|108=20|553=USERNAME|554=PASSWORD|1137=7|10=133|8=FIXT.1.1|9=158|35=D|34=3|49=INITIATOR3|52=20190604-06:09:05.917|56=ACCEPTOR|11=0E0Z86K00000|22=1|38=200|40=2|48=06051GDX4|54=1|55=BAC|60=20190604-11:39:05.915|218=100|423=6|10=047|8=FIXT.1.1|9=106|35=A|34=4|49=INITIATOR3|52=20190604-06:09:05.917|56=ACCEPTOR|98=0|108=20|553=USERNAME|554=PASSWORD|1137=7|10=138|