8=FIXT.1.1|9=157|35=D|34=1|49=INITIATOR|52=20190607-09:03:46.165|56=ACCEPTOR|11=0E0Z86K00000|22=1|38=200|40=2|48=06051GDX4|54=1|55=BAC|60=20190607-14:33:46.162|218=100|423=6|10=248|8=FIXT.1.1|9=105|35=A|34=2|49=INITIATOR|52=20190607-09:03:46.168|56=ACCEPTOR|98=0|108=20|553=USERNAME|554=PASSWORD|1137=7|10=087|8=FIXT.1.1|9=60|35=0|34=3|49=INITIATOR|52=20190607-09:04:07.208|56=ACCEPTOR|10=045|8=FIXT.1.1|9=256|35=AE|34=4|49=INITIATOR|52=20190607-09:04:17.778|56=ACCEPTOR|15=CNY|22=4|30=SINT|31=23|32=12|48=0X1213|55=BAC|60=20190605-15:43:07.189|75=20190605|423=1|552=2|54=1|54=2|856=0|1003=1xsasdfdf|1116=2|1117=12|1118=G|1119=3|1117=10|1118=E|1119=3|1924=1|1934=11|10=209|8=FIXT.1.1|9=60|35=0|34=5|49=INITIATOR|52=20190607-09:04:37.236|56=ACCEPTOR|10=051|8=FIXT.1.1|9=60|35=0|34=6|49=INITIATOR|52=20190607-09:04:57.256|56=ACCEPTOR|10=056|8=FIXT.1.1|9=60|35=0|34=7|49=INITIATOR|52=20190607-09:05:17.274|56=ACCEPTOR|10=054|8=FIXT.1.1|9=60|35=0|34=8|49=INITIATOR|52=20190607-09:05:37.287|56=ACCEPTOR|10=061|8=FIXT.1.1|9=60|35=0|34=9|49=INITIATOR|52=20190607-09:05:57.305|56=ACCEPTOR|10=055|8=FIXT.1.1|9=61|35=0|34=10|49=INITIATOR|52=20190607-09:06:17.322|56=ACCEPTOR|10=092|8=FIXT.1.1|9=61|35=0|34=11|49=INITIATOR|52=20190607-09:06:37.342|56=ACCEPTOR|10=097|8=FIXT.1.1|9=61|35=0|34=12|49=INITIATOR|52=20190607-09:06:57.362|56=ACCEPTOR|10=102|8=FIXT.1.1|9=158|35=D|34=13|49=INITIATOR|52=20190607-09:07:49.705|56=ACCEPTOR|11=0E0Z86K00000|22=1|38=200|40=2|48=06051GDX4|54=1|55=BAC|60=20190607-14:37:49.703|218=100|423=6|10=059|8=FIXT.1.1|9=106|35=A|34=14|49=INITIATOR|52=20190607-09:07:49.715|56=ACCEPTOR|98=0|108=20|553=USERNAME|554=PASSWORD|1137=7|10=144|8=FIXT.1.1|9=257|35=AE|34=15|49=INITIATOR|52=20190607-09:07:55.474|56=ACCEPTOR|15=CNY|22=4|30=SINT|31=23|32=12|48=0X1213|55=BAC|60=20190605-15:43:07.189|75=20190605|423=1|552=2|54=1|54=2|856=0|1003=1xsasdfdf|1116=2|1117=12|1118=G|1119=3|1117=10|1118=E|1119=3|1924=1|1934=11|10=002|8=FIXT.1.1|9=61|35=0|34=16|49=INITIATOR|52=20190607-09:08:15.740|56=ACCEPTOR|10=102|8=FIXT.1.1|9=61|35=0|34=17|49=INITIATOR|52=20190607-09:08:35.760|56=ACCEPTOR|10=107|8=FIXT.1.1|9=61|35=0|34=18|49=INITIATOR|52=20190607-09:08:55.779|56=ACCEPTOR|10=120|8=FIXT.1.1|9=61|35=0|34=19|49=INITIATOR|52=20190607-09:09:15.799|56=ACCEPTOR|10=120|8=FIXT.1.1|9=61|35=0|34=20|49=INITIATOR|52=20190607-09:09:35.818|56=ACCEPTOR|10=106|8=FIXT.1.1|9=61|35=0|34=21|49=INITIATOR|52=20190607-09:09:55.838|56=ACCEPTOR|10=111|8=FIXT.1.1|9=61|35=0|34=22|49=INITIATOR|52=20190607-09:10:15.856|56=ACCEPTOR|10=100|8=FIXT.1.1|9=61|35=0|34=23|49=INITIATOR|52=20190607-09:10:35.874|56=ACCEPTOR|10=103|8=FIXT.1.1|9=61|35=0|34=24|49=INITIATOR|52=20190607-09:10:55.894|56=ACCEPTOR|10=108|8=FIXT.1.1|9=61|35=0|34=25|49=INITIATOR|52=20190607-09:11:15.915|56=ACCEPTOR|10=100|8=FIXT.1.1|9=61|35=0|34=26|49=INITIATOR|52=20190607-09:11:35.935|56=ACCEPTOR|10=105|8=FIXT.1.1|9=61|35=0|34=27|49=INITIATOR|52=20190607-09:11:55.954|56=ACCEPTOR|10=109|8=FIXT.1.1|9=61|35=0|34=28|49=INITIATOR|52=20190607-09:12:15.974|56=ACCEPTOR|10=109|8=FIXT.1.1|9=61|35=0|34=29|49=INITIATOR|52=20190607-09:12:35.994|56=ACCEPTOR|10=114|8=FIXT.1.1|9=61|35=0|34=30|49=INITIATOR|52=20190607-09:12:55.011|56=ACCEPTOR|10=088|8=FIXT.1.1|9=61|35=0|34=31|49=INITIATOR|52=20190607-09:13:15.031|56=ACCEPTOR|10=088|8=FIXT.1.1|9=61|35=0|34=32|49=INITIATOR|52=20190607-09:13:35.050|56=ACCEPTOR|10=092|8=FIXT.1.1|9=61|35=0|34=33|49=INITIATOR|52=20190607-09:13:55.070|56=ACCEPTOR|10=097|8=FIXT.1.1|9=61|35=0|34=34|49=INITIATOR|52=20190607-09:14:15.088|56=ACCEPTOR|10=104|8=FIXT.1.1|9=61|35=0|34=35|49=INITIATOR|52=20190607-09:14:35.108|56=ACCEPTOR|10=100|8=FIXT.1.1|9=61|35=0|34=36|49=INITIATOR|52=20190607-09:14:55.126|56=ACCEPTOR|10=103|8=FIXT.1.1|9=61|35=0|34=37|49=INITIATOR|52=20190607-09:15:15.146|56=ACCEPTOR|10=103|8=FIXT.1.1|9=61|35=0|34=38|49=INITIATOR|52=20190607-09:15:35.164|56=ACCEPTOR|10=106|8=FIXT.1.1|9=61|35=0|34=39|49=INITIATOR|52=20190607-09:15:55.184|56=ACCEPTOR|10=111|8=FIXT.1.1|9=61|35=0|34=40|49=INITIATOR|52=20190607-09:16:15.202|56=ACCEPTOR|10=091|8=FIXT.1.1|9=61|35=0|34=41|49=INITIATOR|52=20190607-09:16:35.221|56=ACCEPTOR|10=095|8=FIXT.1.1|9=61|35=0|34=42|49=INITIATOR|52=20190607-09:16:55.241|56=ACCEPTOR|10=100|8=FIXT.1.1|9=61|35=0|34=43|49=INITIATOR|52=20190607-09:17:15.261|56=ACCEPTOR|10=100|8=FIXT.1.1|9=61|35=0|34=44|49=INITIATOR|52=20190607-09:17:35.282|56=ACCEPTOR|10=106|8=FIXT.1.1|9=61|35=0|34=45|49=INITIATOR|52=20190607-09:17:55.301|56=ACCEPTOR|10=101|8=FIXT.1.1|9=61|35=0|34=46|49=INITIATOR|52=20190607-09:18:15.320|56=ACCEPTOR|10=100|8=FIXT.1.1|9=61|35=0|34=47|49=INITIATOR|52=20190607-09:18:35.340|56=ACCEPTOR|10=105|8=FIXT.1.1|9=61|35=0|34=48|49=INITIATOR|52=20190607-09:18:55.358|56=ACCEPTOR|10=117|8=FIXT.1.1|9=61|35=0|34=49|49=INITIATOR|52=20190607-09:19:15.377|56=ACCEPTOR|10=116|8=FIXT.1.1|9=61|35=0|34=50|49=INITIATOR|52=20190607-09:19:35.397|56=ACCEPTOR|10=112|8=FIXT.1.1|9=61|35=0|34=51|49=INITIATOR|52=20190607-09:19:55.415|56=ACCEPTOR|10=106|8=FIXT.1.1|9=61|35=0|34=52|49=INITIATOR|52=20190607-09:20:15.434|56=ACCEPTOR|10=096|8=FIXT.1.1|9=61|35=0|34=53|49=INITIATOR|52=20190607-09:20:35.455|56=ACCEPTOR|10=102|8=FIXT.1.1|9=61|35=0|34=54|49=INITIATOR|52=20190607-09:20:55.475|56=ACCEPTOR|10=107|8=FIXT.1.1|9=61|35=0|34=55|49=INITIATOR|52=20190607-09:21:15.493|56=ACCEPTOR|10=105|8=FIXT.1.1|9=61|35=0|34=56|49=INITIATOR|52=20190607-09:21:35.512|56=ACCEPTOR|10=100|8=FIXT.1.1|9=61|35=0|34=57|49=INITIATOR|52=20190607-09:21:55.531|56=ACCEPTOR|10=104|8=FIXT.1.1|9=61|35=0|34=58|49=INITIATOR|52=20190607-09:22:15.550|56=ACCEPTOR|10=103|8=FIXT.1.1|9=61|35=0|34=59|49=INITIATOR|52=20190607-09:22:35.569|56=ACCEPTOR|10=116|8=FIXT.1.1|9=61|35=0|34=60|49=INITIATOR|52=20190607-09:22:55.589|56=ACCEPTOR|10=112|8=FIXT.1.1|9=61|35=0|34=61|49=INITIATOR|52=20190607-09:23:15.609|56=ACCEPTOR|10=103|8=FIXT.1.1|9=61|35=0|34=62|49=INITIATOR|52=20190607-09:23:35.629|56=ACCEPTOR|10=108|8=FIXT.1.1|9=61|35=0|34=63|49=INITIATOR|52=20190607-09:23:55.648|56=ACCEPTOR|10=112|8=FIXT.1.1|9=61|35=0|34=64|49=INITIATOR|52=20190607-09:24:15.666|56=ACCEPTOR|10=110|8=FIXT.1.1|9=61|35=0|34=65|49=INITIATOR|52=20190607-09:24:35.685|56=ACCEPTOR|10=114|8=FIXT.1.1|9=61|35=0|34=66|49=INITIATOR|52=20190607-09:24:55.701|56=ACCEPTOR|10=106|8=FIXT.1.1|9=61|35=0|34=67|49=INITIATOR|52=20190607-09:25:15.720|56=ACCEPTOR|10=105|8=FIXT.1.1|9=61|35=0|34=68|49=INITIATOR|52=20190607-09:25:35.740|56=ACCEPTOR|10=110|8=FIXT.1.1|9=61|35=0|34=69|49=INITIATOR|52=20190607-09:25:55.759|56=ACCEPTOR|10=123|8=FIXT.1.1|9=61|35=0|34=70|49=INITIATOR|52=20190607-09:26:15.790|56=ACCEPTOR|10=107|8=FIXT.1.1|9=61|35=0|34=71|49=INITIATOR|52=20190607-09:26:35.876|56=ACCEPTOR|10=115|8=FIXT.1.1|9=61|35=0|34=72|49=INITIATOR|52=20190607-09:26:55.895|56=ACCEPTOR|10=119|8=FIXT.1.1|9=61|35=0|34=73|49=INITIATOR|52=20190607-09:27:15.915|56=ACCEPTOR|10=110|8=FIXT.1.1|9=61|35=0|34=74|49=INITIATOR|52=20190607-09:27:35.935|56=ACCEPTOR|10=115|8=FIXT.1.1|9=61|35=0|34=75|49=INITIATOR|52=20190607-09:27:55.954|56=ACCEPTOR|10=119|8=FIXT.1.1|9=61|35=0|34=76|49=INITIATOR|52=20190607-09:28:15.973|56=ACCEPTOR|10=118|8=FIXT.1.1|9=61|35=0|34=77|49=INITIATOR|52=20190607-09:28:35.992|56=ACCEPTOR|10=122|8=FIXT.1.1|9=61|35=0|34=78|49=INITIATOR|52=20190607-09:28:55.009|56=ACCEPTOR|10=114|8=FIXT.1.1|9=61|35=0|34=79|49=INITIATOR|52=20190607-09:29:15.029|56=ACCEPTOR|10=114|8=FIXT.1.1|9=61|35=0|34=80|49=INITIATOR|52=20190607-09:29:35.049|56=ACCEPTOR|10=110|8=FIXT.1.1|9=61|35=0|34=81|49=INITIATOR|52=20190607-09:29:55.069|56=ACCEPTOR|10=115|8=FIXT.1.1|9=61|35=0|34=82|49=INITIATOR|52=20190607-09:30:15.089|56=ACCEPTOR|10=106|8=FIXT.1.1|9=61|35=0|34=83|49=INITIATOR|52=20190607-09:30:35.109|56=ACCEPTOR|10=102|8=FIXT.1.1|9=61|35=0|34=84|49=INITIATOR|52=20190607-09:30:55.127|56=ACCEPTOR|10=105|8=FIXT.1.1|9=61|35=0|34=85|49=INITIATOR|52=20190607-09:31:15.147|56=ACCEPTOR|10=105|8=FIXT.1.1|9=61|35=0|34=86|49=INITIATOR|52=20190607-09:31:35.167|56=ACCEPTOR|10=110|8=FIXT.1.1|9=61|35=0|34=87|49=INITIATOR|52=20190607-09:31:55.187|56=ACCEPTOR|10=115|8=FIXT.1.1|9=61|35=0|34=88|49=INITIATOR|52=20190607-09:32:15.208|56=ACCEPTOR|10=107|8=FIXT.1.1|9=61|35=0|34=89|49=INITIATOR|52=20190607-09:32:35.228|56=ACCEPTOR|10=112|8=FIXT.1.1|9=61|35=0|34=90|49=INITIATOR|52=20190607-09:32:55.247|56=ACCEPTOR|10=107|8=FIXT.1.1|9=61|35=0|34=91|49=INITIATOR|52=20190607-09:33:15.267|56=ACCEPTOR|10=107|8=FIXT.1.1|9=61|35=0|34=92|49=INITIATOR|52=20190607-09:33:35.288|56=ACCEPTOR|10=113|8=FIXT.1.1|9=61|35=0|34=93|49=INITIATOR|52=20190607-09:33:55.307|56=ACCEPTOR|10=108|8=FIXT.1.1|9=61|35=0|34=94|49=INITIATOR|52=20190607-09:34:15.327|56=ACCEPTOR|10=108|8=FIXT.1.1|9=61|35=0|34=95|49=INITIATOR|52=20190607-09:34:35.348|56=ACCEPTOR|10=114|8=FIXT.1.1|9=61|35=0|34=96|49=INITIATOR|52=20190607-09:34:55.368|56=ACCEPTOR|10=119|8=FIXT.1.1|9=61|35=0|34=97|49=INITIATOR|52=20190607-09:35:15.389|56=ACCEPTOR|10=120|8=FIXT.1.1|9=61|35=0|34=98|49=INITIATOR|52=20190607-09:35:35.408|56=ACCEPTOR|10=115|8=FIXT.1.1|9=61|35=0|34=99|49=INITIATOR|52=20190607-09:35:55.428|56=ACCEPTOR|10=120|8=FIXT.1.1|9=62|35=0|34=100|49=INITIATOR|52=20190607-09:36:15.447|56=ACCEPTOR|10=150|8=FIXT.1.1|9=62|35=0|34=101|49=INITIATOR|52=20190607-09:36:35.466|56=ACCEPTOR|10=154|8=FIXT.1.1|9=62|35=0|34=102|49=INITIATOR|52=20190607-09:36:55.486|56=ACCEPTOR|10=159|8=FIXT.1.1|9=62|35=0|34=103|49=INITIATOR|52=20190607-09:37:15.506|56=ACCEPTOR|10=150|8=FIXT.1.1|9=62|35=0|34=104|49=INITIATOR|52=20190607-09:37:35.526|56=ACCEPTOR|10=155|8=FIXT.1.1|9=62|35=0|34=105|49=INITIATOR|52=20190607-09:37:55.543|56=ACCEPTOR|10=157|8=FIXT.1.1|9=62|35=0|34=106|49=INITIATOR|52=20190607-09:38:15.562|56=ACCEPTOR|10=156|8=FIXT.1.1|9=62|35=0|34=107|49=INITIATOR|52=20190607-09:38:35.581|56=ACCEPTOR|10=160|8=FIXT.1.1|9=62|35=0|34=108|49=INITIATOR|52=20190607-09:38:55.601|56=ACCEPTOR|10=156|8=FIXT.1.1|9=62|35=0|34=109|49=INITIATOR|52=20190607-09:39:15.619|56=ACCEPTOR|10=163|8=FIXT.1.1|9=62|35=0|34=110|49=INITIATOR|52=20190607-09:39:35.638|56=ACCEPTOR|10=158|8=FIXT.1.1|9=62|35=0|34=111|49=INITIATOR|52=20190607-09:39:55.658|56=ACCEPTOR|10=163|8=FIXT.1.1|9=62|35=0|34=112|49=INITIATOR|52=20190607-09:40:15.677|56=ACCEPTOR|10=153|8=FIXT.1.1|9=62|35=0|34=113|49=INITIATOR|52=20190607-09:40:35.697|56=ACCEPTOR|10=158|8=FIXT.1.1|9=62|35=0|34=114|49=INITIATOR|52=20190607-09:40:55.717|56=ACCEPTOR|10=154|8=FIXT.1.1|9=62|35=0|34=115|49=INITIATOR|52=20190607-09:41:15.737|56=ACCEPTOR|10=154|8=FIXT.1.1|9=62|35=0|34=116|49=INITIATOR|52=20190607-09:41:35.758|56=ACCEPTOR|10=160|8=FIXT.1.1|9=62|35=0|34=117|49=INITIATOR|52=20190607-09:41:55.776|56=ACCEPTOR|10=163|8=FIXT.1.1|9=62|35=0|34=118|49=INITIATOR|52=20190607-09:42:15.796|56=ACCEPTOR|10=163|8=FIXT.1.1|9=62|35=0|34=119|49=INITIATOR|52=20190607-09:42:35.815|56=ACCEPTOR|10=158|8=FIXT.1.1|9=62|35=0|34=120|49=INITIATOR|52=20190607-09:42:55.836|56=ACCEPTOR|10=155|8=FIXT.1.1|9=62|35=0|34=121|49=INITIATOR|52=20190607-09:43:15.856|56=ACCEPTOR|10=155|8=FIXT.1.1|9=62|35=0|34=122|49=INITIATOR|52=20190607-09:43:35.876|56=ACCEPTOR|10=160|8=FIXT.1.1|9=62|35=0|34=123|49=INITIATOR|52=20190607-09:43:55.895|56=ACCEPTOR|10=164|8=FIXT.1.1|9=62|35=0|34=124|49=INITIATOR|52=20190607-09:44:15.915|56=ACCEPTOR|10=155|8=FIXT.1.1|9=62|35=0|34=125|49=INITIATOR|52=20190607-09:44:35.936|56=ACCEPTOR|10=161|8=FIXT.1.1|9=62|35=0|34=126|49=INITIATOR|52=20190607-09:44:55.955|56=ACCEPTOR|10=165|8=FIXT.1.1|9=62|35=0|34=127|49=INITIATOR|52=20190607-09:45:15.975|56=ACCEPTOR|10=165|8=FIXT.1.1|9=62|35=0|34=128|49=INITIATOR|52=20190607-09:45:35.993|56=ACCEPTOR|10=168|8=FIXT.1.1|9=62|35=0|34=129|49=INITIATOR|52=20190607-09:45:55.011|56=ACCEPTOR|10=152|8=FIXT.1.1|9=62|35=0|34=130|49=INITIATOR|52=20190607-09:46:15.030|56=ACCEPTOR|10=142|8=FIXT.1.1|9=62|35=0|34=131|49=INITIATOR|52=20190607-09:46:35.047|56=ACCEPTOR|10=153|8=FIXT.1.1|9=62|35=0|34=132|49=INITIATOR|52=20190607-09:46:55.064|56=ACCEPTOR|10=155|8=FIXT.1.1|9=62|35=0|34=133|49=INITIATOR|52=20190607-09:47:15.083|56=ACCEPTOR|10=154|8=FIXT.1.1|9=62|35=0|34=134|49=INITIATOR|52=20190607-09:47:35.102|56=ACCEPTOR|10=149|8=FIXT.1.1|9=159|35=D|34=135|49=INITIATOR|52=20190607-11:38:03.836|56=ACCEPTOR|11=0E0Z86K00000|22=1|38=200|40=2|48=06051GDX4|54=1|55=BAC|60=20190607-17:08:03.833|218=100|423=6|10=100|8=FIXT.1.1|9=107|35=A|34=136|49=INITIATOR|52=20190607-11:38:03.857|56=ACCEPTOR|98=0|108=20|553=USERNAME|554=PASSWORD|1137=7|10=192|8=FIXT.1.1|9=62|35=0|34=137|49=INITIATOR|52=20190607-11:38:25.783|56=ACCEPTOR|10=159|8=FIXT.1.1|9=62|35=0|34=138|49=INITIATOR|52=20190607-11:38:45.921|56=ACCEPTOR|10=156|8=FIXT.1.1|9=258|35=AE|34=139|49=INITIATOR|52=20190607-11:38:50.998|56=ACCEPTOR|15=CNY|22=4|30=SINT|31=23|32=12|48=0X1213|55=BAC|60=20190605-15:43:07.189|75=20190605|423=1|552=2|54=1|54=2|856=0|1003=1xsasdfdf|1116=2|1117=12|1118=G|1119=3|1117=10|1118=E|1119=3|1924=1|1934=11|10=061|8=FIXT.1.1|9=62|35=0|34=140|49=INITIATOR|52=20190607-11:39:10.946|56=ACCEPTOR|10=149|8=FIXT.1.1|9=62|35=0|34=141|49=INITIATOR|52=20190607-11:39:30.965|56=ACCEPTOR|10=153|8=FIXT.1.1|9=62|35=0|34=142|49=INITIATOR|52=20190607-11:39:50.983|56=ACCEPTOR|10=156|8=FIXT.1.1|9=107|35=A|34=143|49=INITIATOR|52=20190607-11:40:20.405|56=ACCEPTOR|98=0|108=20|553=USERNAME|554=PASSWORD|1137=7|10=171|8=FIXT.1.1|9=159|35=D|34=144|49=INITIATOR|52=20190607-11:40:20.409|56=ACCEPTOR|11=0E0Z86K00000|22=1|38=200|40=2|48=06051GDX4|54=1|55=BAC|60=20190607-17:10:20.403|218=100|423=6|10=073|8=FIXT.1.1|9=62|35=0|34=145|49=INITIATOR|52=20190607-11:40:40.305|56=ACCEPTOR|10=138|8=FIXT.1.1|9=258|35=AE|34=146|49=INITIATOR|52=20190607-11:40:43.068|56=ACCEPTOR|15=CNY|22=4|30=SINT|31=23|32=12|48=0X1213|55=BAC|60=20190605-15:43:07.189|75=20190605|423=1|552=2|54=1|54=2|856=0|1003=1xsasdfdf|1116=2|1117=12|1118=G|1119=3|1117=10|1118=E|1119=3|1924=1|1934=11|10=042|8=FIXT.1.1|9=62|35=0|34=147|49=INITIATOR|52=20190607-11:41:03.449|56=ACCEPTOR|10=149|8=FIXT.1.1|9=62|35=0|34=148|49=INITIATOR|52=20190607-11:41:23.470|56=ACCEPTOR|10=146|8=FIXT.1.1|9=62|35=0|34=149|49=INITIATOR|52=20190607-11:41:43.490|56=ACCEPTOR|10=151|