8=FIXT.1.1|9=105|35=A|34=1|49=INITIATOR|52=20190614-07:27:41.955|56=ACCEPTOR|98=0|108=20|553=USERNAME|554=PASSWORD|1137=7|10=087|8=FIXT.1.1|9=60|35=0|34=2|49=INITIATOR|52=20190614-07:28:01.973|56=ACCEPTOR|10=049|8=FIXT.1.1|9=105|35=A|34=3|49=INITIATOR|52=20190614-09:00:01.337|56=ACCEPTOR|98=0|108=20|553=USERNAME|554=PASSWORD|1137=7|10=072|8=FIXT.1.1|9=105|35=A|34=4|49=INITIATOR|52=20190614-09:00:31.428|56=ACCEPTOR|98=0|108=20|553=USERNAME|554=PASSWORD|1137=7|10=077|8=FIXT.1.1|9=105|35=A|34=5|49=INITIATOR|52=20190614-09:01:01.457|56=ACCEPTOR|98=0|108=20|553=USERNAME|554=PASSWORD|1137=7|10=078|8=FIXT.1.1|9=105|35=A|34=6|49=INITIATOR|52=20190614-09:01:31.485|56=ACCEPTOR|98=0|108=20|553=USERNAME|554=PASSWORD|1137=7|10=083|8=FIXT.1.1|9=105|35=A|34=7|49=INITIATOR|52=20190614-09:02:01.514|56=ACCEPTOR|98=0|108=20|553=USERNAME|554=PASSWORD|1137=7|10=075|8=FIXT.1.1|9=105|35=A|34=8|49=INITIATOR|52=20190614-09:02:31.539|56=ACCEPTOR|98=0|108=20|553=USERNAME|554=PASSWORD|1137=7|10=086|8=FIXT.1.1|9=105|35=A|34=9|49=INITIATOR|52=20190614-09:03:01.568|56=ACCEPTOR|98=0|108=20|553=USERNAME|554=PASSWORD|1137=7|10=087|8=FIXT.1.1|9=106|35=A|34=10|49=INITIATOR|52=20190614-09:03:31.597|56=ACCEPTOR|98=0|108=20|553=USERNAME|554=PASSWORD|1137=7|10=133|8=FIXT.1.1|9=106|35=A|34=11|49=INITIATOR|52=20190614-09:04:01.628|56=ACCEPTOR|98=0|108=20|553=USERNAME|554=PASSWORD|1137=7|10=127|8=FIXT.1.1|9=106|35=A|34=12|49=INITIATOR|52=20190614-09:12:54.554|56=ACCEPTOR|98=0|108=20|553=USERNAME|554=PASSWORD|1137=7|10=133|8=FIXT.1.1|9=106|35=A|34=13|49=INITIATOR|52=20190614-09:13:24.605|56=ACCEPTOR|98=0|108=20|553=USERNAME|554=PASSWORD|1137=7|10=129|8=FIXT.1.1|9=106|35=A|34=14|49=INITIATOR|52=20190614-09:14:26.077|56=ACCEPTOR|98=0|108=20|553=USERNAME|554=PASSWORD|1137=7|10=136|8=FIXT.1.1|9=61|35=0|34=15|49=INITIATOR|52=20190614-09:14:46.095|56=ACCEPTOR|10=103|8=FIXT.1.1|9=61|35=0|34=16|49=INITIATOR|52=20190614-09:15:06.113|56=ACCEPTOR|10=092|8=FIXT.1.1|9=106|35=A|34=17|49=INITIATOR|52=20190614-11:56:26.638|56=ACCEPTOR|98=0|108=20|553=USERNAME|554=PASSWORD|1137=7|10=141|8=FIXT.1.1|9=71|35=2|34=18|49=INITIATOR|52=20190614-11:56:27.498|56=ACCEPTOR|7=12|16=0|10=031|8=FIXT.1.1|9=61|35=0|34=19|49=INITIATOR|52=20190614-11:56:47.107|56=ACCEPTOR|10=101|8=FIXT.1.1|9=106|35=A|34=20|49=INITIATOR|52=20190614-12:03:55.131|56=ACCEPTOR|98=0|108=20|553=USERNAME|554=PASSWORD|1137=7|10=118|8=FIXT.1.1|9=61|35=5|34=21|49=INITIATOR|52=20190614-12:03:56.353|56=ACCEPTOR|10=095|8=FIXT.1.1|9=106|35=A|34=22|49=INITIATOR|52=20190614-12:03:56.354|56=ACCEPTOR|98=0|108=20|553=USERNAME|554=PASSWORD|1137=7|10=128|8=FIXT.1.1|9=106|35=A|34=23|49=INITIATOR|52=20190614-12:04:25.168|56=ACCEPTOR|98=0|108=20|553=USERNAME|554=PASSWORD|1137=7|10=129|8=FIXT.1.1|9=111|35=5|34=24|49=INITIATOR|52=20190614-12:04:25.709|56=ACCEPTOR|58=MsgSeqNum too low, expecting 17 but received 2|10=094|8=FIXT.1.1|9=106|35=A|34=25|49=INITIATOR|52=20190614-12:04:25.709|56=ACCEPTOR|98=0|108=20|553=USERNAME|554=PASSWORD|1137=7|10=132|8=FIXT.1.1|9=106|35=A|34=26|49=INITIATOR|52=20190614-12:04:55.213|56=ACCEPTOR|98=0|108=20|553=USERNAME|554=PASSWORD|1137=7|10=126|8=FIXT.1.1|9=111|35=5|34=27|49=INITIATOR|52=20190614-12:04:55.634|56=ACCEPTOR|58=MsgSeqNum too low, expecting 17 but received 7|10=102|8=FIXT.1.1|9=106|35=A|34=28|49=INITIATOR|52=20190614-12:04:55.634|56=ACCEPTOR|98=0|108=20|553=USERNAME|554=PASSWORD|1137=7|10=135|8=FIXT.1.1|9=106|35=A|34=29|49=INITIATOR|52=20190614-12:05:25.240|56=ACCEPTOR|98=0|108=20|553=USERNAME|554=PASSWORD|1137=7|10=127|8=FIXT.1.1|9=112|35=5|34=30|49=INITIATOR|52=20190614-12:05:25.714|56=ACCEPTOR|58=MsgSeqNum too low, expecting 17 but received 15|10=141|8=FIXT.1.1|9=106|35=A|34=31|49=INITIATOR|52=20190614-12:05:25.714|56=ACCEPTOR|98=0|108=20|553=USERNAME|554=PASSWORD|1137=7|10=126|8=FIXT.1.1|9=106|35=A|34=32|49=INITIATOR|52=20190614-12:05:55.266|56=ACCEPTOR|98=0|108=20|553=USERNAME|554=PASSWORD|1137=7|10=132|8=FIXT.1.1|9=71|35=2|34=33|49=INITIATOR|52=20190614-12:05:55.896|56=ACCEPTOR|7=17|16=0|10=031|8=FIXT.1.1|9=71|35=2|34=34|49=INITIATOR|52=20190614-12:05:58.888|56=ACCEPTOR|7=27|16=0|10=037|8=FIXT.1.1|9=61|35=0|34=35|49=INITIATOR|52=20190614-12:06:18.289|56=ACCEPTOR|10=104|8=FIXT.1.1|9=61|35=0|34=36|49=INITIATOR|52=20190614-12:06:38.308|56=ACCEPTOR|10=099|8=FIXT.1.1|9=61|35=0|34=37|49=INITIATOR|52=20190614-12:06:58.328|56=ACCEPTOR|10=104|8=FIXT.1.1|9=61|35=0|34=38|49=INITIATOR|52=20190614-12:07:18.345|56=ACCEPTOR|10=101|8=FIXT.1.1|9=61|35=0|34=39|49=INITIATOR|52=20190614-12:07:38.365|56=ACCEPTOR|10=106|8=FIXT.1.1|9=61|35=0|34=40|49=INITIATOR|52=20190614-12:07:58.385|56=ACCEPTOR|10=102|8=FIXT.1.1|9=61|35=0|34=41|49=INITIATOR|52=20190614-12:08:18.404|56=ACCEPTOR|10=092|8=FIXT.1.1|9=61|35=0|34=42|49=INITIATOR|52=20190614-12:08:38.423|56=ACCEPTOR|10=096|8=FIXT.1.1|9=61|35=0|34=43|49=INITIATOR|52=20190614-12:08:58.443|56=ACCEPTOR|10=101|8=FIXT.1.1|9=61|35=0|34=44|49=INITIATOR|52=20190614-12:09:18.462|56=ACCEPTOR|10=100|8=FIXT.1.1|9=61|35=0|34=45|49=INITIATOR|52=20190614-12:09:38.481|56=ACCEPTOR|10=104|8=FIXT.1.1|9=61|35=0|34=46|49=INITIATOR|52=20190614-12:09:58.502|56=ACCEPTOR|10=101|8=FIXT.1.1|9=61|35=0|34=47|49=INITIATOR|52=20190614-12:10:18.522|56=ACCEPTOR|10=092|8=FIXT.1.1|9=61|35=0|34=48|49=INITIATOR|52=20190614-12:10:38.543|56=ACCEPTOR|10=098|8=FIXT.1.1|9=61|35=0|34=49|49=INITIATOR|52=20190614-12:10:58.562|56=ACCEPTOR|10=102|8=FIXT.1.1|9=61|35=0|34=50|49=INITIATOR|52=20190614-12:11:18.582|56=ACCEPTOR|10=093|8=FIXT.1.1|9=61|35=0|34=51|49=INITIATOR|52=20190614-12:11:38.600|56=ACCEPTOR|10=087|8=FIXT.1.1|9=61|35=0|34=52|49=INITIATOR|52=20190614-12:11:58.617|56=ACCEPTOR|10=098|8=FIXT.1.1|9=61|35=0|34=53|49=INITIATOR|52=20190614-12:12:18.635|56=ACCEPTOR|10=096|8=FIXT.1.1|9=61|35=0|34=54|49=INITIATOR|52=20190614-12:12:38.654|56=ACCEPTOR|10=100|8=FIXT.1.1|9=61|35=0|34=55|49=INITIATOR|52=20190614-12:12:58.672|56=ACCEPTOR|10=103|8=FIXT.1.1|9=61|35=0|34=56|49=INITIATOR|52=20190614-12:13:18.690|56=ACCEPTOR|10=101|8=FIXT.1.1|9=61|35=0|34=57|49=INITIATOR|52=20190614-12:13:38.709|56=ACCEPTOR|10=105|8=FIXT.1.1|9=61|35=0|34=58|49=INITIATOR|52=20190614-12:13:58.729|56=ACCEPTOR|10=110|8=FIXT.1.1|9=61|35=0|34=59|49=INITIATOR|52=20190614-12:14:18.748|56=ACCEPTOR|10=109|8=FIXT.1.1|9=61|35=0|34=60|49=INITIATOR|52=20190614-12:14:38.765|56=ACCEPTOR|10=102|8=FIXT.1.1|9=61|35=0|34=61|49=INITIATOR|52=20190614-12:14:58.785|56=ACCEPTOR|10=107|8=FIXT.1.1|9=61|35=0|34=62|49=INITIATOR|52=20190614-12:15:18.802|56=ACCEPTOR|10=095|8=FIXT.1.1|9=61|35=0|34=63|49=INITIATOR|52=20190614-12:15:38.822|56=ACCEPTOR|10=100|8=FIXT.1.1|9=61|35=0|34=64|49=INITIATOR|52=20190614-12:15:58.841|56=ACCEPTOR|10=104|8=FIXT.1.1|9=61|35=0|34=65|49=INITIATOR|52=20190614-12:16:18.859|56=ACCEPTOR|10=111|8=FIXT.1.1|9=106|35=A|34=66|49=INITIATOR|52=20190614-12:44:03.461|56=ACCEPTOR|98=0|108=20|553=USERNAME|554=PASSWORD|1137=7|10=132|8=FIXT.1.1|9=61|35=5|34=67|49=INITIATOR|52=20190614-12:44:04.049|56=ACCEPTOR|10=105|8=FIXT.1.1|9=106|35=A|34=68|49=INITIATOR|52=20190614-12:44:04.049|56=ACCEPTOR|98=0|108=20|553=USERNAME|554=PASSWORD|1137=7|10=137|