8=FIXT.1.1|9=105|35=A|34=1|49=INITIATOR|52=20190611-07:19:03.825|56=ACCEPTOR|98=0|108=20|553=USERNAME|554=PASSWORD|1137=7|10=079|8=FIXT.1.1|9=60|35=0|34=2|49=INITIATOR|52=20190611-07:19:23.845|56=ACCEPTOR|10=048|8=FIXT.1.1|9=60|35=0|34=3|49=INITIATOR|52=20190611-07:19:43.865|56=ACCEPTOR|10=053|8=FIXT.1.1|9=60|35=0|34=4|49=INITIATOR|52=20190611-07:20:03.885|56=ACCEPTOR|10=044|