8=FIXT.1.1|9=105|35=A|34=1|49=ACCEPTOR|52=20190604-11:32:52.572|56=INITIATOR|98=0|108=20|553=USERNAME|554=PASSWORD|1137=7|10=074|8=FIXT.1.1|9=105|35=A|34=2|49=ACCEPTOR|52=20190604-11:34:33.885|56=INITIATOR|98=0|108=20|553=USERNAME|554=PASSWORD|1137=7|10=083|