8=FIXT.1.1|9=99|35=A|34=1|49=DINOSAUR|52=20190604-11:30:47.924|56=NEX|98=0|108=20|553=USERNAME|554=PASSWORD|1137=7|10=117|8=FIXT.1.1|9=99|35=A|34=2|49=DINOSAUR|52=20190604-11:31:55.212|56=NEX|98=0|108=20|553=USERNAME|554=PASSWORD|1137=7|10=108|8=FIXT.1.1|9=99|35=A|34=3|49=DINOSAUR|52=20190604-11:32:25.247|56=NEX|98=0|108=20|553=USERNAME|554=PASSWORD|1137=7|10=115|