8=FIXT.1.1|9=175|35=D|34=1|49=INITIATOR|52=20190530-13:03:39.147|56=ACCEPTOR|11=0E0Z86K00000|22=1|38=200|40=2|48=06051GDX4|54=1|55=BAC|60=Thu May 30 2019 18:33:39 GMT+0530 (IST)|218=100|423=6|10=204|8=FIXT.1.1|9=105|35=A|34=2|49=INITIATOR|52=20190530-13:03:39.147|56=ACCEPTOR|98=0|108=20|553=USERNAME|554=PASSWORD|1137=7|10=076|8=FIXT.1.1|9=60|35=0|34=3|49=INITIATOR|52=20190530-13:04:00.167|56=ACCEPTOR|10=032|8=FIXT.1.1|9=60|35=0|34=4|49=INITIATOR|52=20190530-13:04:20.185|56=ACCEPTOR|10=035|8=FIXT.1.1|9=60|35=0|34=5|49=INITIATOR|52=20190530-13:04:40.204|56=ACCEPTOR|10=030|8=FIXT.1.1|9=60|35=0|34=6|49=INITIATOR|52=20190530-13:05:00.222|56=ACCEPTOR|10=028|8=FIXT.1.1|9=60|35=0|34=7|49=INITIATOR|52=20190530-13:05:20.240|56=ACCEPTOR|10=031|8=FIXT.1.1|9=60|35=0|34=8|49=INITIATOR|52=20190530-13:05:40.258|56=ACCEPTOR|10=043|8=FIXT.1.1|9=60|35=0|34=9|49=INITIATOR|52=20190530-13:06:00.275|56=ACCEPTOR|10=040|8=FIXT.1.1|9=61|35=0|34=10|49=INITIATOR|52=20190530-13:06:20.294|56=ACCEPTOR|10=084|8=FIXT.1.1|9=61|35=0|34=11|49=INITIATOR|52=20190530-13:06:40.313|56=ACCEPTOR|10=079|8=FIXT.1.1|9=61|35=0|34=12|49=INITIATOR|52=20190530-13:07:00.334|56=ACCEPTOR|10=080|8=FIXT.1.1|9=61|35=0|34=13|49=INITIATOR|52=20190530-13:07:20.351|56=ACCEPTOR|10=082|8=FIXT.1.1|9=61|35=0|34=14|49=INITIATOR|52=20190530-13:07:40.371|56=ACCEPTOR|10=087|8=FIXT.1.1|9=61|35=0|34=15|49=INITIATOR|52=20190530-13:08:00.390|56=ACCEPTOR|10=086|8=FIXT.1.1|9=61|35=0|34=16|49=INITIATOR|52=20190530-13:08:20.410|56=ACCEPTOR|10=082|8=FIXT.1.1|9=61|35=0|34=17|49=INITIATOR|52=20190530-13:08:40.427|56=ACCEPTOR|10=093|8=FIXT.1.1|9=61|35=0|34=18|49=INITIATOR|52=20190530-13:09:00.445|56=ACCEPTOR|10=091|8=FIXT.1.1|9=61|35=0|34=19|49=INITIATOR|52=20190530-13:09:20.463|56=ACCEPTOR|10=094|8=FIXT.1.1|9=61|35=0|34=20|49=INITIATOR|52=20190530-13:09:40.480|56=ACCEPTOR|10=087|8=FIXT.1.1|9=61|35=0|34=21|49=INITIATOR|52=20190530-13:10:00.497|56=ACCEPTOR|10=084|8=FIXT.1.1|9=61|35=0|34=22|49=INITIATOR|52=20190530-13:10:20.513|56=ACCEPTOR|10=076|8=FIXT.1.1|9=61|35=0|34=23|49=INITIATOR|52=20190530-13:10:40.530|56=ACCEPTOR|10=078|8=FIXT.1.1|9=61|35=0|34=24|49=INITIATOR|52=20190530-13:11:00.547|56=ACCEPTOR|10=084|8=FIXT.1.1|9=61|35=0|34=25|49=INITIATOR|52=20190530-13:11:20.566|56=ACCEPTOR|10=088|8=FIXT.1.1|9=158|35=D|34=26|49=INITIATOR|52=20190530-13:25:47.051|56=ACCEPTOR|11=0E0Z86K00000|22=1|38=200|40=2|48=06051GDX4|54=1|55=BAC|60=20190530-18:55:47.041|218=100|423=6|10=037|8=FIXT.1.1|9=106|35=A|34=27|49=INITIATOR|52=20190530-13:25:47.088|56=ACCEPTOR|98=0|108=20|553=USERNAME|554=PASSWORD|1137=7|10=139|8=FIXT.1.1|9=61|35=0|34=28|49=INITIATOR|52=20190530-13:26:08.115|56=ACCEPTOR|10=093|8=FIXT.1.1|9=61|35=0|34=29|49=INITIATOR|52=20190530-13:26:28.134|56=ACCEPTOR|10=097|