8=FIXT.1.1|9=105|35=A|34=1|49=INITIATOR|52=20190605-12:13:57.018|56=ACCEPTOR|98=0|108=20|553=USERNAME|554=PASSWORD|1137=7|10=075|8=FIXT.1.1|9=157|35=D|34=2|49=INITIATOR|52=20190605-12:13:57.036|56=ACCEPTOR|11=0E0Z86K00000|22=1|38=200|40=2|48=06051GDX4|54=1|55=BAC|60=20190605-17:43:57.015|218=100|423=6|10=242|8=FIXT.1.1|9=60|35=0|34=3|49=INITIATOR|52=20190605-12:14:17.034|56=ACCEPTOR|10=036|8=FIXT.1.1|9=229|35=AE|34=4|49=INITIATOR|52=20190605-12:14:28.190|56=ACCEPTOR|15=CNY|22=4|30=SINT|31=23|32=12|48=0X1213|55=BAC|60=20190605-15:43:07.189|75=20190605|423=1|552=1|54=1|856=0|1003=1xsasdfdf|1116=1|1117=12|1118=G|1119=3|1430=E|1934=11|10=253|8=FIXT.1.1|9=69|35=0|34=5|49=INITIATOR|52=20190605-12:14:42.160|56=ACCEPTOR|112=TEST|10=063|8=FIXT.1.1|9=60|35=0|34=6|49=INITIATOR|52=20190605-12:15:02.060|56=ACCEPTOR|10=033|8=FIXT.1.1|9=157|35=D|34=7|49=INITIATOR|52=20190605-12:15:39.623|56=ACCEPTOR|11=0E0Z86K00000|22=1|38=200|40=2|48=06051GDX4|54=1|55=BAC|60=20190605-17:45:39.621|218=100|423=6|10=000|8=FIXT.1.1|9=105|35=A|34=8|49=INITIATOR|52=20190605-12:15:39.630|56=ACCEPTOR|98=0|108=20|553=USERNAME|554=PASSWORD|1137=7|10=084|8=FIXT.1.1|9=221|35=AE|34=9|49=INITIATOR|52=20190605-12:15:49.403|56=ACCEPTOR|15=CNY|22=4|30=SINT|31=23|32=12|48=0X1213|55=BAC|60=20190605-15:43:07.189|75=20190605|423=1|552=1|54=1|856=0|1003=1xsasdfdf|1116=1|1117=12|1118=G|1119=3|1430=E|10=138|8=FIXT.1.1|9=61|35=0|34=10|49=INITIATOR|52=20190605-12:16:09.655|56=ACCEPTOR|10=095|8=FIXT.1.1|9=158|35=D|34=11|49=INITIATOR|52=20190605-13:20:01.895|56=ACCEPTOR|11=0E0Z86K00000|22=1|38=200|40=2|48=06051GDX4|54=1|55=BAC|60=20190605-18:50:01.893|218=100|423=6|10=038|8=FIXT.1.1|9=106|35=A|34=12|49=INITIATOR|52=20190605-13:20:01.912|56=ACCEPTOR|98=0|108=20|553=USERNAME|554=PASSWORD|1137=7|10=117|8=FIXT.1.1|9=237|35=AE|34=13|49=INITIATOR|52=20190605-13:20:15.812|56=ACCEPTOR|15=CNY|22=4|30=SINT|31=23|32=12|48=0X1213|55=BAC|60=20190605-15:43:07.189|75=20190605|423=1|552=1|54=1|856=0|1003=1xsasdfdf|1116=1|1117=12|1118=G|1119=3|1430=E|1924=1|1934=11|10=102|8=FIXT.1.1|9=61|35=0|34=14|49=INITIATOR|52=20190605-13:20:35.942|56=ACCEPTOR|10=093|8=FIXT.1.1|9=61|35=0|34=15|49=INITIATOR|52=20190605-13:20:55.959|56=ACCEPTOR|10=104|8=FIXT.1.1|9=61|35=0|34=16|49=INITIATOR|52=20190605-13:21:15.978|56=ACCEPTOR|10=103|8=FIXT.1.1|9=61|35=0|34=17|49=INITIATOR|52=20190605-13:21:35.997|56=ACCEPTOR|10=107|8=FIXT.1.1|9=61|35=0|34=18|49=INITIATOR|52=20190605-13:21:55.016|56=ACCEPTOR|10=092|8=FIXT.1.1|9=61|35=0|34=19|49=INITIATOR|52=20190605-13:22:15.035|56=ACCEPTOR|10=091|8=FIXT.1.1|9=61|35=0|34=20|49=INITIATOR|52=20190605-13:22:35.054|56=ACCEPTOR|10=086|8=FIXT.1.1|9=61|35=0|34=21|49=INITIATOR|52=20190605-13:22:55.072|56=ACCEPTOR|10=089|8=FIXT.1.1|9=61|35=0|34=22|49=INITIATOR|52=20190605-13:23:15.090|56=ACCEPTOR|10=087|8=FIXT.1.1|9=61|35=0|34=23|49=INITIATOR|52=20190605-13:23:35.107|56=ACCEPTOR|10=089|8=FIXT.1.1|9=61|35=0|34=24|49=INITIATOR|52=20190605-13:23:55.126|56=ACCEPTOR|10=093|8=FIXT.1.1|9=61|35=0|34=25|49=INITIATOR|52=20190605-13:24:15.146|56=ACCEPTOR|10=093|8=FIXT.1.1|9=61|35=0|34=26|49=INITIATOR|52=20190605-13:24:35.162|56=ACCEPTOR|10=094|8=FIXT.1.1|9=61|35=0|34=27|49=INITIATOR|52=20190605-13:24:55.180|56=ACCEPTOR|10=097|8=FIXT.1.1|9=61|35=0|34=28|49=INITIATOR|52=20190605-13:25:15.200|56=ACCEPTOR|10=088|8=FIXT.1.1|9=158|35=D|34=29|49=INITIATOR|52=20190605-13:26:15.184|56=ACCEPTOR|11=0E0Z86K00000|22=1|38=200|40=2|48=06051GDX4|54=1|55=BAC|60=20190605-18:56:15.182|218=100|423=6|10=051|8=FIXT.1.1|9=106|35=A|34=30|49=INITIATOR|52=20190605-13:26:15.185|56=ACCEPTOR|98=0|108=20|553=USERNAME|554=PASSWORD|1137=7|10=130|8=FIXT.1.1|9=61|35=5|34=31|49=INITIATOR|52=20190605-13:26:15.651|56=ACCEPTOR|10=098|8=FIXT.1.1|9=106|35=A|34=32|49=INITIATOR|52=20190605-13:26:15.651|56=ACCEPTOR|98=0|108=20|553=USERNAME|554=PASSWORD|1137=7|10=130|8=FIXT.1.1|9=158|35=D|34=33|49=INITIATOR|52=20190605-13:26:47.032|56=ACCEPTOR|11=0E0Z86K00000|22=1|38=200|40=2|48=06051GDX4|54=1|55=BAC|60=20190605-18:56:47.030|218=100|423=6|10=040|8=FIXT.1.1|9=106|35=A|34=34|49=INITIATOR|52=20190605-13:26:47.032|56=ACCEPTOR|98=0|108=20|553=USERNAME|554=PASSWORD|1137=7|10=130|8=FIXT.1.1|9=237|35=AE|34=35|49=INITIATOR|52=20190605-13:26:53.796|56=ACCEPTOR|15=CNY|22=4|30=SINT|31=23|32=12|48=0X1213|54=1|55=BAC|60=20190605-15:43:07.189|75=20190605|423=1|552=1|856=0|1003=1xsasdfdf|1116=1|1117=12|1118=G|1119=3|1430=E|1924=1|1934=11|10=125|8=FIXT.1.1|9=70|35=0|34=36|49=INITIATOR|52=20190605-13:27:12.482|56=ACCEPTOR|112=TEST|10=116|8=FIXT.1.1|9=61|35=0|34=37|49=INITIATOR|52=20190605-13:27:32.072|56=ACCEPTOR|10=096|