8=FIXT.1.1|9=106|35=A|34=1|49=INITIATOR3|52=20190603-05:48:30.574|56=ACCEPTOR|98=0|108=20|553=USERNAME|554=PASSWORD|1137=7|10=133|8=FIXT.1.1|9=61|35=0|34=2|49=INITIATOR3|52=20190603-05:48:50.594|56=ACCEPTOR|10=102|8=FIXT.1.1|9=61|35=0|34=3|49=INITIATOR3|52=20190603-05:49:10.615|56=ACCEPTOR|10=094|8=FIXT.1.1|9=61|35=0|34=4|49=INITIATOR3|52=20190603-05:49:30.360|56=ACCEPTOR|10=094|8=FIXT.1.1|9=61|35=0|34=5|49=INITIATOR3|52=20190603-05:49:50.654|56=ACCEPTOR|10=103|8=FIXT.1.1|9=61|35=0|34=6|49=INITIATOR3|52=20190603-05:50:10.676|56=ACCEPTOR|10=096|8=FIXT.1.1|9=61|35=0|34=7|49=INITIATOR3|52=20190603-05:50:30.697|56=ACCEPTOR|10=102|8=FIXT.1.1|9=61|35=0|34=8|49=INITIATOR3|52=20190603-05:50:50.305|56=ACCEPTOR|10=091|8=FIXT.1.1|9=61|35=0|34=9|49=INITIATOR3|52=20190603-05:51:10.740|56=ACCEPTOR|10=092|8=FIXT.1.1|9=62|35=0|34=10|49=INITIATOR3|52=20190603-05:51:30.762|56=ACCEPTOR|10=139|8=FIXT.1.1|9=62|35=0|34=11|49=INITIATOR3|52=20190603-05:51:50.556|56=ACCEPTOR|10=143|8=FIXT.1.1|9=62|35=0|34=12|49=INITIATOR3|52=20190603-05:52:10.807|56=ACCEPTOR|10=140|8=FIXT.1.1|9=62|35=0|34=13|49=INITIATOR3|52=20190603-05:52:30.558|56=ACCEPTOR|10=146|8=FIXT.1.1|9=62|35=0|34=14|49=INITIATOR3|52=20190603-05:52:50.849|56=ACCEPTOR|10=152|8=FIXT.1.1|9=62|35=0|34=15|49=INITIATOR3|52=20190603-05:53:10.509|56=ACCEPTOR|10=143|8=FIXT.1.1|9=62|35=0|34=16|49=INITIATOR3|52=20190603-05:53:30.890|56=ACCEPTOR|10=149|8=FIXT.1.1|9=62|35=0|34=17|49=INITIATOR3|52=20190603-05:53:50.260|56=ACCEPTOR|10=143|8=FIXT.1.1|9=62|35=0|34=18|49=INITIATOR3|52=20190603-05:54:10.691|56=ACCEPTOR|10=149|8=FIXT.1.1|9=107|35=A|34=19|49=INITIATOR3|52=20190603-05:54:34.374|56=ACCEPTOR|98=0|108=20|553=USERNAME|554=PASSWORD|1137=7|10=190|8=FIXT.1.1|9=62|35=0|34=20|49=INITIATOR3|52=20190603-05:54:54.394|56=ACCEPTOR|10=150|8=FIXT.1.1|9=62|35=0|34=21|49=INITIATOR3|52=20190603-05:55:14.421|56=ACCEPTOR|10=139|8=FIXT.1.1|9=159|35=D|34=22|49=INITIATOR3|52=20190603-05:55:26.194|56=ACCEPTOR|11=0E0Z86K00000|22=1|38=200|40=2|48=06051GDX4|54=1|55=BAC|60=20190603-11:25:26.192|218=100|423=6|10=090|8=FIXT.1.1|9=107|35=A|34=23|49=INITIATOR3|52=20190603-05:55:26.195|56=ACCEPTOR|98=0|108=20|553=USERNAME|554=PASSWORD|1137=7|10=188|8=FIXT.1.1|9=159|35=D|34=24|49=INITIATOR3|52=20190603-05:55:47.879|56=ACCEPTOR|11=0E0Z86K00000|22=1|38=200|40=2|48=06051GDX4|54=1|55=BAC|60=20190603-11:25:47.876|218=100|423=6|10=117|8=FIXT.1.1|9=107|35=A|34=25|49=INITIATOR3|52=20190603-05:55:47.879|56=ACCEPTOR|98=0|108=20|553=USERNAME|554=PASSWORD|1137=7|10=202|8=FIXT.1.1|9=62|35=0|34=26|49=INITIATOR3|52=20190603-05:56:08.324|56=ACCEPTOR|10=150|8=FIXT.1.1|9=62|35=0|34=27|49=INITIATOR3|52=20190603-05:56:28.805|56=ACCEPTOR|10=157|8=FIXT.1.1|9=62|35=0|34=28|49=INITIATOR3|52=20190603-05:56:48.943|56=ACCEPTOR|10=163|8=FIXT.1.1|9=62|35=0|34=29|49=INITIATOR3|52=20190603-05:57:08.960|56=ACCEPTOR|10=160|8=FIXT.1.1|9=159|35=D|34=30|49=INITIATOR3|52=20190603-05:57:15.430|56=ACCEPTOR|11=0E0Z86K00000|22=1|38=200|40=2|48=06051GDX4|54=1|55=BAC|60=20190603-11:27:15.428|218=100|423=6|10=084|8=FIXT.1.1|9=107|35=A|34=31|49=INITIATOR3|52=20190603-05:57:15.430|56=ACCEPTOR|98=0|108=20|553=USERNAME|554=PASSWORD|1137=7|10=179|8=FIXT.1.1|9=159|35=D|34=32|49=INITIATOR3|52=20190603-05:57:21.049|56=ACCEPTOR|11=0E0Z86K00000|22=1|38=200|40=2|48=06051GDX4|54=1|55=BAC|60=20190603-11:27:21.047|218=100|423=6|10=083|8=FIXT.1.1|9=159|35=D|34=33|49=INITIATOR3|52=20190603-05:57:28.783|56=ACCEPTOR|11=0E0Z86K00000|22=1|38=200|40=2|48=06051GDX4|54=1|55=BAC|60=20190603-11:27:28.782|218=100|423=6|10=109|8=FIXT.1.1|9=159|35=D|34=34|49=INITIATOR3|52=20190603-05:57:30.468|56=ACCEPTOR|11=0E0Z86K00000|22=1|38=200|40=2|48=06051GDX4|54=1|55=BAC|60=20190603-11:27:30.467|218=100|423=6|10=096|8=FIXT.1.1|9=159|35=D|34=35|49=INITIATOR3|52=20190603-05:57:30.848|56=ACCEPTOR|11=0E0Z86K00000|22=1|38=200|40=2|48=06051GDX4|54=1|55=BAC|60=20190603-11:27:30.847|218=100|423=6|10=101|8=FIXT.1.1|9=62|35=0|34=36|49=INITIATOR3|52=20190603-05:57:50.465|56=ACCEPTOR|10=155|8=FIXT.1.1|9=62|35=0|34=37|49=INITIATOR3|52=20190603-05:58:10.485|56=ACCEPTOR|10=155|8=FIXT.1.1|9=62|35=0|34=38|49=INITIATOR3|52=20190603-05:58:30.506|56=ACCEPTOR|10=152|8=FIXT.1.1|9=62|35=0|34=39|49=INITIATOR3|52=20190603-05:58:50.523|56=ACCEPTOR|10=154|8=FIXT.1.1|9=62|35=0|34=40|49=INITIATOR3|52=20190603-05:59:10.544|56=ACCEPTOR|10=146|8=FIXT.1.1|9=62|35=0|34=41|49=INITIATOR3|52=20190603-05:59:30.567|56=ACCEPTOR|10=154|8=FIXT.1.1|9=62|35=0|34=42|49=INITIATOR3|52=20190603-05:59:50.589|56=ACCEPTOR|10=161|8=FIXT.1.1|9=62|35=0|34=43|49=INITIATOR3|52=20190603-06:00:10.611|56=ACCEPTOR|10=131|8=FIXT.1.1|9=62|35=0|34=44|49=INITIATOR3|52=20190603-06:00:30.633|56=ACCEPTOR|10=138|8=FIXT.1.1|9=62|35=0|34=45|49=INITIATOR3|52=20190603-06:00:50.655|56=ACCEPTOR|10=145|8=FIXT.1.1|9=62|35=0|34=46|49=INITIATOR3|52=20190603-06:01:10.677|56=ACCEPTOR|10=147|8=FIXT.1.1|9=62|35=0|34=47|49=INITIATOR3|52=20190603-06:01:30.695|56=ACCEPTOR|10=150|8=FIXT.1.1|9=62|35=0|34=48|49=INITIATOR3|52=20190603-06:01:50.714|56=ACCEPTOR|10=145|8=FIXT.1.1|9=62|35=0|34=49|49=INITIATOR3|52=20190603-06:02:10.734|56=ACCEPTOR|10=145|8=FIXT.1.1|9=62|35=0|34=50|49=INITIATOR3|52=20190603-06:02:30.755|56=ACCEPTOR|10=142|8=FIXT.1.1|9=62|35=0|34=51|49=INITIATOR3|52=20190603-06:02:50.777|56=ACCEPTOR|10=149|8=FIXT.1.1|9=62|35=0|34=52|49=INITIATOR3|52=20190603-06:03:10.797|56=ACCEPTOR|10=149|8=FIXT.1.1|9=62|35=0|34=53|49=INITIATOR3|52=20190603-06:03:30.819|56=ACCEPTOR|10=147|8=FIXT.1.1|9=62|35=0|34=54|49=INITIATOR3|52=20190603-06:03:50.841|56=ACCEPTOR|10=145|8=FIXT.1.1|9=62|35=0|34=55|49=INITIATOR3|52=20190603-06:04:10.862|56=ACCEPTOR|10=146|8=FIXT.1.1|9=62|35=0|34=56|49=INITIATOR3|52=20190603-06:04:30.884|56=ACCEPTOR|10=153|8=FIXT.1.1|9=62|35=0|34=57|49=INITIATOR3|52=20190603-06:04:50.905|56=ACCEPTOR|10=150|8=FIXT.1.1|9=62|35=0|34=58|49=INITIATOR3|52=20190603-06:05:10.926|56=ACCEPTOR|10=151|8=FIXT.1.1|9=62|35=0|34=59|49=INITIATOR3|52=20190603-06:05:30.948|56=ACCEPTOR|10=158|8=FIXT.1.1|9=62|35=0|34=60|49=INITIATOR3|52=20190603-06:05:50.970|56=ACCEPTOR|10=147|8=FIXT.1.1|9=62|35=0|34=61|49=INITIATOR3|52=20190603-06:06:10.992|56=ACCEPTOR|10=149|8=FIXT.1.1|9=62|35=0|34=62|49=INITIATOR3|52=20190603-06:06:30.013|56=ACCEPTOR|10=136|8=FIXT.1.1|9=62|35=0|34=63|49=INITIATOR3|52=20190603-06:06:50.036|56=ACCEPTOR|10=144|8=FIXT.1.1|9=62|35=0|34=64|49=INITIATOR3|52=20190603-06:07:10.060|56=ACCEPTOR|10=139|8=FIXT.1.1|9=62|35=0|34=65|49=INITIATOR3|52=20190603-06:07:30.080|56=ACCEPTOR|10=144|8=FIXT.1.1|9=62|35=0|34=66|49=INITIATOR3|52=20190603-06:07:50.101|56=ACCEPTOR|10=141|8=FIXT.1.1|9=62|35=0|34=67|49=INITIATOR3|52=20190603-06:08:10.122|56=ACCEPTOR|10=142|8=FIXT.1.1|9=62|35=0|34=68|49=INITIATOR3|52=20190603-06:08:30.143|56=ACCEPTOR|10=148|8=FIXT.1.1|9=62|35=0|34=69|49=INITIATOR3|52=20190603-06:08:50.165|56=ACCEPTOR|10=155|8=FIXT.1.1|9=62|35=0|34=70|49=INITIATOR3|52=20190603-06:09:10.186|56=ACCEPTOR|10=147|8=FIXT.1.1|9=62|35=0|34=71|49=INITIATOR3|52=20190603-06:09:30.206|56=ACCEPTOR|10=143|8=FIXT.1.1|9=62|35=0|34=72|49=INITIATOR3|52=20190603-06:09:50.225|56=ACCEPTOR|10=147|8=FIXT.1.1|9=62|35=0|34=73|49=INITIATOR3|52=20190603-06:10:10.247|56=ACCEPTOR|10=140|8=FIXT.1.1|9=62|35=0|34=74|49=INITIATOR3|52=20190603-06:10:30.269|56=ACCEPTOR|10=147|8=FIXT.1.1|9=62|35=0|34=75|49=INITIATOR3|52=20190603-06:10:50.289|56=ACCEPTOR|10=152|8=FIXT.1.1|9=62|35=0|34=76|49=INITIATOR3|52=20190603-06:11:10.310|56=ACCEPTOR|10=135|8=FIXT.1.1|9=62|35=0|34=77|49=INITIATOR3|52=20190603-06:11:30.332|56=ACCEPTOR|10=142|8=FIXT.1.1|9=62|35=0|34=78|49=INITIATOR3|52=20190603-06:11:50.353|56=ACCEPTOR|10=148|8=FIXT.1.1|9=62|35=0|34=79|49=INITIATOR3|52=20190603-06:12:10.374|56=ACCEPTOR|10=149|8=FIXT.1.1|9=62|35=0|34=80|49=INITIATOR3|52=20190603-06:12:30.396|56=ACCEPTOR|10=147|8=FIXT.1.1|9=62|35=0|34=81|49=INITIATOR3|52=20190603-06:12:50.418|56=ACCEPTOR|10=145|8=FIXT.1.1|9=62|35=0|34=82|49=INITIATOR3|52=20190603-06:13:10.441|56=ACCEPTOR|10=139|8=FIXT.1.1|9=62|35=0|34=83|49=INITIATOR3|52=20190603-06:13:30.463|56=ACCEPTOR|10=146|8=FIXT.1.1|9=62|35=0|34=84|49=INITIATOR3|52=20190603-06:13:50.485|56=ACCEPTOR|10=153|8=FIXT.1.1|9=62|35=0|34=85|49=INITIATOR3|52=20190603-06:14:10.507|56=ACCEPTOR|10=146|8=FIXT.1.1|9=62|35=0|34=86|49=INITIATOR3|52=20190603-06:14:30.530|56=ACCEPTOR|10=145|8=FIXT.1.1|9=62|35=0|34=87|49=INITIATOR3|52=20190603-06:14:50.553|56=ACCEPTOR|10=153|8=FIXT.1.1|9=62|35=0|34=88|49=INITIATOR3|52=20190603-06:15:10.574|56=ACCEPTOR|10=154|8=FIXT.1.1|9=62|35=0|34=89|49=INITIATOR3|52=20190603-06:15:30.597|56=ACCEPTOR|10=162|8=FIXT.1.1|9=62|35=0|34=90|49=INITIATOR3|52=20190603-06:15:50.620|56=ACCEPTOR|10=143|8=FIXT.1.1|9=62|35=0|34=91|49=INITIATOR3|52=20190603-06:16:10.640|56=ACCEPTOR|10=143|8=FIXT.1.1|9=62|35=0|34=92|49=INITIATOR3|52=20190603-06:16:30.662|56=ACCEPTOR|10=150|8=FIXT.1.1|9=62|35=0|34=93|49=INITIATOR3|52=20190603-06:16:50.685|56=ACCEPTOR|10=158|8=FIXT.1.1|9=62|35=0|34=94|49=INITIATOR3|52=20190603-06:17:10.705|56=ACCEPTOR|10=149|8=FIXT.1.1|9=62|35=0|34=95|49=INITIATOR3|52=20190603-06:17:30.727|56=ACCEPTOR|10=156|8=FIXT.1.1|9=62|35=0|34=96|49=INITIATOR3|52=20190603-06:17:50.747|56=ACCEPTOR|10=161|8=FIXT.1.1|9=62|35=0|34=97|49=INITIATOR3|52=20190603-06:18:10.770|56=ACCEPTOR|10=155|8=FIXT.1.1|9=62|35=0|34=98|49=INITIATOR3|52=20190603-06:18:30.792|56=ACCEPTOR|10=162|8=FIXT.1.1|9=62|35=0|34=99|49=INITIATOR3|52=20190603-06:18:50.812|56=ACCEPTOR|10=158|8=FIXT.1.1|9=63|35=0|34=100|49=INITIATOR3|52=20190603-06:19:10.835|56=ACCEPTOR|10=192|8=FIXT.1.1|9=63|35=0|34=101|49=INITIATOR3|52=20190603-06:19:30.856|56=ACCEPTOR|10=198|8=FIXT.1.1|9=63|35=0|34=102|49=INITIATOR3|52=20190603-06:19:50.878|56=ACCEPTOR|10=205|8=FIXT.1.1|9=63|35=0|34=103|49=INITIATOR3|52=20190603-06:20:10.899|56=ACCEPTOR|10=197|8=FIXT.1.1|9=63|35=0|34=104|49=INITIATOR3|52=20190603-06:20:30.918|56=ACCEPTOR|10=192|8=FIXT.1.1|9=63|35=0|34=105|49=INITIATOR3|52=20190603-06:20:50.939|56=ACCEPTOR|10=198|8=FIXT.1.1|9=63|35=0|34=106|49=INITIATOR3|52=20190603-06:21:10.961|56=ACCEPTOR|10=191|8=FIXT.1.1|9=63|35=0|34=107|49=INITIATOR3|52=20190603-06:21:30.983|56=ACCEPTOR|10=198|8=FIXT.1.1|9=63|35=0|34=108|49=INITIATOR3|52=20190603-06:21:50.004|56=ACCEPTOR|10=185|8=FIXT.1.1|9=63|35=0|34=109|49=INITIATOR3|52=20190603-06:22:10.027|56=ACCEPTOR|10=188|8=FIXT.1.1|9=63|35=0|34=110|49=INITIATOR3|52=20190603-06:22:30.049|56=ACCEPTOR|10=186|8=FIXT.1.1|9=63|35=0|34=111|49=INITIATOR3|52=20190603-06:22:50.071|56=ACCEPTOR|10=184|8=FIXT.1.1|9=63|35=0|34=112|49=INITIATOR3|52=20190603-06:23:10.093|56=ACCEPTOR|10=186|8=FIXT.1.1|9=63|35=0|34=113|49=INITIATOR3|52=20190603-06:23:30.113|56=ACCEPTOR|10=182|8=FIXT.1.1|9=63|35=0|34=114|49=INITIATOR3|52=20190603-06:23:50.134|56=ACCEPTOR|10=188|8=FIXT.1.1|9=63|35=0|34=115|49=INITIATOR3|52=20190603-06:24:10.156|56=ACCEPTOR|10=190|8=FIXT.1.1|9=63|35=0|34=116|49=INITIATOR3|52=20190603-06:24:30.178|56=ACCEPTOR|10=197|8=FIXT.1.1|9=63|35=0|34=117|49=INITIATOR3|52=20190603-06:24:50.198|56=ACCEPTOR|10=202|8=FIXT.1.1|9=63|35=0|34=118|49=INITIATOR3|52=20190603-06:25:10.218|56=ACCEPTOR|10=193|8=FIXT.1.1|9=63|35=0|34=119|49=INITIATOR3|52=20190603-06:25:30.238|56=ACCEPTOR|10=198|8=FIXT.1.1|9=63|35=0|34=120|49=INITIATOR3|52=20190603-06:25:50.258|56=ACCEPTOR|10=194|8=FIXT.1.1|9=63|35=0|34=121|49=INITIATOR3|52=20190603-06:26:10.281|56=ACCEPTOR|10=188|8=FIXT.1.1|9=63|35=0|34=122|49=INITIATOR3|52=20190603-06:26:30.301|56=ACCEPTOR|10=184|8=FIXT.1.1|9=63|35=0|34=123|49=INITIATOR3|52=20190603-06:26:50.323|56=ACCEPTOR|10=191|8=FIXT.1.1|9=63|35=0|34=124|49=INITIATOR3|52=20190603-06:27:10.345|56=ACCEPTOR|10=193|8=FIXT.1.1|9=63|35=0|34=125|49=INITIATOR3|52=20190603-06:27:30.367|56=ACCEPTOR|10=200|8=FIXT.1.1|9=63|35=0|34=126|49=INITIATOR3|52=20190603-06:27:50.388|56=ACCEPTOR|10=206|8=FIXT.1.1|9=63|35=0|34=127|49=INITIATOR3|52=20190603-06:28:10.409|56=ACCEPTOR|10=198|8=FIXT.1.1|9=63|35=0|34=128|49=INITIATOR3|52=20190603-06:28:30.430|56=ACCEPTOR|10=195|8=FIXT.1.1|9=63|35=0|34=129|49=INITIATOR3|52=20190603-06:28:50.452|56=ACCEPTOR|10=202|8=FIXT.1.1|9=63|35=0|34=130|49=INITIATOR3|52=20190603-06:29:10.474|56=ACCEPTOR|10=195|8=FIXT.1.1|9=63|35=0|34=131|49=INITIATOR3|52=20190603-06:29:30.495|56=ACCEPTOR|10=201|8=FIXT.1.1|9=63|35=0|34=132|49=INITIATOR3|52=20190603-06:29:50.518|56=ACCEPTOR|10=200|8=FIXT.1.1|9=63|35=0|34=133|49=INITIATOR3|52=20190603-06:30:10.540|56=ACCEPTOR|10=184|8=FIXT.1.1|9=63|35=0|34=134|49=INITIATOR3|52=20190603-06:30:30.562|56=ACCEPTOR|10=191|8=FIXT.1.1|9=63|35=0|34=135|49=INITIATOR3|52=20190603-06:30:50.583|56=ACCEPTOR|10=197|8=FIXT.1.1|9=63|35=0|34=136|49=INITIATOR3|52=20190603-06:31:10.604|56=ACCEPTOR|10=189|8=FIXT.1.1|9=63|35=0|34=137|49=INITIATOR3|52=20190603-06:31:30.623|56=ACCEPTOR|10=193|8=FIXT.1.1|9=63|35=0|34=138|49=INITIATOR3|52=20190603-06:31:50.643|56=ACCEPTOR|10=198|8=FIXT.1.1|9=63|35=0|34=139|49=INITIATOR3|52=20190603-06:32:10.664|56=ACCEPTOR|10=199|8=FIXT.1.1|9=63|35=0|34=140|49=INITIATOR3|52=20190603-06:32:30.685|56=ACCEPTOR|10=196|8=FIXT.1.1|9=63|35=0|34=141|49=INITIATOR3|52=20190603-06:32:50.705|56=ACCEPTOR|10=192|8=FIXT.1.1|9=63|35=0|34=142|49=INITIATOR3|52=20190603-06:33:10.726|56=ACCEPTOR|10=193|8=FIXT.1.1|9=63|35=0|34=143|49=INITIATOR3|52=20190603-06:33:30.748|56=ACCEPTOR|10=200|8=FIXT.1.1|9=63|35=0|34=144|49=INITIATOR3|52=20190603-06:33:50.767|56=ACCEPTOR|10=204|8=FIXT.1.1|9=108|35=A|34=145|49=INITIATOR3|52=20190603-06:34:15.795|56=ACCEPTOR|98=0|108=20|553=USERNAME|554=PASSWORD|1137=7|10=244|8=FIXT.1.1|9=108|35=A|34=146|49=INITIATOR3|52=20190603-06:34:45.827|56=ACCEPTOR|98=0|108=20|553=USERNAME|554=PASSWORD|1137=7|10=244|8=FIXT.1.1|9=108|35=A|34=147|49=INITIATOR3|52=20190603-06:35:15.861|56=ACCEPTOR|98=0|108=20|553=USERNAME|554=PASSWORD|1137=7|10=241|8=FIXT.1.1|9=108|35=A|34=148|49=INITIATOR3|52=20190603-06:35:45.892|56=ACCEPTOR|98=0|108=20|553=USERNAME|554=PASSWORD|1137=7|10=249|8=FIXT.1.1|9=108|35=A|34=149|49=INITIATOR3|52=20190603-06:36:15.922|56=ACCEPTOR|98=0|108=20|553=USERNAME|554=PASSWORD|1137=7|10=242|8=FIXT.1.1|9=108|35=A|34=150|49=INITIATOR3|52=20190603-06:36:45.953|56=ACCEPTOR|98=0|108=20|553=USERNAME|554=PASSWORD|1137=7|10=241|8=FIXT.1.1|9=108|35=A|34=151|49=INITIATOR3|52=20190603-06:37:15.983|56=ACCEPTOR|98=0|108=20|553=USERNAME|554=PASSWORD|1137=7|10=243|8=FIXT.1.1|9=108|35=A|34=152|49=INITIATOR3|52=20190603-06:37:45.014|56=ACCEPTOR|98=0|108=20|553=USERNAME|554=PASSWORD|1137=7|10=232|8=FIXT.1.1|9=108|35=A|34=153|49=INITIATOR3|52=20190603-06:38:15.046|56=ACCEPTOR|98=0|108=20|553=USERNAME|554=PASSWORD|1137=7|10=236|8=FIXT.1.1|9=108|35=A|34=154|49=INITIATOR3|52=20190603-06:38:45.076|56=ACCEPTOR|98=0|108=20|553=USERNAME|554=PASSWORD|1137=7|10=243|8=FIXT.1.1|9=108|35=A|34=155|49=INITIATOR3|52=20190603-06:39:15.106|56=ACCEPTOR|98=0|108=20|553=USERNAME|554=PASSWORD|1137=7|10=236|8=FIXT.1.1|9=108|35=A|34=156|49=INITIATOR3|52=20190603-06:39:45.134|56=ACCEPTOR|98=0|108=20|553=USERNAME|554=PASSWORD|1137=7|10=241|8=FIXT.1.1|9=108|35=A|34=157|49=INITIATOR3|52=20190603-06:40:15.163|56=ACCEPTOR|98=0|108=20|553=USERNAME|554=PASSWORD|1137=7|10=233|8=FIXT.1.1|9=108|35=A|34=158|49=INITIATOR3|52=20190603-06:40:45.192|56=ACCEPTOR|98=0|108=20|553=USERNAME|554=PASSWORD|1137=7|10=239|8=FIXT.1.1|9=108|35=A|34=159|49=INITIATOR3|52=20190603-06:41:15.221|56=ACCEPTOR|98=0|108=20|553=USERNAME|554=PASSWORD|1137=7|10=231|8=FIXT.1.1|9=108|35=A|34=160|49=INITIATOR3|52=20190603-06:41:45.250|56=ACCEPTOR|98=0|108=20|553=USERNAME|554=PASSWORD|1137=7|10=228|8=FIXT.1.1|9=108|35=A|34=161|49=INITIATOR3|52=20190603-06:42:15.281|56=ACCEPTOR|98=0|108=20|553=USERNAME|554=PASSWORD|1137=7|10=231|8=FIXT.1.1|9=108|35=A|34=162|49=INITIATOR3|52=20190603-06:42:45.310|56=ACCEPTOR|98=0|108=20|553=USERNAME|554=PASSWORD|1137=7|10=228|8=FIXT.1.1|9=108|35=A|34=163|49=INITIATOR3|52=20190603-06:43:15.333|56=ACCEPTOR|98=0|108=20|553=USERNAME|554=PASSWORD|1137=7|10=232|8=FIXT.1.1|9=108|35=A|34=164|49=INITIATOR3|52=20190603-06:43:45.364|56=ACCEPTOR|98=0|108=20|553=USERNAME|554=PASSWORD|1137=7|10=240|8=FIXT.1.1|9=108|35=A|34=165|49=INITIATOR3|52=20190603-06:44:15.395|56=ACCEPTOR|98=0|108=20|553=USERNAME|554=PASSWORD|1137=7|10=243|8=FIXT.1.1|9=108|35=A|34=166|49=INITIATOR3|52=20190603-06:44:45.426|56=ACCEPTOR|98=0|108=20|553=USERNAME|554=PASSWORD|1137=7|10=242|8=FIXT.1.1|9=108|35=A|34=167|49=INITIATOR3|52=20190603-06:45:15.456|56=ACCEPTOR|98=0|108=20|553=USERNAME|554=PASSWORD|1137=7|10=244|8=FIXT.1.1|9=108|35=A|34=168|49=INITIATOR3|52=20190603-06:45:45.485|56=ACCEPTOR|98=0|108=20|553=USERNAME|554=PASSWORD|1137=7|10=250|8=FIXT.1.1|9=108|35=A|34=169|49=INITIATOR3|52=20190603-06:46:15.511|56=ACCEPTOR|98=0|108=20|553=USERNAME|554=PASSWORD|1137=7|10=239|8=FIXT.1.1|9=108|35=A|34=170|49=INITIATOR3|52=20190603-06:46:45.541|56=ACCEPTOR|98=0|108=20|553=USERNAME|554=PASSWORD|1137=7|10=237|8=FIXT.1.1|9=108|35=A|34=171|49=INITIATOR3|52=20190603-06:47:15.570|56=ACCEPTOR|98=0|108=20|553=USERNAME|554=PASSWORD|1137=7|10=238|8=FIXT.1.1|9=108|35=A|34=172|49=INITIATOR3|52=20190603-06:47:45.601|56=ACCEPTOR|98=0|108=20|553=USERNAME|554=PASSWORD|1137=7|10=237|8=FIXT.1.1|9=108|35=A|34=173|49=INITIATOR3|52=20190603-06:48:15.631|56=ACCEPTOR|98=0|108=20|553=USERNAME|554=PASSWORD|1137=7|10=239|8=FIXT.1.1|9=108|35=A|34=174|49=INITIATOR3|52=20190603-06:48:45.659|56=ACCEPTOR|98=0|108=20|553=USERNAME|554=PASSWORD|1137=7|10=253|8=FIXT.1.1|9=108|35=A|34=175|49=INITIATOR3|52=20190603-06:49:15.688|56=ACCEPTOR|98=0|108=20|553=USERNAME|554=PASSWORD|1137=7|10=254|8=FIXT.1.1|9=108|35=A|34=176|49=INITIATOR3|52=20190603-06:49:45.719|56=ACCEPTOR|98=0|108=20|553=USERNAME|554=PASSWORD|1137=7|10=253|8=FIXT.1.1|9=108|35=A|34=177|49=INITIATOR3|52=20190603-06:50:15.748|56=ACCEPTOR|98=0|108=20|553=USERNAME|554=PASSWORD|1137=7|10=245|8=FIXT.1.1|9=108|35=A|34=178|49=INITIATOR3|52=20190603-06:50:45.775|56=ACCEPTOR|98=0|108=20|553=USERNAME|554=PASSWORD|1137=7|10=249|8=FIXT.1.1|9=108|35=A|34=179|49=INITIATOR3|52=20190603-06:51:15.805|56=ACCEPTOR|98=0|108=20|553=USERNAME|554=PASSWORD|1137=7|10=242|8=FIXT.1.1|9=108|35=A|34=180|49=INITIATOR3|52=20190603-06:51:45.836|56=ACCEPTOR|98=0|108=20|553=USERNAME|554=PASSWORD|1137=7|10=241|8=FIXT.1.1|9=108|35=A|34=181|49=INITIATOR3|52=20190603-06:52:15.864|56=ACCEPTOR|98=0|108=20|553=USERNAME|554=PASSWORD|1137=7|10=241|8=FIXT.1.1|9=108|35=A|34=182|49=INITIATOR3|52=20190603-06:52:45.892|56=ACCEPTOR|98=0|108=20|553=USERNAME|554=PASSWORD|1137=7|10=246|8=FIXT.1.1|9=108|35=A|34=183|49=INITIATOR3|52=20190603-06:53:15.921|56=ACCEPTOR|98=0|108=20|553=USERNAME|554=PASSWORD|1137=7|10=238|8=FIXT.1.1|9=108|35=A|34=184|49=INITIATOR3|52=20190603-06:53:45.951|56=ACCEPTOR|98=0|108=20|553=USERNAME|554=PASSWORD|1137=7|10=245|8=FIXT.1.1|9=108|35=A|34=185|49=INITIATOR3|52=20190603-06:54:15.981|56=ACCEPTOR|98=0|108=20|553=USERNAME|554=PASSWORD|1137=7|10=247|8=FIXT.1.1|9=108|35=A|34=186|49=INITIATOR3|52=20190603-06:54:45.010|56=ACCEPTOR|98=0|108=20|553=USERNAME|554=PASSWORD|1137=7|10=234|8=FIXT.1.1|9=108|35=A|34=187|49=INITIATOR3|52=20190603-06:55:15.036|56=ACCEPTOR|98=0|108=20|553=USERNAME|554=PASSWORD|1137=7|10=241|8=FIXT.1.1|9=108|35=A|34=188|49=INITIATOR3|52=20190603-06:55:45.065|56=ACCEPTOR|98=0|108=20|553=USERNAME|554=PASSWORD|1137=7|10=247|8=FIXT.1.1|9=108|35=A|34=189|49=INITIATOR3|52=20190603-06:56:15.093|56=ACCEPTOR|98=0|108=20|553=USERNAME|554=PASSWORD|1137=7|10=247|8=FIXT.1.1|9=108|35=A|34=190|49=INITIATOR3|52=20190603-06:56:45.123|56=ACCEPTOR|98=0|108=20|553=USERNAME|554=PASSWORD|1137=7|10=236|8=FIXT.1.1|9=108|35=A|34=191|49=INITIATOR3|52=20190603-06:57:15.152|56=ACCEPTOR|98=0|108=20|553=USERNAME|554=PASSWORD|1137=7|10=237|8=FIXT.1.1|9=108|35=A|34=192|49=INITIATOR3|52=20190603-06:57:45.183|56=ACCEPTOR|98=0|108=20|553=USERNAME|554=PASSWORD|1137=7|10=245|8=FIXT.1.1|9=108|35=A|34=193|49=INITIATOR3|52=20190603-06:58:15.212|56=ACCEPTOR|98=0|108=20|553=USERNAME|554=PASSWORD|1137=7|10=237|8=FIXT.1.1|9=108|35=A|34=194|49=INITIATOR3|52=20190603-06:58:45.241|56=ACCEPTOR|98=0|108=20|553=USERNAME|554=PASSWORD|1137=7|10=243|8=FIXT.1.1|9=108|35=A|34=195|49=INITIATOR3|52=20190603-06:59:15.272|56=ACCEPTOR|98=0|108=20|553=USERNAME|554=PASSWORD|1137=7|10=246|8=FIXT.1.1|9=108|35=A|34=196|49=INITIATOR3|52=20190603-06:59:45.304|56=ACCEPTOR|98=0|108=20|553=USERNAME|554=PASSWORD|1137=7|10=246|8=FIXT.1.1|9=108|35=A|34=197|49=INITIATOR3|52=20190603-07:00:15.333|56=ACCEPTOR|98=0|108=20|553=USERNAME|554=PASSWORD|1137=7|10=233|8=FIXT.1.1|9=108|35=A|34=198|49=INITIATOR3|52=20190603-07:00:45.362|56=ACCEPTOR|98=0|108=20|553=USERNAME|554=PASSWORD|1137=7|10=239|8=FIXT.1.1|9=108|35=A|34=199|49=INITIATOR3|52=20190603-07:01:15.394|56=ACCEPTOR|98=0|108=20|553=USERNAME|554=PASSWORD|1137=7|10=243|8=FIXT.1.1|9=108|35=A|34=200|49=INITIATOR3|52=20190603-07:01:45.423|56=ACCEPTOR|98=0|108=20|553=USERNAME|554=PASSWORD|1137=7|10=222|8=FIXT.1.1|9=108|35=A|34=201|49=INITIATOR3|52=20190603-07:02:15.453|56=ACCEPTOR|98=0|108=20|553=USERNAME|554=PASSWORD|1137=7|10=224|8=FIXT.1.1|9=108|35=A|34=202|49=INITIATOR3|52=20190603-07:02:45.482|56=ACCEPTOR|98=0|108=20|553=USERNAME|554=PASSWORD|1137=7|10=230|8=FIXT.1.1|9=108|35=A|34=203|49=INITIATOR3|52=20190603-07:03:15.512|56=ACCEPTOR|98=0|108=20|553=USERNAME|554=PASSWORD|1137=7|10=223|8=FIXT.1.1|9=108|35=A|34=204|49=INITIATOR3|52=20190603-07:03:45.540|56=ACCEPTOR|98=0|108=20|553=USERNAME|554=PASSWORD|1137=7|10=228|8=FIXT.1.1|9=108|35=A|34=205|49=INITIATOR3|52=20190603-07:04:15.567|56=ACCEPTOR|98=0|108=20|553=USERNAME|554=PASSWORD|1137=7|10=236|8=FIXT.1.1|9=108|35=A|34=206|49=INITIATOR3|52=20190603-07:04:45.593|56=ACCEPTOR|98=0|108=20|553=USERNAME|554=PASSWORD|1137=7|10=239|8=FIXT.1.1|9=108|35=A|34=207|49=INITIATOR3|52=20190603-07:05:15.619|56=ACCEPTOR|98=0|108=20|553=USERNAME|554=PASSWORD|1137=7|10=237|8=FIXT.1.1|9=108|35=A|34=208|49=INITIATOR3|52=20190603-07:05:45.647|56=ACCEPTOR|98=0|108=20|553=USERNAME|554=PASSWORD|1137=7|10=242|8=FIXT.1.1|9=108|35=A|34=209|49=INITIATOR3|52=20190603-07:06:15.677|56=ACCEPTOR|98=0|108=20|553=USERNAME|554=PASSWORD|1137=7|10=244|8=FIXT.1.1|9=108|35=A|34=210|49=INITIATOR3|52=20190603-07:06:45.704|56=ACCEPTOR|98=0|108=20|553=USERNAME|554=PASSWORD|1137=7|10=230|8=FIXT.1.1|9=108|35=A|34=211|49=INITIATOR3|52=20190603-07:07:15.731|56=ACCEPTOR|98=0|108=20|553=USERNAME|554=PASSWORD|1137=7|10=229|8=FIXT.1.1|9=108|35=A|34=212|49=INITIATOR3|52=20190603-07:07:45.761|56=ACCEPTOR|98=0|108=20|553=USERNAME|554=PASSWORD|1137=7|10=236|8=FIXT.1.1|9=108|35=A|34=213|49=INITIATOR3|52=20190603-07:08:15.790|56=ACCEPTOR|98=0|108=20|553=USERNAME|554=PASSWORD|1137=7|10=237|8=FIXT.1.1|9=108|35=A|34=214|49=INITIATOR3|52=20190603-07:08:45.821|56=ACCEPTOR|98=0|108=20|553=USERNAME|554=PASSWORD|1137=7|10=236|8=FIXT.1.1|9=108|35=A|34=215|49=INITIATOR3|52=20190603-07:09:15.851|56=ACCEPTOR|98=0|108=20|553=USERNAME|554=PASSWORD|1137=7|10=238|8=FIXT.1.1|9=108|35=A|34=216|49=INITIATOR3|52=20190603-07:09:45.879|56=ACCEPTOR|98=0|108=20|553=USERNAME|554=PASSWORD|1137=7|10=252|8=FIXT.1.1|9=108|35=A|34=217|49=INITIATOR3|52=20190603-07:10:15.910|56=ACCEPTOR|98=0|108=20|553=USERNAME|554=PASSWORD|1137=7|10=228|8=FIXT.1.1|9=108|35=A|34=218|49=INITIATOR3|52=20190603-07:10:45.941|56=ACCEPTOR|98=0|108=20|553=USERNAME|554=PASSWORD|1137=7|10=236|8=FIXT.1.1|9=108|35=A|34=219|49=INITIATOR3|52=20190603-07:11:15.970|56=ACCEPTOR|98=0|108=20|553=USERNAME|554=PASSWORD|1137=7|10=237|8=FIXT.1.1|9=108|35=A|34=220|49=INITIATOR3|52=20190603-07:11:45.997|56=ACCEPTOR|98=0|108=20|553=USERNAME|554=PASSWORD|1137=7|10=241|8=FIXT.1.1|9=108|35=A|34=221|49=INITIATOR3|52=20190603-07:12:15.026|56=ACCEPTOR|98=0|108=20|553=USERNAME|554=PASSWORD|1137=7|10=223|8=FIXT.1.1|9=108|35=A|34=222|49=INITIATOR3|52=20190603-07:12:45.057|56=ACCEPTOR|98=0|108=20|553=USERNAME|554=PASSWORD|1137=7|10=231|8=FIXT.1.1|9=108|35=A|34=223|49=INITIATOR3|52=20190603-07:13:15.088|56=ACCEPTOR|98=0|108=20|553=USERNAME|554=PASSWORD|1137=7|10=234|8=FIXT.1.1|9=108|35=A|34=224|49=INITIATOR3|52=20190603-07:13:45.118|56=ACCEPTOR|98=0|108=20|553=USERNAME|554=PASSWORD|1137=7|10=232|8=FIXT.1.1|9=108|35=A|34=225|49=INITIATOR3|52=20190603-07:14:15.147|56=ACCEPTOR|98=0|108=20|553=USERNAME|554=PASSWORD|1137=7|10=233|8=FIXT.1.1|9=108|35=A|34=226|49=INITIATOR3|52=20190603-07:14:45.180|56=ACCEPTOR|98=0|108=20|553=USERNAME|554=PASSWORD|1137=7|10=234|8=FIXT.1.1|9=108|35=A|34=227|49=INITIATOR3|52=20190603-07:15:15.213|56=ACCEPTOR|98=0|108=20|553=USERNAME|554=PASSWORD|1137=7|10=230|8=FIXT.1.1|9=108|35=A|34=228|49=INITIATOR3|52=20190603-07:15:45.245|56=ACCEPTOR|98=0|108=20|553=USERNAME|554=PASSWORD|1137=7|10=239|8=FIXT.1.1|9=108|35=A|34=229|49=INITIATOR3|52=20190603-07:16:15.275|56=ACCEPTOR|98=0|108=20|553=USERNAME|554=PASSWORD|1137=7|10=241|8=FIXT.1.1|9=108|35=A|34=230|49=INITIATOR3|52=20190603-07:16:45.306|56=ACCEPTOR|98=0|108=20|553=USERNAME|554=PASSWORD|1137=7|10=231|8=FIXT.1.1|9=108|35=A|34=231|49=INITIATOR3|52=20190603-07:17:15.337|56=ACCEPTOR|98=0|108=20|553=USERNAME|554=PASSWORD|1137=7|10=234|8=FIXT.1.1|9=108|35=A|34=232|49=INITIATOR3|52=20190603-07:17:45.364|56=ACCEPTOR|98=0|108=20|553=USERNAME|554=PASSWORD|1137=7|10=238|8=FIXT.1.1|9=108|35=A|34=233|49=INITIATOR3|52=20190603-07:18:15.393|56=ACCEPTOR|98=0|108=20|553=USERNAME|554=PASSWORD|1137=7|10=239|8=FIXT.1.1|9=108|35=A|34=234|49=INITIATOR3|52=20190603-07:18:45.424|56=ACCEPTOR|98=0|108=20|553=USERNAME|554=PASSWORD|1137=7|10=238|8=FIXT.1.1|9=108|35=A|34=235|49=INITIATOR3|52=20190603-07:19:15.453|56=ACCEPTOR|98=0|108=20|553=USERNAME|554=PASSWORD|1137=7|10=239|8=FIXT.1.1|9=108|35=A|34=236|49=INITIATOR3|52=20190603-07:19:45.485|56=ACCEPTOR|98=0|108=20|553=USERNAME|554=PASSWORD|1137=7|10=248|8=FIXT.1.1|9=108|35=A|34=237|49=INITIATOR3|52=20190603-07:20:15.514|56=ACCEPTOR|98=0|108=20|553=USERNAME|554=PASSWORD|1137=7|10=231|8=FIXT.1.1|9=108|35=A|34=238|49=INITIATOR3|52=20190603-07:20:45.545|56=ACCEPTOR|98=0|108=20|553=USERNAME|554=PASSWORD|1137=7|10=239|8=FIXT.1.1|9=108|35=A|34=239|49=INITIATOR3|52=20190603-07:21:15.577|56=ACCEPTOR|98=0|108=20|553=USERNAME|554=PASSWORD|1137=7|10=243|8=FIXT.1.1|9=108|35=A|34=240|49=INITIATOR3|52=20190603-07:21:45.607|56=ACCEPTOR|98=0|108=20|553=USERNAME|554=PASSWORD|1137=7|10=232|8=FIXT.1.1|9=108|35=A|34=241|49=INITIATOR3|52=20190603-07:22:15.637|56=ACCEPTOR|98=0|108=20|553=USERNAME|554=PASSWORD|1137=7|10=234|8=FIXT.1.1|9=108|35=A|34=242|49=INITIATOR3|52=20190603-07:22:45.668|56=ACCEPTOR|98=0|108=20|553=USERNAME|554=PASSWORD|1137=7|10=242|8=FIXT.1.1|9=108|35=A|34=243|49=INITIATOR3|52=20190603-07:23:15.697|56=ACCEPTOR|98=0|108=20|553=USERNAME|554=PASSWORD|1137=7|10=243|8=FIXT.1.1|9=108|35=A|34=244|49=INITIATOR3|52=20190603-07:23:45.729|56=ACCEPTOR|98=0|108=20|553=USERNAME|554=PASSWORD|1137=7|10=243|8=FIXT.1.1|9=108|35=A|34=245|49=INITIATOR3|52=20190603-07:24:15.761|56=ACCEPTOR|98=0|108=20|553=USERNAME|554=PASSWORD|1137=7|10=238|8=FIXT.1.1|9=108|35=A|34=246|49=INITIATOR3|52=20190603-07:24:45.791|56=ACCEPTOR|98=0|108=20|553=USERNAME|554=PASSWORD|1137=7|10=245|8=FIXT.1.1|9=108|35=A|34=247|49=INITIATOR3|52=20190603-07:25:15.822|56=ACCEPTOR|98=0|108=20|553=USERNAME|554=PASSWORD|1137=7|10=239|8=FIXT.1.1|9=108|35=A|34=248|49=INITIATOR3|52=20190603-07:25:45.852|56=ACCEPTOR|98=0|108=20|553=USERNAME|554=PASSWORD|1137=7|10=246|8=FIXT.1.1|9=108|35=A|34=249|49=INITIATOR3|52=20190603-07:26:15.882|56=ACCEPTOR|98=0|108=20|553=USERNAME|554=PASSWORD|1137=7|10=248|8=FIXT.1.1|9=108|35=A|34=250|49=INITIATOR3|52=20190603-07:26:45.914|56=ACCEPTOR|98=0|108=20|553=USERNAME|554=PASSWORD|1137=7|10=239|8=FIXT.1.1|9=108|35=A|34=251|49=INITIATOR3|52=20190603-07:27:15.943|56=ACCEPTOR|98=0|108=20|553=USERNAME|554=PASSWORD|1137=7|10=240|8=FIXT.1.1|9=108|35=A|34=252|49=INITIATOR3|52=20190603-07:27:45.972|56=ACCEPTOR|98=0|108=20|553=USERNAME|554=PASSWORD|1137=7|10=246|8=FIXT.1.1|9=108|35=A|34=253|49=INITIATOR3|52=20190603-07:28:16.001|56=ACCEPTOR|98=0|108=20|553=USERNAME|554=PASSWORD|1137=7|10=229|8=FIXT.1.1|9=108|35=A|34=254|49=INITIATOR3|52=20190603-07:28:45.030|56=ACCEPTOR|98=0|108=20|553=USERNAME|554=PASSWORD|1137=7|10=234|8=FIXT.1.1|9=108|35=A|34=255|49=INITIATOR3|52=20190603-07:29:15.059|56=ACCEPTOR|98=0|108=20|553=USERNAME|554=PASSWORD|1137=7|10=244|8=FIXT.1.1|9=108|35=A|34=256|49=INITIATOR3|52=20190603-07:29:45.089|56=ACCEPTOR|98=0|108=20|553=USERNAME|554=PASSWORD|1137=7|10=251|8=FIXT.1.1|9=108|35=A|34=257|49=INITIATOR3|52=20190603-07:30:15.119|56=ACCEPTOR|98=0|108=20|553=USERNAME|554=PASSWORD|1137=7|10=235|8=FIXT.1.1|9=108|35=A|34=258|49=INITIATOR3|52=20190603-07:30:45.151|56=ACCEPTOR|98=0|108=20|553=USERNAME|554=PASSWORD|1137=7|10=235|8=FIXT.1.1|9=108|35=A|34=259|49=INITIATOR3|52=20190603-07:31:15.183|56=ACCEPTOR|98=0|108=20|553=USERNAME|554=PASSWORD|1137=7|10=239|8=FIXT.1.1|9=108|35=A|34=260|49=INITIATOR3|52=20190603-07:31:45.217|56=ACCEPTOR|98=0|108=20|553=USERNAME|554=PASSWORD|1137=7|10=232|8=FIXT.1.1|9=108|35=A|34=261|49=INITIATOR3|52=20190603-07:32:15.247|56=ACCEPTOR|98=0|108=20|553=USERNAME|554=PASSWORD|1137=7|10=234|8=FIXT.1.1|9=108|35=A|34=262|49=INITIATOR3|52=20190603-07:32:45.277|56=ACCEPTOR|98=0|108=20|553=USERNAME|554=PASSWORD|1137=7|10=241|8=FIXT.1.1|9=108|35=A|34=263|49=INITIATOR3|52=20190603-07:33:15.310|56=ACCEPTOR|98=0|108=20|553=USERNAME|554=PASSWORD|1137=7|10=228|8=FIXT.1.1|9=108|35=A|34=264|49=INITIATOR3|52=20190603-07:33:45.341|56=ACCEPTOR|98=0|108=20|553=USERNAME|554=PASSWORD|1137=7|10=236|8=FIXT.1.1|9=108|35=A|34=265|49=INITIATOR3|52=20190603-07:34:15.370|56=ACCEPTOR|98=0|108=20|553=USERNAME|554=PASSWORD|1137=7|10=237|8=FIXT.1.1|9=108|35=A|34=266|49=INITIATOR3|52=20190603-07:34:45.401|56=ACCEPTOR|98=0|108=20|553=USERNAME|554=PASSWORD|1137=7|10=236|8=FIXT.1.1|9=108|35=A|34=267|49=INITIATOR3|52=20190603-07:35:15.432|56=ACCEPTOR|98=0|108=20|553=USERNAME|554=PASSWORD|1137=7|10=239|8=FIXT.1.1|9=108|35=A|34=268|49=INITIATOR3|52=20190603-07:35:45.465|56=ACCEPTOR|98=0|108=20|553=USERNAME|554=PASSWORD|1137=7|10=249|8=FIXT.1.1|9=108|35=A|34=269|49=INITIATOR3|52=20190603-07:36:15.496|56=ACCEPTOR|98=0|108=20|553=USERNAME|554=PASSWORD|1137=7|10=252|8=FIXT.1.1|9=108|35=A|34=270|49=INITIATOR3|52=20190603-07:36:45.528|56=ACCEPTOR|98=0|108=20|553=USERNAME|554=PASSWORD|1137=7|10=243|8=FIXT.1.1|9=108|35=A|34=271|49=INITIATOR3|52=20190603-07:37:15.559|56=ACCEPTOR|98=0|108=20|553=USERNAME|554=PASSWORD|1137=7|10=246|8=FIXT.1.1|9=108|35=A|34=272|49=INITIATOR3|52=20190603-07:37:45.588|56=ACCEPTOR|98=0|108=20|553=USERNAME|554=PASSWORD|1137=7|10=252|8=FIXT.1.1|9=108|35=A|34=273|49=INITIATOR3|52=20190603-07:38:15.622|56=ACCEPTOR|98=0|108=20|553=USERNAME|554=PASSWORD|1137=7|10=240|8=FIXT.1.1|9=108|35=A|34=274|49=INITIATOR3|52=20190603-07:38:45.652|56=ACCEPTOR|98=0|108=20|553=USERNAME|554=PASSWORD|1137=7|10=247|8=FIXT.1.1|9=108|35=A|34=275|49=INITIATOR3|52=20190603-07:39:15.682|56=ACCEPTOR|98=0|108=20|553=USERNAME|554=PASSWORD|1137=7|10=249|8=FIXT.1.1|9=108|35=A|34=276|49=INITIATOR3|52=20190603-07:39:45.712|56=ACCEPTOR|98=0|108=20|553=USERNAME|554=PASSWORD|1137=7|10=247|8=FIXT.1.1|9=108|35=A|34=277|49=INITIATOR3|52=20190603-07:40:15.744|56=ACCEPTOR|98=0|108=20|553=USERNAME|554=PASSWORD|1137=7|10=242|8=FIXT.1.1|9=108|35=A|34=278|49=INITIATOR3|52=20190603-07:40:45.773|56=ACCEPTOR|98=0|108=20|553=USERNAME|554=PASSWORD|1137=7|10=248|8=FIXT.1.1|9=108|35=A|34=279|49=INITIATOR3|52=20190603-07:41:15.806|56=ACCEPTOR|98=0|108=20|553=USERNAME|554=PASSWORD|1137=7|10=244|8=FIXT.1.1|9=108|35=A|34=280|49=INITIATOR3|52=20190603-07:41:45.837|56=ACCEPTOR|98=0|108=20|553=USERNAME|554=PASSWORD|1137=7|10=243|8=FIXT.1.1|9=108|35=A|34=281|49=INITIATOR3|52=20190603-07:42:15.868|56=ACCEPTOR|98=0|108=20|553=USERNAME|554=PASSWORD|1137=7|10=246|8=FIXT.1.1|9=108|35=A|34=282|49=INITIATOR3|52=20190603-07:42:45.898|56=ACCEPTOR|98=0|108=20|553=USERNAME|554=PASSWORD|1137=7|10=253|8=FIXT.1.1|9=108|35=A|34=283|49=INITIATOR3|52=20190603-07:43:15.931|56=ACCEPTOR|98=0|108=20|553=USERNAME|554=PASSWORD|1137=7|10=240|8=FIXT.1.1|9=108|35=A|34=284|49=INITIATOR3|52=20190603-07:43:45.965|56=ACCEPTOR|98=0|108=20|553=USERNAME|554=PASSWORD|1137=7|10=251|8=FIXT.1.1|9=108|35=A|34=285|49=INITIATOR3|52=20190603-07:44:15.994|56=ACCEPTOR|98=0|108=20|553=USERNAME|554=PASSWORD|1137=7|10=252|8=FIXT.1.1|9=108|35=A|34=286|49=INITIATOR3|52=20190603-07:44:45.025|56=ACCEPTOR|98=0|108=20|553=USERNAME|554=PASSWORD|1137=7|10=241|8=FIXT.1.1|9=108|35=A|34=287|49=INITIATOR3|52=20190603-07:45:15.051|56=ACCEPTOR|98=0|108=20|553=USERNAME|554=PASSWORD|1137=7|10=239|8=FIXT.1.1|9=108|35=A|34=288|49=INITIATOR3|52=20190603-07:45:45.080|56=ACCEPTOR|98=0|108=20|553=USERNAME|554=PASSWORD|1137=7|10=245|8=FIXT.1.1|9=108|35=A|34=289|49=INITIATOR3|52=20190603-07:46:15.111|56=ACCEPTOR|98=0|108=20|553=USERNAME|554=PASSWORD|1137=7|10=239|8=FIXT.1.1|9=108|35=A|34=290|49=INITIATOR3|52=20190603-07:46:45.141|56=ACCEPTOR|98=0|108=20|553=USERNAME|554=PASSWORD|1137=7|10=237|8=FIXT.1.1|9=108|35=A|34=291|49=INITIATOR3|52=20190603-07:47:15.170|56=ACCEPTOR|98=0|108=20|553=USERNAME|554=PASSWORD|1137=7|10=238|8=FIXT.1.1|9=108|35=A|34=292|49=INITIATOR3|52=20190603-07:47:45.202|56=ACCEPTOR|98=0|108=20|553=USERNAME|554=PASSWORD|1137=7|10=238|8=FIXT.1.1|9=108|35=A|34=293|49=INITIATOR3|52=20190603-07:48:15.236|56=ACCEPTOR|98=0|108=20|553=USERNAME|554=PASSWORD|1137=7|10=244|8=FIXT.1.1|9=108|35=A|34=294|49=INITIATOR3|52=20190603-07:48:45.269|56=ACCEPTOR|98=0|108=20|553=USERNAME|554=PASSWORD|1137=7|10=254|8=FIXT.1.1|9=108|35=A|34=295|49=INITIATOR3|52=20190603-07:49:15.303|56=ACCEPTOR|98=0|108=20|553=USERNAME|554=PASSWORD|1137=7|10=242|8=FIXT.1.1|9=108|35=A|34=296|49=INITIATOR3|52=20190603-07:49:45.335|56=ACCEPTOR|98=0|108=20|553=USERNAME|554=PASSWORD|1137=7|10=251|8=FIXT.1.1|9=108|35=A|34=297|49=INITIATOR3|52=20190603-07:50:15.368|56=ACCEPTOR|98=0|108=20|553=USERNAME|554=PASSWORD|1137=7|10=247|8=FIXT.1.1|9=108|35=A|34=298|49=INITIATOR3|52=20190603-07:50:45.400|56=ACCEPTOR|98=0|108=20|553=USERNAME|554=PASSWORD|1137=7|10=238|8=FIXT.1.1|9=108|35=A|34=299|49=INITIATOR3|52=20190603-07:51:15.432|56=ACCEPTOR|98=0|108=20|553=USERNAME|554=PASSWORD|1137=7|10=242|8=FIXT.1.1|9=108|35=A|34=300|49=INITIATOR3|52=20190603-07:51:45.461|56=ACCEPTOR|98=0|108=20|553=USERNAME|554=PASSWORD|1137=7|10=230|8=FIXT.1.1|9=108|35=A|34=301|49=INITIATOR3|52=20190603-07:52:15.491|56=ACCEPTOR|98=0|108=20|553=USERNAME|554=PASSWORD|1137=7|10=232|8=FIXT.1.1|9=108|35=A|34=302|49=INITIATOR3|52=20190603-07:52:45.522|56=ACCEPTOR|98=0|108=20|553=USERNAME|554=PASSWORD|1137=7|10=231|8=FIXT.1.1|9=108|35=A|34=303|49=INITIATOR3|52=20190603-07:53:15.555|56=ACCEPTOR|98=0|108=20|553=USERNAME|554=PASSWORD|1137=7|10=236|8=FIXT.1.1|9=108|35=A|34=304|49=INITIATOR3|52=20190603-07:53:45.585|56=ACCEPTOR|98=0|108=20|553=USERNAME|554=PASSWORD|1137=7|10=243|8=FIXT.1.1|9=108|35=A|34=305|49=INITIATOR3|52=20190603-07:54:15.617|56=ACCEPTOR|98=0|108=20|553=USERNAME|554=PASSWORD|1137=7|10=238|8=FIXT.1.1|9=108|35=A|34=306|49=INITIATOR3|52=20190603-07:54:45.646|56=ACCEPTOR|98=0|108=20|553=USERNAME|554=PASSWORD|1137=7|10=244|8=FIXT.1.1|9=108|35=A|34=307|49=INITIATOR3|52=20190603-07:55:15.677|56=ACCEPTOR|98=0|108=20|553=USERNAME|554=PASSWORD|1137=7|10=247|8=FIXT.1.1|9=108|35=A|34=308|49=INITIATOR3|52=20190603-07:55:45.709|56=ACCEPTOR|98=0|108=20|553=USERNAME|554=PASSWORD|1137=7|10=247|8=FIXT.1.1|9=108|35=A|34=309|49=INITIATOR3|52=20190603-07:56:15.739|56=ACCEPTOR|98=0|108=20|553=USERNAME|554=PASSWORD|1137=7|10=249|8=FIXT.1.1|9=108|35=A|34=310|49=INITIATOR3|52=20190603-07:56:45.773|56=ACCEPTOR|98=0|108=20|553=USERNAME|554=PASSWORD|1137=7|10=242|8=FIXT.1.1|9=108|35=A|34=311|49=INITIATOR3|52=20190603-07:57:15.803|56=ACCEPTOR|98=0|108=20|553=USERNAME|554=PASSWORD|1137=7|10=235|8=FIXT.1.1|9=108|35=A|34=312|49=INITIATOR3|52=20190603-07:57:45.834|56=ACCEPTOR|98=0|108=20|553=USERNAME|554=PASSWORD|1137=7|10=243|8=FIXT.1.1|9=108|35=A|34=313|49=INITIATOR3|52=20190603-07:58:15.865|56=ACCEPTOR|98=0|108=20|553=USERNAME|554=PASSWORD|1137=7|10=246|8=FIXT.1.1|9=108|35=A|34=314|49=INITIATOR3|52=20190603-07:58:45.897|56=ACCEPTOR|98=0|108=20|553=USERNAME|554=PASSWORD|1137=7|10=255|8=FIXT.1.1|9=108|35=A|34=315|49=INITIATOR3|52=20190603-07:59:15.928|56=ACCEPTOR|98=0|108=20|553=USERNAME|554=PASSWORD|1137=7|10=249|8=FIXT.1.1|9=108|35=A|34=316|49=INITIATOR3|52=20190603-07:59:45.960|56=ACCEPTOR|98=0|108=20|553=USERNAME|554=PASSWORD|1137=7|10=249|8=FIXT.1.1|9=108|35=A|34=317|49=INITIATOR3|52=20190603-08:00:15.991|56=ACCEPTOR|98=0|108=20|553=USERNAME|554=PASSWORD|1137=7|10=238|8=FIXT.1.1|9=108|35=A|34=318|49=INITIATOR3|52=20190603-08:00:45.019|56=ACCEPTOR|98=0|108=20|553=USERNAME|554=PASSWORD|1137=7|10=233|8=FIXT.1.1|9=108|35=A|34=319|49=INITIATOR3|52=20190603-08:01:15.051|56=ACCEPTOR|98=0|108=20|553=USERNAME|554=PASSWORD|1137=7|10=228|8=FIXT.1.1|9=108|35=A|34=320|49=INITIATOR3|52=20190603-08:01:45.080|56=ACCEPTOR|98=0|108=20|553=USERNAME|554=PASSWORD|1137=7|10=225|8=FIXT.1.1|9=108|35=A|34=321|49=INITIATOR3|52=20190603-08:02:15.109|56=ACCEPTOR|98=0|108=20|553=USERNAME|554=PASSWORD|1137=7|10=226|8=FIXT.1.1|9=108|35=A|34=322|49=INITIATOR3|52=20190603-08:02:45.138|56=ACCEPTOR|98=0|108=20|553=USERNAME|554=PASSWORD|1137=7|10=232|8=FIXT.1.1|9=108|35=A|34=323|49=INITIATOR3|52=20190603-08:03:15.167|56=ACCEPTOR|98=0|108=20|553=USERNAME|554=PASSWORD|1137=7|10=233|8=FIXT.1.1|9=108|35=A|34=324|49=INITIATOR3|52=20190603-08:03:45.198|56=ACCEPTOR|98=0|108=20|553=USERNAME|554=PASSWORD|1137=7|10=241|8=FIXT.1.1|9=108|35=A|34=325|49=INITIATOR3|52=20190603-08:04:15.227|56=ACCEPTOR|98=0|108=20|553=USERNAME|554=PASSWORD|1137=7|10=233|8=FIXT.1.1|9=108|35=A|34=326|49=INITIATOR3|52=20190603-08:04:45.257|56=ACCEPTOR|98=0|108=20|553=USERNAME|554=PASSWORD|1137=7|10=240|8=FIXT.1.1|9=108|35=A|34=327|49=INITIATOR3|52=20190603-08:05:15.288|56=ACCEPTOR|98=0|108=20|553=USERNAME|554=PASSWORD|1137=7|10=243|8=FIXT.1.1|9=108|35=A|34=328|49=INITIATOR3|52=20190603-08:05:45.320|56=ACCEPTOR|98=0|108=20|553=USERNAME|554=PASSWORD|1137=7|10=234|8=FIXT.1.1|9=108|35=A|34=329|49=INITIATOR3|52=20190603-08:06:15.352|56=ACCEPTOR|98=0|108=20|553=USERNAME|554=PASSWORD|1137=7|10=238|8=FIXT.1.1|9=108|35=A|34=330|49=INITIATOR3|52=20190603-08:06:45.385|56=ACCEPTOR|98=0|108=20|553=USERNAME|554=PASSWORD|1137=7|10=239|8=FIXT.1.1|9=108|35=A|34=331|49=INITIATOR3|52=20190603-08:07:15.419|56=ACCEPTOR|98=0|108=20|553=USERNAME|554=PASSWORD|1137=7|10=236|8=FIXT.1.1|9=108|35=A|34=332|49=INITIATOR3|52=20190603-08:07:45.451|56=ACCEPTOR|98=0|108=20|553=USERNAME|554=PASSWORD|1137=7|10=236|8=FIXT.1.1|9=108|35=A|34=333|49=INITIATOR3|52=20190603-08:08:15.483|56=ACCEPTOR|98=0|108=20|553=USERNAME|554=PASSWORD|1137=7|10=240|8=FIXT.1.1|9=108|35=A|34=334|49=INITIATOR3|52=20190603-08:08:45.517|56=ACCEPTOR|98=0|108=20|553=USERNAME|554=PASSWORD|1137=7|10=242|8=FIXT.1.1|9=108|35=A|34=335|49=INITIATOR3|52=20190603-08:09:15.547|56=ACCEPTOR|98=0|108=20|553=USERNAME|554=PASSWORD|1137=7|10=244|8=FIXT.1.1|9=108|35=A|34=336|49=INITIATOR3|52=20190603-08:09:45.577|56=ACCEPTOR|98=0|108=20|553=USERNAME|554=PASSWORD|1137=7|10=251|8=FIXT.1.1|9=108|35=A|34=337|49=INITIATOR3|52=20190603-08:10:15.610|56=ACCEPTOR|98=0|108=20|553=USERNAME|554=PASSWORD|1137=7|10=229|8=FIXT.1.1|9=108|35=A|34=338|49=INITIATOR3|52=20190603-08:10:45.644|56=ACCEPTOR|98=0|108=20|553=USERNAME|554=PASSWORD|1137=7|10=240|8=FIXT.1.1|9=108|35=A|34=339|49=INITIATOR3|52=20190603-08:11:15.674|56=ACCEPTOR|98=0|108=20|553=USERNAME|554=PASSWORD|1137=7|10=242|8=FIXT.1.1|9=108|35=A|34=340|49=INITIATOR3|52=20190603-08:11:45.707|56=ACCEPTOR|98=0|108=20|553=USERNAME|554=PASSWORD|1137=7|10=234|8=FIXT.1.1|9=108|35=A|34=341|49=INITIATOR3|52=20190603-08:12:15.737|56=ACCEPTOR|98=0|108=20|553=USERNAME|554=PASSWORD|1137=7|10=236|8=FIXT.1.1|9=108|35=A|34=342|49=INITIATOR3|52=20190603-08:12:45.770|56=ACCEPTOR|98=0|108=20|553=USERNAME|554=PASSWORD|1137=7|10=237|8=FIXT.1.1|9=108|35=A|34=343|49=INITIATOR3|52=20190603-08:13:15.802|56=ACCEPTOR|98=0|108=20|553=USERNAME|554=PASSWORD|1137=7|10=232|8=FIXT.1.1|9=108|35=A|34=344|49=INITIATOR3|52=20190603-08:13:45.833|56=ACCEPTOR|98=0|108=20|553=USERNAME|554=PASSWORD|1137=7|10=240|8=FIXT.1.1|9=108|35=A|34=345|49=INITIATOR3|52=20190603-08:14:15.856|56=ACCEPTOR|98=0|108=20|553=USERNAME|554=PASSWORD|1137=7|10=244|8=FIXT.1.1|9=108|35=A|34=346|49=INITIATOR3|52=20190603-08:14:45.888|56=ACCEPTOR|98=0|108=20|553=USERNAME|554=PASSWORD|1137=7|10=253|8=FIXT.1.1|9=108|35=A|34=347|49=INITIATOR3|52=20190603-08:15:15.919|56=ACCEPTOR|98=0|108=20|553=USERNAME|554=PASSWORD|1137=7|10=247|8=FIXT.1.1|9=108|35=A|34=348|49=INITIATOR3|52=20190603-08:15:45.952|56=ACCEPTOR|98=0|108=20|553=USERNAME|554=PASSWORD|1137=7|10=248|8=FIXT.1.1|9=108|35=A|34=349|49=INITIATOR3|52=20190603-08:16:15.984|56=ACCEPTOR|98=0|108=20|553=USERNAME|554=PASSWORD|1137=7|10=252|8=FIXT.1.1|9=108|35=A|34=350|49=INITIATOR3|52=20190603-08:16:45.014|56=ACCEPTOR|98=0|108=20|553=USERNAME|554=PASSWORD|1137=7|10=231|8=FIXT.1.1|9=108|35=A|34=351|49=INITIATOR3|52=20190603-08:17:15.048|56=ACCEPTOR|98=0|108=20|553=USERNAME|554=PASSWORD|1137=7|10=237|8=FIXT.1.1|9=108|35=A|34=352|49=INITIATOR3|52=20190603-08:17:45.081|56=ACCEPTOR|98=0|108=20|553=USERNAME|554=PASSWORD|1137=7|10=238|8=FIXT.1.1|9=108|35=A|34=353|49=INITIATOR3|52=20190603-08:18:15.111|56=ACCEPTOR|98=0|108=20|553=USERNAME|554=PASSWORD|1137=7|10=231|8=FIXT.1.1|9=108|35=A|34=354|49=INITIATOR3|52=20190603-08:18:45.145|56=ACCEPTOR|98=0|108=20|553=USERNAME|554=PASSWORD|1137=7|10=242|8=FIXT.1.1|9=108|35=A|34=355|49=INITIATOR3|52=20190603-08:19:15.176|56=ACCEPTOR|98=0|108=20|553=USERNAME|554=PASSWORD|1137=7|10=245|8=FIXT.1.1|9=108|35=A|34=356|49=INITIATOR3|52=20190603-08:19:45.206|56=ACCEPTOR|98=0|108=20|553=USERNAME|554=PASSWORD|1137=7|10=243|8=FIXT.1.1|9=108|35=A|34=357|49=INITIATOR3|52=20190603-08:20:15.238|56=ACCEPTOR|98=0|108=20|553=USERNAME|554=PASSWORD|1137=7|10=238|8=FIXT.1.1|9=108|35=A|34=358|49=INITIATOR3|52=20190603-08:20:45.265|56=ACCEPTOR|98=0|108=20|553=USERNAME|554=PASSWORD|1137=7|10=242|8=FIXT.1.1|9=108|35=A|34=359|49=INITIATOR3|52=20190603-08:21:15.294|56=ACCEPTOR|98=0|108=20|553=USERNAME|554=PASSWORD|1137=7|10=243|8=FIXT.1.1|9=108|35=A|34=360|49=INITIATOR3|52=20190603-08:21:45.328|56=ACCEPTOR|98=0|108=20|553=USERNAME|554=PASSWORD|1137=7|10=236|8=FIXT.1.1|9=108|35=A|34=361|49=INITIATOR3|52=20190603-08:22:15.360|56=ACCEPTOR|98=0|108=20|553=USERNAME|554=PASSWORD|1137=7|10=231|8=FIXT.1.1|9=108|35=A|34=362|49=INITIATOR3|52=20190603-08:22:45.394|56=ACCEPTOR|98=0|108=20|553=USERNAME|554=PASSWORD|1137=7|10=242|8=FIXT.1.1|9=108|35=A|34=363|49=INITIATOR3|52=20190603-08:23:15.426|56=ACCEPTOR|98=0|108=20|553=USERNAME|554=PASSWORD|1137=7|10=237|8=FIXT.1.1|9=108|35=A|34=364|49=INITIATOR3|52=20190603-08:23:45.459|56=ACCEPTOR|98=0|108=20|553=USERNAME|554=PASSWORD|1137=7|10=247|8=FIXT.1.1|9=108|35=A|34=365|49=INITIATOR3|52=20190603-08:24:15.489|56=ACCEPTOR|98=0|108=20|553=USERNAME|554=PASSWORD|1137=7|10=249|8=FIXT.1.1|9=108|35=A|34=366|49=INITIATOR3|52=20190603-08:24:45.522|56=ACCEPTOR|98=0|108=20|553=USERNAME|554=PASSWORD|1137=7|10=241|8=FIXT.1.1|9=108|35=A|34=367|49=INITIATOR3|52=20190603-08:25:15.548|56=ACCEPTOR|98=0|108=20|553=USERNAME|554=PASSWORD|1137=7|10=248|8=FIXT.1.1|9=108|35=A|34=368|49=INITIATOR3|52=20190603-08:25:45.578|56=ACCEPTOR|98=0|108=20|553=USERNAME|554=PASSWORD|1137=7|10=255|8=FIXT.1.1|9=108|35=A|34=369|49=INITIATOR3|52=20190603-08:26:15.609|56=ACCEPTOR|98=0|108=20|553=USERNAME|554=PASSWORD|1137=7|10=249|8=FIXT.1.1|9=108|35=A|34=370|49=INITIATOR3|52=20190603-08:26:45.641|56=ACCEPTOR|98=0|108=20|553=USERNAME|554=PASSWORD|1137=7|10=240|8=FIXT.1.1|9=108|35=A|34=371|49=INITIATOR3|52=20190603-08:27:15.673|56=ACCEPTOR|98=0|108=20|553=USERNAME|554=PASSWORD|1137=7|10=244|8=FIXT.1.1|9=108|35=A|34=372|49=INITIATOR3|52=20190603-08:27:45.705|56=ACCEPTOR|98=0|108=20|553=USERNAME|554=PASSWORD|1137=7|10=244|8=FIXT.1.1|9=108|35=A|34=373|49=INITIATOR3|52=20190603-08:28:15.737|56=ACCEPTOR|98=0|108=20|553=USERNAME|554=PASSWORD|1137=7|10=248|8=FIXT.1.1|9=108|35=A|34=374|49=INITIATOR3|52=20190603-08:28:45.769|56=ACCEPTOR|98=0|108=20|553=USERNAME|554=PASSWORD|1137=7|10=001|8=FIXT.1.1|9=108|35=A|34=375|49=INITIATOR3|52=20190603-08:29:15.802|56=ACCEPTOR|98=0|108=20|553=USERNAME|554=PASSWORD|1137=7|10=244|8=FIXT.1.1|9=108|35=A|34=376|49=INITIATOR3|52=20190603-08:29:45.834|56=ACCEPTOR|98=0|108=20|553=USERNAME|554=PASSWORD|1137=7|10=253|8=FIXT.1.1|9=108|35=A|34=377|49=INITIATOR3|52=20190603-08:30:15.866|56=ACCEPTOR|98=0|108=20|553=USERNAME|554=PASSWORD|1137=7|10=248|8=FIXT.1.1|9=108|35=A|34=378|49=INITIATOR3|52=20190603-08:30:45.896|56=ACCEPTOR|98=0|108=20|553=USERNAME|554=PASSWORD|1137=7|10=255|8=FIXT.1.1|9=108|35=A|34=379|49=INITIATOR3|52=20190603-08:31:15.926|56=ACCEPTOR|98=0|108=20|553=USERNAME|554=PASSWORD|1137=7|10=248|8=FIXT.1.1|9=108|35=A|34=380|49=INITIATOR3|52=20190603-08:31:45.959|56=ACCEPTOR|98=0|108=20|553=USERNAME|554=PASSWORD|1137=7|10=249|8=FIXT.1.1|9=108|35=A|34=381|49=INITIATOR3|52=20190603-08:32:15.991|56=ACCEPTOR|98=0|108=20|553=USERNAME|554=PASSWORD|1137=7|10=244|8=FIXT.1.1|9=108|35=A|34=382|49=INITIATOR3|52=20190603-08:32:45.021|56=ACCEPTOR|98=0|108=20|553=USERNAME|554=PASSWORD|1137=7|10=232|8=FIXT.1.1|9=108|35=A|34=383|49=INITIATOR3|52=20190603-08:33:15.052|56=ACCEPTOR|98=0|108=20|553=USERNAME|554=PASSWORD|1137=7|10=235|8=FIXT.1.1|9=108|35=A|34=384|49=INITIATOR3|52=20190603-08:33:45.083|56=ACCEPTOR|98=0|108=20|553=USERNAME|554=PASSWORD|1137=7|10=243|8=FIXT.1.1|9=108|35=A|34=385|49=INITIATOR3|52=20190603-08:34:15.114|56=ACCEPTOR|98=0|108=20|553=USERNAME|554=PASSWORD|1137=7|10=237|8=FIXT.1.1|9=108|35=A|34=386|49=INITIATOR3|52=20190603-08:34:45.148|56=ACCEPTOR|98=0|108=20|553=USERNAME|554=PASSWORD|1137=7|10=248|8=FIXT.1.1|9=108|35=A|34=387|49=INITIATOR3|52=20190603-08:35:15.182|56=ACCEPTOR|98=0|108=20|553=USERNAME|554=PASSWORD|1137=7|10=245|8=FIXT.1.1|9=108|35=A|34=388|49=INITIATOR3|52=20190603-08:35:45.211|56=ACCEPTOR|98=0|108=20|553=USERNAME|554=PASSWORD|1137=7|10=242|8=FIXT.1.1|9=108|35=A|34=389|49=INITIATOR3|52=20190603-08:36:15.241|56=ACCEPTOR|98=0|108=20|553=USERNAME|554=PASSWORD|1137=7|10=244|8=FIXT.1.1|9=108|35=A|34=390|49=INITIATOR3|52=20190603-08:36:45.265|56=ACCEPTOR|98=0|108=20|553=USERNAME|554=PASSWORD|1137=7|10=245|8=FIXT.1.1|9=108|35=A|34=391|49=INITIATOR3|52=20190603-08:37:15.297|56=ACCEPTOR|98=0|108=20|553=USERNAME|554=PASSWORD|1137=7|10=249|8=FIXT.1.1|9=108|35=A|34=392|49=INITIATOR3|52=20190603-08:37:45.329|56=ACCEPTOR|98=0|108=20|553=USERNAME|554=PASSWORD|1137=7|10=249|8=FIXT.1.1|9=108|35=A|34=393|49=INITIATOR3|52=20190603-08:38:15.362|56=ACCEPTOR|98=0|108=20|553=USERNAME|554=PASSWORD|1137=7|10=245|8=FIXT.1.1|9=108|35=A|34=394|49=INITIATOR3|52=20190603-08:38:45.395|56=ACCEPTOR|98=0|108=20|553=USERNAME|554=PASSWORD|1137=7|10=255|8=FIXT.1.1|9=108|35=A|34=395|49=INITIATOR3|52=20190603-08:39:15.426|56=ACCEPTOR|98=0|108=20|553=USERNAME|554=PASSWORD|1137=7|10=249|8=FIXT.1.1|9=108|35=A|34=396|49=INITIATOR3|52=20190603-08:39:45.459|56=ACCEPTOR|98=0|108=20|553=USERNAME|554=PASSWORD|1137=7|10=003|8=FIXT.1.1|9=108|35=A|34=397|49=INITIATOR3|52=20190603-08:40:15.492|56=ACCEPTOR|98=0|108=20|553=USERNAME|554=PASSWORD|1137=7|10=246|8=FIXT.1.1|9=108|35=A|34=398|49=INITIATOR3|52=20190603-08:40:45.524|56=ACCEPTOR|98=0|108=20|553=USERNAME|554=PASSWORD|1137=7|10=246|8=FIXT.1.1|9=108|35=A|34=399|49=INITIATOR3|52=20190603-08:41:15.557|56=ACCEPTOR|98=0|108=20|553=USERNAME|554=PASSWORD|1137=7|10=251|8=FIXT.1.1|9=108|35=A|34=400|49=INITIATOR3|52=20190603-08:41:45.589|56=ACCEPTOR|98=0|108=20|553=USERNAME|554=PASSWORD|1137=7|10=242|8=FIXT.1.1|9=108|35=A|34=401|49=INITIATOR3|52=20190603-08:42:15.617|56=ACCEPTOR|98=0|108=20|553=USERNAME|554=PASSWORD|1137=7|10=233|8=FIXT.1.1|9=108|35=A|34=402|49=INITIATOR3|52=20190603-08:42:45.649|56=ACCEPTOR|98=0|108=20|553=USERNAME|554=PASSWORD|1137=7|10=242|8=FIXT.1.1|9=108|35=A|34=403|49=INITIATOR3|52=20190603-08:43:15.682|56=ACCEPTOR|98=0|108=20|553=USERNAME|554=PASSWORD|1137=7|10=238|8=FIXT.1.1|9=108|35=A|34=404|49=INITIATOR3|52=20190603-08:43:45.714|56=ACCEPTOR|98=0|108=20|553=USERNAME|554=PASSWORD|1137=7|10=238|8=FIXT.1.1|9=108|35=A|34=405|49=INITIATOR3|52=20190603-08:44:15.745|56=ACCEPTOR|98=0|108=20|553=USERNAME|554=PASSWORD|1137=7|10=241|8=FIXT.1.1|9=108|35=A|34=406|49=INITIATOR3|52=20190603-08:44:45.779|56=ACCEPTOR|98=0|108=20|553=USERNAME|554=PASSWORD|1137=7|10=252|8=FIXT.1.1|9=108|35=A|34=407|49=INITIATOR3|52=20190603-08:45:15.812|56=ACCEPTOR|98=0|108=20|553=USERNAME|554=PASSWORD|1137=7|10=239|8=FIXT.1.1|9=108|35=A|34=408|49=INITIATOR3|52=20190603-08:45:45.846|56=ACCEPTOR|98=0|108=20|553=USERNAME|554=PASSWORD|1137=7|10=250|8=FIXT.1.1|9=108|35=A|34=409|49=INITIATOR3|52=20190603-08:46:15.877|56=ACCEPTOR|98=0|108=20|553=USERNAME|554=PASSWORD|1137=7|10=253|8=FIXT.1.1|9=108|35=A|34=410|49=INITIATOR3|52=20190603-08:46:45.909|56=ACCEPTOR|98=0|108=20|553=USERNAME|554=PASSWORD|1137=7|10=244|8=FIXT.1.1|9=108|35=A|34=411|49=INITIATOR3|52=20190603-08:47:15.939|56=ACCEPTOR|98=0|108=20|553=USERNAME|554=PASSWORD|1137=7|10=246|8=FIXT.1.1|9=108|35=A|34=412|49=INITIATOR3|52=20190603-08:47:45.969|56=ACCEPTOR|98=0|108=20|553=USERNAME|554=PASSWORD|1137=7|10=253|8=FIXT.1.1|9=108|35=A|34=413|49=INITIATOR3|52=20190603-08:48:15.998|56=ACCEPTOR|98=0|108=20|553=USERNAME|554=PASSWORD|1137=7|10=254|8=FIXT.1.1|9=108|35=A|34=414|49=INITIATOR3|52=20190603-08:48:45.029|56=ACCEPTOR|98=0|108=20|553=USERNAME|554=PASSWORD|1137=7|10=243|8=FIXT.1.1|9=108|35=A|34=415|49=INITIATOR3|52=20190603-08:49:15.062|56=ACCEPTOR|98=0|108=20|553=USERNAME|554=PASSWORD|1137=7|10=239|8=FIXT.1.1|9=108|35=A|34=416|49=INITIATOR3|52=20190603-08:49:45.093|56=ACCEPTOR|98=0|108=20|553=USERNAME|554=PASSWORD|1137=7|10=247|8=FIXT.1.1|9=108|35=A|34=417|49=INITIATOR3|52=20190603-08:50:15.123|56=ACCEPTOR|98=0|108=20|553=USERNAME|554=PASSWORD|1137=7|10=231|8=FIXT.1.1|9=108|35=A|34=418|49=INITIATOR3|52=20190603-08:50:45.153|56=ACCEPTOR|98=0|108=20|553=USERNAME|554=PASSWORD|1137=7|10=238|8=FIXT.1.1|9=108|35=A|34=419|49=INITIATOR3|52=20190603-08:51:15.185|56=ACCEPTOR|98=0|108=20|553=USERNAME|554=PASSWORD|1137=7|10=242|8=FIXT.1.1|9=108|35=A|34=420|49=INITIATOR3|52=20190603-08:51:45.214|56=ACCEPTOR|98=0|108=20|553=USERNAME|554=PASSWORD|1137=7|10=230|8=FIXT.1.1|9=108|35=A|34=421|49=INITIATOR3|52=20190603-08:52:15.245|56=ACCEPTOR|98=0|108=20|553=USERNAME|554=PASSWORD|1137=7|10=233|8=FIXT.1.1|9=108|35=A|34=422|49=INITIATOR3|52=20190603-08:52:45.277|56=ACCEPTOR|98=0|108=20|553=USERNAME|554=PASSWORD|1137=7|10=242|8=FIXT.1.1|9=108|35=A|34=423|49=INITIATOR3|52=20190603-08:53:15.308|56=ACCEPTOR|98=0|108=20|553=USERNAME|554=PASSWORD|1137=7|10=236|8=FIXT.1.1|9=108|35=A|34=424|49=INITIATOR3|52=20190603-08:53:45.341|56=ACCEPTOR|98=0|108=20|553=USERNAME|554=PASSWORD|1137=7|10=237|8=FIXT.1.1|9=108|35=A|34=425|49=INITIATOR3|52=20190603-08:54:15.373|56=ACCEPTOR|98=0|108=20|553=USERNAME|554=PASSWORD|1137=7|10=241|8=FIXT.1.1|9=108|35=A|34=426|49=INITIATOR3|52=20190603-08:54:45.406|56=ACCEPTOR|98=0|108=20|553=USERNAME|554=PASSWORD|1137=7|10=242|8=FIXT.1.1|9=108|35=A|34=427|49=INITIATOR3|52=20190603-08:55:15.438|56=ACCEPTOR|98=0|108=20|553=USERNAME|554=PASSWORD|1137=7|10=246|8=FIXT.1.1|9=108|35=A|34=428|49=INITIATOR3|52=20190603-08:55:45.469|56=ACCEPTOR|98=0|108=20|553=USERNAME|554=PASSWORD|1137=7|10=254|8=FIXT.1.1|9=108|35=A|34=429|49=INITIATOR3|52=20190603-08:56:15.501|56=ACCEPTOR|98=0|108=20|553=USERNAME|554=PASSWORD|1137=7|10=240|8=FIXT.1.1|9=108|35=A|34=430|49=INITIATOR3|52=20190603-08:56:45.533|56=ACCEPTOR|98=0|108=20|553=USERNAME|554=PASSWORD|1137=7|10=240|8=FIXT.1.1|9=108|35=A|34=431|49=INITIATOR3|52=20190603-08:57:15.567|56=ACCEPTOR|98=0|108=20|553=USERNAME|554=PASSWORD|1137=7|10=246|8=FIXT.1.1|9=108|35=A|34=432|49=INITIATOR3|52=20190603-08:57:45.592|56=ACCEPTOR|98=0|108=20|553=USERNAME|554=PASSWORD|1137=7|10=248|8=FIXT.1.1|9=108|35=A|34=433|49=INITIATOR3|52=20190603-08:58:15.622|56=ACCEPTOR|98=0|108=20|553=USERNAME|554=PASSWORD|1137=7|10=241|8=FIXT.1.1|9=108|35=A|34=434|49=INITIATOR3|52=20190603-08:58:45.653|56=ACCEPTOR|98=0|108=20|553=USERNAME|554=PASSWORD|1137=7|10=249|8=FIXT.1.1|9=108|35=A|34=435|49=INITIATOR3|52=20190603-08:59:15.681|56=ACCEPTOR|98=0|108=20|553=USERNAME|554=PASSWORD|1137=7|10=249|8=FIXT.1.1|9=108|35=A|34=436|49=INITIATOR3|52=20190603-08:59:45.708|56=ACCEPTOR|98=0|108=20|553=USERNAME|554=PASSWORD|1137=7|10=253|8=FIXT.1.1|9=108|35=A|34=437|49=INITIATOR3|52=20190603-09:00:15.740|56=ACCEPTOR|98=0|108=20|553=USERNAME|554=PASSWORD|1137=7|10=234|8=FIXT.1.1|9=108|35=A|34=438|49=INITIATOR3|52=20190603-09:00:45.770|56=ACCEPTOR|98=0|108=20|553=USERNAME|554=PASSWORD|1137=7|10=241|8=FIXT.1.1|9=108|35=A|34=439|49=INITIATOR3|52=20190603-09:01:15.799|56=ACCEPTOR|98=0|108=20|553=USERNAME|554=PASSWORD|1137=7|10=251|8=FIXT.1.1|9=108|35=A|34=440|49=INITIATOR3|52=20190603-09:01:45.827|56=ACCEPTOR|98=0|108=20|553=USERNAME|554=PASSWORD|1137=7|10=238|8=FIXT.1.1|9=108|35=A|34=441|49=INITIATOR3|52=20190603-09:02:15.856|56=ACCEPTOR|98=0|108=20|553=USERNAME|554=PASSWORD|1137=7|10=239|8=FIXT.1.1|9=108|35=A|34=442|49=INITIATOR3|52=20190603-09:02:45.885|56=ACCEPTOR|98=0|108=20|553=USERNAME|554=PASSWORD|1137=7|10=245|8=FIXT.1.1|9=108|35=A|34=443|49=INITIATOR3|52=20190603-09:03:15.914|56=ACCEPTOR|98=0|108=20|553=USERNAME|554=PASSWORD|1137=7|10=237|8=FIXT.1.1|9=108|35=A|34=444|49=INITIATOR3|52=20190603-09:03:45.941|56=ACCEPTOR|98=0|108=20|553=USERNAME|554=PASSWORD|1137=7|10=241|8=FIXT.1.1|9=108|35=A|34=445|49=INITIATOR3|52=20190603-09:04:15.973|56=ACCEPTOR|98=0|108=20|553=USERNAME|554=PASSWORD|1137=7|10=245|8=FIXT.1.1|9=108|35=A|34=446|49=INITIATOR3|52=20190603-09:04:46.004|56=ACCEPTOR|98=0|108=20|553=USERNAME|554=PASSWORD|1137=7|10=235|8=FIXT.1.1|9=108|35=A|34=447|49=INITIATOR3|52=20190603-09:05:15.032|56=ACCEPTOR|98=0|108=20|553=USERNAME|554=PASSWORD|1137=7|10=234|8=FIXT.1.1|9=108|35=A|34=448|49=INITIATOR3|52=20190603-09:05:45.062|56=ACCEPTOR|98=0|108=20|553=USERNAME|554=PASSWORD|1137=7|10=241|8=FIXT.1.1|9=108|35=A|34=449|49=INITIATOR3|52=20190603-09:06:15.091|56=ACCEPTOR|98=0|108=20|553=USERNAME|554=PASSWORD|1137=7|10=242|8=FIXT.1.1|9=108|35=A|34=450|49=INITIATOR3|52=20190603-09:06:45.119|56=ACCEPTOR|98=0|108=20|553=USERNAME|554=PASSWORD|1137=7|10=238|8=FIXT.1.1|9=108|35=A|34=451|49=INITIATOR3|52=20190603-09:07:15.150|56=ACCEPTOR|98=0|108=20|553=USERNAME|554=PASSWORD|1137=7|10=232|8=FIXT.1.1|9=108|35=A|34=452|49=INITIATOR3|52=20190603-09:07:45.179|56=ACCEPTOR|98=0|108=20|553=USERNAME|554=PASSWORD|1137=7|10=247|8=FIXT.1.1|9=108|35=A|34=453|49=INITIATOR3|52=20190603-09:08:15.208|56=ACCEPTOR|98=0|108=20|553=USERNAME|554=PASSWORD|1137=7|10=239|8=FIXT.1.1|9=108|35=A|34=454|49=INITIATOR3|52=20190603-09:08:45.239|56=ACCEPTOR|98=0|108=20|553=USERNAME|554=PASSWORD|1137=7|10=247|8=FIXT.1.1|9=108|35=A|34=455|49=INITIATOR3|52=20190603-09:09:15.271|56=ACCEPTOR|98=0|108=20|553=USERNAME|554=PASSWORD|1137=7|10=242|8=FIXT.1.1|9=108|35=A|34=456|49=INITIATOR3|52=20190603-09:09:45.301|56=ACCEPTOR|98=0|108=20|553=USERNAME|554=PASSWORD|1137=7|10=240|8=FIXT.1.1|9=108|35=A|34=457|49=INITIATOR3|52=20190603-09:10:15.332|56=ACCEPTOR|98=0|108=20|553=USERNAME|554=PASSWORD|1137=7|10=234|8=FIXT.1.1|9=108|35=A|34=458|49=INITIATOR3|52=20190603-09:10:45.361|56=ACCEPTOR|98=0|108=20|553=USERNAME|554=PASSWORD|1137=7|10=240|8=FIXT.1.1|9=108|35=A|34=459|49=INITIATOR3|52=20190603-09:11:15.390|56=ACCEPTOR|98=0|108=20|553=USERNAME|554=PASSWORD|1137=7|10=241|8=FIXT.1.1|9=108|35=A|34=460|49=INITIATOR3|52=20190603-09:11:45.419|56=ACCEPTOR|98=0|108=20|553=USERNAME|554=PASSWORD|1137=7|10=238|8=FIXT.1.1|9=108|35=A|34=461|49=INITIATOR3|52=20190603-09:12:15.448|56=ACCEPTOR|98=0|108=20|553=USERNAME|554=PASSWORD|1137=7|10=239|8=FIXT.1.1|9=108|35=A|34=462|49=INITIATOR3|52=20190603-09:12:45.477|56=ACCEPTOR|98=0|108=20|553=USERNAME|554=PASSWORD|1137=7|10=245|8=FIXT.1.1|9=108|35=A|34=463|49=INITIATOR3|52=20190603-09:13:15.505|56=ACCEPTOR|98=0|108=20|553=USERNAME|554=PASSWORD|1137=7|10=236|8=FIXT.1.1|9=108|35=A|34=464|49=INITIATOR3|52=20190603-09:13:45.533|56=ACCEPTOR|98=0|108=20|553=USERNAME|554=PASSWORD|1137=7|10=241|8=FIXT.1.1|9=108|35=A|34=465|49=INITIATOR3|52=20190603-09:14:15.562|56=ACCEPTOR|98=0|108=20|553=USERNAME|554=PASSWORD|1137=7|10=242|8=FIXT.1.1|9=108|35=A|34=466|49=INITIATOR3|52=20190603-09:14:45.591|56=ACCEPTOR|98=0|108=20|553=USERNAME|554=PASSWORD|1137=7|10=248|8=FIXT.1.1|9=108|35=A|34=467|49=INITIATOR3|52=20190603-09:15:15.621|56=ACCEPTOR|98=0|108=20|553=USERNAME|554=PASSWORD|1137=7|10=241|8=FIXT.1.1|9=108|35=A|34=468|49=INITIATOR3|52=20190603-09:15:45.649|56=ACCEPTOR|98=0|108=20|553=USERNAME|554=PASSWORD|1137=7|10=255|8=FIXT.1.1|9=108|35=A|34=469|49=INITIATOR3|52=20190603-09:16:15.677|56=ACCEPTOR|98=0|108=20|553=USERNAME|554=PASSWORD|1137=7|10=255|8=FIXT.1.1|9=108|35=A|34=470|49=INITIATOR3|52=20190603-09:16:45.707|56=ACCEPTOR|98=0|108=20|553=USERNAME|554=PASSWORD|1137=7|10=244|8=FIXT.1.1|9=108|35=A|34=471|49=INITIATOR3|52=20190603-09:17:15.736|56=ACCEPTOR|98=0|108=20|553=USERNAME|554=PASSWORD|1137=7|10=245|8=FIXT.1.1|9=108|35=A|34=472|49=INITIATOR3|52=20190603-09:17:45.768|56=ACCEPTOR|98=0|108=20|553=USERNAME|554=PASSWORD|1137=7|10=254|8=FIXT.1.1|9=108|35=A|34=473|49=INITIATOR3|52=20190603-09:18:15.798|56=ACCEPTOR|98=0|108=20|553=USERNAME|554=PASSWORD|1137=7|10=000|8=FIXT.1.1|9=108|35=A|34=474|49=INITIATOR3|52=20190603-09:18:45.825|56=ACCEPTOR|98=0|108=20|553=USERNAME|554=PASSWORD|1137=7|10=251|8=FIXT.1.1|9=108|35=A|34=475|49=INITIATOR3|52=20190603-09:19:15.853|56=ACCEPTOR|98=0|108=20|553=USERNAME|554=PASSWORD|1137=7|10=251|8=FIXT.1.1|9=108|35=A|34=476|49=INITIATOR3|52=20190603-09:19:45.882|56=ACCEPTOR|98=0|108=20|553=USERNAME|554=PASSWORD|1137=7|10=001|8=FIXT.1.1|9=108|35=A|34=477|49=INITIATOR3|52=20190603-09:20:15.910|56=ACCEPTOR|98=0|108=20|553=USERNAME|554=PASSWORD|1137=7|10=239|8=FIXT.1.1|9=108|35=A|34=478|49=INITIATOR3|52=20190603-09:20:45.941|56=ACCEPTOR|98=0|108=20|553=USERNAME|554=PASSWORD|1137=7|10=247|8=FIXT.1.1|9=108|35=A|34=479|49=INITIATOR3|52=20190603-09:21:15.971|56=ACCEPTOR|98=0|108=20|553=USERNAME|554=PASSWORD|1137=7|10=249|8=FIXT.1.1|9=108|35=A|34=480|49=INITIATOR3|52=20190603-09:21:46.003|56=ACCEPTOR|98=0|108=20|553=USERNAME|554=PASSWORD|1137=7|10=231|8=FIXT.1.1|9=108|35=A|34=481|49=INITIATOR3|52=20190603-09:22:15.031|56=ACCEPTOR|98=0|108=20|553=USERNAME|554=PASSWORD|1137=7|10=230|8=FIXT.1.1|9=108|35=A|34=482|49=INITIATOR3|52=20190603-09:22:45.059|56=ACCEPTOR|98=0|108=20|553=USERNAME|554=PASSWORD|1137=7|10=244|8=FIXT.1.1|9=108|35=A|34=483|49=INITIATOR3|52=20190603-09:23:15.087|56=ACCEPTOR|98=0|108=20|553=USERNAME|554=PASSWORD|1137=7|10=244|8=FIXT.1.1|9=108|35=A|34=484|49=INITIATOR3|52=20190603-09:23:45.116|56=ACCEPTOR|98=0|108=20|553=USERNAME|554=PASSWORD|1137=7|10=241|8=FIXT.1.1|9=108|35=A|34=485|49=INITIATOR3|52=20190603-09:24:15.146|56=ACCEPTOR|98=0|108=20|553=USERNAME|554=PASSWORD|1137=7|10=243|8=FIXT.1.1|9=108|35=A|34=486|49=INITIATOR3|52=20190603-09:24:45.175|56=ACCEPTOR|98=0|108=20|553=USERNAME|554=PASSWORD|1137=7|10=249|8=FIXT.1.1|9=108|35=A|34=487|49=INITIATOR3|52=20190603-09:25:15.204|56=ACCEPTOR|98=0|108=20|553=USERNAME|554=PASSWORD|1137=7|10=241|8=FIXT.1.1|9=108|35=A|34=488|49=INITIATOR3|52=20190603-09:25:45.237|56=ACCEPTOR|98=0|108=20|553=USERNAME|554=PASSWORD|1137=7|10=251|8=FIXT.1.1|9=108|35=A|34=489|49=INITIATOR3|52=20190603-09:26:15.268|56=ACCEPTOR|98=0|108=20|553=USERNAME|554=PASSWORD|1137=7|10=254|8=FIXT.1.1|9=108|35=A|34=490|49=INITIATOR3|52=20190603-09:26:45.298|56=ACCEPTOR|98=0|108=20|553=USERNAME|554=PASSWORD|1137=7|10=252|8=FIXT.1.1|9=108|35=A|34=491|49=INITIATOR3|52=20190603-09:27:15.329|56=ACCEPTOR|98=0|108=20|553=USERNAME|554=PASSWORD|1137=7|10=246|8=FIXT.1.1|9=108|35=A|34=492|49=INITIATOR3|52=20190603-09:27:45.362|56=ACCEPTOR|98=0|108=20|553=USERNAME|554=PASSWORD|1137=7|10=247|8=FIXT.1.1|9=108|35=A|34=493|49=INITIATOR3|52=20190603-09:28:15.394|56=ACCEPTOR|98=0|108=20|553=USERNAME|554=PASSWORD|1137=7|10=251|8=FIXT.1.1|9=108|35=A|34=494|49=INITIATOR3|52=20190603-09:28:45.424|56=ACCEPTOR|98=0|108=20|553=USERNAME|554=PASSWORD|1137=7|10=249|8=FIXT.1.1|9=108|35=A|34=495|49=INITIATOR3|52=20190603-09:29:15.455|56=ACCEPTOR|98=0|108=20|553=USERNAME|554=PASSWORD|1137=7|10=252|8=FIXT.1.1|9=108|35=A|34=496|49=INITIATOR3|52=20190603-09:29:45.484|56=ACCEPTOR|98=0|108=20|553=USERNAME|554=PASSWORD|1137=7|10=002|8=FIXT.1.1|9=108|35=A|34=497|49=INITIATOR3|52=20190603-09:30:15.516|56=ACCEPTOR|98=0|108=20|553=USERNAME|554=PASSWORD|1137=7|10=244|8=FIXT.1.1|9=108|35=A|34=498|49=INITIATOR3|52=20190603-09:30:45.549|56=ACCEPTOR|98=0|108=20|553=USERNAME|554=PASSWORD|1137=7|10=254|8=FIXT.1.1|9=108|35=A|34=499|49=INITIATOR3|52=20190603-09:31:15.579|56=ACCEPTOR|98=0|108=20|553=USERNAME|554=PASSWORD|1137=7|10=000|8=FIXT.1.1|9=108|35=A|34=500|49=INITIATOR3|52=20190603-09:31:45.609|56=ACCEPTOR|98=0|108=20|553=USERNAME|554=PASSWORD|1137=7|10=236|8=FIXT.1.1|9=108|35=A|34=501|49=INITIATOR3|52=20190603-09:32:15.638|56=ACCEPTOR|98=0|108=20|553=USERNAME|554=PASSWORD|1137=7|10=237|8=FIXT.1.1|9=108|35=A|34=502|49=INITIATOR3|52=20190603-09:32:45.670|56=ACCEPTOR|98=0|108=20|553=USERNAME|554=PASSWORD|1137=7|10=237|8=FIXT.1.1|9=108|35=A|34=503|49=INITIATOR3|52=20190603-09:33:15.700|56=ACCEPTOR|98=0|108=20|553=USERNAME|554=PASSWORD|1137=7|10=230|8=FIXT.1.1|9=108|35=A|34=504|49=INITIATOR3|52=20190603-09:33:45.727|56=ACCEPTOR|98=0|108=20|553=USERNAME|554=PASSWORD|1137=7|10=243|8=FIXT.1.1|9=108|35=A|34=505|49=INITIATOR3|52=20190603-09:34:15.757|56=ACCEPTOR|98=0|108=20|553=USERNAME|554=PASSWORD|1137=7|10=245|8=FIXT.1.1|9=108|35=A|34=506|49=INITIATOR3|52=20190603-09:34:45.787|56=ACCEPTOR|98=0|108=20|553=USERNAME|554=PASSWORD|1137=7|10=252|8=FIXT.1.1|9=108|35=A|34=507|49=INITIATOR3|52=20190603-09:35:15.816|56=ACCEPTOR|98=0|108=20|553=USERNAME|554=PASSWORD|1137=7|10=244|8=FIXT.1.1|9=108|35=A|34=508|49=INITIATOR3|52=20190603-09:35:45.846|56=ACCEPTOR|98=0|108=20|553=USERNAME|554=PASSWORD|1137=7|10=251|8=FIXT.1.1|9=108|35=A|34=509|49=INITIATOR3|52=20190603-09:36:15.877|56=ACCEPTOR|98=0|108=20|553=USERNAME|554=PASSWORD|1137=7|10=254|8=FIXT.1.1|9=108|35=A|34=510|49=INITIATOR3|52=20190603-09:36:45.908|56=ACCEPTOR|98=0|108=20|553=USERNAME|554=PASSWORD|1137=7|10=244|8=FIXT.1.1|9=108|35=A|34=511|49=INITIATOR3|52=20190603-09:37:15.941|56=ACCEPTOR|98=0|108=20|553=USERNAME|554=PASSWORD|1137=7|10=240|8=FIXT.1.1|9=108|35=A|34=512|49=INITIATOR3|52=20190603-09:37:45.970|56=ACCEPTOR|98=0|108=20|553=USERNAME|554=PASSWORD|1137=7|10=246|8=FIXT.1.1|9=108|35=A|34=513|49=INITIATOR3|52=20190603-09:38:16.000|56=ACCEPTOR|98=0|108=20|553=USERNAME|554=PASSWORD|1137=7|10=230|8=FIXT.1.1|9=108|35=A|34=514|49=INITIATOR3|52=20190603-09:38:45.029|56=ACCEPTOR|98=0|108=20|553=USERNAME|554=PASSWORD|1137=7|10=244|8=FIXT.1.1|9=108|35=A|34=515|49=INITIATOR3|52=20190603-09:39:15.058|56=ACCEPTOR|98=0|108=20|553=USERNAME|554=PASSWORD|1137=7|10=245|8=FIXT.1.1|9=108|35=A|34=516|49=INITIATOR3|52=20190603-09:39:45.086|56=ACCEPTOR|98=0|108=20|553=USERNAME|554=PASSWORD|1137=7|10=250|8=FIXT.1.1|9=108|35=A|34=517|49=INITIATOR3|52=20190603-09:40:15.118|56=ACCEPTOR|98=0|108=20|553=USERNAME|554=PASSWORD|1137=7|10=236|8=FIXT.1.1|9=108|35=A|34=518|49=INITIATOR3|52=20190603-09:40:45.150|56=ACCEPTOR|98=0|108=20|553=USERNAME|554=PASSWORD|1137=7|10=236|8=FIXT.1.1|9=108|35=A|34=519|49=INITIATOR3|52=20190603-09:41:15.182|56=ACCEPTOR|98=0|108=20|553=USERNAME|554=PASSWORD|1137=7|10=240|8=FIXT.1.1|9=108|35=A|34=520|49=INITIATOR3|52=20190603-09:41:45.215|56=ACCEPTOR|98=0|108=20|553=USERNAME|554=PASSWORD|1137=7|10=232|8=FIXT.1.1|9=108|35=A|34=521|49=INITIATOR3|52=20190603-09:42:15.247|56=ACCEPTOR|98=0|108=20|553=USERNAME|554=PASSWORD|1137=7|10=236|8=FIXT.1.1|9=108|35=A|34=522|49=INITIATOR3|52=20190603-09:42:45.274|56=ACCEPTOR|98=0|108=20|553=USERNAME|554=PASSWORD|1137=7|10=240|8=FIXT.1.1|9=108|35=A|34=523|49=INITIATOR3|52=20190603-09:43:15.305|56=ACCEPTOR|98=0|108=20|553=USERNAME|554=PASSWORD|1137=7|10=234|8=FIXT.1.1|9=108|35=A|34=524|49=INITIATOR3|52=20190603-09:43:45.335|56=ACCEPTOR|98=0|108=20|553=USERNAME|554=PASSWORD|1137=7|10=241|8=FIXT.1.1|9=108|35=A|34=525|49=INITIATOR3|52=20190603-09:44:15.408|56=ACCEPTOR|98=0|108=20|553=USERNAME|554=PASSWORD|1137=7|10=241|8=FIXT.1.1|9=108|35=A|34=526|49=INITIATOR3|52=20190603-09:44:45.439|56=ACCEPTOR|98=0|108=20|553=USERNAME|554=PASSWORD|1137=7|10=249|8=FIXT.1.1|9=108|35=A|34=527|49=INITIATOR3|52=20190603-09:45:15.468|56=ACCEPTOR|98=0|108=20|553=USERNAME|554=PASSWORD|1137=7|10=250|8=FIXT.1.1|9=108|35=A|34=528|49=INITIATOR3|52=20190603-09:45:45.498|56=ACCEPTOR|98=0|108=20|553=USERNAME|554=PASSWORD|1137=7|10=001|8=FIXT.1.1|9=108|35=A|34=529|49=INITIATOR3|52=20190603-09:46:15.529|56=ACCEPTOR|98=0|108=20|553=USERNAME|554=PASSWORD|1137=7|10=251|8=FIXT.1.1|9=108|35=A|34=530|49=INITIATOR3|52=20190603-09:46:45.560|56=ACCEPTOR|98=0|108=20|553=USERNAME|554=PASSWORD|1137=7|10=241|8=FIXT.1.1|9=108|35=A|34=531|49=INITIATOR3|52=20190603-09:47:15.589|56=ACCEPTOR|98=0|108=20|553=USERNAME|554=PASSWORD|1137=7|10=251|8=FIXT.1.1|9=108|35=A|34=532|49=INITIATOR3|52=20190603-09:47:45.620|56=ACCEPTOR|98=0|108=20|553=USERNAME|554=PASSWORD|1137=7|10=241|8=FIXT.1.1|9=108|35=A|34=533|49=INITIATOR3|52=20190603-09:48:15.651|56=ACCEPTOR|98=0|108=20|553=USERNAME|554=PASSWORD|1137=7|10=244|8=FIXT.1.1|9=108|35=A|34=534|49=INITIATOR3|52=20190603-09:48:45.684|56=ACCEPTOR|98=0|108=20|553=USERNAME|554=PASSWORD|1137=7|10=254|8=FIXT.1.1|9=108|35=A|34=535|49=INITIATOR3|52=20190603-09:49:15.713|56=ACCEPTOR|98=0|108=20|553=USERNAME|554=PASSWORD|1137=7|10=246|8=FIXT.1.1|9=108|35=A|34=536|49=INITIATOR3|52=20190603-09:49:45.744|56=ACCEPTOR|98=0|108=20|553=USERNAME|554=PASSWORD|1137=7|10=254|8=FIXT.1.1|9=108|35=A|34=537|49=INITIATOR3|52=20190603-09:50:15.774|56=ACCEPTOR|98=0|108=20|553=USERNAME|554=PASSWORD|1137=7|10=247|8=FIXT.1.1|9=108|35=A|34=538|49=INITIATOR3|52=20190603-09:50:45.803|56=ACCEPTOR|98=0|108=20|553=USERNAME|554=PASSWORD|1137=7|10=244|8=FIXT.1.1|9=108|35=A|34=539|49=INITIATOR3|52=20190603-09:51:15.833|56=ACCEPTOR|98=0|108=20|553=USERNAME|554=PASSWORD|1137=7|10=246|8=FIXT.1.1|9=108|35=A|34=540|49=INITIATOR3|52=20190603-09:51:45.865|56=ACCEPTOR|98=0|108=20|553=USERNAME|554=PASSWORD|1137=7|10=246|8=FIXT.1.1|9=108|35=A|34=541|49=INITIATOR3|52=20190603-09:52:15.895|56=ACCEPTOR|98=0|108=20|553=USERNAME|554=PASSWORD|1137=7|10=248|8=FIXT.1.1|9=108|35=A|34=542|49=INITIATOR3|52=20190603-09:52:45.926|56=ACCEPTOR|98=0|108=20|553=USERNAME|554=PASSWORD|1137=7|10=247|8=FIXT.1.1|9=108|35=A|34=543|49=INITIATOR3|52=20190603-09:53:15.956|56=ACCEPTOR|98=0|108=20|553=USERNAME|554=PASSWORD|1137=7|10=249|8=FIXT.1.1|9=108|35=A|34=544|49=INITIATOR3|52=20190603-09:53:45.988|56=ACCEPTOR|98=0|108=20|553=USERNAME|554=PASSWORD|1137=7|10=002|8=FIXT.1.1|9=108|35=A|34=545|49=INITIATOR3|52=20190603-09:54:15.016|56=ACCEPTOR|98=0|108=20|553=USERNAME|554=PASSWORD|1137=7|10=239|8=FIXT.1.1|9=108|35=A|34=546|49=INITIATOR3|52=20190603-09:54:45.044|56=ACCEPTOR|98=0|108=20|553=USERNAME|554=PASSWORD|1137=7|10=244|8=FIXT.1.1|9=108|35=A|34=547|49=INITIATOR3|52=20190603-09:55:15.077|56=ACCEPTOR|98=0|108=20|553=USERNAME|554=PASSWORD|1137=7|10=249|8=FIXT.1.1|9=108|35=A|34=548|49=INITIATOR3|52=20190603-09:55:45.110|56=ACCEPTOR|98=0|108=20|553=USERNAME|554=PASSWORD|1137=7|10=241|8=FIXT.1.1|9=108|35=A|34=549|49=INITIATOR3|52=20190603-09:56:15.136|56=ACCEPTOR|98=0|108=20|553=USERNAME|554=PASSWORD|1137=7|10=248|8=FIXT.1.1|9=108|35=A|34=550|49=INITIATOR3|52=20190603-09:56:45.168|56=ACCEPTOR|98=0|108=20|553=USERNAME|554=PASSWORD|1137=7|10=248|8=FIXT.1.1|9=108|35=A|34=551|49=INITIATOR3|52=20190603-09:57:15.201|56=ACCEPTOR|98=0|108=20|553=USERNAME|554=PASSWORD|1137=7|10=235|8=FIXT.1.1|9=108|35=A|34=552|49=INITIATOR3|52=20190603-09:57:45.231|56=ACCEPTOR|98=0|108=20|553=USERNAME|554=PASSWORD|1137=7|10=242|8=FIXT.1.1|9=108|35=A|34=553|49=INITIATOR3|52=20190603-09:58:15.263|56=ACCEPTOR|98=0|108=20|553=USERNAME|554=PASSWORD|1137=7|10=246|8=FIXT.1.1|9=108|35=A|34=554|49=INITIATOR3|52=20190603-09:58:45.290|56=ACCEPTOR|98=0|108=20|553=USERNAME|554=PASSWORD|1137=7|10=250|8=FIXT.1.1|9=108|35=A|34=555|49=INITIATOR3|52=20190603-09:59:15.321|56=ACCEPTOR|98=0|108=20|553=USERNAME|554=PASSWORD|1137=7|10=244|8=FIXT.1.1|9=108|35=A|34=556|49=INITIATOR3|52=20190603-09:59:45.353|56=ACCEPTOR|98=0|108=20|553=USERNAME|554=PASSWORD|1137=7|10=253|8=FIXT.1.1|9=108|35=A|34=557|49=INITIATOR3|52=20190603-10:00:15.384|56=ACCEPTOR|98=0|108=20|553=USERNAME|554=PASSWORD|1137=7|10=233|8=FIXT.1.1|9=108|35=A|34=558|49=INITIATOR3|52=20190603-10:00:45.416|56=ACCEPTOR|98=0|108=20|553=USERNAME|554=PASSWORD|1137=7|10=233|8=FIXT.1.1|9=108|35=A|34=559|49=INITIATOR3|52=20190603-10:01:15.445|56=ACCEPTOR|98=0|108=20|553=USERNAME|554=PASSWORD|1137=7|10=234|8=FIXT.1.1|9=108|35=A|34=560|49=INITIATOR3|52=20190603-10:01:45.475|56=ACCEPTOR|98=0|108=20|553=USERNAME|554=PASSWORD|1137=7|10=232|8=FIXT.1.1|9=108|35=A|34=561|49=INITIATOR3|52=20190603-10:02:15.509|56=ACCEPTOR|98=0|108=20|553=USERNAME|554=PASSWORD|1137=7|10=229|8=FIXT.1.1|9=108|35=A|34=562|49=INITIATOR3|52=20190603-10:02:45.540|56=ACCEPTOR|98=0|108=20|553=USERNAME|554=PASSWORD|1137=7|10=228|8=FIXT.1.1|9=108|35=A|34=563|49=INITIATOR3|52=20190603-10:03:15.568|56=ACCEPTOR|98=0|108=20|553=USERNAME|554=PASSWORD|1137=7|10=237|8=FIXT.1.1|9=108|35=A|34=564|49=INITIATOR3|52=20190603-10:03:45.597|56=ACCEPTOR|98=0|108=20|553=USERNAME|554=PASSWORD|1137=7|10=243|8=FIXT.1.1|9=108|35=A|34=565|49=INITIATOR3|52=20190603-10:04:15.629|56=ACCEPTOR|98=0|108=20|553=USERNAME|554=PASSWORD|1137=7|10=238|8=FIXT.1.1|9=108|35=A|34=566|49=INITIATOR3|52=20190603-10:04:45.660|56=ACCEPTOR|98=0|108=20|553=USERNAME|554=PASSWORD|1137=7|10=237|8=FIXT.1.1|9=108|35=A|34=567|49=INITIATOR3|52=20190603-10:05:15.690|56=ACCEPTOR|98=0|108=20|553=USERNAME|554=PASSWORD|1137=7|10=239|8=FIXT.1.1|9=108|35=A|34=568|49=INITIATOR3|52=20190603-10:05:45.722|56=ACCEPTOR|98=0|108=20|553=USERNAME|554=PASSWORD|1137=7|10=239|8=FIXT.1.1|9=108|35=A|34=569|49=INITIATOR3|52=20190603-10:06:15.753|56=ACCEPTOR|98=0|108=20|553=USERNAME|554=PASSWORD|1137=7|10=242|8=FIXT.1.1|9=108|35=A|34=570|49=INITIATOR3|52=20190603-10:06:45.781|56=ACCEPTOR|98=0|108=20|553=USERNAME|554=PASSWORD|1137=7|10=238|8=FIXT.1.1|9=108|35=A|34=571|49=INITIATOR3|52=20190603-10:07:15.812|56=ACCEPTOR|98=0|108=20|553=USERNAME|554=PASSWORD|1137=7|10=232|8=FIXT.1.1|9=108|35=A|34=572|49=INITIATOR3|52=20190603-10:07:45.841|56=ACCEPTOR|98=0|108=20|553=USERNAME|554=PASSWORD|1137=7|10=238|8=FIXT.1.1|9=108|35=A|34=573|49=INITIATOR3|52=20190603-10:08:15.873|56=ACCEPTOR|98=0|108=20|553=USERNAME|554=PASSWORD|1137=7|10=242|8=FIXT.1.1|9=108|35=A|34=574|49=INITIATOR3|52=20190603-10:08:45.904|56=ACCEPTOR|98=0|108=20|553=USERNAME|554=PASSWORD|1137=7|10=241|8=FIXT.1.1|9=108|35=A|34=575|49=INITIATOR3|52=20190603-10:09:15.935|56=ACCEPTOR|98=0|108=20|553=USERNAME|554=PASSWORD|1137=7|10=244|8=FIXT.1.1|9=108|35=A|34=576|49=INITIATOR3|52=20190603-10:09:45.968|56=ACCEPTOR|98=0|108=20|553=USERNAME|554=PASSWORD|1137=7|10=254|8=FIXT.1.1|9=108|35=A|34=577|49=INITIATOR3|52=20190603-10:10:15.998|56=ACCEPTOR|98=0|108=20|553=USERNAME|554=PASSWORD|1137=7|10=247|8=FIXT.1.1|9=108|35=A|34=578|49=INITIATOR3|52=20190603-10:10:45.028|56=ACCEPTOR|98=0|108=20|553=USERNAME|554=PASSWORD|1137=7|10=235|8=FIXT.1.1|9=108|35=A|34=579|49=INITIATOR3|52=20190603-10:11:15.058|56=ACCEPTOR|98=0|108=20|553=USERNAME|554=PASSWORD|1137=7|10=237|8=FIXT.1.1|9=108|35=A|34=580|49=INITIATOR3|52=20190603-10:11:45.090|56=ACCEPTOR|98=0|108=20|553=USERNAME|554=PASSWORD|1137=7|10=228|8=FIXT.1.1|9=108|35=A|34=581|49=INITIATOR3|52=20190603-10:12:15.123|56=ACCEPTOR|98=0|108=20|553=USERNAME|554=PASSWORD|1137=7|10=224|8=FIXT.1.1|9=108|35=A|34=582|49=INITIATOR3|52=20190603-10:12:45.155|56=ACCEPTOR|98=0|108=20|553=USERNAME|554=PASSWORD|1137=7|10=233|8=FIXT.1.1|9=108|35=A|34=583|49=INITIATOR3|52=20190603-10:13:15.189|56=ACCEPTOR|98=0|108=20|553=USERNAME|554=PASSWORD|1137=7|10=239|8=FIXT.1.1|9=108|35=A|34=584|49=INITIATOR3|52=20190603-10:13:45.221|56=ACCEPTOR|98=0|108=20|553=USERNAME|554=PASSWORD|1137=7|10=230|8=FIXT.1.1|9=108|35=A|34=585|49=INITIATOR3|52=20190603-10:14:15.255|56=ACCEPTOR|98=0|108=20|553=USERNAME|554=PASSWORD|1137=7|10=236|8=FIXT.1.1|9=108|35=A|34=586|49=INITIATOR3|52=20190603-10:14:45.285|56=ACCEPTOR|98=0|108=20|553=USERNAME|554=PASSWORD|1137=7|10=243|8=FIXT.1.1|9=108|35=A|34=587|49=INITIATOR3|52=20190603-10:15:15.318|56=ACCEPTOR|98=0|108=20|553=USERNAME|554=PASSWORD|1137=7|10=239|8=FIXT.1.1|9=108|35=A|34=588|49=INITIATOR3|52=20190603-10:15:45.350|56=ACCEPTOR|98=0|108=20|553=USERNAME|554=PASSWORD|1137=7|10=239|8=FIXT.1.1|9=108|35=A|34=589|49=INITIATOR3|52=20190603-10:16:15.380|56=ACCEPTOR|98=0|108=20|553=USERNAME|554=PASSWORD|1137=7|10=241|8=FIXT.1.1|9=108|35=A|34=590|49=INITIATOR3|52=20190603-10:16:45.413|56=ACCEPTOR|98=0|108=20|553=USERNAME|554=PASSWORD|1137=7|10=233|8=FIXT.1.1|9=108|35=A|34=591|49=INITIATOR3|52=20190603-10:17:15.445|56=ACCEPTOR|98=0|108=20|553=USERNAME|554=PASSWORD|1137=7|10=237|8=FIXT.1.1|9=108|35=A|34=592|49=INITIATOR3|52=20190603-10:17:45.477|56=ACCEPTOR|98=0|108=20|553=USERNAME|554=PASSWORD|1137=7|10=246|8=FIXT.1.1|9=108|35=A|34=593|49=INITIATOR3|52=20190603-10:18:15.506|56=ACCEPTOR|98=0|108=20|553=USERNAME|554=PASSWORD|1137=7|10=238|8=FIXT.1.1|9=108|35=A|34=594|49=INITIATOR3|52=20190603-10:18:45.536|56=ACCEPTOR|98=0|108=20|553=USERNAME|554=PASSWORD|1137=7|10=245|8=FIXT.1.1|9=108|35=A|34=595|49=INITIATOR3|52=20190603-10:19:15.566|56=ACCEPTOR|98=0|108=20|553=USERNAME|554=PASSWORD|1137=7|10=247|8=FIXT.1.1|9=108|35=A|34=596|49=INITIATOR3|52=20190603-10:19:45.597|56=ACCEPTOR|98=0|108=20|553=USERNAME|554=PASSWORD|1137=7|10=255|8=FIXT.1.1|9=108|35=A|34=597|49=INITIATOR3|52=20190603-10:20:15.628|56=ACCEPTOR|98=0|108=20|553=USERNAME|554=PASSWORD|1137=7|10=240|8=FIXT.1.1|9=108|35=A|34=598|49=INITIATOR3|52=20190603-10:20:45.659|56=ACCEPTOR|98=0|108=20|553=USERNAME|554=PASSWORD|1137=7|10=248|8=FIXT.1.1|9=108|35=A|34=599|49=INITIATOR3|52=20190603-10:21:15.688|56=ACCEPTOR|98=0|108=20|553=USERNAME|554=PASSWORD|1137=7|10=249|8=FIXT.1.1|9=108|35=A|34=600|49=INITIATOR3|52=20190603-10:21:45.720|56=ACCEPTOR|98=0|108=20|553=USERNAME|554=PASSWORD|1137=7|10=222|8=FIXT.1.1|9=108|35=A|34=601|49=INITIATOR3|52=20190603-10:22:15.752|56=ACCEPTOR|98=0|108=20|553=USERNAME|554=PASSWORD|1137=7|10=226|8=FIXT.1.1|9=108|35=A|34=602|49=INITIATOR3|52=20190603-10:22:45.782|56=ACCEPTOR|98=0|108=20|553=USERNAME|554=PASSWORD|1137=7|10=233|8=FIXT.1.1|9=108|35=A|34=603|49=INITIATOR3|52=20190603-10:23:15.813|56=ACCEPTOR|98=0|108=20|553=USERNAME|554=PASSWORD|1137=7|10=227|8=FIXT.1.1|9=108|35=A|34=604|49=INITIATOR3|52=20190603-10:23:45.844|56=ACCEPTOR|98=0|108=20|553=USERNAME|554=PASSWORD|1137=7|10=235|8=FIXT.1.1|9=108|35=A|34=605|49=INITIATOR3|52=20190603-10:24:15.877|56=ACCEPTOR|98=0|108=20|553=USERNAME|554=PASSWORD|1137=7|10=240|8=FIXT.1.1|9=108|35=A|34=606|49=INITIATOR3|52=20190603-10:24:45.909|56=ACCEPTOR|98=0|108=20|553=USERNAME|554=PASSWORD|1137=7|10=240|8=FIXT.1.1|9=108|35=A|34=607|49=INITIATOR3|52=20190603-10:25:15.941|56=ACCEPTOR|98=0|108=20|553=USERNAME|554=PASSWORD|1137=7|10=235|8=FIXT.1.1|9=108|35=A|34=608|49=INITIATOR3|52=20190603-10:25:45.974|56=ACCEPTOR|98=0|108=20|553=USERNAME|554=PASSWORD|1137=7|10=245|8=FIXT.1.1|9=108|35=A|34=609|49=INITIATOR3|52=20190603-10:26:15.003|56=ACCEPTOR|98=0|108=20|553=USERNAME|554=PASSWORD|1137=7|10=227|8=FIXT.1.1|9=108|35=A|34=610|49=INITIATOR3|52=20190603-10:26:45.033|56=ACCEPTOR|98=0|108=20|553=USERNAME|554=PASSWORD|1137=7|10=225|8=FIXT.1.1|9=108|35=A|34=611|49=INITIATOR3|52=20190603-10:27:15.062|56=ACCEPTOR|98=0|108=20|553=USERNAME|554=PASSWORD|1137=7|10=226|8=FIXT.1.1|9=108|35=A|34=612|49=INITIATOR3|52=20190603-10:27:45.095|56=ACCEPTOR|98=0|108=20|553=USERNAME|554=PASSWORD|1137=7|10=236|8=FIXT.1.1|9=108|35=A|34=613|49=INITIATOR3|52=20190603-10:28:15.126|56=ACCEPTOR|98=0|108=20|553=USERNAME|554=PASSWORD|1137=7|10=230|8=FIXT.1.1|9=108|35=A|34=614|49=INITIATOR3|52=20190603-10:28:45.158|56=ACCEPTOR|98=0|108=20|553=USERNAME|554=PASSWORD|1137=7|10=239|8=FIXT.1.1|9=108|35=A|34=615|49=INITIATOR3|52=20190603-10:29:15.189|56=ACCEPTOR|98=0|108=20|553=USERNAME|554=PASSWORD|1137=7|10=242|8=FIXT.1.1|9=108|35=A|34=616|49=INITIATOR3|52=20190603-10:29:45.220|56=ACCEPTOR|98=0|108=20|553=USERNAME|554=PASSWORD|1137=7|10=232|8=FIXT.1.1|9=108|35=A|34=617|49=INITIATOR3|52=20190603-10:30:15.252|56=ACCEPTOR|98=0|108=20|553=USERNAME|554=PASSWORD|1137=7|10=227|8=FIXT.1.1|9=108|35=A|34=618|49=INITIATOR3|52=20190603-10:30:45.283|56=ACCEPTOR|98=0|108=20|553=USERNAME|554=PASSWORD|1137=7|10=235|8=FIXT.1.1|9=108|35=A|34=619|49=INITIATOR3|52=20190603-10:31:15.313|56=ACCEPTOR|98=0|108=20|553=USERNAME|554=PASSWORD|1137=7|10=228|8=FIXT.1.1|9=108|35=A|34=620|49=INITIATOR3|52=20190603-10:31:45.343|56=ACCEPTOR|98=0|108=20|553=USERNAME|554=PASSWORD|1137=7|10=226|8=FIXT.1.1|9=108|35=A|34=621|49=INITIATOR3|52=20190603-10:32:15.374|56=ACCEPTOR|98=0|108=20|553=USERNAME|554=PASSWORD|1137=7|10=229|8=FIXT.1.1|9=108|35=A|34=622|49=INITIATOR3|52=20190603-10:32:45.405|56=ACCEPTOR|98=0|108=20|553=USERNAME|554=PASSWORD|1137=7|10=228|8=FIXT.1.1|9=108|35=A|34=623|49=INITIATOR3|52=20190603-10:33:15.436|56=ACCEPTOR|98=0|108=20|553=USERNAME|554=PASSWORD|1137=7|10=231|8=FIXT.1.1|9=108|35=A|34=624|49=INITIATOR3|52=20190603-10:33:45.467|56=ACCEPTOR|98=0|108=20|553=USERNAME|554=PASSWORD|1137=7|10=239|8=FIXT.1.1|9=108|35=A|34=625|49=INITIATOR3|52=20190603-10:34:15.498|56=ACCEPTOR|98=0|108=20|553=USERNAME|554=PASSWORD|1137=7|10=242|8=FIXT.1.1|9=108|35=A|34=626|49=INITIATOR3|52=20190603-10:34:45.529|56=ACCEPTOR|98=0|108=20|553=USERNAME|554=PASSWORD|1137=7|10=241|8=FIXT.1.1|9=108|35=A|34=627|49=INITIATOR3|52=20190603-10:35:15.561|56=ACCEPTOR|98=0|108=20|553=USERNAME|554=PASSWORD|1137=7|10=236|8=FIXT.1.1|9=108|35=A|34=628|49=INITIATOR3|52=20190603-10:35:45.593|56=ACCEPTOR|98=0|108=20|553=USERNAME|554=PASSWORD|1137=7|10=245|8=FIXT.1.1|9=108|35=A|34=629|49=INITIATOR3|52=20190603-10:36:15.625|56=ACCEPTOR|98=0|108=20|553=USERNAME|554=PASSWORD|1137=7|10=240|8=FIXT.1.1|9=108|35=A|34=630|49=INITIATOR3|52=20190603-10:36:45.657|56=ACCEPTOR|98=0|108=20|553=USERNAME|554=PASSWORD|1137=7|10=240|8=FIXT.1.1|9=108|35=A|34=631|49=INITIATOR3|52=20190603-10:37:15.689|56=ACCEPTOR|98=0|108=20|553=USERNAME|554=PASSWORD|1137=7|10=244|8=FIXT.1.1|9=108|35=A|34=632|49=INITIATOR3|52=20190603-10:37:45.718|56=ACCEPTOR|98=0|108=20|553=USERNAME|554=PASSWORD|1137=7|10=241|8=FIXT.1.1|9=108|35=A|34=633|49=INITIATOR3|52=20190603-10:38:15.750|56=ACCEPTOR|98=0|108=20|553=USERNAME|554=PASSWORD|1137=7|10=236|8=FIXT.1.1|9=108|35=A|34=634|49=INITIATOR3|52=20190603-10:38:45.781|56=ACCEPTOR|98=0|108=20|553=USERNAME|554=PASSWORD|1137=7|10=244|8=FIXT.1.1|9=108|35=A|34=635|49=INITIATOR3|52=20190603-10:39:15.811|56=ACCEPTOR|98=0|108=20|553=USERNAME|554=PASSWORD|1137=7|10=237|8=FIXT.1.1|9=108|35=A|34=636|49=INITIATOR3|52=20190603-10:39:45.842|56=ACCEPTOR|98=0|108=20|553=USERNAME|554=PASSWORD|1137=7|10=245|8=FIXT.1.1|9=108|35=A|34=637|49=INITIATOR3|52=20190603-10:40:15.871|56=ACCEPTOR|98=0|108=20|553=USERNAME|554=PASSWORD|1137=7|10=237|8=FIXT.1.1|9=108|35=A|34=638|49=INITIATOR3|52=20190603-10:40:45.905|56=ACCEPTOR|98=0|108=20|553=USERNAME|554=PASSWORD|1137=7|10=239|8=FIXT.1.1|9=108|35=A|34=639|49=INITIATOR3|52=20190603-10:41:15.937|56=ACCEPTOR|98=0|108=20|553=USERNAME|554=PASSWORD|1137=7|10=243|8=FIXT.1.1|9=108|35=A|34=640|49=INITIATOR3|52=20190603-10:41:45.969|56=ACCEPTOR|98=0|108=20|553=USERNAME|554=PASSWORD|1137=7|10=243|8=FIXT.1.1|9=108|35=A|34=641|49=INITIATOR3|52=20190603-10:42:15.001|56=ACCEPTOR|98=0|108=20|553=USERNAME|554=PASSWORD|1137=7|10=219|8=FIXT.1.1|9=108|35=A|34=642|49=INITIATOR3|52=20190603-10:42:45.033|56=ACCEPTOR|98=0|108=20|553=USERNAME|554=PASSWORD|1137=7|10=228|8=FIXT.1.1|9=108|35=A|34=643|49=INITIATOR3|52=20190603-10:43:15.063|56=ACCEPTOR|98=0|108=20|553=USERNAME|554=PASSWORD|1137=7|10=230|8=FIXT.1.1|9=108|35=A|34=644|49=INITIATOR3|52=20190603-10:43:45.093|56=ACCEPTOR|98=0|108=20|553=USERNAME|554=PASSWORD|1137=7|10=237|8=FIXT.1.1|9=108|35=A|34=645|49=INITIATOR3|52=20190603-10:44:15.123|56=ACCEPTOR|98=0|108=20|553=USERNAME|554=PASSWORD|1137=7|10=230|8=FIXT.1.1|9=108|35=A|34=646|49=INITIATOR3|52=20190603-10:44:45.153|56=ACCEPTOR|98=0|108=20|553=USERNAME|554=PASSWORD|1137=7|10=237|8=FIXT.1.1|9=108|35=A|34=647|49=INITIATOR3|52=20190603-10:45:15.183|56=ACCEPTOR|98=0|108=20|553=USERNAME|554=PASSWORD|1137=7|10=239|8=FIXT.1.1|9=108|35=A|34=648|49=INITIATOR3|52=20190603-10:45:45.214|56=ACCEPTOR|98=0|108=20|553=USERNAME|554=PASSWORD|1137=7|10=238|8=FIXT.1.1|9=108|35=A|34=649|49=INITIATOR3|52=20190603-10:46:15.245|56=ACCEPTOR|98=0|108=20|553=USERNAME|554=PASSWORD|1137=7|10=241|8=FIXT.1.1|9=108|35=A|34=650|49=INITIATOR3|52=20190603-10:46:45.277|56=ACCEPTOR|98=0|108=20|553=USERNAME|554=PASSWORD|1137=7|10=241|8=FIXT.1.1|9=108|35=A|34=651|49=INITIATOR3|52=20190603-10:47:15.308|56=ACCEPTOR|98=0|108=20|553=USERNAME|554=PASSWORD|1137=7|10=235|8=FIXT.1.1|9=108|35=A|34=652|49=INITIATOR3|52=20190603-10:47:45.339|56=ACCEPTOR|98=0|108=20|553=USERNAME|554=PASSWORD|1137=7|10=243|8=FIXT.1.1|9=108|35=A|34=653|49=INITIATOR3|52=20190603-10:48:15.372|56=ACCEPTOR|98=0|108=20|553=USERNAME|554=PASSWORD|1137=7|10=239|8=FIXT.1.1|9=108|35=A|34=654|49=INITIATOR3|52=20190603-10:48:45.402|56=ACCEPTOR|98=0|108=20|553=USERNAME|554=PASSWORD|1137=7|10=237|8=FIXT.1.1|9=108|35=A|34=655|49=INITIATOR3|52=20190603-10:49:15.433|56=ACCEPTOR|98=0|108=20|553=USERNAME|554=PASSWORD|1137=7|10=240|8=FIXT.1.1|9=108|35=A|34=656|49=INITIATOR3|52=20190603-10:49:45.466|56=ACCEPTOR|98=0|108=20|553=USERNAME|554=PASSWORD|1137=7|10=250|8=FIXT.1.1|9=108|35=A|34=657|49=INITIATOR3|52=20190603-10:50:15.497|56=ACCEPTOR|98=0|108=20|553=USERNAME|554=PASSWORD|1137=7|10=244|8=FIXT.1.1|9=108|35=A|34=658|49=INITIATOR3|52=20190603-10:50:45.528|56=ACCEPTOR|98=0|108=20|553=USERNAME|554=PASSWORD|1137=7|10=243|8=FIXT.1.1|9=108|35=A|34=659|49=INITIATOR3|52=20190603-10:51:15.560|56=ACCEPTOR|98=0|108=20|553=USERNAME|554=PASSWORD|1137=7|10=238|8=FIXT.1.1|9=108|35=A|34=660|49=INITIATOR3|52=20190603-10:51:45.589|56=ACCEPTOR|98=0|108=20|553=USERNAME|554=PASSWORD|1137=7|10=244|8=FIXT.1.1|9=108|35=A|34=661|49=INITIATOR3|52=20190603-10:52:15.621|56=ACCEPTOR|98=0|108=20|553=USERNAME|554=PASSWORD|1137=7|10=230|8=FIXT.1.1|9=108|35=A|34=662|49=INITIATOR3|52=20190603-10:52:45.653|56=ACCEPTOR|98=0|108=20|553=USERNAME|554=PASSWORD|1137=7|10=239|8=FIXT.1.1|9=108|35=A|34=663|49=INITIATOR3|52=20190603-10:53:15.679|56=ACCEPTOR|98=0|108=20|553=USERNAME|554=PASSWORD|1137=7|10=246|8=FIXT.1.1|9=108|35=A|34=664|49=INITIATOR3|52=20190603-10:53:45.713|56=ACCEPTOR|98=0|108=20|553=USERNAME|554=PASSWORD|1137=7|10=239|8=FIXT.1.1|9=108|35=A|34=665|49=INITIATOR3|52=20190603-10:54:15.745|56=ACCEPTOR|98=0|108=20|553=USERNAME|554=PASSWORD|1137=7|10=243|8=FIXT.1.1|9=108|35=A|34=666|49=INITIATOR3|52=20190603-10:54:45.773|56=ACCEPTOR|98=0|108=20|553=USERNAME|554=PASSWORD|1137=7|10=248|8=FIXT.1.1|9=108|35=A|34=667|49=INITIATOR3|52=20190603-10:55:15.803|56=ACCEPTOR|98=0|108=20|553=USERNAME|554=PASSWORD|1137=7|10=241|8=FIXT.1.1|9=108|35=A|34=668|49=INITIATOR3|52=20190603-10:55:45.834|56=ACCEPTOR|98=0|108=20|553=USERNAME|554=PASSWORD|1137=7|10=249|8=FIXT.1.1|9=108|35=A|34=669|49=INITIATOR3|52=20190603-10:56:15.868|56=ACCEPTOR|98=0|108=20|553=USERNAME|554=PASSWORD|1137=7|10=255|8=FIXT.1.1|9=108|35=A|34=670|49=INITIATOR3|52=20190603-10:56:45.898|56=ACCEPTOR|98=0|108=20|553=USERNAME|554=PASSWORD|1137=7|10=253|8=FIXT.1.1|9=108|35=A|34=671|49=INITIATOR3|52=20190603-10:57:15.930|56=ACCEPTOR|98=0|108=20|553=USERNAME|554=PASSWORD|1137=7|10=239|8=FIXT.1.1|9=108|35=A|34=672|49=INITIATOR3|52=20190603-10:57:45.961|56=ACCEPTOR|98=0|108=20|553=USERNAME|554=PASSWORD|1137=7|10=247|8=FIXT.1.1|9=108|35=A|34=673|49=INITIATOR3|52=20190603-10:58:15.991|56=ACCEPTOR|98=0|108=20|553=USERNAME|554=PASSWORD|1137=7|10=249|8=FIXT.1.1|9=108|35=A|34=674|49=INITIATOR3|52=20190603-10:58:45.023|56=ACCEPTOR|98=0|108=20|553=USERNAME|554=PASSWORD|1137=7|10=239|8=FIXT.1.1|9=108|35=A|34=675|49=INITIATOR3|52=20190603-10:59:15.054|56=ACCEPTOR|98=0|108=20|553=USERNAME|554=PASSWORD|1137=7|10=242|8=FIXT.1.1|9=108|35=A|34=676|49=INITIATOR3|52=20190603-10:59:45.086|56=ACCEPTOR|98=0|108=20|553=USERNAME|554=PASSWORD|1137=7|10=251|8=FIXT.1.1|9=108|35=A|34=677|49=INITIATOR3|52=20190603-11:00:15.115|56=ACCEPTOR|98=0|108=20|553=USERNAME|554=PASSWORD|1137=7|10=229|8=FIXT.1.1|9=108|35=A|34=678|49=INITIATOR3|52=20190603-11:00:45.144|56=ACCEPTOR|98=0|108=20|553=USERNAME|554=PASSWORD|1137=7|10=235|8=FIXT.1.1|9=108|35=A|34=679|49=INITIATOR3|52=20190603-11:01:15.174|56=ACCEPTOR|98=0|108=20|553=USERNAME|554=PASSWORD|1137=7|10=237|8=FIXT.1.1|9=108|35=A|34=680|49=INITIATOR3|52=20190603-11:01:45.205|56=ACCEPTOR|98=0|108=20|553=USERNAME|554=PASSWORD|1137=7|10=227|8=FIXT.1.1|9=108|35=A|34=681|49=INITIATOR3|52=20190603-11:02:15.237|56=ACCEPTOR|98=0|108=20|553=USERNAME|554=PASSWORD|1137=7|10=231|8=FIXT.1.1|9=108|35=A|34=682|49=INITIATOR3|52=20190603-11:02:45.268|56=ACCEPTOR|98=0|108=20|553=USERNAME|554=PASSWORD|1137=7|10=239|8=FIXT.1.1|9=108|35=A|34=683|49=INITIATOR3|52=20190603-11:03:15.297|56=ACCEPTOR|98=0|108=20|553=USERNAME|554=PASSWORD|1137=7|10=240|8=FIXT.1.1|9=108|35=A|34=684|49=INITIATOR3|52=20190603-11:03:45.327|56=ACCEPTOR|98=0|108=20|553=USERNAME|554=PASSWORD|1137=7|10=238|8=FIXT.1.1|9=108|35=A|34=685|49=INITIATOR3|52=20190603-11:04:15.358|56=ACCEPTOR|98=0|108=20|553=USERNAME|554=PASSWORD|1137=7|10=241|8=FIXT.1.1|9=108|35=A|34=686|49=INITIATOR3|52=20190603-11:04:45.385|56=ACCEPTOR|98=0|108=20|553=USERNAME|554=PASSWORD|1137=7|10=245|8=FIXT.1.1|9=108|35=A|34=687|49=INITIATOR3|52=20190603-11:05:15.415|56=ACCEPTOR|98=0|108=20|553=USERNAME|554=PASSWORD|1137=7|10=238|8=FIXT.1.1|9=108|35=A|34=688|49=INITIATOR3|52=20190603-11:05:45.447|56=ACCEPTOR|98=0|108=20|553=USERNAME|554=PASSWORD|1137=7|10=247|8=FIXT.1.1|9=108|35=A|34=689|49=INITIATOR3|52=20190603-11:06:15.478|56=ACCEPTOR|98=0|108=20|553=USERNAME|554=PASSWORD|1137=7|10=250|8=FIXT.1.1|9=108|35=A|34=690|49=INITIATOR3|52=20190603-11:06:45.510|56=ACCEPTOR|98=0|108=20|553=USERNAME|554=PASSWORD|1137=7|10=232|8=FIXT.1.1|9=108|35=A|34=691|49=INITIATOR3|52=20190603-11:07:15.543|56=ACCEPTOR|98=0|108=20|553=USERNAME|554=PASSWORD|1137=7|10=237|8=FIXT.1.1|9=108|35=A|34=692|49=INITIATOR3|52=20190603-11:07:45.573|56=ACCEPTOR|98=0|108=20|553=USERNAME|554=PASSWORD|1137=7|10=244|8=FIXT.1.1|9=108|35=A|34=693|49=INITIATOR3|52=20190603-11:08:15.603|56=ACCEPTOR|98=0|108=20|553=USERNAME|554=PASSWORD|1137=7|10=237|8=FIXT.1.1|9=108|35=A|34=694|49=INITIATOR3|52=20190603-11:08:45.633|56=ACCEPTOR|98=0|108=20|553=USERNAME|554=PASSWORD|1137=7|10=244|8=FIXT.1.1|9=108|35=A|34=695|49=INITIATOR3|52=20190603-11:09:15.665|56=ACCEPTOR|98=0|108=20|553=USERNAME|554=PASSWORD|1137=7|10=248|8=FIXT.1.1|9=108|35=A|34=696|49=INITIATOR3|52=20190603-11:09:45.696|56=ACCEPTOR|98=0|108=20|553=USERNAME|554=PASSWORD|1137=7|10=000|8=FIXT.1.1|9=108|35=A|34=697|49=INITIATOR3|52=20190603-11:10:15.729|56=ACCEPTOR|98=0|108=20|553=USERNAME|554=PASSWORD|1137=7|10=243|8=FIXT.1.1|9=108|35=A|34=698|49=INITIATOR3|52=20190603-11:10:45.759|56=ACCEPTOR|98=0|108=20|553=USERNAME|554=PASSWORD|1137=7|10=250|8=FIXT.1.1|9=108|35=A|34=699|49=INITIATOR3|52=20190603-11:11:15.790|56=ACCEPTOR|98=0|108=20|553=USERNAME|554=PASSWORD|1137=7|10=244|8=FIXT.1.1|9=108|35=A|34=700|49=INITIATOR3|52=20190603-11:11:45.820|56=ACCEPTOR|98=0|108=20|553=USERNAME|554=PASSWORD|1137=7|10=224|8=FIXT.1.1|9=108|35=A|34=701|49=INITIATOR3|52=20190603-11:12:15.849|56=ACCEPTOR|98=0|108=20|553=USERNAME|554=PASSWORD|1137=7|10=234|8=FIXT.1.1|9=108|35=A|34=702|49=INITIATOR3|52=20190603-11:12:45.881|56=ACCEPTOR|98=0|108=20|553=USERNAME|554=PASSWORD|1137=7|10=234|8=FIXT.1.1|9=108|35=A|34=703|49=INITIATOR3|52=20190603-11:13:15.914|56=ACCEPTOR|98=0|108=20|553=USERNAME|554=PASSWORD|1137=7|10=230|8=FIXT.1.1|9=108|35=A|34=704|49=INITIATOR3|52=20190603-11:13:45.948|56=ACCEPTOR|98=0|108=20|553=USERNAME|554=PASSWORD|1137=7|10=241|8=FIXT.1.1|9=108|35=A|34=705|49=INITIATOR3|52=20190603-11:14:15.981|56=ACCEPTOR|98=0|108=20|553=USERNAME|554=PASSWORD|1137=7|10=237|8=FIXT.1.1|9=108|35=A|34=706|49=INITIATOR3|52=20190603-11:14:45.012|56=ACCEPTOR|98=0|108=20|553=USERNAME|554=PASSWORD|1137=7|10=226|8=FIXT.1.1|9=108|35=A|34=707|49=INITIATOR3|52=20190603-11:15:15.044|56=ACCEPTOR|98=0|108=20|553=USERNAME|554=PASSWORD|1137=7|10=230|8=FIXT.1.1|9=108|35=A|34=708|49=INITIATOR3|52=20190603-11:15:45.074|56=ACCEPTOR|98=0|108=20|553=USERNAME|554=PASSWORD|1137=7|10=237|8=FIXT.1.1|9=108|35=A|34=709|49=INITIATOR3|52=20190603-11:16:15.105|56=ACCEPTOR|98=0|108=20|553=USERNAME|554=PASSWORD|1137=7|10=231|8=FIXT.1.1|9=108|35=A|34=710|49=INITIATOR3|52=20190603-11:16:45.138|56=ACCEPTOR|98=0|108=20|553=USERNAME|554=PASSWORD|1137=7|10=232|8=FIXT.1.1|9=108|35=A|34=711|49=INITIATOR3|52=20190603-11:17:15.169|56=ACCEPTOR|98=0|108=20|553=USERNAME|554=PASSWORD|1137=7|10=235|8=FIXT.1.1|9=108|35=A|34=712|49=INITIATOR3|52=20190603-11:17:45.202|56=ACCEPTOR|98=0|108=20|553=USERNAME|554=PASSWORD|1137=7|10=227|8=FIXT.1.1|9=108|35=A|34=713|49=INITIATOR3|52=20190603-11:18:15.233|56=ACCEPTOR|98=0|108=20|553=USERNAME|554=PASSWORD|1137=7|10=230|8=FIXT.1.1|9=108|35=A|34=714|49=INITIATOR3|52=20190603-11:18:45.264|56=ACCEPTOR|98=0|108=20|553=USERNAME|554=PASSWORD|1137=7|10=238|8=FIXT.1.1|9=108|35=A|34=715|49=INITIATOR3|52=20190603-11:19:15.292|56=ACCEPTOR|98=0|108=20|553=USERNAME|554=PASSWORD|1137=7|10=238|8=FIXT.1.1|9=108|35=A|34=716|49=INITIATOR3|52=20190603-11:19:45.323|56=ACCEPTOR|98=0|108=20|553=USERNAME|554=PASSWORD|1137=7|10=237|8=FIXT.1.1|9=108|35=A|34=717|49=INITIATOR3|52=20190603-11:20:15.357|56=ACCEPTOR|98=0|108=20|553=USERNAME|554=PASSWORD|1137=7|10=234|8=FIXT.1.1|9=108|35=A|34=718|49=INITIATOR3|52=20190603-11:20:45.385|56=ACCEPTOR|98=0|108=20|553=USERNAME|554=PASSWORD|1137=7|10=239|8=FIXT.1.1|9=108|35=A|34=719|49=INITIATOR3|52=20190603-11:21:15.414|56=ACCEPTOR|98=0|108=20|553=USERNAME|554=PASSWORD|1137=7|10=231|8=FIXT.1.1|9=108|35=A|34=720|49=INITIATOR3|52=20190603-11:21:45.444|56=ACCEPTOR|98=0|108=20|553=USERNAME|554=PASSWORD|1137=7|10=229|8=FIXT.1.1|9=108|35=A|34=721|49=INITIATOR3|52=20190603-11:22:15.475|56=ACCEPTOR|98=0|108=20|553=USERNAME|554=PASSWORD|1137=7|10=232|8=FIXT.1.1|9=108|35=A|34=722|49=INITIATOR3|52=20190603-11:22:45.505|56=ACCEPTOR|98=0|108=20|553=USERNAME|554=PASSWORD|1137=7|10=230|8=FIXT.1.1|9=108|35=A|34=723|49=INITIATOR3|52=20190603-11:23:15.535|56=ACCEPTOR|98=0|108=20|553=USERNAME|554=PASSWORD|1137=7|10=232|8=FIXT.1.1|9=108|35=A|34=724|49=INITIATOR3|52=20190603-11:23:45.566|56=ACCEPTOR|98=0|108=20|553=USERNAME|554=PASSWORD|1137=7|10=240|8=FIXT.1.1|9=108|35=A|34=725|49=INITIATOR3|52=20190603-11:24:15.597|56=ACCEPTOR|98=0|108=20|553=USERNAME|554=PASSWORD|1137=7|10=243|8=FIXT.1.1|9=108|35=A|34=726|49=INITIATOR3|52=20190603-11:24:45.630|56=ACCEPTOR|98=0|108=20|553=USERNAME|554=PASSWORD|1137=7|10=235|8=FIXT.1.1|9=108|35=A|34=727|49=INITIATOR3|52=20190603-11:25:15.663|56=ACCEPTOR|98=0|108=20|553=USERNAME|554=PASSWORD|1137=7|10=240|8=FIXT.1.1|9=108|35=A|34=728|49=INITIATOR3|52=20190603-11:25:45.696|56=ACCEPTOR|98=0|108=20|553=USERNAME|554=PASSWORD|1137=7|10=250|8=FIXT.1.1|9=108|35=A|34=729|49=INITIATOR3|52=20190603-11:26:15.726|56=ACCEPTOR|98=0|108=20|553=USERNAME|554=PASSWORD|1137=7|10=243|8=FIXT.1.1|9=108|35=A|34=730|49=INITIATOR3|52=20190603-11:26:45.757|56=ACCEPTOR|98=0|108=20|553=USERNAME|554=PASSWORD|1137=7|10=242|8=FIXT.1.1|9=108|35=A|34=731|49=INITIATOR3|52=20190603-11:27:15.782|56=ACCEPTOR|98=0|108=20|553=USERNAME|554=PASSWORD|1137=7|10=239|8=FIXT.1.1|9=108|35=A|34=732|49=INITIATOR3|52=20190603-11:27:45.811|56=ACCEPTOR|98=0|108=20|553=USERNAME|554=PASSWORD|1137=7|10=236|8=FIXT.1.1|9=108|35=A|34=733|49=INITIATOR3|52=20190603-11:28:15.840|56=ACCEPTOR|98=0|108=20|553=USERNAME|554=PASSWORD|1137=7|10=237|8=FIXT.1.1|9=108|35=A|34=734|49=INITIATOR3|52=20190603-11:28:45.872|56=ACCEPTOR|98=0|108=20|553=USERNAME|554=PASSWORD|1137=7|10=246|8=FIXT.1.1|9=108|35=A|34=735|49=INITIATOR3|52=20190603-11:29:15.904|56=ACCEPTOR|98=0|108=20|553=USERNAME|554=PASSWORD|1137=7|10=241|8=FIXT.1.1|9=108|35=A|34=736|49=INITIATOR3|52=20190603-11:29:45.936|56=ACCEPTOR|98=0|108=20|553=USERNAME|554=PASSWORD|1137=7|10=250|8=FIXT.1.1|9=108|35=A|34=737|49=INITIATOR3|52=20190603-11:30:15.968|56=ACCEPTOR|98=0|108=20|553=USERNAME|554=PASSWORD|1137=7|10=245|8=FIXT.1.1|9=108|35=A|34=738|49=INITIATOR3|52=20190603-11:30:45.999|56=ACCEPTOR|98=0|108=20|553=USERNAME|554=PASSWORD|1137=7|10=253|8=FIXT.1.1|9=108|35=A|34=739|49=INITIATOR3|52=20190603-11:31:15.031|56=ACCEPTOR|98=0|108=20|553=USERNAME|554=PASSWORD|1137=7|10=229|8=FIXT.1.1|9=108|35=A|34=740|49=INITIATOR3|52=20190603-11:31:45.063|56=ACCEPTOR|98=0|108=20|553=USERNAME|554=PASSWORD|1137=7|10=229|8=FIXT.1.1|9=108|35=A|34=741|49=INITIATOR3|52=20190603-11:32:15.096|56=ACCEPTOR|98=0|108=20|553=USERNAME|554=PASSWORD|1137=7|10=234|8=FIXT.1.1|9=108|35=A|34=742|49=INITIATOR3|52=20190603-11:32:45.128|56=ACCEPTOR|98=0|108=20|553=USERNAME|554=PASSWORD|1137=7|10=234|8=FIXT.1.1|9=108|35=A|34=743|49=INITIATOR3|52=20190603-11:33:15.158|56=ACCEPTOR|98=0|108=20|553=USERNAME|554=PASSWORD|1137=7|10=236|8=FIXT.1.1|9=108|35=A|34=744|49=INITIATOR3|52=20190603-11:33:45.189|56=ACCEPTOR|98=0|108=20|553=USERNAME|554=PASSWORD|1137=7|10=244|8=FIXT.1.1|9=108|35=A|34=745|49=INITIATOR3|52=20190603-11:34:15.221|56=ACCEPTOR|98=0|108=20|553=USERNAME|554=PASSWORD|1137=7|10=230|8=FIXT.1.1|9=108|35=A|34=746|49=INITIATOR3|52=20190603-11:34:45.253|56=ACCEPTOR|98=0|108=20|553=USERNAME|554=PASSWORD|1137=7|10=239|8=FIXT.1.1|9=108|35=A|34=747|49=INITIATOR3|52=20190603-11:35:15.281|56=ACCEPTOR|98=0|108=20|553=USERNAME|554=PASSWORD|1137=7|10=239|8=FIXT.1.1|9=108|35=A|34=748|49=INITIATOR3|52=20190603-11:35:45.312|56=ACCEPTOR|98=0|108=20|553=USERNAME|554=PASSWORD|1137=7|10=238|8=FIXT.1.1|9=108|35=A|34=749|49=INITIATOR3|52=20190603-11:36:15.343|56=ACCEPTOR|98=0|108=20|553=USERNAME|554=PASSWORD|1137=7|10=241|8=FIXT.1.1|9=108|35=A|34=750|49=INITIATOR3|52=20190603-11:36:45.374|56=ACCEPTOR|98=0|108=20|553=USERNAME|554=PASSWORD|1137=7|10=240|8=FIXT.1.1|9=108|35=A|34=751|49=INITIATOR3|52=20190603-11:37:15.406|56=ACCEPTOR|98=0|108=20|553=USERNAME|554=PASSWORD|1137=7|10=235|8=FIXT.1.1|9=108|35=A|34=752|49=INITIATOR3|52=20190603-11:37:45.438|56=ACCEPTOR|98=0|108=20|553=USERNAME|554=PASSWORD|1137=7|10=244|8=FIXT.1.1|9=108|35=A|34=753|49=INITIATOR3|52=20190603-11:38:15.469|56=ACCEPTOR|98=0|108=20|553=USERNAME|554=PASSWORD|1137=7|10=247|8=FIXT.1.1|9=108|35=A|34=754|49=INITIATOR3|52=20190603-11:38:45.496|56=ACCEPTOR|98=0|108=20|553=USERNAME|554=PASSWORD|1137=7|10=251|8=FIXT.1.1|9=108|35=A|34=755|49=INITIATOR3|52=20190603-11:39:15.569|56=ACCEPTOR|98=0|108=20|553=USERNAME|554=PASSWORD|1137=7|10=251|8=FIXT.1.1|9=108|35=A|34=756|49=INITIATOR3|52=20190603-11:39:45.598|56=ACCEPTOR|98=0|108=20|553=USERNAME|554=PASSWORD|1137=7|10=001|8=FIXT.1.1|9=108|35=A|34=757|49=INITIATOR3|52=20190603-11:40:15.628|56=ACCEPTOR|98=0|108=20|553=USERNAME|554=PASSWORD|1137=7|10=241|8=FIXT.1.1|9=108|35=A|34=758|49=INITIATOR3|52=20190603-11:40:45.657|56=ACCEPTOR|98=0|108=20|553=USERNAME|554=PASSWORD|1137=7|10=247|8=FIXT.1.1|9=108|35=A|34=759|49=INITIATOR3|52=20190603-11:41:15.689|56=ACCEPTOR|98=0|108=20|553=USERNAME|554=PASSWORD|1137=7|10=251|8=FIXT.1.1|9=108|35=A|34=760|49=INITIATOR3|52=20190603-11:41:45.721|56=ACCEPTOR|98=0|108=20|553=USERNAME|554=PASSWORD|1137=7|10=233|8=FIXT.1.1|9=108|35=A|34=761|49=INITIATOR3|52=20190603-11:42:15.750|56=ACCEPTOR|98=0|108=20|553=USERNAME|554=PASSWORD|1137=7|10=234|8=FIXT.1.1|9=108|35=A|34=762|49=INITIATOR3|52=20190603-11:42:45.781|56=ACCEPTOR|98=0|108=20|553=USERNAME|554=PASSWORD|1137=7|10=242|8=FIXT.1.1|9=108|35=A|34=763|49=INITIATOR3|52=20190603-11:43:15.812|56=ACCEPTOR|98=0|108=20|553=USERNAME|554=PASSWORD|1137=7|10=236|8=FIXT.1.1|9=108|35=A|34=764|49=INITIATOR3|52=20190603-11:43:45.843|56=ACCEPTOR|98=0|108=20|553=USERNAME|554=PASSWORD|1137=7|10=244|8=FIXT.1.1|9=108|35=A|34=765|49=INITIATOR3|52=20190603-11:44:15.873|56=ACCEPTOR|98=0|108=20|553=USERNAME|554=PASSWORD|1137=7|10=246|8=FIXT.1.1|9=108|35=A|34=766|49=INITIATOR3|52=20190603-11:44:45.906|56=ACCEPTOR|98=0|108=20|553=USERNAME|554=PASSWORD|1137=7|10=247|8=FIXT.1.1|9=108|35=A|34=767|49=INITIATOR3|52=20190603-11:45:15.938|56=ACCEPTOR|98=0|108=20|553=USERNAME|554=PASSWORD|1137=7|10=251|8=FIXT.1.1|9=108|35=A|34=768|49=INITIATOR3|52=20190603-11:45:45.969|56=ACCEPTOR|98=0|108=20|553=USERNAME|554=PASSWORD|1137=7|10=003|8=FIXT.1.1|9=108|35=A|34=769|49=INITIATOR3|52=20190603-11:46:15.998|56=ACCEPTOR|98=0|108=20|553=USERNAME|554=PASSWORD|1137=7|10=004|8=FIXT.1.1|9=108|35=A|34=770|49=INITIATOR3|52=20190603-11:46:45.029|56=ACCEPTOR|98=0|108=20|553=USERNAME|554=PASSWORD|1137=7|10=240|8=FIXT.1.1|9=108|35=A|34=771|49=INITIATOR3|52=20190603-11:47:15.060|56=ACCEPTOR|98=0|108=20|553=USERNAME|554=PASSWORD|1137=7|10=234|8=FIXT.1.1|9=108|35=A|34=772|49=INITIATOR3|52=20190603-11:47:45.091|56=ACCEPTOR|98=0|108=20|553=USERNAME|554=PASSWORD|1137=7|10=242|8=FIXT.1.1|9=108|35=A|34=773|49=INITIATOR3|52=20190603-11:48:15.125|56=ACCEPTOR|98=0|108=20|553=USERNAME|554=PASSWORD|1137=7|10=239|8=FIXT.1.1|9=108|35=A|34=774|49=INITIATOR3|52=20190603-11:48:45.154|56=ACCEPTOR|98=0|108=20|553=USERNAME|554=PASSWORD|1137=7|10=245|8=FIXT.1.1|9=108|35=A|34=775|49=INITIATOR3|52=20190603-11:49:15.185|56=ACCEPTOR|98=0|108=20|553=USERNAME|554=PASSWORD|1137=7|10=248|8=FIXT.1.1|9=108|35=A|34=776|49=INITIATOR3|52=20190603-11:49:45.217|56=ACCEPTOR|98=0|108=20|553=USERNAME|554=PASSWORD|1137=7|10=248|8=FIXT.1.1|9=108|35=A|34=777|49=INITIATOR3|52=20190603-11:50:15.246|56=ACCEPTOR|98=0|108=20|553=USERNAME|554=PASSWORD|1137=7|10=240|8=FIXT.1.1|9=108|35=A|34=778|49=INITIATOR3|52=20190603-11:50:45.276|56=ACCEPTOR|98=0|108=20|553=USERNAME|554=PASSWORD|1137=7|10=247|8=FIXT.1.1|9=108|35=A|34=779|49=INITIATOR3|52=20190603-11:51:15.304|56=ACCEPTOR|98=0|108=20|553=USERNAME|554=PASSWORD|1137=7|10=238|8=FIXT.1.1|9=108|35=A|34=780|49=INITIATOR3|52=20190603-11:51:45.335|56=ACCEPTOR|98=0|108=20|553=USERNAME|554=PASSWORD|1137=7|10=237|8=FIXT.1.1|9=108|35=A|34=781|49=INITIATOR3|52=20190603-11:52:15.365|56=ACCEPTOR|98=0|108=20|553=USERNAME|554=PASSWORD|1137=7|10=239|8=FIXT.1.1|9=108|35=A|34=782|49=INITIATOR3|52=20190603-11:52:45.397|56=ACCEPTOR|98=0|108=20|553=USERNAME|554=PASSWORD|1137=7|10=248|8=FIXT.1.1|9=108|35=A|34=783|49=INITIATOR3|52=20190603-11:53:15.426|56=ACCEPTOR|98=0|108=20|553=USERNAME|554=PASSWORD|1137=7|10=240|8=FIXT.1.1|9=108|35=A|34=784|49=INITIATOR3|52=20190603-11:53:45.455|56=ACCEPTOR|98=0|108=20|553=USERNAME|554=PASSWORD|1137=7|10=246|8=FIXT.1.1|9=108|35=A|34=785|49=INITIATOR3|52=20190603-11:54:15.485|56=ACCEPTOR|98=0|108=20|553=USERNAME|554=PASSWORD|1137=7|10=248|8=FIXT.1.1|9=108|35=A|34=786|49=INITIATOR3|52=20190603-11:54:45.513|56=ACCEPTOR|98=0|108=20|553=USERNAME|554=PASSWORD|1137=7|10=244|8=FIXT.1.1|9=108|35=A|34=787|49=INITIATOR3|52=20190603-11:55:15.539|56=ACCEPTOR|98=0|108=20|553=USERNAME|554=PASSWORD|1137=7|10=251|8=FIXT.1.1|9=108|35=A|34=788|49=INITIATOR3|52=20190603-11:55:45.568|56=ACCEPTOR|98=0|108=20|553=USERNAME|554=PASSWORD|1137=7|10=001|8=FIXT.1.1|9=108|35=A|34=789|49=INITIATOR3|52=20190603-11:56:15.599|56=ACCEPTOR|98=0|108=20|553=USERNAME|554=PASSWORD|1137=7|10=004|8=FIXT.1.1|9=108|35=A|34=790|49=INITIATOR3|52=20190603-11:56:45.631|56=ACCEPTOR|98=0|108=20|553=USERNAME|554=PASSWORD|1137=7|10=242|8=FIXT.1.1|9=108|35=A|34=791|49=INITIATOR3|52=20190603-11:57:15.662|56=ACCEPTOR|98=0|108=20|553=USERNAME|554=PASSWORD|1137=7|10=245|8=FIXT.1.1|9=108|35=A|34=792|49=INITIATOR3|52=20190603-11:57:45.690|56=ACCEPTOR|98=0|108=20|553=USERNAME|554=PASSWORD|1137=7|10=250|8=FIXT.1.1|9=108|35=A|34=793|49=INITIATOR3|52=20190603-11:58:15.719|56=ACCEPTOR|98=0|108=20|553=USERNAME|554=PASSWORD|1137=7|10=251|8=FIXT.1.1|9=108|35=A|34=794|49=INITIATOR3|52=20190603-11:58:45.748|56=ACCEPTOR|98=0|108=20|553=USERNAME|554=PASSWORD|1137=7|10=001|8=FIXT.1.1|9=108|35=A|34=795|49=INITIATOR3|52=20190603-11:59:15.777|56=ACCEPTOR|98=0|108=20|553=USERNAME|554=PASSWORD|1137=7|10=002|8=FIXT.1.1|9=108|35=A|34=796|49=INITIATOR3|52=20190603-11:59:45.806|56=ACCEPTOR|98=0|108=20|553=USERNAME|554=PASSWORD|1137=7|10=255|8=FIXT.1.1|9=108|35=A|34=797|49=INITIATOR3|52=20190603-12:00:15.836|56=ACCEPTOR|98=0|108=20|553=USERNAME|554=PASSWORD|1137=7|10=243|8=FIXT.1.1|9=108|35=A|34=798|49=INITIATOR3|52=20190603-12:00:45.864|56=ACCEPTOR|98=0|108=20|553=USERNAME|554=PASSWORD|1137=7|10=248|8=FIXT.1.1|9=108|35=A|34=799|49=INITIATOR3|52=20190603-12:01:15.894|56=ACCEPTOR|98=0|108=20|553=USERNAME|554=PASSWORD|1137=7|10=250|8=FIXT.1.1|9=108|35=A|34=800|49=INITIATOR3|52=20190603-12:01:45.922|56=ACCEPTOR|98=0|108=20|553=USERNAME|554=PASSWORD|1137=7|10=228|8=FIXT.1.1|9=108|35=A|34=801|49=INITIATOR3|52=20190603-12:02:15.954|56=ACCEPTOR|98=0|108=20|553=USERNAME|554=PASSWORD|1137=7|10=232|8=FIXT.1.1|9=108|35=A|34=802|49=INITIATOR3|52=20190603-12:02:45.986|56=ACCEPTOR|98=0