8=FIXT.1.1|9=105|35=A|34=1|49=INITIATOR|52=20190613-11:59:58.949|56=ACCEPTOR|98=0|108=20|553=USERNAME|554=PASSWORD|1137=7|10=097|8=FIXT.1.1|9=109|35=3|34=2|49=INITIATOR|52=20190613-12:00:10.110|56=ACCEPTOR|45=2|58=Invalid tag number|371=2520|372=AR|373=0|10=178|8=FIXT.1.1|9=109|35=3|34=3|49=INITIATOR|52=20190613-12:00:20.192|56=ACCEPTOR|45=3|58=Invalid tag number|371=2520|372=AR|373=0|10=191|8=FIXT.1.1|9=69|35=1|34=4|49=INITIATOR|52=20190613-12:00:23.974|56=ACCEPTOR|112=TEST|10=069|8=FIXT.1.1|9=105|35=A|34=5|49=INITIATOR|52=20190613-14:02:07.408|56=ACCEPTOR|98=0|108=20|553=USERNAME|554=PASSWORD|1137=7|10=076|8=FIXT.1.1|9=109|35=3|34=6|49=INITIATOR|52=20190613-14:02:18.438|56=ACCEPTOR|45=6|58=Invalid tag number|371=2520|372=AR|373=0|10=211|8=FIXT.1.1|9=109|35=3|34=7|49=INITIATOR|52=20190613-14:02:28.418|56=ACCEPTOR|45=7|58=Invalid tag number|371=2520|372=AR|373=0|10=212|8=FIXT.1.1|9=69|35=1|34=8|49=INITIATOR|52=20190613-14:02:31.522|56=ACCEPTOR|112=TEST|10=065|8=FIXT.1.1|9=109|35=3|34=9|49=INITIATOR|52=20190613-14:02:38.458|56=ACCEPTOR|45=9|58=Invalid tag number|371=2520|372=AR|373=0|10=221|8=FIXT.1.1|9=111|35=3|34=10|49=INITIATOR|52=20190613-14:02:48.353|56=ACCEPTOR|45=10|58=Invalid tag number|371=2520|372=AR|373=0|10=033|8=FIXT.1.1|9=106|35=A|34=11|49=INITIATOR|52=20190613-14:11:05.831|56=ACCEPTOR|98=0|108=20|553=USERNAME|554=PASSWORD|1137=7|10=120|8=FIXT.1.1|9=106|35=A|34=12|49=INITIATOR|52=20190613-14:12:23.867|56=ACCEPTOR|98=0|108=20|553=USERNAME|554=PASSWORD|1137=7|10=131|8=FIXT.1.1|9=71|35=2|34=13|49=INITIATOR|52=20190613-14:12:24.424|56=ACCEPTOR|7=13|16=0|10=007|8=FIXT.1.1|9=61|35=0|34=14|49=INITIATOR|52=20190613-14:12:44.765|56=ACCEPTOR|10=097|8=FIXT.1.1|9=106|35=A|34=15|49=INITIATOR|52=20190613-14:13:50.283|56=ACCEPTOR|98=0|108=20|553=USERNAME|554=PASSWORD|1137=7|10=127|8=FIXT.1.1|9=71|35=2|34=16|49=INITIATOR|52=20190613-14:13:50.779|56=ACCEPTOR|7=27|16=0|10=028|8=FIXT.1.1|9=61|35=0|34=17|49=INITIATOR|52=20190613-14:14:10.303|56=ACCEPTOR|10=083|8=FIXT.1.1|9=61|35=0|34=18|49=INITIATOR|52=20190613-14:14:30.319|56=ACCEPTOR|10=093|8=FIXT.1.1|9=106|35=A|34=19|49=INITIATOR|52=20190613-14:14:50.375|56=ACCEPTOR|98=0|108=20|553=USERNAME|554=PASSWORD|1137=7|10=134|8=FIXT.1.1|9=71|35=2|34=20|49=INITIATOR|52=20190613-14:14:50.851|56=ACCEPTOR|7=53|16=0|10=014|