8=FIXT.1.1|9=157|35=D|34=1|49=INITIATOR|52=20190531-04:44:05.694|56=ACCEPTOR|11=0E0Z86K00000|22=1|38=200|40=2|48=06051GDX4|54=1|55=BAC|60=20190531-10:14:05.692|218=100|423=6|10=240|8=FIXT.1.1|9=105|35=A|34=2|49=INITIATOR|52=20190531-04:44:05.694|56=ACCEPTOR|98=0|108=20|553=USERNAME|554=PASSWORD|1137=7|10=082|8=FIXT.1.1|9=157|35=D|34=3|49=INITIATOR|52=20190531-04:55:43.343|56=ACCEPTOR|11=0E0Z86K00000|22=1|38=200|40=2|48=06051GDX4|54=1|55=BAC|60=20190531-10:25:43.340|218=100|423=6|10=231|8=FIXT.1.1|9=105|35=A|34=4|49=INITIATOR|52=20190531-04:55:43.343|56=ACCEPTOR|98=0|108=20|553=USERNAME|554=PASSWORD|1137=7|10=079|8=FIXT.1.1|9=60|35=0|34=5|49=INITIATOR|52=20190531-04:56:04.365|56=ACCEPTOR|10=046|8=FIXT.1.1|9=60|35=0|34=6|49=INITIATOR|52=20190531-04:56:24.385|56=ACCEPTOR|10=051|8=FIXT.1.1|9=60|35=0|34=7|49=INITIATOR|52=20190531-04:56:44.405|56=ACCEPTOR|10=047|