8=FIXT.1.1|9=157|35=D|34=1|49=INITIATOR|52=20190610-05:59:51.942|56=ACCEPTOR|11=0E0Z86K00000|22=1|38=200|40=2|48=06051GDX4|54=1|55=BAC|60=20190610-11:29:51.940|218=100|423=6|10=244|8=FIXT.1.1|9=105|35=A|34=2|49=INITIATOR|52=20190610-05:59:51.953|56=ACCEPTOR|98=0|108=20|553=USERNAME|554=PASSWORD|1137=7|10=086|8=FIXT.1.1|9=60|35=0|34=3|49=INITIATOR|52=20190610-06:00:13.005|56=ACCEPTOR|10=024|8=FIXT.1.1|9=60|35=0|34=4|49=INITIATOR|52=20190610-06:00:33.025|56=ACCEPTOR|10=029|8=FIXT.1.1|9=60|35=0|34=5|49=INITIATOR|52=20190610-06:00:53.043|56=ACCEPTOR|10=032|8=FIXT.1.1|9=60|35=0|34=6|49=INITIATOR|52=20190610-06:01:13.062|56=ACCEPTOR|10=031|8=FIXT.1.1|9=60|35=0|34=7|49=INITIATOR|52=20190610-06:01:33.083|56=ACCEPTOR|10=037|8=FIXT.1.1|9=60|35=0|34=8|49=INITIATOR|52=20190610-06:01:53.103|56=ACCEPTOR|10=033|8=FIXT.1.1|9=60|35=0|34=9|49=INITIATOR|52=20190610-06:02:13.122|56=ACCEPTOR|10=032|8=FIXT.1.1|9=61|35=0|34=10|49=INITIATOR|52=20190610-06:02:33.142|56=ACCEPTOR|10=077|8=FIXT.1.1|9=61|35=0|34=11|49=INITIATOR|52=20190610-06:02:53.161|56=ACCEPTOR|10=081|8=FIXT.1.1|9=61|35=0|34=12|49=INITIATOR|52=20190610-06:03:13.180|56=ACCEPTOR|10=080|8=FIXT.1.1|9=61|35=0|34=13|49=INITIATOR|52=20190610-06:03:33.199|56=ACCEPTOR|10=093|8=FIXT.1.1|9=61|35=0|34=14|49=INITIATOR|52=20190610-06:03:53.217|56=ACCEPTOR|10=087|8=FIXT.1.1|9=61|35=0|34=15|49=INITIATOR|52=20190610-06:04:13.237|56=ACCEPTOR|10=087|8=FIXT.1.1|9=61|35=0|34=16|49=INITIATOR|52=20190610-06:04:33.254|56=ACCEPTOR|10=089|8=FIXT.1.1|9=61|35=0|34=17|49=INITIATOR|52=20190610-06:04:53.275|56=ACCEPTOR|10=095|8=FIXT.1.1|9=61|35=0|34=18|49=INITIATOR|52=20190610-06:05:13.294|56=ACCEPTOR|10=094|8=FIXT.1.1|9=61|35=0|34=19|49=INITIATOR|52=20190610-06:05:33.297|56=ACCEPTOR|10=100|8=FIXT.1.1|9=61|35=0|34=20|49=INITIATOR|52=20190610-06:05:53.318|56=ACCEPTOR|10=088|8=FIXT.1.1|9=61|35=0|34=21|49=INITIATOR|52=20190610-06:06:13.338|56=ACCEPTOR|10=088|8=FIXT.1.1|9=158|35=D|34=22|49=INITIATOR|52=20190610-06:06:27.097|56=ACCEPTOR|11=0E0Z86K00000|22=1|38=200|40=2|48=06051GDX4|54=1|55=BAC|60=20190610-11:36:27.095|218=100|423=6|10=039|8=FIXT.1.1|9=106|35=A|34=23|49=INITIATOR|52=20190610-06:06:27.104|56=ACCEPTOR|98=0|108=20|553=USERNAME|554=PASSWORD|1137=7|10=122|8=FIXT.1.1|9=61|35=0|34=24|49=INITIATOR|52=20190610-06:06:48.122|56=ACCEPTOR|10=090|8=FIXT.1.1|9=61|35=0|34=25|49=INITIATOR|52=20190610-06:07:08.140|56=ACCEPTOR|10=088|8=FIXT.1.1|9=61|35=0|34=26|49=INITIATOR|52=20190610-06:07:28.160|56=ACCEPTOR|10=093|8=FIXT.1.1|9=61|35=0|34=27|49=INITIATOR|52=20190610-06:07:48.180|56=ACCEPTOR|10=098|8=FIXT.1.1|9=61|35=0|34=28|49=INITIATOR|52=20190610-06:08:08.200|56=ACCEPTOR|10=089|8=FIXT.1.1|9=61|35=0|34=29|49=INITIATOR|52=20190610-06:08:28.219|56=ACCEPTOR|10=102|8=FIXT.1.1|9=61|35=0|34=30|49=INITIATOR|52=20190610-06:08:48.239|56=ACCEPTOR|10=098|8=FIXT.1.1|9=61|35=0|34=31|49=INITIATOR|52=20190610-06:09:08.258|56=ACCEPTOR|10=097|8=FIXT.1.1|9=61|35=0|34=32|49=INITIATOR|52=20190610-06:09:28.278|56=ACCEPTOR|10=102|8=FIXT.1.1|9=61|35=0|34=33|49=INITIATOR|52=20190610-06:09:48.201|56=ACCEPTOR|10=091|8=FIXT.1.1|9=61|35=0|34=34|49=INITIATOR|52=20190610-06:10:08.319|56=ACCEPTOR|10=090|8=FIXT.1.1|9=61|35=0|34=35|49=INITIATOR|52=20190610-06:10:28.220|56=ACCEPTOR|10=084|8=FIXT.1.1|9=61|35=0|34=36|49=INITIATOR|52=20190610-06:10:48.352|56=ACCEPTOR|10=093|8=FIXT.1.1|9=61|35=0|34=37|49=INITIATOR|52=20190610-06:11:08.229|56=ACCEPTOR|10=094|8=FIXT.1.1|9=158|35=D|34=38|49=INITIATOR|52=20190610-06:11:48.881|56=ACCEPTOR|11=0E0Z86K00000|22=1|38=200|40=2|48=06051GDX4|54=1|55=BAC|60=20190610-11:41:48.867|218=100|423=6|10=052|8=FIXT.1.1|9=106|35=A|34=39|49=INITIATOR|52=20190610-06:11:48.890|56=ACCEPTOR|98=0|108=20|553=USERNAME|554=PASSWORD|1137=7|10=140|8=FIXT.1.1|9=61|35=0|34=40|49=INITIATOR|52=20190610-06:12:10.132|56=ACCEPTOR|10=075|8=FIXT.1.1|9=61|35=0|34=41|49=INITIATOR|52=20190610-06:12:30.948|56=ACCEPTOR|10=093|8=FIXT.1.1|9=61|35=0|34=42|49=INITIATOR|52=20190610-06:12:50.968|56=ACCEPTOR|10=098|8=FIXT.1.1|9=61|35=0|34=43|49=INITIATOR|52=20190610-06:13:10.986|56=ACCEPTOR|10=096|8=FIXT.1.1|9=61|35=0|34=44|49=INITIATOR|52=20190610-06:13:30.004|56=ACCEPTOR|10=080|8=FIXT.1.1|9=61|35=0|34=45|49=INITIATOR|52=20190610-06:13:50.023|56=ACCEPTOR|10=084|8=FIXT.1.1|9=61|35=0|34=46|49=INITIATOR|52=20190610-06:14:10.043|56=ACCEPTOR|10=084|8=FIXT.1.1|9=61|35=0|34=47|49=INITIATOR|52=20190610-06:14:30.063|56=ACCEPTOR|10=089|8=FIXT.1.1|9=61|35=0|34=48|49=INITIATOR|52=20190610-06:14:50.082|56=ACCEPTOR|10=093|8=FIXT.1.1|9=61|35=0|34=49|49=INITIATOR|52=20190610-06:15:10.058|56=ACCEPTOR|10=094|8=FIXT.1.1|9=61|35=0|34=50|49=INITIATOR|52=20190610-06:15:30.122|56=ACCEPTOR|10=080|8=FIXT.1.1|9=61|35=0|34=51|49=INITIATOR|52=20190610-06:15:50.068|56=ACCEPTOR|10=092|8=FIXT.1.1|9=61|35=0|34=52|49=INITIATOR|52=20190610-06:16:10.161|56=ACCEPTOR|10=084|8=FIXT.1.1|9=61|35=0|34=53|49=INITIATOR|52=20190610-06:16:30.181|56=ACCEPTOR|10=089|8=FIXT.1.1|9=257|35=AE|34=54|49=INITIATOR|52=20190610-06:16:37.047|56=ACCEPTOR|15=CNY|22=4|30=SINT|31=23|32=12|48=0X1213|55=BAC|60=20190605-15:43:07.189|75=20190605|423=1|552=2|54=1|54=2|856=0|1003=1xsasdfdf|1116=2|1117=12|1118=G|1119=3|1117=10|1118=E|1119=3|1924=1|1934=11|10=248|8=FIXT.1.1|9=61|35=0|34=55|49=INITIATOR|52=20190610-06:16:57.208|56=ACCEPTOR|10=100|8=FIXT.1.1|9=61|35=0|34=56|49=INITIATOR|52=20190610-06:17:17.227|56=ACCEPTOR|10=099|8=FIXT.1.1|9=61|35=0|34=57|49=INITIATOR|52=20190610-06:17:37.246|56=ACCEPTOR|10=103|8=FIXT.1.1|9=61|35=0|34=58|49=INITIATOR|52=20190610-06:17:57.265|56=ACCEPTOR|10=107|8=FIXT.1.1|9=61|35=0|34=59|49=INITIATOR|52=20190610-06:18:17.286|56=ACCEPTOR|10=108|8=FIXT.1.1|9=61|35=0|34=60|49=INITIATOR|52=20190610-06:18:37.305|56=ACCEPTOR|10=094|8=FIXT.1.1|9=61|35=0|34=61|49=INITIATOR|52=20190610-06:18:57.324|56=ACCEPTOR|10=098|8=FIXT.1.1|9=158|35=D|34=62|49=INITIATOR|52=20190610-06:19:16.701|56=ACCEPTOR|11=0E0Z86K00000|22=1|38=200|40=2|48=06051GDX4|54=1|55=BAC|60=20190610-11:49:16.699|218=100|423=6|10=049|8=FIXT.1.1|9=106|35=A|34=63|49=INITIATOR|52=20190610-06:19:16.710|56=ACCEPTOR|98=0|108=20|553=USERNAME|554=PASSWORD|1137=7|10=131|8=FIXT.1.1|9=257|35=AE|34=64|49=INITIATOR|52=20190610-06:19:22.571|56=ACCEPTOR|15=CNY|22=4|30=SINT|31=23|32=12|48=0X1213|55=BAC|60=20190605-15:43:07.189|75=20190605|423=1|552=2|54=1|54=2|856=0|1003=1xsasdfdf|1116=2|1117=12|1118=G|1119=3|1117=10|1118=E|1119=3|1924=1|1934=11|10=248|8=FIXT.1.1|9=61|35=0|34=65|49=INITIATOR|52=20190610-06:19:42.736|56=ACCEPTOR|10=104|8=FIXT.1.1|9=61|35=0|34=66|49=INITIATOR|52=20190610-06:20:02.756|56=ACCEPTOR|10=095|8=FIXT.1.1|9=61|35=0|34=67|49=INITIATOR|52=20190610-06:20:22.776|56=ACCEPTOR|10=100|8=FIXT.1.1|9=61|35=0|34=68|49=INITIATOR|52=20190610-06:20:42.797|56=ACCEPTOR|10=106|8=FIXT.1.1|9=61|35=0|34=69|49=INITIATOR|52=20190610-06:21:02.816|56=ACCEPTOR|10=096|8=FIXT.1.1|9=61|35=0|34=70|49=INITIATOR|52=20190610-06:21:22.837|56=ACCEPTOR|10=093|8=FIXT.1.1|9=61|35=0|34=71|49=INITIATOR|52=20190610-06:21:42.855|56=ACCEPTOR|10=096|8=FIXT.1.1|9=61|35=0|34=72|49=INITIATOR|52=20190610-06:22:02.875|56=ACCEPTOR|10=096|8=FIXT.1.1|9=61|35=0|34=73|49=INITIATOR|52=20190610-06:22:22.894|56=ACCEPTOR|10=100|8=FIXT.1.1|9=61|35=0|34=74|49=INITIATOR|52=20190610-06:22:42.914|56=ACCEPTOR|10=096|8=FIXT.1.1|9=61|35=0|34=75|49=INITIATOR|52=20190610-06:23:02.932|56=ACCEPTOR|10=094|8=FIXT.1.1|9=61|35=0|34=76|49=INITIATOR|52=20190610-06:23:22.952|56=ACCEPTOR|10=099|8=FIXT.1.1|9=61|35=0|34=77|49=INITIATOR|52=20190610-06:23:42.972|56=ACCEPTOR|10=104|8=FIXT.1.1|9=61|35=0|34=78|49=INITIATOR|52=20190610-06:24:02.991|56=ACCEPTOR|10=103|8=FIXT.1.1|9=61|35=0|34=79|49=INITIATOR|52=20190610-06:24:22.010|56=ACCEPTOR|10=088|8=FIXT.1.1|9=61|35=0|34=80|49=INITIATOR|52=20190610-06:24:42.029|56=ACCEPTOR|10=092|8=FIXT.1.1|9=61|35=0|34=81|49=INITIATOR|52=20190610-06:25:02.048|56=ACCEPTOR|10=091|8=FIXT.1.1|9=61|35=0|34=82|49=INITIATOR|52=20190610-06:25:22.067|56=ACCEPTOR|10=095|8=FIXT.1.1|9=61|35=0|34=83|49=INITIATOR|52=20190610-06:25:42.087|56=ACCEPTOR|10=100|8=FIXT.1.1|9=61|35=0|34=84|49=INITIATOR|52=20190610-06:26:02.107|56=ACCEPTOR|10=091|8=FIXT.1.1|9=158|35=D|34=85|49=INITIATOR|52=20190610-06:28:26.106|56=ACCEPTOR|11=0E0Z86K00000|22=1|38=200|40=2|48=06051GDX4|54=1|55=BAC|60=20190610-11:58:26.104|218=100|423=6|10=036|8=FIXT.1.1|9=106|35=A|34=86|49=INITIATOR|52=20190610-06:28:26.107|56=ACCEPTOR|98=0|108=20|553=USERNAME|554=PASSWORD|1137=7|10=137|8=FIXT.1.1|9=61|35=0|34=87|49=INITIATOR|52=20190610-06:28:47.127|56=ACCEPTOR|10=107|8=FIXT.1.1|9=61|35=0|34=88|49=INITIATOR|52=20190610-06:29:07.147|56=ACCEPTOR|10=107|8=FIXT.1.1|9=61|35=0|34=89|49=INITIATOR|52=20190610-06:29:27.168|56=ACCEPTOR|10=113|8=FIXT.1.1|9=61|35=0|34=90|49=INITIATOR|52=20190610-06:29:47.188|56=ACCEPTOR|10=109|8=FIXT.1.1|9=61|35=0|34=91|49=INITIATOR|52=20190610-06:30:07.208|56=ACCEPTOR|10=091|8=FIXT.1.1|9=61|35=0|34=92|49=INITIATOR|52=20190610-06:30:27.227|56=ACCEPTOR|10=095|8=FIXT.1.1|9=61|35=0|34=93|49=INITIATOR|52=20190610-06:30:47.244|56=ACCEPTOR|10=097|8=FIXT.1.1|9=61|35=0|34=94|49=INITIATOR|52=20190610-06:31:07.263|56=ACCEPTOR|10=096|8=FIXT.1.1|9=158|35=D|34=95|49=INITIATOR|52=20190610-06:35:36.588|56=ACCEPTOR|11=0E0Z86K00000|22=1|38=200|40=2|48=06051GDX4|54=1|55=BAC|60=20190610-12:05:36.585|218=100|423=6|10=057|8=FIXT.1.1|9=106|35=A|34=96|49=INITIATOR|52=20190610-06:35:36.604|56=ACCEPTOR|98=0|108=20|553=USERNAME|554=PASSWORD|1137=7|10=139|8=FIXT.1.1|9=158|35=D|34=97|49=INITIATOR|52=20190610-06:39:48.413|56=ACCEPTOR|11=0E0Z86K00000|22=1|38=200|40=2|48=06051GDX4|54=1|55=BAC|60=20190610-12:09:48.411|218=100|423=6|10=048|8=FIXT.1.1|9=106|35=A|34=98|49=INITIATOR|52=20190610-06:39:48.414|56=ACCEPTOR|98=0|108=20|553=USERNAME|554=PASSWORD|1137=7|10=147|8=FIXT.1.1|9=257|35=AE|34=99|49=INITIATOR|52=20190610-06:39:53.910|56=ACCEPTOR|15=CNY|22=4|30=SINT|31=23|32=12|48=0X1213|55=BAC|60=20190605-15:43:07.189|75=20190605|423=1|552=2|54=1|54=2|856=0|1003=1xsasdfdf|1116=2|1117=12|1118=G|1119=3|1117=10|1118=E|1119=3|1924=1|1934=11|10=003|8=FIXT.1.1|9=62|35=0|34=100|49=INITIATOR|52=20190610-06:40:13.437|56=ACCEPTOR|10=133|8=FIXT.1.1|9=159|35=D|34=101|49=INITIATOR|52=20190610-06:48:34.903|56=ACCEPTOR|11=0E0Z86K00000|22=1|38=200|40=2|48=06051GDX4|54=1|55=BAC|60=20190610-12:18:34.900|218=100|423=6|10=080|8=FIXT.1.1|9=107|35=A|34=102|49=INITIATOR|52=20190610-06:48:34.907|56=ACCEPTOR|98=0|108=20|553=USERNAME|554=PASSWORD|1137=7|10=184|8=FIXT.1.1|9=258|35=AE|34=103|49=INITIATOR|52=20190610-06:48:43.315|56=ACCEPTOR|15=CNY|22=4|30=SINT|31=23|32=12|48=0X1213|55=BAC|60=20190605-15:43:07.189|75=20190605|423=1|552=2|54=1|54=2|856=0|1003=1xsasdfdf|1116=2|1117=12|1118=G|1119=3|1117=10|1118=E|1119=3|1924=1|1934=11|10=036|8=FIXT.1.1|9=159|35=D|34=104|49=INITIATOR|52=20190610-06:49:30.056|56=ACCEPTOR|11=0E0Z86K00000|22=1|38=200|40=2|48=06051GDX4|54=1|55=BAC|60=20190610-12:19:30.053|218=100|423=6|10=075|8=FIXT.1.1|9=107|35=A|34=105|49=INITIATOR|52=20190610-06:49:30.061|56=ACCEPTOR|98=0|108=20|553=USERNAME|554=PASSWORD|1137=7|10=175|8=FIXT.1.1|9=159|35=D|34=106|49=INITIATOR|52=20190610-06:49:55.063|56=ACCEPTOR|11=0E0Z86K00000|22=1|38=200|40=2|48=06051GDX4|54=1|55=BAC|60=20190610-12:19:55.061|218=100|423=6|10=088|8=FIXT.1.1|9=107|35=A|34=107|49=INITIATOR|52=20190610-06:49:55.065|56=ACCEPTOR|98=0|108=20|553=USERNAME|554=PASSWORD|1137=7|10=188|8=FIXT.1.1|9=159|35=D|34=108|49=INITIATOR|52=20190610-06:58:54.013|56=ACCEPTOR|11=0E0Z86K00000|22=1|38=200|40=2|48=06051GDX4|54=1|55=BAC|60=20190610-12:28:54.011|218=100|423=6|10=078|8=FIXT.1.1|9=107|35=A|34=109|49=INITIATOR|52=20190610-06:58:54.022|56=ACCEPTOR|98=0|108=20|553=USERNAME|554=PASSWORD|1137=7|10=182|8=FIXT.1.1|9=159|35=D|34=110|49=INITIATOR|52=20190610-07:05:22.389|56=ACCEPTOR|11=0E0Z86K00000|22=1|38=200|40=2|48=06051GDX4|54=1|55=BAC|60=20190610-12:35:22.384|218=100|423=6|10=081|8=FIXT.1.1|9=107|35=A|34=111|49=INITIATOR|52=20190610-07:05:22.396|56=ACCEPTOR|98=0|108=20|553=USERNAME|554=PASSWORD|1137=7|10=177|8=FIXT.1.1|9=258|35=AE|34=112|49=INITIATOR|52=20190610-07:05:29.265|56=ACCEPTOR|15=CNY|22=4|30=SINT|31=23|32=12|48=0X1213|55=BAC|60=20190605-15:43:07.189|75=20190605|423=1|552=2|54=1|54=2|856=0|1003=1xsasdfdf|1116=2|1117=12|1118=G|1119=3|1117=10|1118=E|1119=3|1924=1|1934=11|10=038|8=FIXT.1.1|9=62|35=0|34=113|49=INITIATOR|52=20190610-07:05:49.458|56=ACCEPTOR|10=151|8=FIXT.1.1|9=62|35=0|34=114|49=INITIATOR|52=20190610-07:06:09.477|56=ACCEPTOR|10=150|8=FIXT.1.1|9=62|35=0|34=115|49=INITIATOR|52=20190610-07:06:29.495|56=ACCEPTOR|10=153|8=FIXT.1.1|9=62|35=0|34=116|49=INITIATOR|52=20190610-07:06:49.515|56=ACCEPTOR|10=149|8=FIXT.1.1|9=62|35=0|34=117|49=INITIATOR|52=20190610-07:07:09.535|56=ACCEPTOR|10=149|8=FIXT.1.1|9=62|35=0|34=118|49=INITIATOR|52=20190610-07:07:29.556|56=ACCEPTOR|10=155|8=FIXT.1.1|9=62|35=0|34=119|49=INITIATOR|52=20190610-07:07:49.575|56=ACCEPTOR|10=159|8=FIXT.1.1|9=62|35=0|34=120|49=INITIATOR|52=20190610-07:08:09.594|56=ACCEPTOR|10=149|8=FIXT.1.1|9=62|35=0|34=121|49=INITIATOR|52=20190610-07:08:29.613|56=ACCEPTOR|10=144|8=FIXT.1.1|9=159|35=D|34=122|49=INITIATOR|52=20190610-07:09:00.381|56=ACCEPTOR|11=0E0Z86K00000|22=1|38=200|40=2|48=06051GDX4|54=1|55=BAC|60=20190610-12:39:00.379|218=100|423=6|10=080|8=FIXT.1.1|9=107|35=A|34=123|49=INITIATOR|52=20190610-07:09:00.385|56=ACCEPTOR|98=0|108=20|553=USERNAME|554=PASSWORD|1137=7|10=178|8=FIXT.1.1|9=258|35=AE|34=124|49=INITIATOR|52=20190610-07:09:05.532|56=ACCEPTOR|15=CNY|22=4|30=SINT|31=23|32=12|48=0X1213|55=BAC|60=20190605-15:43:07.189|75=20190605|423=1|552=2|54=1|54=2|856=0|1003=1xsasdfdf|1116=2|1117=12|1118=G|1119=3|1117=10|1118=E|1119=3|1924=1|1934=11|10=036|8=FIXT.1.1|9=159|35=D|34=125|49=INITIATOR|52=20190610-07:10:26.333|56=ACCEPTOR|11=0E0Z86K00000|22=1|38=200|40=2|48=06051GDX4|54=1|55=BAC|60=20190610-12:40:26.331|218=100|423=6|10=068|8=FIXT.1.1|9=107|35=A|34=126|49=INITIATOR|52=20190610-07:10:26.336|56=ACCEPTOR|98=0|108=20|553=USERNAME|554=PASSWORD|1137=7|10=177|8=FIXT.1.1|9=159|35=D|34=127|49=INITIATOR|52=20190610-07:50:58.096|56=ACCEPTOR|11=0E0Z86K00000|22=1|38=200|40=2|48=06051GDX4|54=1|55=BAC|60=20190610-13:20:58.094|218=100|423=6|10=095|8=FIXT.1.1|9=107|35=A|34=128|49=INITIATOR|52=20190610-07:50:58.101|56=ACCEPTOR|98=0|108=20|553=USERNAME|554=PASSWORD|1137=7|10=178|8=FIXT.1.1|9=62|35=0|34=129|49=INITIATOR|52=20190610-07:51:20.122|56=ACCEPTOR|10=136|8=FIXT.1.1|9=62|35=0|34=130|49=INITIATOR|52=20190610-07:51:40.140|56=ACCEPTOR|10=130|8=FIXT.1.1|9=62|35=0|34=131|49=INITIATOR|52=20190610-07:52:00.158|56=ACCEPTOR|10=137|8=FIXT.1.1|9=159|35=D|34=132|49=INITIATOR|52=20190610-07:55:29.347|56=ACCEPTOR|11=0E0Z86K00000|22=1|38=200|40=2|48=06051GDX4|54=1|55=BAC|60=20190610-13:25:29.346|218=100|423=6|10=096|8=FIXT.1.1|9=107|35=A|34=133|49=INITIATOR|52=20190610-07:55:29.357|56=ACCEPTOR|98=0|108=20|553=USERNAME|554=PASSWORD|1137=7|10=190|8=FIXT.1.1|9=159|35=D|34=134|49=INITIATOR|52=20190610-07:56:55.329|56=ACCEPTOR|11=0E0Z86K00000|22=1|38=200|40=2|48=06051GDX4|54=1|55=BAC|60=20190610-13:26:55.328|218=100|423=6|10=098|8=FIXT.1.1|9=107|35=A|34=135|49=INITIATOR|52=20190610-07:56:55.330|56=ACCEPTOR|98=0|108=20|553=USERNAME|554=PASSWORD|1137=7|10=183|8=FIXT.1.1|9=62|35=0|34=136|49=INITIATOR|52=20190610-07:57:16.351|56=ACCEPTOR|10=149|8=FIXT.1.1|9=62|35=0|34=137|49=INITIATOR|52=20190610-07:57:36.368|56=ACCEPTOR|10=160|8=FIXT.1.1|9=62|35=0|34=138|49=INITIATOR|52=20190610-07:57:56.389|56=ACCEPTOR|10=166|8=FIXT.1.1|9=62|35=0|34=139|49=INITIATOR|52=20190610-07:58:16.409|56=ACCEPTOR|10=157|8=FIXT.1.1|9=62|35=0|34=140|49=INITIATOR|52=20190610-07:58:36.428|56=ACCEPTOR|10=152|8=FIXT.1.1|9=62|35=0|34=141|49=INITIATOR|52=20190610-07:58:56.446|56=ACCEPTOR|10=155|8=FIXT.1.1|9=62|35=0|34=142|49=INITIATOR|52=20190610-07:59:16.464|56=ACCEPTOR|10=153|8=FIXT.1.1|9=62|35=0|34=143|49=INITIATOR|52=20190610-07:59:36.483|56=ACCEPTOR|10=157|8=FIXT.1.1|9=62|35=0|34=144|49=INITIATOR|52=20190610-07:59:56.502|56=ACCEPTOR|10=152|8=FIXT.1.1|9=62|35=0|34=145|49=INITIATOR|52=20190610-08:00:16.521|56=ACCEPTOR|10=137|8=FIXT.1.1|9=62|35=0|34=146|49=INITIATOR|52=20190610-08:00:36.541|56=ACCEPTOR|10=142|8=FIXT.1.1|9=159|35=D|34=147|49=INITIATOR|52=20190610-08:01:53.034|56=ACCEPTOR|11=0E0Z86K00000|22=1|38=200|40=2|48=06051GDX4|54=1|55=BAC|60=20190610-13:31:53.033|218=100|423=6|10=071|8=FIXT.1.1|9=107|35=A|34=148|49=INITIATOR|52=20190610-08:01:53.037|56=ACCEPTOR|98=0|108=20|553=USERNAME|554=PASSWORD|1137=7|10=180|8=FIXT.1.1|9=159|35=D|34=149|49=INITIATOR|52=20190610-08:19:08.597|56=ACCEPTOR|11=0E0Z86K00000|22=1|38=200|40=2|48=06051GDX4|54=1|55=BAC|60=20190610-13:49:08.593|218=100|423=6|10=116|8=FIXT.1.1|9=107|35=A|34=150|49=INITIATOR|52=20190610-08:19:08.601|56=ACCEPTOR|98=0|108=20|553=USERNAME|554=PASSWORD|1137=7|10=179|8=FIXT.1.1|9=62|35=0|34=151|49=INITIATOR|52=20190610-08:19:29.620|56=ACCEPTOR|10=148|8=FIXT.1.1|9=62|35=0|34=152|49=INITIATOR|52=20190610-08:19:49.640|56=ACCEPTOR|10=153|8=FIXT.1.1|9=62|35=0|34=153|49=INITIATOR|52=20190610-08:20:09.660|56=ACCEPTOR|10=144|8=FIXT.1.1|9=62|35=0|34=154|49=INITIATOR|52=20190610-08:20:29.680|56=ACCEPTOR|10=149|8=FIXT.1.1|9=62|35=0|34=155|49=INITIATOR|52=20190610-08:20:49.700|56=ACCEPTOR|10=145|8=FIXT.1.1|9=62|35=0|34=156|49=INITIATOR|52=20190610-08:21:09.301|56=ACCEPTOR|10=140|8=FIXT.1.1|9=159|35=D|34=157|49=INITIATOR|52=20190610-08:24:00.969|56=ACCEPTOR|11=0E0Z86K00000|22=1|38=200|40=2|48=06051GDX4|54=1|55=BAC|60=20190610-13:54:00.968|218=100|423=6|10=100|8=FIXT.1.1|9=107|35=A|34=158|49=INITIATOR|52=20190610-08:24:00.973|56=ACCEPTOR|98=0|108=20|553=USERNAME|554=PASSWORD|1137=7|10=187|8=FIXT.1.1|9=159|35=D|34=159|49=INITIATOR|52=20190610-08:25:59.318|56=ACCEPTOR|11=0E0Z86K00000|22=1|38=200|40=2|48=06051GDX4|54=1|55=BAC|60=20190610-13:55:59.313|218=100|423=6|10=104|8=FIXT.1.1|9=107|35=A|34=160|49=INITIATOR|52=20190610-08:25:59.319|56=ACCEPTOR|98=0|108=20|553=USERNAME|554=PASSWORD|1137=7|10=189|8=FIXT.1.1|9=62|35=0|34=161|49=INITIATOR|52=20190610-08:26:20.340|56=ACCEPTOR|10=137|8=FIXT.1.1|9=62|35=0|34=162|49=INITIATOR|52=20190610-08:26:40.360|56=ACCEPTOR|10=142|8=FIXT.1.1|9=62|35=0|34=163|49=INITIATOR|52=20190610-08:27:00.374|56=ACCEPTOR|10=145|8=FIXT.1.1|9=62|35=0|34=164|49=INITIATOR|52=20190610-08:27:20.394|56=ACCEPTOR|10=150|8=FIXT.1.1|9=159|35=D|34=165|49=INITIATOR|52=20190610-08:28:48.039|56=ACCEPTOR|11=0E0Z86K00000|22=1|38=200|40=2|48=06051GDX4|54=1|55=BAC|60=20190610-13:58:48.038|218=100|423=6|10=107|8=FIXT.1.1|9=107|35=A|34=166|49=INITIATOR|52=20190610-08:28:48.047|56=ACCEPTOR|98=0|108=20|553=USERNAME|554=PASSWORD|1137=7|10=194|8=FIXT.1.1|9=62|35=0|34=167|49=INITIATOR|52=20190610-08:29:09.068|56=ACCEPTOR|10=160|8=FIXT.1.1|9=159|35=D|34=168|49=INITIATOR|52=20190610-08:40:01.294|56=ACCEPTOR|11=0E0Z86K00000|22=1|38=200|40=2|48=06051GDX4|54=1|55=BAC|60=20190610-14:10:01.293|218=100|423=6|10=077|8=FIXT.1.1|9=107|35=A|34=169|49=INITIATOR|52=20190610-08:40:01.294|56=ACCEPTOR|98=0|108=20|553=USERNAME|554=PASSWORD|1137=7|10=184|8=FIXT.1.1|9=159|35=D|34=170|49=INITIATOR|52=20190610-08:46:31.254|56=ACCEPTOR|11=0E0Z86K00000|22=1|38=200|40=2|48=06051GDX4|54=1|55=BAC|60=20190610-14:16:31.249|218=100|423=6|10=085|8=FIXT.1.1|9=107|35=A|34=171|49=INITIATOR|52=20190610-08:46:31.263|56=ACCEPTOR|98=0|108=20|553=USERNAME|554=PASSWORD|1137=7|10=182|8=FIXT.1.1|9=62|35=0|34=172|49=INITIATOR|52=20190610-08:46:51.283|56=ACCEPTOR|10=151|8=FIXT.1.1|9=62|35=0|34=173|49=INITIATOR|52=20190610-08:47:11.303|56=ACCEPTOR|10=142|8=FIXT.1.1|9=62|35=0|34=174|49=INITIATOR|52=20190610-08:47:31.323|56=ACCEPTOR|10=147|8=FIXT.1.1|9=159|35=D|34=175|49=INITIATOR|52=20190610-08:53:49.573|56=ACCEPTOR|11=0E0Z86K00000|22=1|38=200|40=2|48=06051GDX4|54=1|55=BAC|60=20190610-14:23:49.572|218=100|423=6|10=107|8=FIXT.1.1|9=107|35=A|34=176|49=INITIATOR|52=20190610-08:53:49.578|56=ACCEPTOR|98=0|108=20|553=USERNAME|554=PASSWORD|1137=7|10=203|8=FIXT.1.1|9=62|35=0|34=177|49=INITIATOR|52=20190610-08:54:10.599|56=ACCEPTOR|10=160|8=FIXT.1.1|9=159|35=D|34=178|49=INITIATOR|52=20190610-09:04:23.809|56=ACCEPTOR|11=0E0Z86K00000|22=1|38=200|40=2|48=06051GDX4|54=1|55=BAC|60=20190610-14:34:23.805|218=100|423=6|10=094|8=FIXT.1.1|9=107|35=A|34=179|49=INITIATOR|52=20190610-09:04:23.818|56=ACCEPTOR|98=0|108=20|553=USERNAME|554=PASSWORD|1137=7|10=192|8=FIXT.1.1|9=159|35=D|34=180|49=INITIATOR|52=20190610-09:06:22.589|56=ACCEPTOR|11=0E0Z86K00000|22=1|38=200|40=2|48=06051GDX4|54=1|55=BAC|60=20190610-14:36:22.587|218=100|423=6|10=101|8=FIXT.1.1|9=107|35=A|34=181|49=INITIATOR|52=20190610-09:06:22.598|56=ACCEPTOR|98=0|108=20|553=USERNAME|554=PASSWORD|1137=7|10=191|8=FIXT.1.1|9=159|35=D|34=182|49=INITIATOR|52=20190610-09:13:26.781|56=ACCEPTOR|11=0E0Z86K00000|22=1|38=200|40=2|48=06051GDX4|54=1|55=BAC|60=20190610-14:43:26.779|218=100|423=6|10=104|8=FIXT.1.1|9=107|35=A|34=183|49=INITIATOR|52=20190610-09:13:26.790|56=ACCEPTOR|98=0|108=20|553=USERNAME|554=PASSWORD|1137=7|10=189|8=FIXT.1.1|9=62|35=5|34=184|49=INITIATOR|52=20190610-09:13:27.329|56=ACCEPTOR|10=158|8=FIXT.1.1|9=107|35=A|34=185|49=INITIATOR|52=20190610-09:13:27.329|56=ACCEPTOR|98=0|108=20|553=USERNAME|554=PASSWORD|1137=7|10=190|8=FIXT.1.1|9=107|35=A|34=186|49=INITIATOR|52=20190610-09:13:56.821|56=ACCEPTOR|98=0|108=20|553=USERNAME|554=PASSWORD|1137=7|10=190|8=FIXT.1.1|9=159|35=D|34=187|49=INITIATOR|52=20190610-09:20:04.359|56=ACCEPTOR|11=0E0Z86K00000|22=1|38=200|40=2|48=06051GDX4|54=1|55=BAC|60=20190610-14:50:04.357|218=100|423=6|10=090|8=FIXT.1.1|9=107|35=A|34=188|49=INITIATOR|52=20190610-09:20:04.365|56=ACCEPTOR|98=0|108=20|553=USERNAME|554=PASSWORD|1137=7|10=186|8=FIXT.1.1|9=258|35=AE|34=189|49=INITIATOR|52=20190610-09:20:11.863|56=ACCEPTOR|15=CNY|22=4|30=SINT|31=23|32=12|48=0X1213|55=BAC|60=20190605-15:43:07.189|75=20190605|423=1|552=2|54=1|54=2|856=0|1003=1xsasdfdf|1116=2|1117=12|1118=G|1119=3|1117=10|1118=E|1119=3|1924=1|1934=11|10=046|8=FIXT.1.1|9=62|35=0|34=190|49=INITIATOR|52=20190610-09:20:31.391|56=ACCEPTOR|10=142|8=FIXT.1.1|9=62|35=0|34=191|49=INITIATOR|52=20190610-09:20:51.410|56=ACCEPTOR|10=137|8=FIXT.1.1|9=62|35=0|34=192|49=INITIATOR|52=20190610-09:21:11.428|56=ACCEPTOR|10=144|8=FIXT.1.1|9=62|35=0|34=193|49=INITIATOR|52=20190610-09:21:31.446|56=ACCEPTOR|10=147|8=FIXT.1.1|9=62|35=0|34=194|49=INITIATOR|52=20190610-09:21:51.464|56=ACCEPTOR|10=150|8=FIXT.1.1|9=62|35=0|34=195|49=INITIATOR|52=20190610-09:22:11.483|56=ACCEPTOR|10=149|8=FIXT.1.1|9=62|35=0|34=196|49=INITIATOR|52=20190610-09:22:31.502|56=ACCEPTOR|10=144|8=FIXT.1.1|9=62|35=0|34=197|49=INITIATOR|52=20190610-09:22:51.520|56=ACCEPTOR|10=147|8=FIXT.1.1|9=62|35=0|34=198|49=INITIATOR|52=20190610-09:23:11.539|56=ACCEPTOR|10=155|8=FIXT.1.1|9=62|35=0|34=199|49=INITIATOR|52=20190610-09:23:31.559|56=ACCEPTOR|10=160|8=FIXT.1.1|9=62|35=0|34=200|49=INITIATOR|52=20190610-09:23:51.578|56=ACCEPTOR|10=146|8=FIXT.1.1|9=62|35=0|34=201|49=INITIATOR|52=20190610-09:24:11.595|56=ACCEPTOR|10=143|8=FIXT.1.1|9=62|35=0|34=202|49=INITIATOR|52=20190610-09:24:31.614|56=ACCEPTOR|10=138|8=FIXT.1.1|9=62|35=0|34=203|49=INITIATOR|52=20190610-09:24:51.632|56=ACCEPTOR|10=141|8=FIXT.1.1|9=159|35=D|34=204|49=INITIATOR|52=20190610-09:25:16.767|56=ACCEPTOR|11=0E0Z86K00000|22=1|38=200|40=2|48=06051GDX4|54=1|55=BAC|60=20190610-14:55:16.766|218=100|423=6|10=103|8=FIXT.1.1|9=107|35=A|34=205|49=INITIATOR|52=20190610-09:25:16.773|56=ACCEPTOR|98=0|108=20|553=USERNAME|554=PASSWORD|1137=7|10=187|8=FIXT.1.1|9=258|35=AE|34=206|49=INITIATOR|52=20190610-09:25:28.800|56=ACCEPTOR|15=CNY|22=4|30=SINT|31=23|32=12|48=0X1213|55=BAC|60=20190605-15:43:07.189|75=20190605|423=1|552=2|54=1|54=2|856=0|1003=1xsasdfdf|1116=2|1117=12|1118=G|1119=3|1117=10|1118=E|1119=3|1924=1|1934=11|10=040|8=FIXT.1.1|9=62|35=0|34=207|49=INITIATOR|52=20190610-09:25:48.803|56=ACCEPTOR|10=152|8=FIXT.1.1|9=159|35=D|34=208|49=INITIATOR|52=20190610-09:33:39.852|56=ACCEPTOR|11=0E0Z86K00000|22=1|38=200|40=2|48=06051GDX4|54=1|55=BAC|60=20190610-15:03:39.851|218=100|423=6|10=100|8=FIXT.1.1|9=107|35=A|34=209|49=INITIATOR|52=20190610-09:33:39.863|56=ACCEPTOR|98=0|108=20|553=USERNAME|554=PASSWORD|1137=7|10=195|8=FIXT.1.1|9=258|35=AE|34=210|49=INITIATOR|52=20190610-09:33:53.555|56=ACCEPTOR|15=CNY|22=4|30=SINT|31=23|32=12|48=0X1213|55=BAC|60=20190605-15:43:07.189|75=20190605|423=1|552=2|54=1|54=2|856=0|1003=1xsasdfdf|1116=2|1117=12|1118=G|1119=3|1117=10|1118=E|1119=3|1924=1|1934=11|10=039|8=FIXT.1.1|9=62|35=0|34=211|49=INITIATOR|52=20190610-09:34:13.900|56=ACCEPTOR|10=137|8=FIXT.1.1|9=62|35=0|34=212|49=INITIATOR|52=20190610-09:34:33.920|56=ACCEPTOR|10=142|8=FIXT.1.1|9=62|35=0|34=213|49=INITIATOR|52=20190610-09:34:53.939|56=ACCEPTOR|10=155|8=FIXT.1.1|9=62|35=0|34=214|49=INITIATOR|52=20190610-09:35:13.959|56=ACCEPTOR|10=155|8=FIXT.1.1|9=62|35=0|34=215|49=INITIATOR|52=20190610-09:35:33.978|56=ACCEPTOR|10=159|8=FIXT.1.1|9=62|35=0|34=216|49=INITIATOR|52=20190610-09:35:53.998|56=ACCEPTOR|10=164|8=FIXT.1.1|9=62|35=0|34=217|49=INITIATOR|52=20190610-09:36:13.018|56=ACCEPTOR|10=145|8=FIXT.1.1|9=62|35=0|34=218|49=INITIATOR|52=20190610-09:36:33.037|56=ACCEPTOR|10=149|8=FIXT.1.1|9=62|35=0|34=219|49=INITIATOR|52=20190610-09:36:53.055|56=ACCEPTOR|10=152|8=FIXT.1.1|9=159|35=D|34=220|49=INITIATOR|52=20190610-09:37:14.896|56=ACCEPTOR|11=0E0Z86K00000|22=1|38=200|40=2|48=06051GDX4|54=1|55=BAC|60=20190610-15:07:14.895|218=100|423=6|10=104|8=FIXT.1.1|9=107|35=A|34=221|49=INITIATOR|52=20190610-09:37:14.903|56=ACCEPTOR|98=0|108=20|553=USERNAME|554=PASSWORD|1137=7|10=181|8=FIXT.1.1|9=258|35=AE|34=222|49=INITIATOR|52=20190610-09:37:20.587|56=ACCEPTOR|15=CNY|22=4|30=SINT|31=23|32=12|48=0X1213|55=BAC|60=20190605-15:43:07.189|75=20190605|423=1|552=2|54=1|54=2|856=0|1003=1xsasdfdf|1116=2|1117=12|1118=G|1119=3|1117=10|1118=E|1119=3|1924=1|1934=11|10=045|8=FIXT.1.1|9=62|35=0|34=223|49=INITIATOR|52=20190610-09:37:40.928|56=ACCEPTOR|10=153|8=FIXT.1.1|9=62|35=0|34=224|49=INITIATOR|52=20190610-09:38:00.945|56=ACCEPTOR|10=150|8=FIXT.1.1|9=62|35=0|34=225|49=INITIATOR|52=20190610-09:38:20.965|56=ACCEPTOR|10=155|8=FIXT.1.1|9=62|35=0|34=226|49=INITIATOR|52=20190610-09:38:40.983|56=ACCEPTOR|10=158|8=FIXT.1.1|9=62|35=0|34=227|49=INITIATOR|52=20190610-09:39:00.001|56=ACCEPTOR|10=137|8=FIXT.1.1|9=62|35=0|34=228|49=INITIATOR|52=20190610-09:39:20.021|56=ACCEPTOR|10=142|8=FIXT.1.1|9=62|35=0|34=229|49=INITIATOR|52=20190610-09:39:40.038|56=ACCEPTOR|10=153|8=FIXT.1.1|9=62|35=0|34=230|49=INITIATOR|52=20190610-09:40:00.055|56=ACCEPTOR|10=132|8=FIXT.1.1|9=159|35=D|34=231|49=INITIATOR|52=20190610-09:41:00.229|56=ACCEPTOR|11=0E0Z86K00000|22=1|38=200|40=2|48=06051GDX4|54=1|55=BAC|60=20190610-15:11:00.228|218=100|423=6|10=066|8=FIXT.1.1|9=107|35=A|34=232|49=INITIATOR|52=20190610-09:41:00.233|56=ACCEPTOR|98=0|108=20|553=USERNAME|554=PASSWORD|1137=7|10=169|8=FIXT.1.1|9=62|35=0|34=233|49=INITIATOR|52=20190610-09:41:21.250|56=ACCEPTOR|10=136|8=FIXT.1.1|9=258|35=AE|34=234|49=INITIATOR|52=20190610-09:41:23.952|56=ACCEPTOR|15=CNY|22=4|30=SINT|31=23|32=12|48=0X1213|55=BAC|60=20190605-15:43:07.189|75=20190605|423=1|552=2|54=1|54=2|856=0|1003=1xsasdfdf|1116=2|1117=12|1118=G|1119=3|1117=10|1118=E|1119=3|1924=1|1934=11|10=042|8=FIXT.1.1|9=159|35=D|34=235|49=INITIATOR|52=20190610-09:42:37.481|56=ACCEPTOR|11=0E0Z86K00000|22=1|38=200|40=2|48=06051GDX4|54=1|55=BAC|60=20190610-15:12:37.480|218=100|423=6|10=092|8=FIXT.1.1|9=107|35=A|34=236|49=INITIATOR|52=20190610-09:42:37.487|56=ACCEPTOR|98=0|108=20|553=USERNAME|554=PASSWORD|1137=7|10=195|8=FIXT.1.1|9=238|35=AE|34=237|49=INITIATOR|52=20190610-09:42:44.013|56=ACCEPTOR|15=CNY|22=4|30=SINT|31=23|32=12|48=0X1213|55=BAC|60=20190610-15:12:37.392|75=20190610|423=1|552=1|54=1|856=0|1003=1xsasdfdf|1116=1|1117=12|1118=G|1119=3|1430=O|1924=1|1934=11|10=156|8=FIXT.1.1|9=238|35=AE|34=238|49=INITIATOR|52=20190610-09:42:55.555|56=ACCEPTOR|15=CNY|22=4|30=SINT|31=23|32=12|48=0X1213|55=BAC|60=20190610-15:12:37.392|75=20190610|423=1|552=1|54=1|856=0|1003=1xsasdfdf|1116=1|1117=12|1118=G|1119=3|1430=O|1924=1|1934=11|10=170|8=FIXT.1.1|9=71|35=0|34=239|49=INITIATOR|52=20190610-09:43:02.193|56=ACCEPTOR|112=TEST|10=167|8=FIXT.1.1|9=62|35=0|34=240|49=INITIATOR|52=20190610-09:43:22.536|56=ACCEPTOR|10=144|8=FIXT.1.1|9=62|35=0|34=241|49=INITIATOR|52=20190610-09:43:42.556|56=ACCEPTOR|10=149|8=FIXT.1.1|9=62|35=0|34=242|49=INITIATOR|52=20190610-09:44:02.589|56=ACCEPTOR|10=153|8=FIXT.1.1|9=62|35=0|34=243|49=INITIATOR|52=20190610-09:44:22.254|56=ACCEPTOR|10=145|8=FIXT.1.1|9=62|35=0|34=244|49=INITIATOR|52=20190610-09:44:42.628|56=ACCEPTOR|10=153|8=FIXT.1.1|9=62|35=0|34=245|49=INITIATOR|52=20190610-09:45:02.646|56=ACCEPTOR|10=151|8=FIXT.1.1|9=62|35=0|34=246|49=INITIATOR|52=20190610-09:45:22.665|56=ACCEPTOR|10=155|8=FIXT.1.1|9=62|35=0|34=247|49=INITIATOR|52=20190610-09:45:42.685|56=ACCEPTOR|10=160|8=FIXT.1.1|9=62|35=0|34=248|49=INITIATOR|52=20190610-09:46:02.703|56=ACCEPTOR|10=149|8=FIXT.1.1|9=62|35=0|34=249|49=INITIATOR|52=20190610-09:46:22.722|56=ACCEPTOR|10=153|8=FIXT.1.1|9=62|35=0|34=250|49=INITIATOR|52=20190610-09:46:42.741|56=ACCEPTOR|10=148|8=FIXT.1.1|9=159|35=D|34=251|49=INITIATOR|52=20190610-09:47:21.872|56=ACCEPTOR|11=0E0Z86K00000|22=1|38=200|40=2|48=06051GDX4|54=1|55=BAC|60=20190610-15:17:21.856|218=100|423=6|10=097|8=FIXT.1.1|9=107|35=A|34=252|49=INITIATOR|52=20190610-09:47:21.901|56=ACCEPTOR|98=0|108=20|553=USERNAME|554=PASSWORD|1137=7|10=182|8=FIXT.1.1|9=231|35=AE|34=253|49=INITIATOR|52=20190610-09:47:31.022|56=ACCEPTOR|15=CNY|22=4|30=SINT|31=23|32=12|48=0X1213|55=BAC|60=20190610-15:17:21.532|75=20190610|423=1|552=1|54=1|856=0|1003=1xsasdfdf|1116=1|1117=12|1118=G|1119=3|1924=1|1934=11|10=057|8=FIXT.1.1|9=62|35=0|34=254|49=INITIATOR|52=20190610-09:47:51.946|56=ACCEPTOR|10=160|8=FIXT.1.1|9=62|35=0|34=255|49=INITIATOR|52=20190610-09:48:11.967|56=ACCEPTOR|10=161|8=FIXT.1.1|9=62|35=0|34=256|49=INITIATOR|52=20190610-09:48:31.985|56=ACCEPTOR|10=164|8=FIXT.1.1|9=62|35=0|34=257|49=INITIATOR|52=20190610-09:48:51.002|56=ACCEPTOR|10=147|8=FIXT.1.1|9=62|35=0|34=258|49=INITIATOR|52=20190610-09:49:11.018|56=ACCEPTOR|10=152|8=FIXT.1.1|9=62|35=0|34=259|49=INITIATOR|52=20190610-09:49:31.038|56=ACCEPTOR|10=157|8=FIXT.1.1|9=62|35=0|34=260|49=INITIATOR|52=20190610-09:49:51.057|56=ACCEPTOR|10=152|8=FIXT.1.1|9=62|35=0|34=261|49=INITIATOR|52=20190610-09:50:11.075|56=ACCEPTOR|10=141|8=FIXT.1.1|9=62|35=0|34=262|49=INITIATOR|52=20190610-09:50:31.095|56=ACCEPTOR|10=146|8=FIXT.1.1|9=62|35=0|34=263|49=INITIATOR|52=20190610-09:50:51.114|56=ACCEPTOR|10=141|8=FIXT.1.1|9=62|35=0|34=264|49=INITIATOR|52=20190610-09:51:11.134|56=ACCEPTOR|10=141|8=FIXT.1.1|9=62|35=0|34=265|49=INITIATOR|52=20190610-09:51:31.154|56=ACCEPTOR|10=146|8=FIXT.1.1|9=62|35=0|34=266|49=INITIATOR|52=20190610-09:51:51.173|56=ACCEPTOR|10=150|8=FIXT.1.1|9=62|35=0|34=267|49=INITIATOR|52=20190610-09:52:11.191|56=ACCEPTOR|10=148|8=FIXT.1.1|9=62|35=0|34=268|49=INITIATOR|52=20190610-09:52:31.212|56=ACCEPTOR|10=145|8=FIXT.1.1|9=62|35=0|34=269|49=INITIATOR|52=20190610-09:52:51.230|56=ACCEPTOR|10=148|8=FIXT.1.1|9=62|35=0|34=270|49=INITIATOR|52=20190610-09:53:11.249|56=ACCEPTOR|10=147|8=FIXT.1.1|9=62|35=0|34=271|49=INITIATOR|52=20190610-09:53:31.268|56=ACCEPTOR|10=151|8=FIXT.1.1|9=62|35=0|34=272|49=INITIATOR|52=20190610-09:53:51.287|56=ACCEPTOR|10=155|8=FIXT.1.1|9=62|35=0|34=273|49=INITIATOR|52=20190610-09:54:11.307|56=ACCEPTOR|10=146|8=FIXT.1.1|9=62|35=0|34=274|49=INITIATOR|52=20190610-09:54:31.328|56=ACCEPTOR|10=152|8=FIXT.1.1|9=62|35=0|34=275|49=INITIATOR|52=20190610-09:54:51.347|56=ACCEPTOR|10=156|8=FIXT.1.1|9=62|35=0|34=276|49=INITIATOR|52=20190610-09:55:11.367|56=ACCEPTOR|10=156|8=FIXT.1.1|9=62|35=0|34=277|49=INITIATOR|52=20190610-09:55:31.386|56=ACCEPTOR|10=160|8=FIXT.1.1|9=62|35=0|34=278|49=INITIATOR|52=20190610-09:55:51.406|56=ACCEPTOR|10=156|8=FIXT.1.1|9=62|35=0|34=279|49=INITIATOR|52=20190610-09:56:11.425|56=ACCEPTOR|10=155|8=FIXT.1.1|9=62|35=0|34=280|49=INITIATOR|52=20190610-09:56:31.442|56=ACCEPTOR|10=148|8=FIXT.1.1|9=62|35=0|34=281|49=INITIATOR|52=20190610-09:56:51.461|56=ACCEPTOR|10=152|8=FIXT.1.1|9=62|35=0|34=282|49=INITIATOR|52=20190610-09:57:11.480|56=ACCEPTOR|10=151|8=FIXT.1.1|9=62|35=0|34=283|49=INITIATOR|52=20190610-09:57:31.499|56=ACCEPTOR|10=164|8=FIXT.1.1|9=62|35=0|34=284|49=INITIATOR|52=20190610-09:57:51.519|56=ACCEPTOR|10=160|8=FIXT.1.1|9=62|35=0|34=285|49=INITIATOR|52=20190610-09:58:11.540|56=ACCEPTOR|10=152|8=FIXT.1.1|9=62|35=0|34=286|49=INITIATOR|52=20190610-09:58:31.557|56=ACCEPTOR|10=163|8=FIXT.1.1|9=62|35=0|34=287|49=INITIATOR|52=20190610-09:58:51.571|56=ACCEPTOR|10=162|8=FIXT.1.1|9=62|35=0|34=288|49=INITIATOR|52=20190610-09:59:11.590|56=ACCEPTOR|10=161|8=FIXT.1.1|9=62|35=0|34=289|49=INITIATOR|52=20190610-09:59:31.609|56=ACCEPTOR|10=165|8=FIXT.1.1|9=62|35=0|34=290|49=INITIATOR|52=20190610-09:59:51.629|56=ACCEPTOR|10=161|8=FIXT.1.1|9=62|35=0|34=291|49=INITIATOR|52=20190610-10:00:11.648|56=ACCEPTOR|10=137|8=FIXT.1.1|9=62|35=0|34=292|49=INITIATOR|52=20190610-10:00:31.667|56=ACCEPTOR|10=141|8=FIXT.1.1|9=62|35=0|34=293|49=INITIATOR|52=20190610-10:00:51.686|56=ACCEPTOR|10=145|8=FIXT.1.1|9=62|35=0|34=294|49=INITIATOR|52=20190610-10:01:11.706|56=ACCEPTOR|10=136|8=FIXT.1.1|9=62|35=0|34=295|49=INITIATOR|52=20190610-10:01:31.725|56=ACCEPTOR|10=140|8=FIXT.1.1|9=62|35=0|34=296|49=INITIATOR|52=20190610-10:01:51.745|56=ACCEPTOR|10=145|8=FIXT.1.1|9=62|35=0|34=297|49=INITIATOR|52=20190610-10:02:11.764|56=ACCEPTOR|10=144|8=FIXT.1.1|9=62|35=0|34=298|49=INITIATOR|52=20190610-10:02:31.782|56=ACCEPTOR|10=147|8=FIXT.1.1|9=62|35=0|34=299|49=INITIATOR|52=20190610-10:02:51.802|56=ACCEPTOR|10=143|8=FIXT.1.1|9=62|35=0|34=300|49=INITIATOR|52=20190610-10:03:11.821|56=ACCEPTOR|10=124|8=FIXT.1.1|9=62|35=0|34=301|49=INITIATOR|52=20190610-10:03:31.840|56=ACCEPTOR|10=128|8=FIXT.1.1|9=62|35=0|34=302|49=INITIATOR|52=20190610-10:03:51.859|56=ACCEPTOR|10=141|8=FIXT.1.1|9=62|35=0|34=303|49=INITIATOR|52=20190610-10:04:11.880|56=ACCEPTOR|10=133|8=FIXT.1.1|9=62|35=0|34=304|49=INITIATOR|52=20190610-10:04:31.899|56=ACCEPTOR|10=146|8=FIXT.1.1|9=62|35=0|34=305|49=INITIATOR|52=20190610-10:04:51.918|56=ACCEPTOR|10=141|8=FIXT.1.1|9=62|35=0|34=306|49=INITIATOR|52=20190610-10:05:11.938|56=ACCEPTOR|10=141|8=FIXT.1.1|9=62|35=0|34=307|49=INITIATOR|52=20190610-10:05:31.959|56=ACCEPTOR|10=147|8=FIXT.1.1|9=62|35=0|34=308|49=INITIATOR|52=20190610-10:05:51.977|56=ACCEPTOR|10=150|8=FIXT.1.1|9=62|35=0|34=309|49=INITIATOR|52=20190610-10:06:11.997|56=ACCEPTOR|10=150|8=FIXT.1.1|9=62|35=0|34=310|49=INITIATOR|52=20190610-10:06:31.016|56=ACCEPTOR|10=126|8=FIXT.1.1|9=62|35=0|34=311|49=INITIATOR|52=20190610-10:06:51.035|56=ACCEPTOR|10=130|8=FIXT.1.1|9=62|35=0|34=312|49=INITIATOR|52=20190610-10:07:11.054|56=ACCEPTOR|10=129|8=FIXT.1.1|9=62|35=0|34=313|49=INITIATOR|52=20190610-10:07:31.074|56=ACCEPTOR|10=134|8=FIXT.1.1|9=62|35=0|34=314|49=INITIATOR|52=20190610-10:07:51.094|56=ACCEPTOR|10=139|8=FIXT.1.1|9=62|35=0|34=315|49=INITIATOR|52=20190610-10:08:11.114|56=ACCEPTOR|10=130|8=FIXT.1.1|9=62|35=0|34=316|49=INITIATOR|52=20190610-10:08:31.133|56=ACCEPTOR|10=134|8=FIXT.1.1|9=62|35=0|34=317|49=INITIATOR|52=20190610-10:08:51.152|56=ACCEPTOR|10=138|8=FIXT.1.1|9=62|35=0|34=318|49=INITIATOR|52=20190610-10:09:11.171|56=ACCEPTOR|10=137|8=FIXT.1.1|9=62|35=0|34=319|49=INITIATOR|52=20190610-10:09:31.190|56=ACCEPTOR|10=141|8=FIXT.1.1|9=62|35=0|34=320|49=INITIATOR|52=20190610-10:09:51.210|56=ACCEPTOR|10=128|8=FIXT.1.1|9=62|35=0|34=321|49=INITIATOR|52=20190610-10:10:11.230|56=ACCEPTOR|10=119|8=FIXT.1.1|9=62|35=0|34=322|49=INITIATOR|52=20190610-10:10:31.249|56=ACCEPTOR|10=132|8=FIXT.1.1|9=62|35=0|34=323|49=INITIATOR|52=20190610-10:10:51.267|56=ACCEPTOR|10=135|8=FIXT.1.1|9=62|35=0|34=324|49=INITIATOR|52=20190610-10:11:11.285|56=ACCEPTOR|10=133|8=FIXT.1.1|9=62|35=0|34=325|49=INITIATOR|52=20190610-10:11:31.304|56=ACCEPTOR|10=128|8=FIXT.1.1|9=62|35=0|34=326|49=INITIATOR|52=20190610-10:11:51.324|56=ACCEPTOR|10=133|8=FIXT.1.1|9=62|35=0|34=327|49=INITIATOR|52=20190610-10:12:11.343|56=ACCEPTOR|10=132|8=FIXT.1.1|9=62|35=0|34=328|49=INITIATOR|52=20190610-10:12:31.363|56=ACCEPTOR|10=137|8=FIXT.1.1|9=62|35=0|34=329|49=INITIATOR|52=20190610-10:12:51.381|56=ACCEPTOR|10=140|8=FIXT.1.1|9=62|35=0|34=330|49=INITIATOR|52=20190610-10:13:11.402|56=ACCEPTOR|10=123|8=FIXT.1.1|9=62|35=0|34=331|49=INITIATOR|52=20190610-10:13:31.422|56=ACCEPTOR|10=128|8=FIXT.1.1|9=62|35=0|34=332|49=INITIATOR|52=20190610-10:13:51.440|56=ACCEPTOR|10=131|8=FIXT.1.1|9=62|35=0|34=333|49=INITIATOR|52=20190610-10:14:11.459|56=ACCEPTOR|10=139|8=FIXT.1.1|9=62|35=0|34=334|49=INITIATOR|52=20190610-10:14:31.476|56=ACCEPTOR|10=141|8=FIXT.1.1|9=62|35=0|34=335|49=INITIATOR|52=20190610-10:14:51.494|56=ACCEPTOR|10=144|8=FIXT.1.1|9=62|35=0|34=336|49=INITIATOR|52=20190610-10:15:11.515|56=ACCEPTOR|10=136|8=FIXT.1.1|9=62|35=0|34=337|49=INITIATOR|52=20190610-10:15:31.535|56=ACCEPTOR|10=141|8=FIXT.1.1|9=62|35=0|34=338|49=INITIATOR|52=20190610-10:15:51.556|56=ACCEPTOR|10=147|8=FIXT.1.1|9=62|35=0|34=339|49=INITIATOR|52=20190610-10:16:11.575|56=ACCEPTOR|10=146|8=FIXT.1.1|9=62|35=0|34=340|49=INITIATOR|52=20190610-10:16:31.594|56=ACCEPTOR|10=141|8=FIXT.1.1|9=62|35=0|34=341|49=INITIATOR|52=20190610-10:16:51.612|56=ACCEPTOR|10=135|8=FIXT.1.1|9=62|35=0|34=342|49=INITIATOR|52=20190610-10:17:11.632|56=ACCEPTOR|10=135|8=FIXT.1.1|9=62|35=0|34=343|49=INITIATOR|52=20190610-10:17:31.651|56=ACCEPTOR|10=139|8=FIXT.1.1|9=62|35=0|34=344|49=INITIATOR|52=20190610-10:17:51.668|56=ACCEPTOR|10=150|8=FIXT.1.1|9=62|35=0|34=345|49=INITIATOR|52=20190610-10:18:11.685|56=ACCEPTOR|10=147|8=FIXT.1.1|9=62|35=0|34=346|49=INITIATOR|52=20190610-10:18:31.705|56=ACCEPTOR|10=143|8=FIXT.1.1|9=62|35=0|34=347|49=INITIATOR|52=20190610-10:18:51.723|56=ACCEPTOR|10=146|8=FIXT.1.1|9=62|35=0|34=348|49=INITIATOR|52=20190610-10:19:11.742|56=ACCEPTOR|10=145|8=FIXT.1.1|9=62|35=0|34=349|49=INITIATOR|52=20190610-10:19:31.762|56=ACCEPTOR|10=150|8=FIXT.1.1|9=62|35=0|34=350|49=INITIATOR|52=20190610-10:19:51.781|56=ACCEPTOR|10=145|8=FIXT.1.1|9=62|35=0|34=351|49=INITIATOR|52=20190610-10:20:11.801|56=ACCEPTOR|10=127|8=FIXT.1.1|9=62|35=0|34=352|49=INITIATOR|52=20190610-10:20:31.821|56=ACCEPTOR|10=132|8=FIXT.1.1|9=62|35=0|34=353|49=INITIATOR|52=20190610-10:20:51.839|56=ACCEPTOR|10=144|8=FIXT.1.1|9=62|35=0|34=354|49=INITIATOR|52=20190610-10:21:11.857|56=ACCEPTOR|10=142|8=FIXT.1.1|9=62|35=0|34=355|49=INITIATOR|52=20190610-10:21:31.877|56=ACCEPTOR|10=147|8=FIXT.1.1|9=62|35=0|34=356|49=INITIATOR|52=20190610-10:21:51.895|56=ACCEPTOR|10=150|8=FIXT.1.1|9=62|35=0|34=357|49=INITIATOR|52=20190610-10:22:11.915|56=ACCEPTOR|10=141|8=FIXT.1.1|9=62|35=0|34=358|49=INITIATOR|52=20190610-10:22:31.934|56=ACCEPTOR|10=145|8=FIXT.1.1|9=62|35=0|34=359|49=INITIATOR|52=20190610-10:22:51.954|56=ACCEPTOR|10=150|8=FIXT.1.1|9=62|35=0|34=360|49=INITIATOR|52=20190610-10:23:11.975|56=ACCEPTOR|10=142|8=FIXT.1.1|9=62|35=0|34=361|49=INITIATOR|52=20190610-10:23:31.995|56=ACCEPTOR|10=147|8=FIXT.1.1|9=62|35=0|34=362|49=INITIATOR|52=20190610-10:23:51.014|56=ACCEPTOR|10=132|8=FIXT.1.1|9=62|35=0|34=363|49=INITIATOR|52=20190610-10:24:11.033|56=ACCEPTOR|10=131|8=FIXT.1.1|9=62|35=0|34=364|49=INITIATOR|52=20190610-10:24:31.051|56=ACCEPTOR|10=134|8=FIXT.1.1|9=62|35=0|34=365|49=INITIATOR|52=20190610-10:24:51.071|56=ACCEPTOR|10=139|8=FIXT.1.1|9=62|35=0|34=366|49=INITIATOR|52=20190610-10:25:11.090|56=ACCEPTOR|10=138|8=FIXT.1.1|9=62|35=0|34=367|49=INITIATOR|52=20190610-10:25:31.109|56=ACCEPTOR|10=142|8=FIXT.1.1|9=62|35=0|34=368|49=INITIATOR|52=20190610-10:25:51.130|56=ACCEPTOR|10=139|8=FIXT.1.1|9=62|35=0|34=369|49=INITIATOR|52=20190610-10:26:11.149|56=ACCEPTOR|10=147|8=FIXT.1.1|9=62|35=0|34=370|49=INITIATOR|52=20190610-10:26:31.169|56=ACCEPTOR|10=143|8=FIXT.1.1|9=62|35=0|34=371|49=INITIATOR|52=20190610-10:26:51.189|56=ACCEPTOR|10=148|8=FIXT.1.1|9=62|35=0|34=372|49=INITIATOR|52=20190610-10:27:11.209|56=ACCEPTOR|10=139|8=FIXT.1.1|9=62|35=0|34=373|49=INITIATOR|52=20190610-10:27:31.229|56=ACCEPTOR|10=144|8=FIXT.1.1|9=62|35=0|34=374|49=INITIATOR|52=20190610-10:27:51.248|56=ACCEPTOR|10=148|8=FIXT.1.1|9=62|35=0|34=375|49=INITIATOR|52=20190610-10:28:11.267|56=ACCEPTOR|10=147|8=FIXT.1.1|9=62|35=0|34=376|49=INITIATOR|52=20190610-10:28:31.285|56=ACCEPTOR|10=150|8=FIXT.1.1|9=62|35=0|34=377|49=INITIATOR|52=20190610-10:28:51.305|56=ACCEPTOR|10=146|8=FIXT.1.1|9=62|35=0|34=378|49=INITIATOR|52=20190610-10:29:11.325|56=ACCEPTOR|10=146|8=FIXT.1.1|9=62|35=0|34=379|49=INITIATOR|52=20190610-10:29:31.344|56=ACCEPTOR|10=150|8=FIXT.1.1|9=62|35=0|34=380|49=INITIATOR|52=20190610-10:29:51.364|56=ACCEPTOR|10=146|8=FIXT.1.1|9=62|35=0|34=381|49=INITIATOR|52=20190610-10:30:11.385|56=ACCEPTOR|10=138|8=FIXT.1.1|9=62|35=0|34=382|49=INITIATOR|52=20190610-10:30:31.404|56=ACCEPTOR|10=133|8=FIXT.1.1|9=62|35=0|34=383|49=INITIATOR|52=20190610-10:30:51.422|56=ACCEPTOR|10=136|8=FIXT.1.1|9=62|35=0|34=384|49=INITIATOR|52=20190610-10:31:11.440|56=ACCEPTOR|10=134|8=FIXT.1.1|9=62|35=0|34=385|49=INITIATOR|52=20190610-10:31:31.458|56=ACCEPTOR|10=146|8=FIXT.1.1|9=62|35=0|34=386|49=INITIATOR|52=20190610-10:31:51.477|56=ACCEPTOR|10=150|8=FIXT.1.1|9=62|35=0|34=387|49=INITIATOR|52=20190610-10:32:11.495|56=ACCEPTOR|10=148|8=FIXT.1.1|9=62|35=0|34=388|49=INITIATOR|52=20190610-10:32:31.516|56=ACCEPTOR|10=145|8=FIXT.1.1|9=62|35=0|34=389|49=INITIATOR|52=20190610-10:32:51.536|56=ACCEPTOR|10=150|8=FIXT.1.1|9=62|35=0|34=390|49=INITIATOR|52=20190610-10:33:11.556|56=ACCEPTOR|10=141|8=FIXT.1.1|9=62|35=0|34=391|49=INITIATOR|52=20190610-10:33:31.576|56=ACCEPTOR|10=146|8=FIXT.1.1|9=62|35=0|34=392|49=INITIATOR|52=20190610-10:33:51.595|56=ACCEPTOR|10=150|8=FIXT.1.1|9=62|35=0|34=393|49=INITIATOR|52=20190610-10:34:11.614|56=ACCEPTOR|10=140|8=FIXT.1.1|9=62|35=0|34=394|49=INITIATOR|52=20190610-10:34:31.633|56=ACCEPTOR|10=144|8=FIXT.1.1|9=62|35=0|34=395|49=INITIATOR|52=20190610-10:34:51.650|56=ACCEPTOR|10=146|8=FIXT.1.1|9=62|35=0|34=396|49=INITIATOR|52=20190610-10:35:11.671|56=ACCEPTOR|10=147|8=FIXT.1.1|9=62|35=0|34=397|49=INITIATOR|52=20190610-10:35:31.691|56=ACCEPTOR|10=152|8=FIXT.1.1|9=231|35=AE|34=398|49=INITIATOR|52=20190610-10:35:47.625|56=ACCEPTOR|15=CNY|22=4|30=SINT|31=23|32=12|48=0X1213|55=BAC|60=20190610-15:17:21.532|75=20190610|423=1|552=1|54=1|856=0|1003=1xsasdfdf|1116=1|1117=12|1118=G|1119=3|1924=1|1934=11|10=072|8=FIXT.1.1|9=159|35=D|34=399|49=INITIATOR|52=20190610-10:42:26.830|56=ACCEPTOR|11=0E0Z86K00000|22=1|38=200|40=2|48=06051GDX4|54=1|55=BAC|60=20190610-16:12:26.828|218=100|423=6|10=096|8=FIXT.1.1|9=107|35=A|34=400|49=INITIATOR|52=20190610-10:42:26.833|56=ACCEPTOR|98=0|108=20|553=USERNAME|554=PASSWORD|1137=7|10=173|8=FIXT.1.1|9=253|35=AE|34=401|49=INITIATOR|52=20190610-10:42:44.898|56=ACCEPTOR|15=CNY|22=4|30=SINT|31=23|32=12|48=0X1213|55=BAC|60=20190610-16:12:26.619|75=20190610|423=1|552=1|54=1|856=0|1003=1xsasdfdf|1116=2|1117=12|1118=G|1119=3|1117=15|1118=G|1119=3|1924=1|1934=11|10=071|8=FIXT.1.1|9=62|35=0|34=402|49=INITIATOR|52=20190610-10:43:04.878|56=ACCEPTOR|10=145|8=FIXT.1.1|9=62|35=0|34=403|49=INITIATOR|52=20190610-10:43:24.897|56=ACCEPTOR|10=149|8=FIXT.1.1|9=159|35=D|34=404|49=INITIATOR|52=20190610-10:45:11.225|56=ACCEPTOR|11=0E0Z86K00000|22=1|38=200|40=2|48=06051GDX4|54=1|55=BAC|60=20190610-16:15:11.223|218=100|423=6|10=064|8=FIXT.1.1|9=107|35=A|34=405|49=INITIATOR|52=20190610-10:45:11.233|56=ACCEPTOR|98=0|108=20|553=USERNAME|554=PASSWORD|1137=7|10=169|8=FIXT.1.1|9=258|35=AE|34=406|49=INITIATOR|52=20190610-10:45:21.473|56=ACCEPTOR|15=CNY|22=4|30=SINT|31=23|32=12|48=0X1213|55=BAC|60=20190610-16:15:11.137|75=20190610|423=1|552=2|54=1|54=3|856=0|1003=1xsasdfdf|1116=2|1117=12|1118=G|1119=3|1117=15|1118=G|1119=3|1924=1|1934=11|10=023|8=FIXT.1.1|9=62|35=0|34=407|49=INITIATOR|52=20190610-10:45:41.272|56=ACCEPTOR|10=141|8=FIXT.1.1|9=62|35=0|34=408|49=INITIATOR|52=20190610-10:46:01.292|56=ACCEPTOR|10=141|8=FIXT.1.1|9=62|35=0|34=409|49=INITIATOR|52=20190610-10:46:21.311|56=ACCEPTOR|10=136|8=FIXT.1.1|9=159|35=D|34=410|49=INITIATOR|52=20190610-11:52:40.529|56=ACCEPTOR|11=0E0Z86K00000|22=1|38=200|40=2|48=06051GDX4|54=1|55=BAC|60=20190610-17:22:40.528|218=100|423=6|10=078|8=FIXT.1.1|9=107|35=A|34=411|49=INITIATOR|52=20190610-11:52:40.553|56=ACCEPTOR|98=0|108=20|553=USERNAME|554=PASSWORD|1137=7|10=172|8=FIXT.1.1|9=62|35=0|34=412|49=INITIATOR|52=20190610-11:53:01.609|56=ACCEPTOR|10=137|8=FIXT.1.1|9=107|35=A|34=413|49=INITIATOR|52=20190610-11:56:55.128|56=ACCEPTOR|98=0|108=20|553=USERNAME|554=PASSWORD|1137=7|10=182|8=FIXT.1.1|9=159|35=D|34=414|49=INITIATOR|52=20190610-11:56:55.140|56=ACCEPTOR|11=0E0Z86K00000|22=1|38=200|40=2|48=06051GDX4|54=1|55=BAC|60=20190610-17:26:55.126|218=100|423=6|10=085|8=FIXT.1.1|9=159|35=D|34=415|49=INITIATOR|52=20190610-12:00:01.063|56=ACCEPTOR|11=0E0Z86K00000|22=1|38=200|40=2|48=06051GDX4|54=1|55=BAC|60=20190610-17:30:01.061|218=100|423=6|10=055|8=FIXT.1.1|9=107|35=A|34=416|49=INITIATOR|52=20190610-12:00:01.063|56=ACCEPTOR|98=0|108=20|553=USERNAME|554=PASSWORD|1137=7|10=164|8=FIXT.1.1|9=159|35=D|34=417|49=INITIATOR|52=20190610-12:10:21.073|56=ACCEPTOR|11=0E0Z86K00000|22=1|38=200|40=2|48=06051GDX4|54=1|55=BAC|60=20190610-17:40:21.069|218=100|423=6|10=072|8=FIXT.1.1|9=107|35=A|34=418|49=INITIATOR|52=20190610-12:10:21.077|56=ACCEPTOR|98=0|108=20|553=USERNAME|554=PASSWORD|1137=7|10=174|8=FIXT.1.1|9=107|35=A|34=419|49=INITIATOR|52=20190610-12:13:50.910|56=ACCEPTOR|98=0|108=20|553=USERNAME|554=PASSWORD|1137=7|10=176|8=FIXT.1.1|9=62|35=0|34=420|49=INITIATOR|52=20190610-12:14:10.929|56=ACCEPTOR|10=139|8=FIXT.1.1|9=62|35=0|34=421|49=INITIATOR|52=20190610-12:14:30.945|56=ACCEPTOR|10=140|8=FIXT.1.1|9=62|35=0|34=422|49=INITIATOR|52=20190610-12:14:50.964|56=ACCEPTOR|10=144|8=FIXT.1.1|9=62|35=0|34=423|49=INITIATOR|52=20190610-12:15:10.981|56=ACCEPTOR|10=141|8=FIXT.1.1|9=62|35=0|34=424|49=INITIATOR|52=20190610-12:15:30.998|56=ACCEPTOR|10=152|8=FIXT.1.1|9=107|35=A|34=425|49=INITIATOR|52=20190610-12:15:51.458|56=ACCEPTOR|98=0|108=20|553=USERNAME|554=PASSWORD|1137=7|10=183|8=FIXT.1.1|9=62|35=0|34=426|49=INITIATOR|52=20190610-12:16:11.476|56=ACCEPTOR|10=145|8=FIXT.1.1|9=62|35=0|34=427|49=INITIATOR|52=20190610-12:16:31.345|56=ACCEPTOR|10=143|8=FIXT.1.1|9=62|35=0|34=428|49=INITIATOR|52=20190610-12:16:51.554|56=ACCEPTOR|10=148|8=FIXT.1.1|9=62|35=0|34=429|49=INITIATOR|52=20190610-12:17:11.575|56=ACCEPTOR|10=149|8=FIXT.1.1|9=107|35=A|34=430|49=INITIATOR|52=20190610-12:17:40.003|56=ACCEPTOR|98=0|108=20|553=USERNAME|554=PASSWORD|1137=7|10=165|8=FIXT.1.1|9=62|35=0|34=431|49=INITIATOR|52=20190610-12:18:00.024|56=ACCEPTOR|10=130|8=FIXT.1.1|9=62|35=0|34=432|49=INITIATOR|52=20190610-12:18:20.040|56=ACCEPTOR|10=131|8=FIXT.1.1|9=62|35=0|34=433|49=INITIATOR|52=20190610-12:18:40.058|56=ACCEPTOR|10=143|8=FIXT.1.1|9=62|35=0|34=434|49=INITIATOR|52=20190610-12:19:00.088|56=ACCEPTOR|10=144|8=FIXT.1.1|9=62|35=0|34=435|49=INITIATOR|52=20190610-12:19:20.107|56=ACCEPTOR|10=139|8=FIXT.1.1|9=107|35=A|34=436|49=INITIATOR|52=20190610-12:19:31.128|56=ACCEPTOR|98=0|108=20|553=USERNAME|554=PASSWORD|1137=7|10=181|8=FIXT.1.1|9=73|35=2|34=437|49=INITIATOR|52=20190610-12:19:31.658|56=ACCEPTOR|7=421|16=0|10=127|8=FIXT.1.1|9=62|35=0|34=438|49=INITIATOR|52=20190610-12:19:51.148|56=ACCEPTOR|10=151|8=FIXT.1.1|9=62|35=0|34=439|49=INITIATOR|52=20190610-12:20:11.164|56=ACCEPTOR|10=138|8=FIXT.1.1|9=62|35=0|34=440|49=INITIATOR|52=20190610-12:20:31.181|56=ACCEPTOR|10=131|8=FIXT.1.1|9=62|35=0|34=441|49=INITIATOR|52=20190610-12:20:51.200|56=ACCEPTOR|10=126|8=FIXT.1.1|9=107|35=A|34=442|49=INITIATOR|52=20190610-12:21:06.303|56=ACCEPTOR|98=0|108=20|553=USERNAME|554=PASSWORD|1137=7|10=168|8=FIXT.1.1|9=62|35=0|34=443|49=INITIATOR|52=20190610-12:21:26.321|56=ACCEPTOR|10=135|8=FIXT.1.1|9=62|35=0|34=444|49=INITIATOR|52=20190610-12:21:46.341|56=ACCEPTOR|10=140|8=FIXT.1.1|9=62|35=0|34=445|49=INITIATOR|52=20190610-12:22:06.359|56=ACCEPTOR|10=147|8=FIXT.1.1|9=62|35=0|34=446|49=INITIATOR|52=20190610-12:22:26.378|56=ACCEPTOR|10=151|8=FIXT.1.1|9=62|35=0|34=447|49=INITIATOR|52=20190610-12:22:46.398|56=ACCEPTOR|10=156|8=FIXT.1.1|9=62|35=0|34=448|49=INITIATOR|52=20190610-12:23:06.417|56=ACCEPTOR|10=146|8=FIXT.1.1|9=62|35=0|34=449|49=INITIATOR|52=20190610-12:23:26.436|56=ACCEPTOR|10=150|8=FIXT.1.1|9=62|35=0|34=450|49=INITIATOR|52=20190610-12:23:46.455|56=ACCEPTOR|10=145|8=FIXT.1.1|9=62|35=0|34=451|49=INITIATOR|52=20190610-12:24:06.474|56=ACCEPTOR|10=144|8=FIXT.1.1|9=62|35=0|34=452|49=INITIATOR|52=20190610-12:24:26.493|56=ACCEPTOR|10=148|8=FIXT.1.1|9=62|35=0|34=453|49=INITIATOR|52=20190610-12:24:46.512|56=ACCEPTOR|10=143|8=FIXT.1.1|9=62|35=0|34=454|49=INITIATOR|52=20190610-12:25:06.531|56=ACCEPTOR|10=142|8=FIXT.1.1|9=62|35=0|34=455|49=INITIATOR|52=20190610-12:25:26.549|56=ACCEPTOR|10=154|8=FIXT.1.1|9=62|35=0|34=456|49=INITIATOR|52=20190610-12:25:46.565|56=ACCEPTOR|10=155|8=FIXT.1.1|9=62|35=0|34=457|49=INITIATOR|52=20190610-12:26:06.584|56=ACCEPTOR|10=154|8=FIXT.1.1|9=62|35=0|34=458|49=INITIATOR|52=20190610-12:26:26.604|56=ACCEPTOR|10=150|8=FIXT.1.1|9=62|35=0|34=459|49=INITIATOR|52=20190610-12:26:46.804|56=ACCEPTOR|10=155|8=FIXT.1.1|9=62|35=0|34=460|49=INITIATOR|52=20190610-12:27:06.822|56=ACCEPTOR|10=144|8=FIXT.1.1|9=62|35=0|34=461|49=INITIATOR|52=20190610-12:27:26.842|56=ACCEPTOR|10=149|8=FIXT.1.1|9=107|35=A|34=462|49=INITIATOR|52=20190610-12:27:54.737|56=ACCEPTOR|98=0|108=20|553=USERNAME|554=PASSWORD|1137=7|10=190|8=FIXT.1.1|9=62|35=0|34=463|49=INITIATOR|52=20190610-12:28:14.757|56=ACCEPTOR|10=154|8=FIXT.1.1|9=62|35=0|34=464|49=INITIATOR|52=20190610-12:28:34.776|56=ACCEPTOR|10=158|8=FIXT.1.1|9=62|35=0|34=465|49=INITIATOR|52=20190610-12:28:54.795|56=ACCEPTOR|10=162|8=FIXT.1.1|9=62|35=0|34=466|49=INITIATOR|52=20190610-12:29:14.814|56=ACCEPTOR|10=152|8=FIXT.1.1|9=62|35=0|34=467|49=INITIATOR|52=20190610-12:29:34.833|56=ACCEPTOR|10=156|8=FIXT.1.1|9=62|35=0|34=468|49=INITIATOR|52=20190610-12:29:54.852|56=ACCEPTOR|10=160|8=FIXT.1.1|9=62|35=0|34=469|49=INITIATOR|52=20190610-12:30:14.871|56=ACCEPTOR|10=150|8=FIXT.1.1|9=62|35=0|34=470|49=INITIATOR|52=20190610-12:30:34.887|56=ACCEPTOR|10=151|8=FIXT.1.1|9=62|35=0|34=471|49=INITIATOR|52=20190610-12:30:54.903|56=ACCEPTOR|10=143|8=FIXT.1.1|9=62|35=0|34=472|49=INITIATOR|52=20190610-12:31:14.922|56=ACCEPTOR|10=142|8=FIXT.1.1|9=62|35=0|34=473|49=INITIATOR|52=20190610-12:31:34.942|56=ACCEPTOR|10=147|8=FIXT.1.1|9=62|35=0|34=474|49=INITIATOR|52=20190610-12:31:54.962|56=ACCEPTOR|10=152|8=FIXT.1.1|9=62|35=0|34=475|49=INITIATOR|52=20190610-12:32:14.980|56=ACCEPTOR|10=150|8=FIXT.1.1|9=62|35=0|34=476|49=INITIATOR|52=20190610-12:32:34.000|56=ACCEPTOR|10=136|8=FIXT.1.1|9=62|35=0|34=477|49=INITIATOR|52=20190610-12:32:54.020|56=ACCEPTOR|10=141|8=FIXT.1.1|9=62|35=0|34=478|49=INITIATOR|52=20190610-12:33:14.045|56=ACCEPTOR|10=146|8=FIXT.1.1|9=62|35=0|34=479|49=INITIATOR|52=20190610-12:33:34.065|56=ACCEPTOR|10=151|8=FIXT.1.1|9=62|35=0|34=480|49=INITIATOR|52=20190610-12:33:54.084|56=ACCEPTOR|10=146|8=FIXT.1.1|9=62|35=0|34=481|49=INITIATOR|52=20190610-12:34:14.103|56=ACCEPTOR|10=136|8=FIXT.1.1|9=62|35=0|34=482|49=INITIATOR|52=20190610-12:34:34.122|56=ACCEPTOR|10=140|8=FIXT.1.1|9=62|35=0|34=483|49=INITIATOR|52=20190610-12:34:54.142|56=ACCEPTOR|10=145|8=FIXT.1.1|9=62|35=0|34=484|49=INITIATOR|52=20190610-12:35:14.160|56=ACCEPTOR|10=143|8=FIXT.1.1|9=62|35=0|34=485|49=INITIATOR|52=20190610-12:35:34.180|56=ACCEPTOR|10=148|8=FIXT.1.1|9=62|35=0|34=486|49=INITIATOR|52=20190610-12:35:54.200|56=ACCEPTOR|10=144|8=FIXT.1.1|9=62|35=0|34=487|49=INITIATOR|52=20190610-12:36:14.219|56=ACCEPTOR|10=152|8=FIXT.1.1|9=62|35=0|34=488|49=INITIATOR|52=20190610-12:36:34.238|56=ACCEPTOR|10=156|8=FIXT.1.1|9=62|35=0|34=489|49=INITIATOR|52=20190610-12:36:54.257|56=ACCEPTOR|10=160|8=FIXT.1.1|9=62|35=0|34=490|49=INITIATOR|52=20190610-12:37:14.275|56=ACCEPTOR|10=149|8=FIXT.1.1|9=62|35=0|34=491|49=INITIATOR|52=20190610-12:37:34.295|56=ACCEPTOR|10=154|8=FIXT.1.1|9=62|35=0|34=492|49=INITIATOR|52=20190610-12:37:54.312|56=ACCEPTOR|10=147|8=FIXT.1.1|9=62|35=0|34=493|49=INITIATOR|52=20190610-12:38:14.332|56=ACCEPTOR|10=147|8=FIXT.1.1|9=62|35=0|34=494|49=INITIATOR|52=20190610-12:38:34.352|56=ACCEPTOR|10=152|8=FIXT.1.1|9=62|35=0|34=495|49=INITIATOR|52=20190610-12:38:54.371|56=ACCEPTOR|10=156|8=FIXT.1.1|9=62|35=0|34=496|49=INITIATOR|52=20190610-12:39:14.390|56=ACCEPTOR|10=155|8=FIXT.1.1|9=62|35=0|34=497|49=INITIATOR|52=20190610-12:39:34.409|56=ACCEPTOR|10=159|8=FIXT.1.1|9=62|35=0|34=498|49=INITIATOR|52=20190610-12:39:54.429|56=ACCEPTOR|10=164|8=FIXT.1.1|9=62|35=0|34=499|49=INITIATOR|52=20190610-12:40:14.447|56=ACCEPTOR|10=153|8=FIXT.1.1|9=62|35=0|34=500|49=INITIATOR|52=20190610-12:40:34.466|56=ACCEPTOR|10=139|8=FIXT.1.1|9=62|35=0|34=501|49=INITIATOR|52=20190610-12:40:54.486|56=ACCEPTOR|10=144|8=FIXT.1.1|9=62|35=0|34=502|49=INITIATOR|52=20190610-12:41:14.506|56=ACCEPTOR|10=135|8=FIXT.1.1|9=62|35=0|34=503|49=INITIATOR|52=20190610-12:41:34.525|56=ACCEPTOR|10=139|8=FIXT.1.1|9=62|35=0|34=504|49=INITIATOR|52=20190610-12:41:54.545|56=ACCEPTOR|10=144|8=FIXT.1.1|9=62|35=0|34=505|49=INITIATOR|52=20190610-12:42:14.564|56=ACCEPTOR|10=143|8=FIXT.1.1|9=62|35=0|34=506|49=INITIATOR|52=20190610-12:42:34.584|56=ACCEPTOR|10=148|8=FIXT.1.1|9=107|35=A|34=507|49=INITIATOR|52=20190610-13:15:23.215|56=ACCEPTOR|98=0|108=20|553=USERNAME|554=PASSWORD|1137=7|10=175|8=FIXT.1.1|9=62|35=0|34=508|49=INITIATOR|52=20190610-13:15:43.243|56=ACCEPTOR|10=143|8=FIXT.1.1|9=62|35=0|34=509|49=INITIATOR|52=20190610-13:16:03.263|56=ACCEPTOR|10=143|8=FIXT.1.1|9=62|35=0|34=510|49=INITIATOR|52=20190610-13:16:23.281|56=ACCEPTOR|10=137|8=FIXT.1.1|9=62|35=0|34=511|49=INITIATOR|52=20190610-13:16:43.298|56=ACCEPTOR|10=148|8=FIXT.1.1|9=62|35=0|34=512|49=INITIATOR|52=20190610-13:17:03.318|56=ACCEPTOR|10=139|8=FIXT.1.1|9=62|35=0|34=513|49=INITIATOR|52=20190610-13:17:23.333|56=ACCEPTOR|10=139|8=FIXT.1.1|9=62|35=0|34=514|49=INITIATOR|52=20190610-13:17:43.353|56=ACCEPTOR|10=144|8=FIXT.1.1|9=62|35=0|34=515|49=INITIATOR|52=20190610-13:18:03.370|56=ACCEPTOR|10=141|8=FIXT.1.1|9=62|35=0|34=516|49=INITIATOR|52=20190610-13:18:23.389|56=ACCEPTOR|10=154|8=FIXT.1.1|9=62|35=0|34=517|49=INITIATOR|52=20190610-13:18:43.408|56=ACCEPTOR|10=149|8=FIXT.1.1|9=62|35=0|34=518|49=INITIATOR|52=20190610-13:19:03.424|56=ACCEPTOR|10=145|8=FIXT.1.1|9=62|35=0|34=519|49=INITIATOR|52=20190610-13:19:23.442|56=ACCEPTOR|10=148|8=FIXT.1.1|9=62|35=0|34=520|49=INITIATOR|52=20190610-13:19:43.461|56=ACCEPTOR|10=143|8=FIXT.1.1|9=62|35=0|34=521|49=INITIATOR|52=20190610-13:20:03.481|56=ACCEPTOR|10=134|8=FIXT.1.1|9=62|35=0|34=522|49=INITIATOR|52=20190610-13:20:23.501|56=ACCEPTOR|10=130|8=FIXT.1.1|9=62|35=0|34=523|49=INITIATOR|52=20190610-13:20:43.521|56=ACCEPTOR|10=135|8=FIXT.1.1|9=62|35=0|34=524|49=INITIATOR|52=20190610-13:21:03.541|56=ACCEPTOR|10=135|8=FIXT.1.1|9=62|35=0|34=525|49=INITIATOR|52=20190610-13:21:23.559|56=ACCEPTOR|10=147|8=FIXT.1.1|9=62|35=0|34=526|49=INITIATOR|52=20190610-13:21:43.575|56=ACCEPTOR|10=148|8=FIXT.1.1|9=62|35=0|34=527|49=INITIATOR|52=20190610-13:22:03.596|56=ACCEPTOR|10=149|8=FIXT.1.1|9=62|35=0|34=528|49=INITIATOR|52=20190610-13:22:23.615|56=ACCEPTOR|10=144|8=FIXT.1.1|9=62|35=0|34=529|49=INITIATOR|52=20190610-13:22:43.633|56=ACCEPTOR|10=147|8=FIXT.1.1|9=62|35=0|34=530|49=INITIATOR|52=20190610-13:23:03.652|56=ACCEPTOR|10=137|8=FIXT.1.1|9=62|35=0|34=531|49=INITIATOR|52=20190610-13:23:23.671|56=ACCEPTOR|10=141|8=FIXT.1.1|9=62|35=0|34=532|49=INITIATOR|52=20190610-13:23:43.690|56=ACCEPTOR|10=145|8=FIXT.1.1|9=62|35=0|34=533|49=INITIATOR|52=20190610-13:24:03.709|56=ACCEPTOR|10=144|8=FIXT.1.1|9=107|35=A|34=534|49=INITIATOR|52=20190610-13:24:17.355|56=ACCEPTOR|98=0|108=20|553=USERNAME|554=PASSWORD|1137=7|10=183|8=FIXT.1.1|9=107|35=A|34=535|49=INITIATOR|52=20190610-13:24:47.383|56=ACCEPTOR|98=0|108=20|553=USERNAME|554=PASSWORD|1137=7|10=188|8=FIXT.1.1|9=107|35=A|34=536|49=INITIATOR|52=20190610-13:25:17.411|56=ACCEPTOR|98=0|108=20|553=USERNAME|554=PASSWORD|1137=7|10=179|8=FIXT.1.1|9=107|35=A|34=537|49=INITIATOR|52=20190610-13:25:30.634|56=ACCEPTOR|98=0|108=20|553=USERNAME|554=PASSWORD|1137=7|10=182|8=FIXT.1.1|9=62|35=0|34=538|49=INITIATOR|52=20190610-13:25:51.656|56=ACCEPTOR|10=154|8=FIXT.1.1|9=62|35=0|34=539|49=INITIATOR|52=20190610-13:26:11.676|56=ACCEPTOR|10=154|8=FIXT.1.1|9=62|35=0|34=540|49=INITIATOR|52=20190610-13:26:31.686|56=ACCEPTOR|10=149|8=FIXT.1.1|9=62|35=0|34=541|49=INITIATOR|52=20190610-13:26:51.705|56=ACCEPTOR|10=144|8=FIXT.1.1|9=62|35=0|34=542|49=INITIATOR|52=20190610-13:27:11.722|56=ACCEPTOR|10=141|8=FIXT.1.1|9=62|35=0|34=543|49=INITIATOR|52=20190610-13:27:31.742|56=ACCEPTOR|10=146|8=FIXT.1.1|9=62|35=0|34=544|49=INITIATOR|52=20190610-13:27:51.762|56=ACCEPTOR|10=151|8=FIXT.1.1|9=62|35=0|34=545|49=INITIATOR|52=20190610-13:28:11.780|56=ACCEPTOR|10=149|8=FIXT.1.1|9=107|35=A|34=546|49=INITIATOR|52=20190610-13:28:22.295|56=ACCEPTOR|98=0|108=20|553=USERNAME|554=PASSWORD|1137=7|10=189|8=FIXT.1.1|9=62|35=0|34=547|49=INITIATOR|52=20190610-13:28:42.316|56=ACCEPTOR|10=150|8=FIXT.1.1|9=62|35=0|34=548|49=INITIATOR|52=20190610-13:29:02.337|56=ACCEPTOR|10=151|8=FIXT.1.1|9=107|35=A|34=549|49=INITIATOR|52=20190610-13:29:29.042|56=ACCEPTOR|98=0|108=20|553=USERNAME|554=PASSWORD|1137=7|10=190|8=FIXT.1.1|9=318|35=AE|34=550|49=INITIATOR|52=20190610-13:29:37.136|56=ACCEPTOR|15=CNY|22=4|30=SINT|31=23|32=12|48=0X1213|55=BAC|60=20190610-18:59:28.956|75=20190610|423=1|552=2|54=1|453=2|447=N|448=party_one|452=56|447=N|448=party_two|452=56|54=3|856=0|1003=1xsasdfdf|1116=2|1117=12|1118=G|1119=3|1117=15|1118=G|1119=3|1924=1|1934=11|10=151|