8=FIXT.1.1|9=157|35=D|34=1|49=INITIATOR|52=20190604-11:35:33.738|56=ACCEPTOR|11=0E0Z86K00000|22=1|38=200|40=2|48=06051GDX4|54=1|55=BAC|60=20190604-17:05:33.733|218=100|423=6|10=244|8=FIXT.1.1|9=105|35=A|34=2|49=INITIATOR|52=20190604-11:35:33.746|56=ACCEPTOR|98=0|108=20|553=USERNAME|554=PASSWORD|1137=7|10=080|8=FIXT.1.1|9=60|35=0|34=3|49=INITIATOR|52=20190604-11:35:55.346|56=ACCEPTOR|10=045|8=FIXT.1.1|9=60|35=0|34=4|49=INITIATOR|52=20190604-11:36:15.789|56=ACCEPTOR|10=054|8=FIXT.1.1|9=60|35=0|34=5|49=INITIATOR|52=20190604-11:36:35.247|56=ACCEPTOR|10=046|8=FIXT.1.1|9=60|35=0|34=6|49=INITIATOR|52=20190604-11:36:55.841|56=ACCEPTOR|10=049|8=FIXT.1.1|9=60|35=0|34=7|49=INITIATOR|52=20190604-11:37:15.207|56=ACCEPTOR|10=043|8=FIXT.1.1|9=60|35=0|34=8|49=INITIATOR|52=20190604-11:37:35.879|56=ACCEPTOR|10=061|8=FIXT.1.1|9=60|35=0|34=9|49=INITIATOR|52=20190604-11:37:55.900|56=ACCEPTOR|10=049|8=FIXT.1.1|9=61|35=0|34=10|49=INITIATOR|52=20190604-11:38:15.919|56=ACCEPTOR|10=097|8=FIXT.1.1|9=61|35=0|34=11|49=INITIATOR|52=20190604-11:38:35.938|56=ACCEPTOR|10=101|8=FIXT.1.1|9=61|35=0|34=12|49=INITIATOR|52=20190604-11:38:55.955|56=ACCEPTOR|10=103|8=FIXT.1.1|9=61|35=0|34=13|49=INITIATOR|52=20190604-11:39:15.976|56=ACCEPTOR|10=104|8=FIXT.1.1|9=61|35=0|34=14|49=INITIATOR|52=20190604-11:39:35.995|56=ACCEPTOR|10=108|8=FIXT.1.1|9=61|35=0|34=15|49=INITIATOR|52=20190604-11:39:55.015|56=ACCEPTOR|10=094|8=FIXT.1.1|9=61|35=0|34=16|49=INITIATOR|52=20190604-11:40:15.035|56=ACCEPTOR|10=085|8=FIXT.1.1|9=61|35=0|34=17|49=INITIATOR|52=20190604-11:40:35.055|56=ACCEPTOR|10=090|8=FIXT.1.1|9=61|35=0|34=18|49=INITIATOR|52=20190604-11:40:55.075|56=ACCEPTOR|10=095|8=FIXT.1.1|9=61|35=0|34=19|49=INITIATOR|52=20190604-11:41:15.096|56=ACCEPTOR|10=096|8=FIXT.1.1|9=61|35=0|34=20|49=INITIATOR|52=20190604-11:41:35.114|56=ACCEPTOR|10=081|8=FIXT.1.1|9=61|35=0|34=21|49=INITIATOR|52=20190604-11:41:55.135|56=ACCEPTOR|10=087|8=FIXT.1.1|9=61|35=0|34=22|49=INITIATOR|52=20190604-11:42:15.062|56=ACCEPTOR|10=084|8=FIXT.1.1|9=61|35=0|34=23|49=INITIATOR|52=20190604-11:42:35.174|56=ACCEPTOR|10=091|8=FIXT.1.1|9=61|35=0|34=24|49=INITIATOR|52=20190604-11:42:55.193|56=ACCEPTOR|10=095|8=FIXT.1.1|9=61|35=0|34=25|49=INITIATOR|52=20190604-11:43:15.213|56=ACCEPTOR|10=086|8=FIXT.1.1|9=61|35=0|34=26|49=INITIATOR|52=20190604-11:43:35.153|56=ACCEPTOR|10=092|8=FIXT.1.1|9=61|35=0|34=27|49=INITIATOR|52=20190604-11:43:55.246|56=ACCEPTOR|10=098|8=FIXT.1.1|9=61|35=0|34=28|49=INITIATOR|52=20190604-11:44:15.035|56=ACCEPTOR|10=092|8=FIXT.1.1|9=61|35=0|34=29|49=INITIATOR|52=20190604-11:44:35.280|56=ACCEPTOR|10=097|8=FIXT.1.1|9=61|35=0|34=30|49=INITIATOR|52=20190604-11:44:55.297|56=ACCEPTOR|10=099|8=FIXT.1.1|9=61|35=0|34=31|49=INITIATOR|52=20190604-11:45:15.316|56=ACCEPTOR|10=089|8=FIXT.1.1|9=61|35=0|34=32|49=INITIATOR|52=20190604-11:45:35.300|56=ACCEPTOR|10=085|8=FIXT.1.1|9=61|35=0|34=33|49=INITIATOR|52=20190604-11:45:55.354|56=ACCEPTOR|10=097|8=FIXT.1.1|9=61|35=0|34=34|49=INITIATOR|52=20190604-11:46:15.373|56=ACCEPTOR|10=096|8=FIXT.1.1|9=61|35=0|34=35|49=INITIATOR|52=20190604-11:46:35.394|56=ACCEPTOR|10=102|8=FIXT.1.1|9=61|35=0|34=36|49=INITIATOR|52=20190604-11:46:55.414|56=ACCEPTOR|10=098|8=FIXT.1.1|9=61|35=0|34=37|49=INITIATOR|52=20190604-11:47:15.434|56=ACCEPTOR|10=098|8=FIXT.1.1|9=61|35=0|34=38|49=INITIATOR|52=20190604-11:47:35.454|56=ACCEPTOR|10=103|8=FIXT.1.1|9=61|35=0|34=39|49=INITIATOR|52=20190604-11:47:55.474|56=ACCEPTOR|10=108|8=FIXT.1.1|9=61|35=0|34=40|49=INITIATOR|52=20190604-11:48:15.495|56=ACCEPTOR|10=100|8=FIXT.1.1|9=61|35=0|34=41|49=INITIATOR|52=20190604-11:48:35.516|56=ACCEPTOR|10=097|8=FIXT.1.1|9=61|35=0|34=42|49=INITIATOR|52=20190604-11:48:55.535|56=ACCEPTOR|10=101|8=FIXT.1.1|9=61|35=0|34=43|49=INITIATOR|52=20190604-11:49:15.554|56=ACCEPTOR|10=100|8=FIXT.1.1|9=61|35=0|34=44|49=INITIATOR|52=20190604-11:49:35.457|56=ACCEPTOR|10=105|