8=FIXT.1.1|9=105|35=A|34=1|49=INITIATOR|52=20190612-10:00:05.754|56=ACCEPTOR|98=0|108=20|553=USERNAME|554=PASSWORD|1137=7|10=067|8=FIXT.1.1|9=105|35=A|34=2|49=INITIATOR|52=20190612-10:00:35.792|56=ACCEPTOR|98=0|108=20|553=USERNAME|554=PASSWORD|1137=7|10=073|8=FIXT.1.1|9=60|35=0|34=3|49=INITIATOR|52=20190612-10:00:57.814|56=ACCEPTOR|10=037|8=FIXT.1.1|9=105|35=A|34=4|49=INITIATOR|52=20190612-10:53:27.169|56=ACCEPTOR|98=0|108=20|553=USERNAME|554=PASSWORD|1137=7|10=082|8=FIXT.1.1|9=60|35=0|34=5|49=INITIATOR|52=20190612-10:53:47.189|56=ACCEPTOR|10=051|8=FIXT.1.1|9=316|35=AE|34=6|49=INITIATOR|52=20190612-10:53:57.973|56=ACCEPTOR|15=CNY|22=4|30=SINT|31=23|32=12|48=0X1213|55=BAC|60=20190612-16:23:27.128|75=20190612|423=1|552=2|54=1|453=2|447=N|448=party_one|452=56|447=N|448=party_two|452=56|54=3|856=0|1003=1xsasdfdf|1116=2|1117=12|1118=G|1119=3|1117=15|1118=G|1119=3|1924=1|1934=11|10=039|