8=FIXT.1.1|9=157|35=D|34=1|49=INITIATOR|52=20190606-05:08:06.230|56=ACCEPTOR|11=0E0Z86K00000|22=1|38=200|40=2|48=06051GDX4|54=1|55=BAC|60=20190606-10:38:06.228|218=100|423=6|10=236|8=FIXT.1.1|9=105|35=A|34=2|49=INITIATOR|52=20190606-05:08:06.236|56=ACCEPTOR|98=0|108=20|553=USERNAME|554=PASSWORD|1137=7|10=079|8=FIXT.1.1|9=60|35=0|34=3|49=INITIATOR|52=20190606-05:08:27.257|56=ACCEPTOR|10=050|8=FIXT.1.1|9=241|35=AE|34=4|49=INITIATOR|52=20190606-05:08:37.570|56=ACCEPTOR|15=CNY|22=4|30=SINT|31=23|32=12|48=0X1213|54=1|55=BAC|60=20190605-15:43:07.189|75=20190605|423=1|552=1|54=1|856=0|1003=1xsasdfdf|1116=1|1117=12|1118=G|1119=3|1430=E|1924=1|1934=11|10=022|8=FIXT.1.1|9=69|35=0|34=5|49=INITIATOR|52=20190606-05:08:51.360|56=ACCEPTOR|112=TEST|10=071|8=FIXT.1.1|9=60|35=0|34=6|49=INITIATOR|52=20190606-05:09:11.297|56=ACCEPTOR|10=051|8=FIXT.1.1|9=60|35=0|34=7|49=INITIATOR|52=20190606-05:09:31.317|56=ACCEPTOR|10=047|8=FIXT.1.1|9=60|35=0|34=8|49=INITIATOR|52=20190606-05:09:51.336|56=ACCEPTOR|10=051|8=FIXT.1.1|9=60|35=0|34=9|49=INITIATOR|52=20190606-05:10:11.356|56=ACCEPTOR|10=042|8=FIXT.1.1|9=61|35=0|34=10|49=INITIATOR|52=20190606-05:10:31.375|56=ACCEPTOR|10=086|8=FIXT.1.1|9=158|35=D|34=11|49=INITIATOR|52=20190606-05:11:00.780|56=ACCEPTOR|11=0E0Z86K00000|22=1|38=200|40=2|48=06051GDX4|54=1|55=BAC|60=20190606-10:41:00.774|218=100|423=6|10=022|8=FIXT.1.1|9=106|35=A|34=12|49=INITIATOR|52=20190606-05:11:00.784|56=ACCEPTOR|98=0|108=20|553=USERNAME|554=PASSWORD|1137=7|10=125|8=FIXT.1.1|9=237|35=AE|34=13|49=INITIATOR|52=20190606-05:11:06.181|56=ACCEPTOR|15=CNY|22=4|30=SINT|31=23|32=12|48=0X1213|55=BAC|60=20190605-15:43:07.189|75=20190605|423=1|552=1|54=1|856=0|1003=1xsasdfdf|1116=1|1117=12|1118=G|1119=3|1430=E|1924=1|1934=11|10=103|8=FIXT.1.1|9=61|35=0|34=14|49=INITIATOR|52=20190606-05:11:26.807|56=ACCEPTOR|10=095|8=FIXT.1.1|9=158|35=D|34=15|49=INITIATOR|52=20190606-05:15:39.023|56=ACCEPTOR|11=0E0Z86K00000|22=1|38=200|40=2|48=06051GDX4|54=1|55=BAC|60=20190606-10:45:39.021|218=100|423=6|10=033|8=FIXT.1.1|9=106|35=A|34=16|49=INITIATOR|52=20190606-05:15:39.042|56=ACCEPTOR|98=0|108=20|553=USERNAME|554=PASSWORD|1137=7|10=132|8=FIXT.1.1|9=237|35=AE|34=17|49=INITIATOR|52=20190606-05:15:53.258|56=ACCEPTOR|15=CNY|22=4|30=SINT|31=23|32=12|48=0X1213|55=BAC|60=20190605-15:43:07.189|75=20190605|423=1|552=1|54=1|856=0|1003=1xsasdfdf|1116=1|1117=12|1118=G|1119=3|1430=E|1924=1|1934=11|10=118|8=FIXT.1.1|9=106|35=A|34=18|49=INITIATOR|52=20190606-05:16:09.071|56=ACCEPTOR|98=0|108=20|553=USERNAME|554=PASSWORD|1137=7|10=134|8=FIXT.1.1|9=106|35=A|34=19|49=INITIATOR|52=20190606-05:16:39.097|56=ACCEPTOR|98=0|108=20|553=USERNAME|554=PASSWORD|1137=7|10=146|8=FIXT.1.1|9=106|35=A|34=20|49=INITIATOR|52=20190606-05:17:09.123|56=ACCEPTOR|98=0|108=20|553=USERNAME|554=PASSWORD|1137=7|10=126|8=FIXT.1.1|9=106|35=A|34=21|49=INITIATOR|52=20190606-05:17:39.151|56=ACCEPTOR|98=0|108=20|553=USERNAME|554=PASSWORD|1137=7|10=131|8=FIXT.1.1|9=106|35=A|34=22|49=INITIATOR|52=20190606-05:18:09.178|56=ACCEPTOR|98=0|108=20|553=USERNAME|554=PASSWORD|1137=7|10=139|8=FIXT.1.1|9=158|35=D|34=23|49=INITIATOR|52=20190606-05:20:53.503|56=ACCEPTOR|11=0E0Z86K00000|22=1|38=200|40=2|48=06051GDX4|54=1|55=BAC|60=20190606-10:50:53.469|218=100|423=6|10=035|8=FIXT.1.1|9=106|35=A|34=24|49=INITIATOR|52=20190606-05:20:53.537|56=ACCEPTOR|98=0|108=20|553=USERNAME|554=PASSWORD|1137=7|10=132|8=FIXT.1.1|9=158|35=D|34=25|49=INITIATOR|52=20190606-05:21:29.413|56=ACCEPTOR|11=0E0Z86K00000|22=1|38=200|40=2|48=06051GDX4|54=1|55=BAC|60=20190606-10:51:29.410|218=100|423=6|10=031|8=FIXT.1.1|9=106|35=A|34=26|49=INITIATOR|52=20190606-05:21:29.418|56=ACCEPTOR|98=0|108=20|553=USERNAME|554=PASSWORD|1137=7|10=136|8=FIXT.1.1|9=237|35=AE|34=27|49=INITIATOR|52=20190606-05:21:37.490|56=ACCEPTOR|15=CNY|22=4|30=SINT|31=23|32=12|48=0X1213|55=BAC|60=20190605-15:43:07.189|75=20190605|423=1|552=1|54=1|856=0|1003=1xsasdfdf|1116=1|1117=12|1118=G|1119=3|1430=E|1924=1|1934=11|10=116|8=FIXT.1.1|9=106|35=A|34=28|49=INITIATOR|52=20190606-05:21:59.447|56=ACCEPTOR|98=0|108=20|553=USERNAME|554=PASSWORD|1137=7|10=143|8=FIXT.1.1|9=158|35=D|34=29|49=INITIATOR|52=20190606-05:22:24.020|56=ACCEPTOR|11=0E0Z86K00000|22=1|38=200|40=2|48=06051GDX4|54=1|55=BAC|60=20190606-10:52:24.017|218=100|423=6|10=024|8=FIXT.1.1|9=106|35=A|34=30|49=INITIATOR|52=20190606-05:22:24.020|56=ACCEPTOR|98=0|108=20|553=USERNAME|554=PASSWORD|1137=7|10=116|8=FIXT.1.1|9=237|35=AE|34=31|49=INITIATOR|52=20190606-05:22:33.403|56=ACCEPTOR|15=CNY|22=4|30=SINT|31=23|32=12|48=0X1213|55=BAC|60=20190605-15:43:07.189|75=20190605|423=1|552=1|54=1|856=0|1003=1xsasdfdf|1116=1|1117=12|1118=G|1119=3|1430=E|1924=1|1934=11|10=102|8=FIXT.1.1|9=61|35=0|34=32|49=INITIATOR|52=20190606-05:22:53.059|56=ACCEPTOR|10=096|8=FIXT.1.1|9=61|35=0|34=33|49=INITIATOR|52=20190606-05:23:13.079|56=ACCEPTOR|10=096|8=FIXT.1.1|9=158|35=D|34=34|49=INITIATOR|52=20190606-05:24:49.746|56=ACCEPTOR|11=0E0Z86K00000|22=1|38=200|40=2|48=06051GDX4|54=1|55=BAC|60=20190606-10:54:49.744|218=100|423=6|10=060|8=FIXT.1.1|9=106|35=A|34=35|49=INITIATOR|52=20190606-05:24:49.769|56=ACCEPTOR|98=0|108=20|553=USERNAME|554=PASSWORD|1137=7|10=150|8=FIXT.1.1|9=237|35=AE|34=36|49=INITIATOR|52=20190606-05:24:55.253|56=ACCEPTOR|15=CNY|22=4|30=SINT|31=23|32=12|48=0X1213|55=BAC|60=20190605-15:43:07.189|75=20190605|423=1|552=1|54=1|856=0|1003=1xsasdfdf|1116=1|1117=12|1118=G|1119=3|1430=E|1924=1|1934=11|10=116|8=FIXT.1.1|9=61|35=0|34=37|49=INITIATOR|52=20190606-05:25:15.795|56=ACCEPTOR|10=109|8=FIXT.1.1|9=158|35=D|34=38|49=INITIATOR|52=20190606-05:25:48.799|56=ACCEPTOR|11=0E0Z86K00000|22=1|38=200|40=2|48=06051GDX4|54=1|55=BAC|60=20190606-10:55:48.793|218=100|423=6|10=076|8=FIXT.1.1|9=106|35=A|34=39|49=INITIATOR|52=20190606-05:25:48.799|56=ACCEPTOR|98=0|108=20|553=USERNAME|554=PASSWORD|1137=7|10=157|8=FIXT.1.1|9=237|35=AE|34=40|49=INITIATOR|52=20190606-05:25:54.524|56=ACCEPTOR|15=CNY|22=4|30=SINT|31=23|32=12|48=0X1213|55=BAC|60=20190605-15:43:07.189|75=20190605|423=1|552=1|54=1|856=0|1003=1xsasdfdf|1116=1|1117=12|1118=G|1119=3|1430=E|1924=1|1934=11|10=112|8=FIXT.1.1|9=61|35=0|34=41|49=INITIATOR|52=20190606-05:26:14.823|56=ACCEPTOR|10=096|8=FIXT.1.1|9=61|35=0|34=42|49=INITIATOR|52=20190606-05:26:34.840|56=ACCEPTOR|10=098|8=FIXT.1.1|9=61|35=0|34=43|49=INITIATOR|52=20190606-05:26:54.859|56=ACCEPTOR|10=111|8=FIXT.1.1|9=61|35=0|34=44|49=INITIATOR|52=20190606-05:27:14.879|56=ACCEPTOR|10=111|8=FIXT.1.1|9=61|35=0|34=45|49=INITIATOR|52=20190606-05:27:34.899|56=ACCEPTOR|10=116|8=FIXT.1.1|9=61|35=0|34=46|49=INITIATOR|52=20190606-05:27:54.918|56=ACCEPTOR|10=111|8=FIXT.1.1|9=61|35=0|34=47|49=INITIATOR|52=20190606-05:28:14.937|56=ACCEPTOR|10=110|8=FIXT.1.1|9=61|35=0|34=48|49=INITIATOR|52=20190606-05:28:34.955|56=ACCEPTOR|10=113|8=FIXT.1.1|9=61|35=0|34=49|49=INITIATOR|52=20190606-05:28:54.975|56=ACCEPTOR|10=118|8=FIXT.1.1|9=61|35=0|34=50|49=INITIATOR|52=20190606-05:29:14.996|56=ACCEPTOR|10=110|8=FIXT.1.1|9=61|35=0|34=51|49=INITIATOR|52=20190606-05:29:34.014|56=ACCEPTOR|10=094|8=FIXT.1.1|9=61|35=0|34=52|49=INITIATOR|52=20190606-05:29:54.034|56=ACCEPTOR|10=099|8=FIXT.1.1|9=61|35=0|34=53|49=INITIATOR|52=20190606-05:30:14.053|56=ACCEPTOR|10=089|8=FIXT.1.1|9=61|35=0|34=54|49=INITIATOR|52=20190606-05:30:34.072|56=ACCEPTOR|10=093|8=FIXT.1.1|9=61|35=0|34=55|49=INITIATOR|52=20190606-05:30:54.091|56=ACCEPTOR|10=097|8=FIXT.1.1|9=61|35=0|34=56|49=INITIATOR|52=20190606-05:31:14.108|56=ACCEPTOR|10=094|8=FIXT.1.1|9=61|35=0|34=57|49=INITIATOR|52=20190606-05:31:34.128|56=ACCEPTOR|10=099|8=FIXT.1.1|9=61|35=0|34=58|49=INITIATOR|52=20190606-05:31:54.147|56=ACCEPTOR|10=103|8=FIXT.1.1|9=158|35=D|34=59|49=INITIATOR|52=20190606-06:05:57.169|56=ACCEPTOR|11=0E0Z86K00000|22=1|38=200|40=2|48=06051GDX4|54=1|55=BAC|60=20190606-11:35:57.167|218=100|423=6|10=063|8=FIXT.1.1|9=106|35=A|34=60|49=INITIATOR|52=20190606-06:05:57.189|56=ACCEPTOR|98=0|108=20|553=USERNAME|554=PASSWORD|1137=7|10=143|8=FIXT.1.1|9=61|35=0|34=61|49=INITIATOR|52=20190606-06:06:18.215|56=ACCEPTOR|10=096|8=FIXT.1.1|9=61|35=0|34=62|49=INITIATOR|52=20190606-06:06:38.235|56=ACCEPTOR|10=101|8=FIXT.1.1|9=61|35=0|34=63|49=INITIATOR|52=20190606-06:06:58.255|56=ACCEPTOR|10=106|8=FIXT.1.1|9=61|35=0|34=64|49=INITIATOR|52=20190606-06:07:18.273|56=ACCEPTOR|10=104|8=FIXT.1.1|9=237|35=AE|34=65|49=INITIATOR|52=20190606-06:07:36.180|56=ACCEPTOR|15=CNY|22=4|30=SINT|31=23|32=12|48=0X1213|55=BAC|60=20190605-15:43:07.189|75=20190605|423=1|552=1|54=1|856=0|1003=1xsasdfdf|1116=1|1117=12|1118=G|1119=3|1430=E|1924=1|1934=11|10=118|8=FIXT.1.1|9=61|35=0|34=66|49=INITIATOR|52=20190606-06:07:56.309|56=ACCEPTOR|10=108|8=FIXT.1.1|9=61|35=0|34=67|49=INITIATOR|52=20190606-06:08:16.328|56=ACCEPTOR|10=107|8=FIXT.1.1|9=61|35=0|34=68|49=INITIATOR|52=20190606-06:08:36.348|56=ACCEPTOR|10=112|8=FIXT.1.1|9=61|35=0|34=69|49=INITIATOR|52=20190606-06:08:56.368|56=ACCEPTOR|10=117|8=FIXT.1.1|9=61|35=0|34=70|49=INITIATOR|52=20190606-06:09:16.388|56=ACCEPTOR|10=108|8=FIXT.1.1|9=61|35=0|34=71|49=INITIATOR|52=20190606-06:09:36.407|56=ACCEPTOR|10=103|8=FIXT.1.1|9=61|35=0|34=72|49=INITIATOR|52=20190606-06:09:56.427|56=ACCEPTOR|10=108|8=FIXT.1.1|9=61|35=0|34=73|49=INITIATOR|52=20190606-06:10:16.447|56=ACCEPTOR|10=099|8=FIXT.1.1|9=61|35=0|34=74|49=INITIATOR|52=20190606-06:10:36.465|56=ACCEPTOR|10=102|8=FIXT.1.1|9=61|35=0|34=75|49=INITIATOR|52=20190606-06:10:56.484|56=ACCEPTOR|10=106|8=FIXT.1.1|9=61|35=0|34=76|49=INITIATOR|52=20190606-06:11:16.503|56=ACCEPTOR|10=096|8=FIXT.1.1|9=158|35=D|34=77|49=INITIATOR|52=20190606-06:14:49.241|56=ACCEPTOR|11=0E0Z86K00000|22=1|38=200|40=2|48=06051GDX4|54=1|55=BAC|60=20190606-11:44:49.239|218=100|423=6|10=056|8=FIXT.1.1|9=106|35=A|34=78|49=INITIATOR|52=20190606-06:14:49.253|56=ACCEPTOR|98=0|108=20|553=USERNAME|554=PASSWORD|1137=7|10=145|8=FIXT.1.1|9=61|35=5|34=79|49=INITIATOR|52=20190606-06:14:49.780|56=ACCEPTOR|10=120|8=FIXT.1.1|9=106|35=A|34=80|49=INITIATOR|52=20190606-06:14:49.780|56=ACCEPTOR|98=0|108=20|553=USERNAME|554=PASSWORD|1137=7|10=143|8=FIXT.1.1|9=158|35=D|34=81|49=INITIATOR|52=20190606-06:16:02.018|56=ACCEPTOR|11=0E0Z86K00000|22=1|38=200|40=2|48=06051GDX4|54=1|55=BAC|60=20190606-11:46:02.013|218=100|423=6|10=025|8=FIXT.1.1|9=106|35=A|34=82|49=INITIATOR|52=20190606-06:16:02.025|56=ACCEPTOR|98=0|108=20|553=USERNAME|554=PASSWORD|1137=7|10=128|8=FIXT.1.1|9=106|35=A|34=83|49=INITIATOR|52=20190606-06:16:32.052|56=ACCEPTOR|98=0|108=20|553=USERNAME|554=PASSWORD|1137=7|10=132|8=FIXT.1.1|9=158|35=D|34=84|49=INITIATOR|52=20190606-06:17:20.296|56=ACCEPTOR|11=0E0Z86K00000|22=1|38=200|40=2|48=06051GDX4|54=1|55=BAC|60=20190606-11:47:20.294|218=100|423=6|10=049|8=FIXT.1.1|9=106|35=A|34=85|49=INITIATOR|52=20190606-06:17:20.300|56=ACCEPTOR|98=0|108=20|553=USERNAME|554=PASSWORD|1137=7|10=128|8=FIXT.1.1|9=61|35=0|34=86|49=INITIATOR|52=20190606-06:17:41.322|56=ACCEPTOR|10=100|8=FIXT.1.1|9=230|35=AE|34=87|49=INITIATOR|52=20190606-06:17:43.341|56=ACCEPTOR|15=CNY|22=4|30=SINT|31=23|32=12|48=0X1213|55=BAC|60=20190605-15:43:07.189|75=20190605|423=1|552=1|54=1|856=0|1003=1xsasdfdf|1116=1|1117=12|1118=G|1119=3|1924=1|1934=11|10=038|8=FIXT.1.1|9=61|35=0|34=88|49=INITIATOR|52=20190606-06:18:03.341|56=ACCEPTOR|10=102|8=FIXT.1.1|9=61|35=0|34=89|49=INITIATOR|52=20190606-06:18:23.361|56=ACCEPTOR|10=107|8=FIXT.1.1|9=61|35=0|34=90|49=INITIATOR|52=20190606-06:18:43.380|56=ACCEPTOR|10=102|8=FIXT.1.1|9=61|35=0|34=91|49=INITIATOR|52=20190606-06:19:03.400|56=ACCEPTOR|10=093|8=FIXT.1.1|9=61|35=0|34=92|49=INITIATOR|52=20190606-06:19:23.418|56=ACCEPTOR|10=105|8=FIXT.1.1|9=61|35=0|34=93|49=INITIATOR|52=20190606-06:19:43.437|56=ACCEPTOR|10=109|8=FIXT.1.1|9=61|35=0|34=94|49=INITIATOR|52=20190606-06:20:03.457|56=ACCEPTOR|10=100|8=FIXT.1.1|9=61|35=0|34=95|49=INITIATOR|52=20190606-06:20:23.477|56=ACCEPTOR|10=105|8=FIXT.1.1|9=61|35=0|34=96|49=INITIATOR|52=20190606-06:20:43.497|56=ACCEPTOR|10=110|8=FIXT.1.1|9=61|35=0|34=97|49=INITIATOR|52=20190606-06:21:03.517|56=ACCEPTOR|10=101|8=FIXT.1.1|9=61|35=0|34=98|49=INITIATOR|52=20190606-06:21:23.537|56=ACCEPTOR|10=106|8=FIXT.1.1|9=61|35=0|34=99|49=INITIATOR|52=20190606-06:21:43.556|56=ACCEPTOR|10=110|8=FIXT.1.1|9=62|35=0|34=100|49=INITIATOR|52=20190606-06:22:03.576|56=ACCEPTOR|10=141|8=FIXT.1.1|9=62|35=0|34=101|49=INITIATOR|52=20190606-06:22:23.596|56=ACCEPTOR|10=146|8=FIXT.1.1|9=62|35=0|34=102|49=INITIATOR|52=20190606-06:22:43.616|56=ACCEPTOR|10=142|8=FIXT.1.1|9=62|35=0|34=103|49=INITIATOR|52=20190606-06:23:03.634|56=ACCEPTOR|10=140|8=FIXT.1.1|9=62|35=0|34=104|49=INITIATOR|52=20190606-06:23:23.651|56=ACCEPTOR|10=142|8=FIXT.1.1|9=62|35=0|34=105|49=INITIATOR|52=20190606-06:23:43.669|56=ACCEPTOR|10=154|8=FIXT.1.1|9=62|35=0|34=106|49=INITIATOR|52=20190606-06:24:03.686|56=ACCEPTOR|10=151|8=FIXT.1.1|9=62|35=0|34=107|49=INITIATOR|52=20190606-06:24:23.699|56=ACCEPTOR|10=158|8=FIXT.1.1|9=62|35=0|34=108|49=INITIATOR|52=20190606-06:24:43.717|56=ACCEPTOR|10=152|8=FIXT.1.1|9=62|35=0|34=109|49=INITIATOR|52=20190606-06:25:03.735|56=ACCEPTOR|10=150|8=FIXT.1.1|9=62|35=0|34=110|49=INITIATOR|52=20190606-06:25:23.754|56=ACCEPTOR|10=145|8=FIXT.1.1|9=62|35=0|34=111|49=INITIATOR|52=20190606-06:25:43.771|56=ACCEPTOR|10=147|8=FIXT.1.1|9=62|35=0|34=112|49=INITIATOR|52=20190606-06:26:03.791|56=ACCEPTOR|10=147|8=FIXT.1.1|9=62|35=0|34=113|49=INITIATOR|52=20190606-06:26:23.809|56=ACCEPTOR|10=150|8=FIXT.1.1|9=62|35=0|34=114|49=INITIATOR|52=20190606-06:26:43.828|56=ACCEPTOR|10=154|8=FIXT.1.1|9=62|35=0|34=115|49=INITIATOR|52=20190606-06:27:03.846|56=ACCEPTOR|10=152|8=FIXT.1.1|9=62|35=0|34=116|49=INITIATOR|52=20190606-06:27:23.864|56=ACCEPTOR|10=155|8=FIXT.1.1|9=62|35=0|34=117|49=INITIATOR|52=20190606-06:27:43.882|56=ACCEPTOR|10=158|8=FIXT.1.1|9=62|35=0|34=118|49=INITIATOR|52=20190606-06:28:03.902|56=ACCEPTOR|10=149|8=FIXT.1.1|9=62|35=0|34=119|49=INITIATOR|52=20190606-06:28:23.921|56=ACCEPTOR|10=153|8=FIXT.1.1|9=62|35=0|34=120|49=INITIATOR|52=20190606-06:28:43.940|56=ACCEPTOR|10=148|8=FIXT.1.1|9=62|35=0|34=121|49=INITIATOR|52=20190606-06:29:03.958|56=ACCEPTOR|10=155|8=FIXT.1.1|9=62|35=0|34=122|49=INITIATOR|52=20190606-06:29:23.976|56=ACCEPTOR|10=158|8=FIXT.1.1|9=62|35=0|34=123|49=INITIATOR|52=20190606-06:29:43.989|56=ACCEPTOR|10=165|8=FIXT.1.1|9=62|35=0|34=124|49=INITIATOR|52=20190606-06:30:03.007|56=ACCEPTOR|10=135|8=FIXT.1.1|9=62|35=0|34=125|49=INITIATOR|52=20190606-06:30:23.027|56=ACCEPTOR|10=140|8=FIXT.1.1|9=62|35=0|34=126|49=INITIATOR|52=20190606-06:30:43.046|56=ACCEPTOR|10=144|8=FIXT.1.1|9=62|35=0|34=127|49=INITIATOR|52=20190606-06:31:03.066|56=ACCEPTOR|10=144|8=FIXT.1.1|9=62|35=0|34=128|49=INITIATOR|52=20190606-06:31:23.085|56=ACCEPTOR|10=148|8=FIXT.1.1|9=62|35=0|34=129|49=INITIATOR|52=20190606-06:31:43.103|56=ACCEPTOR|10=142|8=FIXT.1.1|9=62|35=0|34=130|49=INITIATOR|52=20190606-06:32:03.121|56=ACCEPTOR|10=131|8=FIXT.1.1|9=62|35=0|34=131|49=INITIATOR|52=20190606-06:32:23.138|56=ACCEPTOR|10=142|8=FIXT.1.1|9=62|35=0|34=132|49=INITIATOR|52=20190606-06:32:43.157|56=ACCEPTOR|10=146|8=FIXT.1.1|9=62|35=0|34=133|49=INITIATOR|52=20190606-06:33:03.175|56=ACCEPTOR|10=144|8=FIXT.1.1|9=62|35=0|34=134|49=INITIATOR|52=20190606-06:33:23.194|56=ACCEPTOR|10=148|8=FIXT.1.1|9=62|35=0|34=135|49=INITIATOR|52=20190606-06:33:43.213|56=ACCEPTOR|10=143|8=FIXT.1.1|9=62|35=0|34=136|49=INITIATOR|52=20190606-06:34:03.233|56=ACCEPTOR|10=143|8=FIXT.1.1|9=62|35=0|34=137|49=INITIATOR|52=20190606-06:34:23.253|56=ACCEPTOR|10=148|8=FIXT.1.1|9=62|35=0|34=138|49=INITIATOR|52=20190606-06:34:43.268|56=ACCEPTOR|10=157|8=FIXT.1.1|9=62|35=0|34=139|49=INITIATOR|52=20190606-06:35:03.287|56=ACCEPTOR|10=156|8=FIXT.1.1|9=62|35=0|34=140|49=INITIATOR|52=20190606-06:35:23.305|56=ACCEPTOR|10=141|8=FIXT.1.1|9=62|35=0|34=141|49=INITIATOR|52=20190606-06:35:43.324|56=ACCEPTOR|10=145|8=FIXT.1.1|9=62|35=0|34=142|49=INITIATOR|52=20190606-06:36:03.344|56=ACCEPTOR|10=145|8=FIXT.1.1|9=62|35=0|34=143|49=INITIATOR|52=20190606-06:36:23.363|56=ACCEPTOR|10=149|8=FIXT.1.1|9=62|35=0|34=144|49=INITIATOR|52=20190606-06:36:43.383|56=ACCEPTOR|10=154|8=FIXT.1.1|9=62|35=0|34=145|49=INITIATOR|52=20190606-06:37:03.401|56=ACCEPTOR|10=143|8=FIXT.1.1|9=62|35=0|34=146|49=INITIATOR|52=20190606-06:37:23.416|56=ACCEPTOR|10=152|8=FIXT.1.1|9=159|35=D|34=147|49=INITIATOR|52=20190606-06:59:59.228|56=ACCEPTOR|11=0E0Z86K00000|22=1|38=200|40=2|48=06051GDX4|54=1|55=BAC|60=20190606-12:29:59.226|218=100|423=6|10=119|8=FIXT.1.1|9=107|35=A|34=148|49=INITIATOR|52=20190606-06:59:59.250|56=ACCEPTOR|98=0|108=20|553=USERNAME|554=PASSWORD|1137=7|10=199|8=FIXT.1.1|9=253|35=AE|34=149|49=INITIATOR|52=20190606-07:00:06.631|56=ACCEPTOR|15=CNY|22=4|30=SINT|31=23|32=12|48=0X1213|55=BAC|60=20190605-15:43:07.189|75=20190605|423=1|552=1|54=1|856=0|1003=1xsasdfdf|1116=2|1117=12|1118=G|1119=3|1117=10|1118=E|1119=3|1924=1|1934=11|10=073|8=FIXT.1.1|9=62|35=0|34=150|49=INITIATOR|52=20190606-07:00:26.301|56=ACCEPTOR|10=134|8=FIXT.1.1|9=62|35=0|34=151|49=INITIATOR|52=20190606-07:00:46.318|56=ACCEPTOR|10=145|8=FIXT.1.1|9=62|35=0|34=152|49=INITIATOR|52=20190606-07:01:06.336|56=ACCEPTOR|10=143|8=FIXT.1.1|9=62|35=0|34=153|49=INITIATOR|52=20190606-07:01:26.354|56=ACCEPTOR|10=146|8=FIXT.1.1|9=62|35=0|34=154|49=INITIATOR|52=20190606-07:01:46.374|56=ACCEPTOR|10=151|8=FIXT.1.1|9=62|35=0|34=155|49=INITIATOR|52=20190606-07:02:06.393|56=ACCEPTOR|10=150|8=FIXT.1.1|9=62|35=0|34=156|49=INITIATOR|52=20190606-07:02:26.413|56=ACCEPTOR|10=146|8=FIXT.1.1|9=62|35=0|34=157|49=INITIATOR|52=20190606-07:02:46.432|56=ACCEPTOR|10=150|8=FIXT.1.1|9=159|35=D|34=158|49=INITIATOR|52=20190606-07:15:15.905|56=ACCEPTOR|11=0E0Z86K00000|22=1|38=200|40=2|48=06051GDX4|54=1|55=BAC|60=20190606-12:45:15.899|218=100|423=6|10=114|8=FIXT.1.1|9=107|35=A|34=159|49=INITIATOR|52=20190606-07:15:15.912|56=ACCEPTOR|98=0|108=20|553=USERNAME|554=PASSWORD|1137=7|10=191|8=FIXT.1.1|9=62|35=0|34=160|49=INITIATOR|52=20190606-07:15:36.620|56=ACCEPTOR|10=146|8=FIXT.1.1|9=253|35=AE|34=161|49=INITIATOR|52=20190606-07:15:45.317|56=ACCEPTOR|15=CNY|22=4|30=SINT|31=23|32=12|48=0X1213|55=BAC|60=20190605-15:43:07.189|75=20190605|423=1|552=1|54=1|856=0|1003=1xsasdfdf|1116=2|1117=12|1118=G|1119=3|1117=10|1118=E|1119=3|1924=1|1934=11|10=077|8=FIXT.1.1|9=62|35=0|34=162|49=INITIATOR|52=20190606-07:16:05.981|56=ACCEPTOR|10=155|8=FIXT.1.1|9=62|35=0|34=163|49=INITIATOR|52=20190606-07:16:26.000|56=ACCEPTOR|10=141|8=FIXT.1.1|9=62|35=0|34=164|49=INITIATOR|52=20190606-07:16:46.020|56=ACCEPTOR|10=146|8=FIXT.1.1|9=62|35=0|34=165|49=INITIATOR|52=20190606-07:17:06.039|56=ACCEPTOR|10=154|8=FIXT.1.1|9=62|35=0|34=166|49=INITIATOR|52=20190606-07:17:26.058|56=ACCEPTOR|10=158|8=FIXT.1.1|9=159|35=D|34=167|49=INITIATOR|52=20190606-07:17:46.136|56=ACCEPTOR|11=0E0Z86K00000|22=1|38=200|40=2|48=06051GDX4|54=1|55=BAC|60=20190606-12:47:46.134|218=100|423=6|10=104|8=FIXT.1.1|9=107|35=A|34=168|49=INITIATOR|52=20190606-07:17:46.141|56=ACCEPTOR|98=0|108=20|553=USERNAME|554=PASSWORD|1137=7|10=191|8=FIXT.1.1|9=62|35=5|34=169|49=INITIATOR|52=20190606-07:17:46.755|56=ACCEPTOR|10=172|8=FIXT.1.1|9=107|35=A|34=170|49=INITIATOR|52=20190606-07:17:46.755|56=ACCEPTOR|98=0|108=20|553=USERNAME|554=PASSWORD|1137=7|10=195|8=FIXT.1.1|9=258|35=AE|34=171|49=INITIATOR|52=20190606-07:17:48.294|56=ACCEPTOR|15=CNY|22=4|30=SINT|31=23|32=12|48=0X1213|55=BAC|60=20190605-15:43:07.189|75=20190605|423=1|552=2|54=1|54=2|856=0|1003=1xsasdfdf|1116=2|1117=12|1118=G|1119=3|1117=10|1118=E|1119=3|1924=1|1934=11|10=054|8=FIXT.1.1|9=258|35=AE|34=172|49=INITIATOR|52=20190606-07:18:09.147|56=ACCEPTOR|15=CNY|22=4|30=SINT|31=23|32=12|48=0X1213|55=BAC|60=20190605-15:43:07.189|75=20190605|423=1|552=2|54=1|54=2|856=0|1003=1xsasdfdf|1116=2|1117=12|1118=G|1119=3|1117=10|1118=E|1119=3|1924=1|1934=11|10=050|8=FIXT.1.1|9=107|35=A|34=173|49=INITIATOR|52=20190606-07:18:16.168|56=ACCEPTOR|98=0|108=20|553=USERNAME|554=PASSWORD|1137=7|10=194|8=FIXT.1.1|9=159|35=D|34=174|49=INITIATOR|52=20190606-07:18:31.733|56=ACCEPTOR|11=0E0Z86K00000|22=1|38=200|40=2|48=06051GDX4|54=1|55=BAC|60=20190606-12:48:31.731|218=100|423=6|10=098|8=FIXT.1.1|9=107|35=A|34=175|49=INITIATOR|52=20190606-07:18:31.737|56=ACCEPTOR|98=0|108=20|553=USERNAME|554=PASSWORD|1137=7|10=195|8=FIXT.1.1|9=73|35=2|34=176|49=INITIATOR|52=20190606-07:18:32.269|56=ACCEPTOR|7=148|16=0|10=140|8=FIXT.1.1|9=258|35=AE|34=177|49=INITIATOR|52=20190606-07:18:45.832|56=ACCEPTOR|15=CNY|22=4|30=SINT|31=23|32=12|48=0X1213|55=BAC|60=20190605-15:43:07.189|75=20190605|423=1|552=2|54=1|54=2|856=0|1003=1xsasdfdf|1116=2|1117=12|1118=G|1119=3|1117=10|1118=E|1119=3|1924=1|1934=11|10=056|8=FIXT.1.1|9=62|35=0|34=178|49=INITIATOR|52=20190606-07:19:06.770|56=ACCEPTOR|10=162|8=FIXT.1.1|9=62|35=0|34=179|49=INITIATOR|52=20190606-07:19:26.791|56=ACCEPTOR|10=168|8=FIXT.1.1|9=62|35=0|34=180|49=INITIATOR|52=20190606-07:19:46.811|56=ACCEPTOR|10=155|8=FIXT.1.1|9=62|35=0|34=181|49=INITIATOR|52=20190606-07:20:06.832|56=ACCEPTOR|10=147|8=FIXT.1.1|9=62|35=0|34=182|49=INITIATOR|52=20190606-07:20:26.850|56=ACCEPTOR|10=150|8=FIXT.1.1|9=62|35=0|34=183|49=INITIATOR|52=20190606-07:20:46.869|56=ACCEPTOR|10=163|8=FIXT.1.1|9=62|35=0|34=184|49=INITIATOR|52=20190606-07:21:06.889|56=ACCEPTOR|10=163|8=FIXT.1.1|9=62|35=0|34=185|49=INITIATOR|52=20190606-07:21:26.909|56=ACCEPTOR|10=159|8=FIXT.1.1|9=62|35=0|34=186|49=INITIATOR|52=20190606-07:21:46.927|56=ACCEPTOR|10=162|8=FIXT.1.1|9=62|35=0|34=187|49=INITIATOR|52=20190606-07:22:06.946|56=ACCEPTOR|10=161|8=FIXT.1.1|9=62|35=0|34=188|49=INITIATOR|52=20190606-07:22:26.964|56=ACCEPTOR|10=164|8=FIXT.1.1|9=62|35=0|34=189|49=INITIATOR|52=20190606-07:22:46.984|56=ACCEPTOR|10=169|8=FIXT.1.1|9=62|35=0|34=190|49=INITIATOR|52=20190606-07:23:06.004|56=ACCEPTOR|10=141|8=FIXT.1.1|9=62|35=0|34=191|49=INITIATOR|52=20190606-07:23:26.024|56=ACCEPTOR|10=146|8=FIXT.1.1|9=62|35=0|34=192|49=INITIATOR|52=20190606-07:23:46.044|56=ACCEPTOR|10=151|8=FIXT.1.1|9=62|35=0|34=193|49=INITIATOR|52=20190606-07:24:06.065|56=ACCEPTOR|10=152|8=FIXT.1.1|9=62|35=0|34=194|49=INITIATOR|52=20190606-07:24:26.085|56=ACCEPTOR|10=157|8=FIXT.1.1|9=62|35=0|34=195|49=INITIATOR|52=20190606-07:24:46.104|56=ACCEPTOR|10=152|8=FIXT.1.1|9=62|35=0|34=196|49=INITIATOR|52=20190606-07:25:06.123|56=ACCEPTOR|10=151|8=FIXT.1.1|9=62|35=0|34=197|49=INITIATOR|52=20190606-07:25:26.143|56=ACCEPTOR|10=156|8=FIXT.1.1|9=62|35=0|34=198|49=INITIATOR|52=20190606-07:25:46.158|56=ACCEPTOR|10=165|8=FIXT.1.1|9=62|35=0|34=199|49=INITIATOR|52=20190606-07:26:06.178|56=ACCEPTOR|10=165|8=FIXT.1.1|9=62|35=0|34=200|49=INITIATOR|52=20190606-07:26:26.198|56=ACCEPTOR|10=152|8=FIXT.1.1|9=62|35=0|34=201|49=INITIATOR|52=20190606-07:26:46.216|56=ACCEPTOR|10=146|8=FIXT.1.1|9=62|35=0|34=202|49=INITIATOR|52=20190606-07:27:06.234|56=ACCEPTOR|10=144|8=FIXT.1.1|9=62|35=0|34=203|49=INITIATOR|52=20190606-07:27:26.254|56=ACCEPTOR|10=149|8=FIXT.1.1|9=62|35=0|34=204|49=INITIATOR|52=20190606-07:27:46.273|56=ACCEPTOR|10=153|8=FIXT.1.1|9=62|35=0|34=205|49=INITIATOR|52=20190606-07:28:06.294|56=ACCEPTOR|10=154|8=FIXT.1.1|9=62|35=0|34=206|49=INITIATOR|52=20190606-07:28:26.313|56=ACCEPTOR|10=149|8=FIXT.1.1|9=62|35=0|34=207|49=INITIATOR|52=20190606-07:28:46.332|56=ACCEPTOR|10=153|8=FIXT.1.1|9=62|35=0|34=208|49=INITIATOR|52=20190606-07:29:06.351|56=ACCEPTOR|10=152|8=FIXT.1.1|9=62|35=0|34=209|49=INITIATOR|52=20190606-07:29:26.368|56=ACCEPTOR|10=163|8=FIXT.1.1|9=62|35=0|34=210|49=INITIATOR|52=20190606-07:29:46.386|56=ACCEPTOR|10=157|8=FIXT.1.1|9=62|35=0|34=211|49=INITIATOR|52=20190606-07:30:06.406|56=ACCEPTOR|10=139|8=FIXT.1.1|9=62|35=0|34=212|49=INITIATOR|52=20190606-07:30:26.425|56=ACCEPTOR|10=143|8=FIXT.1.1|9=62|35=0|34=213|49=INITIATOR|52=20190606-07:30:46.444|56=ACCEPTOR|10=147|8=FIXT.1.1|9=62|35=0|34=214|49=INITIATOR|52=20190606-07:31:06.464|56=ACCEPTOR|10=147|8=FIXT.1.1|9=62|35=0|34=215|49=INITIATOR|52=20190606-07:31:26.482|56=ACCEPTOR|10=150|8=FIXT.1.1|9=62|35=0|34=216|49=INITIATOR|52=20190606-07:31:46.501|56=ACCEPTOR|10=145|8=FIXT.1.1|9=62|35=0|34=217|49=INITIATOR|52=20190606-07:32:06.519|56=ACCEPTOR|10=152|8=FIXT.1.1|9=62|35=0|34=218|49=INITIATOR|52=20190606-07:32:26.539|56=ACCEPTOR|10=157|8=FIXT.1.1|9=62|35=0|34=219|49=INITIATOR|52=20190606-07:32:46.559|56=ACCEPTOR|10=162|8=FIXT.1.1|9=62|35=0|34=220|49=INITIATOR|52=20190606-07:33:06.579|56=ACCEPTOR|10=153|8=FIXT.1.1|9=62|35=0|34=221|49=INITIATOR|52=20190606-07:33:26.597|56=ACCEPTOR|10=156|8=FIXT.1.1|9=62|35=0|34=222|49=INITIATOR|52=20190606-07:33:46.617|56=ACCEPTOR|10=152|8=FIXT.1.1|9=62|35=0|34=223|49=INITIATOR|52=20190606-07:34:06.635|56=ACCEPTOR|10=150|8=FIXT.1.1|9=62|35=0|34=224|49=INITIATOR|52=20190606-07:34:26.656|56=ACCEPTOR|10=156|8=FIXT.1.1|9=62|35=0|34=225|49=INITIATOR|52=20190606-07:34:46.675|56=ACCEPTOR|10=160|8=FIXT.1.1|9=62|35=0|34=226|49=INITIATOR|52=20190606-07:35:06.696|56=ACCEPTOR|10=161|8=FIXT.1.1|9=62|35=0|34=227|49=INITIATOR|52=20190606-07:35:26.716|56=ACCEPTOR|10=157|8=FIXT.1.1|9=62|35=0|34=228|49=INITIATOR|52=20190606-07:35:46.735|56=ACCEPTOR|10=161|8=FIXT.1.1|9=62|35=0|34=229|49=INITIATOR|52=20190606-07:36:06.754|56=ACCEPTOR|10=160|8=FIXT.1.1|9=62|35=0|34=230|49=INITIATOR|52=20190606-07:36:26.775|56=ACCEPTOR|10=157|8=FIXT.1.1|9=62|35=0|34=231|49=INITIATOR|52=20190606-07:36:46.794|56=ACCEPTOR|10=161|8=FIXT.1.1|9=62|35=0|34=232|49=INITIATOR|52=20190606-07:37:06.812|56=ACCEPTOR|10=150|8=FIXT.1.1|9=62|35=0|34=233|49=INITIATOR|52=20190606-07:37:26.832|56=ACCEPTOR|10=155|8=FIXT.1.1|9=62|35=0|34=234|49=INITIATOR|52=20190606-07:37:46.852|56=ACCEPTOR|10=160|8=FIXT.1.1|9=62|35=0|34=235|49=INITIATOR|52=20190606-07:38:06.873|56=ACCEPTOR|10=161|8=FIXT.1.1|9=62|35=0|34=236|49=INITIATOR|52=20190606-07:38:26.893|56=ACCEPTOR|10=166|8=FIXT.1.1|9=62|35=0|34=237|49=INITIATOR|52=20190606-07:38:46.911|56=ACCEPTOR|10=160|8=FIXT.1.1|9=62|35=0|34=238|49=INITIATOR|52=20190606-07:39:06.931|56=ACCEPTOR|10=160|8=FIXT.1.1|9=62|35=0|34=239|49=INITIATOR|52=20190606-07:39:26.951|56=ACCEPTOR|10=165|8=FIXT.1.1|9=62|35=0|34=240|49=INITIATOR|52=20190606-07:39:46.969|56=ACCEPTOR|10=168|8=FIXT.1.1|9=62|35=0|34=241|49=INITIATOR|52=20190606-07:40:06.989|56=ACCEPTOR|10=159|8=FIXT.1.1|9=62|35=0|34=242|49=INITIATOR|52=20190606-07:40:26.007|56=ACCEPTOR|10=143|8=FIXT.1.1|9=62|35=0|34=243|49=INITIATOR|52=20190606-07:40:46.028|56=ACCEPTOR|10=149|8=FIXT.1.1|9=62|35=0|34=244|49=INITIATOR|52=20190606-07:41:06.047|56=ACCEPTOR|10=148|8=FIXT.1.1|9=62|35=0|34=245|49=INITIATOR|52=20190606-07:41:26.066|56=ACCEPTOR|10=152|8=FIXT.1.1|9=62|35=0|34=246|49=INITIATOR|52=20190606-07:41:46.086|56=ACCEPTOR|10=157|8=FIXT.1.1|9=62|35=0|34=247|49=INITIATOR|52=20190606-07:42:06.104|56=ACCEPTOR|10=146|8=FIXT.1.1|9=62|35=0|34=248|49=INITIATOR|52=20190606-07:42:26.124|56=ACCEPTOR|10=151|8=FIXT.1.1|9=62|35=0|34=249|49=INITIATOR|52=20190606-07:42:46.143|56=ACCEPTOR|10=155|8=FIXT.1.1|9=62|35=0|34=250|49=INITIATOR|52=20190606-07:43:06.162|56=ACCEPTOR|10=145|8=FIXT.1.1|9=62|35=0|34=251|49=INITIATOR|52=20190606-07:43:26.181|56=ACCEPTOR|10=149|8=FIXT.1.1|9=62|35=0|34=252|49=INITIATOR|52=20190606-07:43:46.202|56=ACCEPTOR|10=146|8=FIXT.1.1|9=62|35=0|34=253|49=INITIATOR|52=20190606-07:44:06.222|56=ACCEPTOR|10=146|8=FIXT.1.1|9=62|35=0|34=254|49=INITIATOR|52=20190606-07:44:26.243|56=ACCEPTOR|10=152|