8=FIXT.1.1|9=157|35=D|34=1|49=INITIATOR|52=20190531-05:19:35.742|56=ACCEPTOR|11=0E0Z86K00000|22=1|38=200|40=2|48=06051GDX4|54=1|55=BAC|60=20190531-10:49:35.740|218=100|423=6|10=245|8=FIXT.1.1|9=105|35=A|34=2|49=INITIATOR|52=20190531-05:19:35.748|56=ACCEPTOR|98=0|108=20|553=USERNAME|554=PASSWORD|1137=7|10=088|8=FIXT.1.1|9=60|35=0|34=3|49=INITIATOR|52=20190531-05:19:57.824|56=ACCEPTOR|10=052|8=FIXT.1.1|9=60|35=0|34=4|49=INITIATOR|52=20190531-05:20:17.843|56=ACCEPTOR|10=042|8=FIXT.1.1|9=157|35=D|34=5|49=INITIATOR|52=20190531-06:13:56.535|56=ACCEPTOR|11=0E0Z86K00000|22=1|38=200|40=2|48=06051GDX4|54=1|55=BAC|60=20190531-11:43:56.531|218=100|423=6|10=243|8=FIXT.1.1|9=105|35=A|34=6|49=INITIATOR|52=20190531-06:13:56.549|56=ACCEPTOR|98=0|108=20|553=USERNAME|554=PASSWORD|1137=7|10=089|8=FIXT.1.1|9=60|35=0|34=7|49=INITIATOR|52=20190531-06:14:17.570|56=ACCEPTOR|10=046|8=FIXT.1.1|9=60|35=0|34=8|49=INITIATOR|52=20190531-06:14:37.590|56=ACCEPTOR|10=051|8=FIXT.1.1|9=60|35=0|34=9|49=INITIATOR|52=20190531-06:14:57.611|56=ACCEPTOR|10=048|8=FIXT.1.1|9=61|35=0|34=10|49=INITIATOR|52=20190531-06:15:17.631|56=ACCEPTOR|10=088|8=FIXT.1.1|9=61|35=0|34=11|49=INITIATOR|52=20190531-06:15:37.650|56=ACCEPTOR|10=092|8=FIXT.1.1|9=61|35=0|34=12|49=INITIATOR|52=20190531-06:15:57.680|56=ACCEPTOR|10=098|8=FIXT.1.1|9=61|35=0|34=13|49=INITIATOR|52=20190531-06:16:17.699|56=ACCEPTOR|10=106|8=FIXT.1.1|9=61|35=0|34=14|49=INITIATOR|52=20190531-06:16:38.132|56=ACCEPTOR|10=092|8=FIXT.1.1|9=61|35=0|34=15|49=INITIATOR|52=20190531-06:16:58.499|56=ACCEPTOR|10=111|8=FIXT.1.1|9=158|35=D|34=16|49=INITIATOR|52=20190531-06:17:41.742|56=ACCEPTOR|11=0E0Z86K00000|22=1|38=200|40=2|48=06051GDX4|54=1|55=BAC|60=20190531-11:47:41.740|218=100|423=6|10=036|8=FIXT.1.1|9=106|35=A|34=17|49=INITIATOR|52=20190531-06:17:41.745|56=ACCEPTOR|98=0|108=20|553=USERNAME|554=PASSWORD|1137=7|10=136|8=FIXT.1.1|9=61|35=0|34=18|49=INITIATOR|52=20190531-06:18:02.453|56=ACCEPTOR|10=095|8=FIXT.1.1|9=61|35=0|34=19|49=INITIATOR|52=20190531-06:18:22.785|56=ACCEPTOR|10=106|8=FIXT.1.1|9=61|35=0|34=20|49=INITIATOR|52=20190531-06:18:42.805|56=ACCEPTOR|10=093|8=FIXT.1.1|9=61|35=0|34=21|49=INITIATOR|52=20190531-06:19:02.825|56=ACCEPTOR|10=093|8=FIXT.1.1|9=158|35=D|34=22|49=INITIATOR|52=20190531-06:19:23.721|56=ACCEPTOR|11=0E0Z86K00000|22=1|38=200|40=2|48=06051GDX4|54=1|55=BAC|60=20190531-11:49:23.717|218=100|423=6|10=038|8=FIXT.1.1|9=106|35=A|34=23|49=INITIATOR|52=20190531-06:19:23.722|56=ACCEPTOR|98=0|108=20|553=USERNAME|554=PASSWORD|1137=7|10=130|8=FIXT.1.1|9=61|35=0|34=24|49=INITIATOR|52=20190531-06:19:44.740|56=ACCEPTOR|10=098|8=FIXT.1.1|9=61|35=0|34=25|49=INITIATOR|52=20190531-06:20:04.485|56=ACCEPTOR|10=093|8=FIXT.1.1|9=158|35=D|34=26|49=INITIATOR|52=20190531-06:42:40.689|56=ACCEPTOR|11=0E0Z86K00000|22=1|38=200|40=2|48=06051GDX4|54=1|55=BAC|60=20190531-12:12:40.687|218=100|423=6|10=046|8=FIXT.1.1|9=106|35=A|34=27|49=INITIATOR|52=20190531-06:42:40.709|56=ACCEPTOR|98=0|108=20|553=USERNAME|554=PASSWORD|1137=7|10=134|8=FIXT.1.1|9=61|35=0|34=28|49=INITIATOR|52=20190531-06:43:02.408|56=ACCEPTOR|10=094|8=FIXT.1.1|9=158|35=D|34=29|49=INITIATOR|52=20190531-06:43:03.763|56=ACCEPTOR|11=0E0Z86K00000|22=1|38=200|40=2|48=06051GDX4|54=1|55=BAC|60=20190531-12:13:03.761|218=100|423=6|10=035|8=FIXT.1.1|9=61|35=0|34=30|49=INITIATOR|52=20190531-06:43:23.761|56=ACCEPTOR|10=092|8=FIXT.1.1|9=158|35=D|34=31|49=INITIATOR|52=20190531-06:43:32.903|56=ACCEPTOR|11=0E0Z86K00000|22=1|38=200|40=2|48=06051GDX4|54=1|55=BAC|60=20190531-12:13:32.902|218=100|423=6|10=025|