8=FIXT.1.1|9=157|35=D|34=1|49=INITIATOR|52=20190531-08:55:19.753|56=ACCEPTOR|11=0E0Z86K00000|22=1|38=200|40=2|48=06051GDX4|54=1|55=BAC|60=20190531-14:25:19.751|218=100|423=6|10=254|8=FIXT.1.1|9=105|35=A|34=2|49=INITIATOR|52=20190531-08:55:19.753|56=ACCEPTOR|98=0|108=20|553=USERNAME|554=PASSWORD|1137=7|10=089|8=FIXT.1.1|9=105|35=A|34=3|49=INITIATOR|52=20190531-08:55:49.798|56=ACCEPTOR|98=0|108=20|553=USERNAME|554=PASSWORD|1137=7|10=102|8=FIXT.1.1|9=105|35=A|34=4|49=INITIATOR|52=20190531-08:56:19.830|56=ACCEPTOR|98=0|108=20|553=USERNAME|554=PASSWORD|1137=7|10=088|8=FIXT.1.1|9=105|35=A|34=5|49=INITIATOR|52=20190531-08:56:49.861|56=ACCEPTOR|98=0|108=20|553=USERNAME|554=PASSWORD|1137=7|10=096|8=FIXT.1.1|9=157|35=D|34=6|49=INITIATOR|52=20190531-11:17:30.447|56=ACCEPTOR|11=0E0Z86K00000|22=1|38=200|40=2|48=06051GDX4|54=1|55=BAC|60=20190531-16:47:30.422|218=100|423=6|10=238|8=FIXT.1.1|9=105|35=A|34=7|49=INITIATOR|52=20190531-11:17:30.466|56=ACCEPTOR|98=0|108=20|553=USERNAME|554=PASSWORD|1137=7|10=080|8=FIXT.1.1|9=105|35=A|34=8|49=INITIATOR|52=20190531-11:18:00.516|56=ACCEPTOR|98=0|108=20|553=USERNAME|554=PASSWORD|1137=7|10=075|8=FIXT.1.1|9=105|35=A|34=9|49=INITIATOR|52=20190531-11:18:30.547|56=ACCEPTOR|98=0|108=20|553=USERNAME|554=PASSWORD|1137=7|10=083|8=FIXT.1.1|9=106|35=A|34=10|49=INITIATOR|52=20190531-11:19:00.576|56=ACCEPTOR|98=0|108=20|553=USERNAME|554=PASSWORD|1137=7|10=124|8=FIXT.1.1|9=106|35=A|34=11|49=INITIATOR|52=20190531-11:19:30.608|56=ACCEPTOR|98=0|108=20|553=USERNAME|554=PASSWORD|1137=7|10=124|8=FIXT.1.1|9=106|35=A|34=12|49=INITIATOR|52=20190531-11:20:00.638|56=ACCEPTOR|98=0|108=20|553=USERNAME|554=PASSWORD|1137=7|10=117|8=FIXT.1.1|9=106|35=A|34=13|49=INITIATOR|52=20190531-11:20:30.670|56=ACCEPTOR|98=0|108=20|553=USERNAME|554=PASSWORD|1137=7|10=117|8=FIXT.1.1|9=106|35=A|34=14|49=INITIATOR|52=20190531-11:21:00.702|56=ACCEPTOR|98=0|108=20|553=USERNAME|554=PASSWORD|1137=7|10=112|8=FIXT.1.1|9=106|35=A|34=15|49=INITIATOR|52=20190531-11:21:30.732|56=ACCEPTOR|98=0|108=20|553=USERNAME|554=PASSWORD|1137=7|10=119|8=FIXT.1.1|9=106|35=A|34=16|49=INITIATOR|52=20190531-11:22:00.764|56=ACCEPTOR|98=0|108=20|553=USERNAME|554=PASSWORD|1137=7|10=123|8=FIXT.1.1|9=106|35=A|34=17|49=INITIATOR|52=20190531-11:22:30.797|56=ACCEPTOR|98=0|108=20|553=USERNAME|554=PASSWORD|1137=7|10=133|8=FIXT.1.1|9=106|35=A|34=18|49=INITIATOR|52=20190531-11:23:00.827|56=ACCEPTOR|98=0|108=20|553=USERNAME|554=PASSWORD|1137=7|10=126|8=FIXT.1.1|9=106|35=A|34=19|49=INITIATOR|52=20190531-11:23:30.856|56=ACCEPTOR|98=0|108=20|553=USERNAME|554=PASSWORD|1137=7|10=132|8=FIXT.1.1|9=106|35=A|34=20|49=INITIATOR|52=20190531-11:24:00.887|56=ACCEPTOR|98=0|108=20|553=USERNAME|554=PASSWORD|1137=7|10=126|8=FIXT.1.1|9=106|35=A|34=21|49=INITIATOR|52=20190531-11:24:30.920|56=ACCEPTOR|98=0|108=20|553=USERNAME|554=PASSWORD|1137=7|10=118|8=FIXT.1.1|9=106|35=A|34=22|49=INITIATOR|52=20190531-11:25:00.952|56=ACCEPTOR|98=0|108=20|553=USERNAME|554=PASSWORD|1137=7|10=122|8=FIXT.1.1|9=106|35=A|34=23|49=INITIATOR|52=20190531-11:25:30.980|56=ACCEPTOR|98=0|108=20|553=USERNAME|554=PASSWORD|1137=7|10=127|8=FIXT.1.1|9=106|35=A|34=24|49=INITIATOR|52=20190531-11:26:00.008|56=ACCEPTOR|98=0|108=20|553=USERNAME|554=PASSWORD|1137=7|10=117|8=FIXT.1.1|9=106|35=A|34=25|49=INITIATOR|52=20190531-11:26:30.036|56=ACCEPTOR|98=0|108=20|553=USERNAME|554=PASSWORD|1137=7|10=122|8=FIXT.1.1|9=106|35=A|34=26|49=INITIATOR|52=20190531-11:27:00.065|56=ACCEPTOR|98=0|108=20|553=USERNAME|554=PASSWORD|1137=7|10=123|8=FIXT.1.1|9=106|35=A|34=27|49=INITIATOR|52=20190531-11:27:30.095|56=ACCEPTOR|98=0|108=20|553=USERNAME|554=PASSWORD|1137=7|10=130|8=FIXT.1.1|9=106|35=A|34=28|49=INITIATOR|52=20190531-11:28:00.123|56=ACCEPTOR|98=0|108=20|553=USERNAME|554=PASSWORD|1137=7|10=121|8=FIXT.1.1|9=106|35=A|34=29|49=INITIATOR|52=20190531-11:28:30.152|56=ACCEPTOR|98=0|108=20|553=USERNAME|554=PASSWORD|1137=7|10=127|8=FIXT.1.1|9=106|35=A|34=30|49=INITIATOR|52=20190531-11:29:00.180|56=ACCEPTOR|98=0|108=20|553=USERNAME|554=PASSWORD|1137=7|10=118|8=FIXT.1.1|9=106|35=A|34=31|49=INITIATOR|52=20190531-11:29:30.210|56=ACCEPTOR|98=0|108=20|553=USERNAME|554=PASSWORD|1137=7|10=116|8=FIXT.1.1|9=106|35=A|34=32|49=INITIATOR|52=20190531-11:30:00.239|56=ACCEPTOR|98=0|108=20|553=USERNAME|554=PASSWORD|1137=7|10=117|8=FIXT.1.1|9=106|35=A|34=33|49=INITIATOR|52=20190531-11:30:30.264|56=ACCEPTOR|98=0|108=20|553=USERNAME|554=PASSWORD|1137=7|10=119|8=FIXT.1.1|9=106|35=A|34=34|49=INITIATOR|52=20190531-11:31:00.295|56=ACCEPTOR|98=0|108=20|553=USERNAME|554=PASSWORD|1137=7|10=122|8=FIXT.1.1|9=106|35=A|34=35|49=INITIATOR|52=20190531-11:31:30.326|56=ACCEPTOR|98=0|108=20|553=USERNAME|554=PASSWORD|1137=7|10=121|8=FIXT.1.1|9=106|35=A|34=36|49=INITIATOR|52=20190531-11:32:00.355|56=ACCEPTOR|98=0|108=20|553=USERNAME|554=PASSWORD|1137=7|10=122|8=FIXT.1.1|9=106|35=A|34=37|49=INITIATOR|52=20190531-11:32:30.384|56=ACCEPTOR|98=0|108=20|553=USERNAME|554=PASSWORD|1137=7|10=128|8=FIXT.1.1|9=106|35=A|34=38|49=INITIATOR|52=20190531-11:33:00.413|56=ACCEPTOR|98=0|108=20|553=USERNAME|554=PASSWORD|1137=7|10=120|8=FIXT.1.1|9=106|35=A|34=39|49=INITIATOR|52=20190531-11:33:30.443|56=ACCEPTOR|98=0|108=20|553=USERNAME|554=PASSWORD|1137=7|10=127|8=FIXT.1.1|9=106|35=A|34=40|49=INITIATOR|52=20190531-11:34:00.473|56=ACCEPTOR|98=0|108=20|553=USERNAME|554=PASSWORD|1137=7|10=120|8=FIXT.1.1|9=106|35=A|34=41|49=INITIATOR|52=20190531-11:34:30.504|56=ACCEPTOR|98=0|108=20|553=USERNAME|554=PASSWORD|1137=7|10=119|8=FIXT.1.1|9=106|35=A|34=42|49=INITIATOR|52=20190531-11:35:00.537|56=ACCEPTOR|98=0|108=20|553=USERNAME|554=PASSWORD|1137=7|10=124|8=FIXT.1.1|9=106|35=A|34=43|49=INITIATOR|52=20190531-11:35:30.568|56=ACCEPTOR|98=0|108=20|553=USERNAME|554=PASSWORD|1137=7|10=132|8=FIXT.1.1|9=106|35=A|34=44|49=INITIATOR|52=20190531-11:36:00.597|56=ACCEPTOR|98=0|108=20|553=USERNAME|554=PASSWORD|1137=7|10=133|8=FIXT.1.1|9=106|35=A|34=45|49=INITIATOR|52=20190531-11:36:30.628|56=ACCEPTOR|98=0|108=20|553=USERNAME|554=PASSWORD|1137=7|10=132|8=FIXT.1.1|9=106|35=A|34=46|49=INITIATOR|52=20190531-11:37:00.658|56=ACCEPTOR|98=0|108=20|553=USERNAME|554=PASSWORD|1137=7|10=134|8=FIXT.1.1|9=106|35=A|34=47|49=INITIATOR|52=20190531-11:37:30.689|56=ACCEPTOR|98=0|108=20|553=USERNAME|554=PASSWORD|1137=7|10=142|8=FIXT.1.1|9=106|35=A|34=48|49=INITIATOR|52=20190531-11:38:00.718|56=ACCEPTOR|98=0|108=20|553=USERNAME|554=PASSWORD|1137=7|10=134|8=FIXT.1.1|9=106|35=A|34=49|49=INITIATOR|52=20190531-11:38:30.751|56=ACCEPTOR|98=0|108=20|553=USERNAME|554=PASSWORD|1137=7|10=135|8=FIXT.1.1|9=106|35=A|34=50|49=INITIATOR|52=20190531-11:39:00.781|56=ACCEPTOR|98=0|108=20|553=USERNAME|554=PASSWORD|1137=7|10=128|8=FIXT.1.1|9=106|35=A|34=51|49=INITIATOR|52=20190531-11:39:30.814|56=ACCEPTOR|98=0|108=20|553=USERNAME|554=PASSWORD|1137=7|10=129|8=FIXT.1.1|9=106|35=A|34=52|49=INITIATOR|52=20190531-11:40:00.844|56=ACCEPTOR|98=0|108=20|553=USERNAME|554=PASSWORD|1137=7|10=122|8=FIXT.1.1|9=106|35=A|34=53|49=INITIATOR|52=20190531-11:40:30.876|56=ACCEPTOR|98=0|108=20|553=USERNAME|554=PASSWORD|1137=7|10=131|8=FIXT.1.1|9=106|35=A|34=54|49=INITIATOR|52=20190531-11:41:00.905|56=ACCEPTOR|98=0|108=20|553=USERNAME|554=PASSWORD|1137=7|10=123|8=FIXT.1.1|9=106|35=A|34=55|49=INITIATOR|52=20190531-11:41:30.934|56=ACCEPTOR|98=0|108=20|553=USERNAME|554=PASSWORD|1137=7|10=129|8=FIXT.1.1|9=106|35=A|34=56|49=INITIATOR|52=20190531-11:42:00.965|56=ACCEPTOR|98=0|108=20|553=USERNAME|554=PASSWORD|1137=7|10=132|8=FIXT.1.1|9=106|35=A|34=57|49=INITIATOR|52=20190531-11:42:30.992|56=ACCEPTOR|98=0|108=20|553=USERNAME|554=PASSWORD|1137=7|10=136|8=FIXT.1.1|9=106|35=A|34=58|49=INITIATOR|52=20190531-11:43:00.020|56=ACCEPTOR|98=0|108=20|553=USERNAME|554=PASSWORD|1137=7|10=117|8=FIXT.1.1|9=106|35=A|34=59|49=INITIATOR|52=20190531-11:43:30.052|56=ACCEPTOR|98=0|108=20|553=USERNAME|554=PASSWORD|1137=7|10=126|8=FIXT.1.1|9=106|35=A|34=60|49=INITIATOR|52=20190531-11:44:00.082|56=ACCEPTOR|98=0|108=20|553=USERNAME|554=PASSWORD|1137=7|10=119|8=FIXT.1.1|9=106|35=A|34=61|49=INITIATOR|52=20190531-11:44:30.111|56=ACCEPTOR|98=0|108=20|553=USERNAME|554=PASSWORD|1137=7|10=116|8=FIXT.1.1|9=106|35=A|34=62|49=INITIATOR|52=20190531-11:45:00.144|56=ACCEPTOR|98=0|108=20|553=USERNAME|554=PASSWORD|1137=7|10=121|8=FIXT.1.1|9=106|35=A|34=63|49=INITIATOR|52=20190531-11:45:30.173|56=ACCEPTOR|98=0|108=20|553=USERNAME|554=PASSWORD|1137=7|10=127|8=FIXT.1.1|9=106|35=A|34=64|49=INITIATOR|52=20190531-11:46:00.203|56=ACCEPTOR|98=0|108=20|553=USERNAME|554=PASSWORD|1137=7|10=120|8=FIXT.1.1|9=106|35=A|34=65|49=INITIATOR|52=20190531-11:46:30.236|56=ACCEPTOR|98=0|108=20|553=USERNAME|554=PASSWORD|1137=7|10=130|8=FIXT.1.1|9=106|35=A|34=66|49=INITIATOR|52=20190531-11:47:00.265|56=ACCEPTOR|98=0|108=20|553=USERNAME|554=PASSWORD|1137=7|10=131|8=FIXT.1.1|9=106|35=A|34=67|49=INITIATOR|52=20190531-11:47:30.296|56=ACCEPTOR|98=0|108=20|553=USERNAME|554=PASSWORD|1137=7|10=139|8=FIXT.1.1|9=106|35=A|34=68|49=INITIATOR|52=20190531-11:48:00.328|56=ACCEPTOR|98=0|108=20|553=USERNAME|554=PASSWORD|1137=7|10=134|8=FIXT.1.1|9=106|35=A|34=69|49=INITIATOR|52=20190531-11:48:30.357|56=ACCEPTOR|98=0|108=20|553=USERNAME|554=PASSWORD|1137=7|10=140|8=FIXT.1.1|9=106|35=A|34=70|49=INITIATOR|52=20190531-11:49:00.386|56=ACCEPTOR|98=0|108=20|553=USERNAME|554=PASSWORD|1137=7|10=132|8=FIXT.1.1|9=106|35=A|34=71|49=INITIATOR|52=20190531-11:49:30.417|56=ACCEPTOR|98=0|108=20|553=USERNAME|554=PASSWORD|1137=7|10=131|8=FIXT.1.1|9=106|35=A|34=72|49=INITIATOR|52=20190531-11:50:00.449|56=ACCEPTOR|98=0|108=20|553=USERNAME|554=PASSWORD|1137=7|10=126|8=FIXT.1.1|9=106|35=A|34=73|49=INITIATOR|52=20190531-11:50:30.480|56=ACCEPTOR|98=0|108=20|553=USERNAME|554=PASSWORD|1137=7|10=125|8=FIXT.1.1|9=106|35=A|34=74|49=INITIATOR|52=20190531-11:51:00.510|56=ACCEPTOR|98=0|108=20|553=USERNAME|554=PASSWORD|1137=7|10=118|8=FIXT.1.1|9=106|35=A|34=75|49=INITIATOR|52=20190531-11:51:30.540|56=ACCEPTOR|98=0|108=20|553=USERNAME|554=PASSWORD|1137=7|10=125|8=FIXT.1.1|9=106|35=A|34=76|49=INITIATOR|52=20190531-11:52:00.572|56=ACCEPTOR|98=0|108=20|553=USERNAME|554=PASSWORD|1137=7|10=129|8=FIXT.1.1|9=106|35=A|34=77|49=INITIATOR|52=20190531-11:52:30.603|56=ACCEPTOR|98=0|108=20|553=USERNAME|554=PASSWORD|1137=7|10=128|8=FIXT.1.1|9=106|35=A|34=78|49=INITIATOR|52=20190531-11:53:00.635|56=ACCEPTOR|98=0|108=20|553=USERNAME|554=PASSWORD|1137=7|10=132|8=FIXT.1.1|9=106|35=A|34=79|49=INITIATOR|52=20190531-11:53:30.668|56=ACCEPTOR|98=0|108=20|553=USERNAME|554=PASSWORD|1137=7|10=142|8=FIXT.1.1|9=106|35=A|34=80|49=INITIATOR|52=20190531-11:54:00.701|56=ACCEPTOR|98=0|108=20|553=USERNAME|554=PASSWORD|1137=7|10=120|8=FIXT.1.1|9=106|35=A|34=81|49=INITIATOR|52=20190531-11:54:30.734|56=ACCEPTOR|98=0|108=20|553=USERNAME|554=PASSWORD|1137=7|10=130|8=FIXT.1.1|9=106|35=A|34=82|49=INITIATOR|52=20190531-11:55:00.764|56=ACCEPTOR|98=0|108=20|553=USERNAME|554=PASSWORD|1137=7|10=132|8=FIXT.1.1|9=106|35=A|34=83|49=INITIATOR|52=20190531-11:55:30.793|56=ACCEPTOR|98=0|108=20|553=USERNAME|554=PASSWORD|1137=7|10=138|8=FIXT.1.1|9=106|35=A|34=84|49=INITIATOR|52=20190531-11:56:00.825|56=ACCEPTOR|98=0|108=20|553=USERNAME|554=PASSWORD|1137=7|10=133|8=FIXT.1.1|9=106|35=A|34=85|49=INITIATOR|52=20190531-11:56:30.854|56=ACCEPTOR|98=0|108=20|553=USERNAME|554=PASSWORD|1137=7|10=139|8=FIXT.1.1|9=106|35=A|34=86|49=INITIATOR|52=20190531-11:57:00.887|56=ACCEPTOR|98=0|108=20|553=USERNAME|554=PASSWORD|1137=7|10=144|8=FIXT.1.1|9=106|35=A|34=87|49=INITIATOR|52=20190531-11:57:30.916|56=ACCEPTOR|98=0|108=20|553=USERNAME|554=PASSWORD|1137=7|10=141|8=FIXT.1.1|9=106|35=A|34=88|49=INITIATOR|52=20190531-11:58:00.948|56=ACCEPTOR|98=0|108=20|553=USERNAME|554=PASSWORD|1137=7|10=145|8=FIXT.1.1|9=106|35=A|34=89|49=INITIATOR|52=20190531-11:58:30.972|56=ACCEPTOR|98=0|108=20|553=USERNAME|554=PASSWORD|1137=7|10=146|8=FIXT.1.1|9=106|35=A|34=90|49=INITIATOR|52=20190531-11:59:01.001|56=ACCEPTOR|98=0|108=20|553=USERNAME|554=PASSWORD|1137=7|10=120|8=FIXT.1.1|9=106|35=A|34=91|49=INITIATOR|52=20190531-11:59:30.031|56=ACCEPTOR|98=0|108=20|553=USERNAME|554=PASSWORD|1137=7|10=126|8=FIXT.1.1|9=106|35=A|34=92|49=INITIATOR|52=20190531-12:00:00.063|56=ACCEPTOR|98=0|108=20|553=USERNAME|554=PASSWORD|1137=7|10=116|8=FIXT.1.1|9=106|35=A|34=93|49=INITIATOR|52=20190531-12:00:30.096|56=ACCEPTOR|98=0|108=20|553=USERNAME|554=PASSWORD|1137=7|10=126|8=FIXT.1.1|9=106|35=A|34=94|49=INITIATOR|52=20190531-12:01:00.127|56=ACCEPTOR|98=0|108=20|553=USERNAME|554=PASSWORD|1137=7|10=120|8=FIXT.1.1|9=106|35=A|34=95|49=INITIATOR|52=20190531-12:01:30.158|56=ACCEPTOR|98=0|108=20|553=USERNAME|554=PASSWORD|1137=7|10=128|8=FIXT.1.1|9=106|35=A|34=96|49=INITIATOR|52=20190531-12:02:00.186|56=ACCEPTOR|98=0|108=20|553=USERNAME|554=PASSWORD|1137=7|10=128|8=FIXT.1.1|9=106|35=A|34=97|49=INITIATOR|52=20190531-12:02:30.217|56=ACCEPTOR|98=0|108=20|553=USERNAME|554=PASSWORD|1137=7|10=127|8=FIXT.1.1|9=106|35=A|34=98|49=INITIATOR|52=20190531-12:03:00.248|56=ACCEPTOR|98=0|108=20|553=USERNAME|554=PASSWORD|1137=7|10=130|8=FIXT.1.1|9=106|35=A|34=99|49=INITIATOR|52=20190531-12:03:30.278|56=ACCEPTOR|98=0|108=20|553=USERNAME|554=PASSWORD|1137=7|10=137|8=FIXT.1.1|9=107|35=A|34=100|49=INITIATOR|52=20190531-12:04:00.306|56=ACCEPTOR|98=0|108=20|553=USERNAME|554=PASSWORD|1137=7|10=159|8=FIXT.1.1|9=107|35=A|34=101|49=INITIATOR|52=20190531-12:04:30.336|56=ACCEPTOR|98=0|108=20|553=USERNAME|554=PASSWORD|1137=7|10=166|8=FIXT.1.1|9=107|35=A|34=102|49=INITIATOR|52=20190531-12:05:00.362|56=ACCEPTOR|98=0|108=20|553=USERNAME|554=PASSWORD|1137=7|10=164|8=FIXT.1.1|9=107|35=A|34=103|49=INITIATOR|52=20190531-12:05:30.393|56=ACCEPTOR|98=0|108=20|553=USERNAME|554=PASSWORD|1137=7|10=172|8=FIXT.1.1|9=107|35=A|34=104|49=INITIATOR|52=20190531-12:06:00.423|56=ACCEPTOR|98=0|108=20|553=USERNAME|554=PASSWORD|1137=7|10=165|8=FIXT.1.1|9=107|35=A|34=105|49=INITIATOR|52=20190531-12:06:30.453|56=ACCEPTOR|98=0|108=20|553=USERNAME|554=PASSWORD|1137=7|10=172|8=FIXT.1.1|9=107|35=A|34=106|49=INITIATOR|52=20190531-12:07:00.482|56=ACCEPTOR|98=0|108=20|553=USERNAME|554=PASSWORD|1137=7|10=173|8=FIXT.1.1|9=107|35=A|34=107|49=INITIATOR|52=20190531-12:07:30.511|56=ACCEPTOR|98=0|108=20|553=USERNAME|554=PASSWORD|1137=7|10=170|8=FIXT.1.1|9=107|35=A|34=108|49=INITIATOR|52=20190531-12:08:00.540|56=ACCEPTOR|98=0|108=20|553=USERNAME|554=PASSWORD|1137=7|10=171|8=FIXT.1.1|9=107|35=A|34=109|49=INITIATOR|52=20190531-12:08:30.568|56=ACCEPTOR|98=0|108=20|553=USERNAME|554=PASSWORD|1137=7|10=185|8=FIXT.1.1|9=107|35=A|34=110|49=INITIATOR|52=20190531-12:09:00.596|56=ACCEPTOR|98=0|108=20|553=USERNAME|554=PASSWORD|1137=7|10=176|8=FIXT.1.1|9=107|35=A|34=111|49=INITIATOR|52=20190531-12:09:30.626|56=ACCEPTOR|98=0|108=20|553=USERNAME|554=PASSWORD|1137=7|10=174|8=FIXT.1.1|9=107|35=A|34=112|49=INITIATOR|52=20190531-12:10:00.653|56=ACCEPTOR|98=0|108=20|553=USERNAME|554=PASSWORD|1137=7|10=164|8=FIXT.1.1|9=107|35=A|34=113|49=INITIATOR|52=20190531-12:10:30.683|56=ACCEPTOR|98=0|108=20|553=USERNAME|554=PASSWORD|1137=7|10=171|8=FIXT.1.1|9=107|35=A|34=114|49=INITIATOR|52=20190531-12:11:00.713|56=ACCEPTOR|98=0|108=20|553=USERNAME|554=PASSWORD|1137=7|10=164|8=FIXT.1.1|9=107|35=A|34=115|49=INITIATOR|52=20190531-12:11:30.744|56=ACCEPTOR|98=0|108=20|553=USERNAME|554=PASSWORD|1137=7|10=172|8=FIXT.1.1|9=107|35=A|34=116|49=INITIATOR|52=20190531-12:12:00.775|56=ACCEPTOR|98=0|108=20|553=USERNAME|554=PASSWORD|1137=7|10=175|8=FIXT.1.1|9=107|35=A|34=117|49=INITIATOR|52=20190531-12:12:30.806|56=ACCEPTOR|98=0|108=20|553=USERNAME|554=PASSWORD|1137=7|10=174|8=FIXT.1.1|9=107|35=A|34=118|49=INITIATOR|52=20190531-12:13:00.837|56=ACCEPTOR|98=0|108=20|553=USERNAME|554=PASSWORD|1137=7|10=177|8=FIXT.1.1|9=107|35=A|34=119|49=INITIATOR|52=20190531-12:13:30.868|56=ACCEPTOR|98=0|108=20|553=USERNAME|554=PASSWORD|1137=7|10=185|8=FIXT.1.1|9=107|35=A|34=120|49=INITIATOR|52=20190531-12:14:00.901|56=ACCEPTOR|98=0|108=20|553=USERNAME|554=PASSWORD|1137=7|10=163|8=FIXT.1.1|9=107|35=A|34=121|49=INITIATOR|52=20190531-12:14:30.932|56=ACCEPTOR|98=0|108=20|553=USERNAME|554=PASSWORD|1137=7|10=171|8=FIXT.1.1|9=107|35=A|34=122|49=INITIATOR|52=20190531-12:15:00.963|56=ACCEPTOR|98=0|108=20|553=USERNAME|554=PASSWORD|1137=7|10=174|8=FIXT.1.1|9=107|35=A|34=123|49=INITIATOR|52=20190531-12:15:30.996|56=ACCEPTOR|98=0|108=20|553=USERNAME|554=PASSWORD|1137=7|10=184|8=FIXT.1.1|9=107|35=A|34=124|49=INITIATOR|52=20190531-12:16:00.026|56=ACCEPTOR|98=0|108=20|553=USERNAME|554=PASSWORD|1137=7|10=167|8=FIXT.1.1|9=107|35=A|34=125|49=INITIATOR|52=20190531-12:16:30.055|56=ACCEPTOR|98=0|108=20|553=USERNAME|554=PASSWORD|1137=7|10=173|8=FIXT.1.1|9=107|35=A|34=126|49=INITIATOR|52=20190531-12:17:00.084|56=ACCEPTOR|98=0|108=20|553=USERNAME|554=PASSWORD|1137=7|10=174|8=FIXT.1.1|9=107|35=A|34=127|49=INITIATOR|52=20190531-12:17:30.116|56=ACCEPTOR|98=0|108=20|553=USERNAME|554=PASSWORD|1137=7|10=174|8=FIXT.1.1|9=107|35=A|34=128|49=INITIATOR|52=20190531-12:18:00.150|56=ACCEPTOR|98=0|108=20|553=USERNAME|554=PASSWORD|1137=7|10=171|8=FIXT.1.1|9=107|35=A|34=129|49=INITIATOR|52=20190531-12:18:30.180|56=ACCEPTOR|98=0|108=20|553=USERNAME|554=PASSWORD|1137=7|10=178|8=FIXT.1.1|9=107|35=A|34=130|49=INITIATOR|52=20190531-12:19:00.212|56=ACCEPTOR|98=0|108=20|553=USERNAME|554=PASSWORD|1137=7|10=164|8=FIXT.1.1|9=107|35=A|34=131|49=INITIATOR|52=20190531-12:19:30.242|56=ACCEPTOR|98=0|108=20|553=USERNAME|554=PASSWORD|1137=7|10=171|8=FIXT.1.1|9=107|35=A|34=132|49=INITIATOR|52=20190531-12:20:00.274|56=ACCEPTOR|98=0|108=20|553=USERNAME|554=PASSWORD|1137=7|10=166|8=FIXT.1.1|9=107|35=A|34=133|49=INITIATOR|52=20190531-12:20:30.303|56=ACCEPTOR|98=0|108=20|553=USERNAME|554=PASSWORD|1137=7|10=163|8=FIXT.1.1|9=107|35=A|34=134|49=INITIATOR|52=20190531-12:21:00.335|56=ACCEPTOR|98=0|108=20|553=USERNAME|554=PASSWORD|1137=7|10=167|8=FIXT.1.1|9=107|35=A|34=135|49=INITIATOR|52=20190531-12:21:30.362|56=ACCEPTOR|98=0|108=20|553=USERNAME|554=PASSWORD|1137=7|10=171|8=FIXT.1.1|9=107|35=A|34=136|49=INITIATOR|52=20190531-12:22:00.393|56=ACCEPTOR|98=0|108=20|553=USERNAME|554=PASSWORD|1137=7|10=174|8=FIXT.1.1|9=107|35=A|34=137|49=INITIATOR|52=20190531-12:22:30.422|56=ACCEPTOR|98=0|108=20|553=USERNAME|554=PASSWORD|1137=7|10=171|8=FIXT.1.1|9=107|35=A|34=138|49=INITIATOR|52=20190531-12:23:00.453|56=ACCEPTOR|98=0|108=20|553=USERNAME|554=PASSWORD|1137=7|10=174|8=FIXT.1.1|9=107|35=A|34=139|49=INITIATOR|52=20190531-12:23:30.484|56=ACCEPTOR|98=0|108=20|553=USERNAME|554=PASSWORD|1137=7|10=182|8=FIXT.1.1|9=107|35=A|34=140|49=INITIATOR|52=20190531-12:24:00.512|56=ACCEPTOR|98=0|108=20|553=USERNAME|554=PASSWORD|1137=7|10=164|8=FIXT.1.1|9=107|35=A|34=141|49=INITIATOR|52=20190531-12:24:30.540|56=ACCEPTOR|98=0|108=20|553=USERNAME|554=PASSWORD|1137=7|10=169|8=FIXT.1.1|9=107|35=A|34=142|49=INITIATOR|52=20190531-12:25:00.569|56=ACCEPTOR|98=0|108=20|553=USERNAME|554=PASSWORD|1137=7|10=179|8=FIXT.1.1|9=107|35=A|34=143|49=INITIATOR|52=20190531-12:25:30.599|56=ACCEPTOR|98=0|108=20|553=USERNAME|554=PASSWORD|1137=7|10=186|8=FIXT.1.1|9=107|35=A|34=144|49=INITIATOR|52=20190531-12:26:00.631|56=ACCEPTOR|98=0|108=20|553=USERNAME|554=PASSWORD|1137=7|10=172|8=FIXT.1.1|9=107|35=A|34=145|49=INITIATOR|52=20190531-12:26:30.662|56=ACCEPTOR|98=0|108=20|553=USERNAME|554=PASSWORD|1137=7|10=180|8=FIXT.1.1|9=107|35=A|34=146|49=INITIATOR|52=20190531-12:27:00.693|56=ACCEPTOR|98=0|108=20|553=USERNAME|554=PASSWORD|1137=7|10=183|8=FIXT.1.1|9=107|35=A|34=147|49=INITIATOR|52=20190531-12:27:30.723|56=ACCEPTOR|98=0|108=20|553=USERNAME|554=PASSWORD|1137=7|10=181|8=FIXT.1.1|9=107|35=A|34=148|49=INITIATOR|52=20190531-12:28:00.754|56=ACCEPTOR|98=0|108=20|553=USERNAME|554=PASSWORD|1137=7|10=184|8=FIXT.1.1|9=107|35=A|34=149|49=INITIATOR|52=20190531-12:28:30.784|56=ACCEPTOR|98=0|108=20|553=USERNAME|554=PASSWORD|1137=7|10=191|8=FIXT.1.1|9=107|35=A|34=150|49=INITIATOR|52=20190531-12:29:00.816|56=ACCEPTOR|98=0|108=20|553=USERNAME|554=PASSWORD|1137=7|10=177|8=FIXT.1.1|9=107|35=A|34=151|49=INITIATOR|52=20190531-12:29:30.846|56=ACCEPTOR|98=0|108=20|553=USERNAME|554=PASSWORD|1137=7|10=184|8=FIXT.1.1|9=107|35=A|34=152|49=INITIATOR|52=20190531-12:30:00.880|56=ACCEPTOR|98=0|108=20|553=USERNAME|554=PASSWORD|1137=7|10=172|8=FIXT.1.1|9=107|35=A|34=153|49=INITIATOR|52=20190531-12:30:30.912|56=ACCEPTOR|98=0|108=20|553=USERNAME|554=PASSWORD|1137=7|10=172|8=FIXT.1.1|9=107|35=A|34=154|49=INITIATOR|52=20190531-12:31:00.942|56=ACCEPTOR|98=0|108=20|553=USERNAME|554=PASSWORD|1137=7|10=174|8=FIXT.1.1|9=107|35=A|34=155|49=INITIATOR|52=20190531-12:31:30.972|56=ACCEPTOR|98=0|108=20|553=USERNAME|554=PASSWORD|1137=7|10=181|8=FIXT.1.1|9=107|35=A|34=156|49=INITIATOR|52=20190531-12:32:00.999|56=ACCEPTOR|98=0|108=20|553=USERNAME|554=PASSWORD|1137=7|10=189|8=FIXT.1.1|9=107|35=A|34=157|49=INITIATOR|52=20190531-12:32:30.028|56=ACCEPTOR|98=0|108=20|553=USERNAME|554=PASSWORD|1137=7|10=176|8=FIXT.1.1|9=107|35=A|34=158|49=INITIATOR|52=20190531-12:33:00.056|56=ACCEPTOR|98=0|108=20|553=USERNAME|554=PASSWORD|1137=7|10=176|8=FIXT.1.1|9=107|35=A|34=159|49=INITIATOR|52=20190531-12:33:30.083|56=ACCEPTOR|98=0|108=20|553=USERNAME|554=PASSWORD|1137=7|10=180|8=FIXT.1.1|9=107|35=A|34=160|49=INITIATOR|52=20190531-12:34:00.111|56=ACCEPTOR|98=0|108=20|553=USERNAME|554=PASSWORD|1137=7|10=162|8=FIXT.1.1|9=107|35=A|34=161|49=INITIATOR|52=20190531-12:34:30.140|56=ACCEPTOR|98=0|108=20|553=USERNAME|554=PASSWORD|1137=7|10=168|8=FIXT.1.1|9=107|35=A|34=162|49=INITIATOR|52=20190531-12:35:00.169|56=ACCEPTOR|98=0|108=20|553=USERNAME|554=PASSWORD|1137=7|10=178|8=FIXT.1.1|9=107|35=A|34=163|49=INITIATOR|52=20190531-12:35:30.199|56=ACCEPTOR|98=0|108=20|553=USERNAME|554=PASSWORD|1137=7|10=185|8=FIXT.1.1|9=107|35=A|34=164|49=INITIATOR|52=20190531-12:36:00.228|56=ACCEPTOR|98=0|108=20|553=USERNAME|554=PASSWORD|1137=7|10=177|8=FIXT.1.1|9=107|35=A|34=165|49=INITIATOR|52=20190531-12:36:30.256|56=ACCEPTOR|98=0|108=20|553=USERNAME|554=PASSWORD|1137=7|10=182|8=FIXT.1.1|9=107|35=A|34=166|49=INITIATOR|52=20190531-12:37:00.286|56=ACCEPTOR|98=0|108=20|553=USERNAME|554=PASSWORD|1137=7|10=184|8=FIXT.1.1|9=107|35=A|34=167|49=INITIATOR|52=20190531-12:37:30.316|56=ACCEPTOR|98=0|108=20|553=USERNAME|554=PASSWORD|1137=7|10=182|8=FIXT.1.1|9=107|35=A|34=168|49=INITIATOR|52=20190531-12:38:00.344|56=ACCEPTOR|98=0|108=20|553=USERNAME|554=PASSWORD|1137=7|10=182|8=FIXT.1.1|9=107|35=A|34=169|49=INITIATOR|52=20190531-12:38:30.374|56=ACCEPTOR|98=0|108=20|553=USERNAME|554=PASSWORD|1137=7|10=189|8=FIXT.1.1|9=107|35=A|34=170|49=INITIATOR|52=20190531-12:39:00.402|56=ACCEPTOR|98=0|108=20|553=USERNAME|554=PASSWORD|1137=7|10=171|8=FIXT.1.1|9=107|35=A|34=171|49=INITIATOR|52=20190531-12:39:30.432|56=ACCEPTOR|98=0|108=20|553=USERNAME|554=PASSWORD|1137=7|10=178|8=FIXT.1.1|9=107|35=A|34=172|49=INITIATOR|52=20190531-12:40:00.461|56=ACCEPTOR|98=0|108=20|553=USERNAME|554=PASSWORD|1137=7|10=170|8=FIXT.1.1|9=107|35=A|34=173|49=INITIATOR|52=20190531-12:40:30.492|56=ACCEPTOR|98=0|108=20|553=USERNAME|554=PASSWORD|1137=7|10=178|8=FIXT.1.1|9=107|35=A|34=174|49=INITIATOR|52=20190531-12:41:00.524|56=ACCEPTOR|98=0|108=20|553=USERNAME|554=PASSWORD|1137=7|10=173|8=FIXT.1.1|9=107|35=A|34=175|49=INITIATOR|52=20190531-12:41:30.555|56=ACCEPTOR|98=0|108=20|553=USERNAME|554=PASSWORD|1137=7|10=181|8=FIXT.1.1|9=107|35=A|34=176|49=INITIATOR|52=20190531-12:42:00.584|56=ACCEPTOR|98=0|108=20|553=USERNAME|554=PASSWORD|1137=7|10=182|8=FIXT.1.1|9=107|35=A|34=177|49=INITIATOR|52=20190531-12:42:30.613|56=ACCEPTOR|98=0|108=20|553=USERNAME|554=PASSWORD|1137=7|10=179|8=FIXT.1.1|9=107|35=A|34=178|49=INITIATOR|52=20190531-12:43:00.642|56=ACCEPTOR|98=0|108=20|553=USERNAME|554=PASSWORD|1137=7|10=180|8=FIXT.1.1|9=107|35=A|34=179|49=INITIATOR|52=20190531-12:43:30.671|56=ACCEPTOR|98=0|108=20|553=USERNAME|554=PASSWORD|1137=7|10=186|8=FIXT.1.1|9=107|35=A|34=180|49=INITIATOR|52=20190531-12:44:00.701|56=ACCEPTOR|98=0|108=20|553=USERNAME|554=PASSWORD|1137=7|10=170|8=FIXT.1.1|9=107|35=A|34=181|49=INITIATOR|52=20190531-12:44:30.732|56=ACCEPTOR|98=0|108=20|553=USERNAME|554=PASSWORD|1137=7|10=178|8=FIXT.1.1|9=107|35=A|34=182|49=INITIATOR|52=20190531-12:45:00.762|56=ACCEPTOR|98=0|108=20|553=USERNAME|554=PASSWORD|1137=7|10=180|8=FIXT.1.1|9=107|35=A|34=183|49=INITIATOR|52=20190531-12:45:30.792|56=ACCEPTOR|98=0|108=20|553=USERNAME|554=PASSWORD|1137=7|10=187|8=FIXT.1.1|9=107|35=A|34=184|49=INITIATOR|52=20190531-12:46:00.822|56=ACCEPTOR|98=0|108=20|553=USERNAME|554=PASSWORD|1137=7|10=180|8=FIXT.1.1|9=107|35=A|34=185|49=INITIATOR|52=20190531-12:46:30.901|56=ACCEPTOR|98=0|108=20|553=USERNAME|554=PASSWORD|1137=7|10=182|8=FIXT.1.1|9=107|35=A|34=186|49=INITIATOR|52=20190531-12:47:00.930|56=ACCEPTOR|98=0|108=20|553=USERNAME|554=PASSWORD|1137=7|10=183|8=FIXT.1.1|9=107|35=A|34=187|49=INITIATOR|52=20190531-12:47:30.963|56=ACCEPTOR|98=0|108=20|553=USERNAME|554=PASSWORD|1137=7|10=193|8=FIXT.1.1|9=107|35=A|34=188|49=INITIATOR|52=20190531-12:48:00.992|56=ACCEPTOR|98=0|108=20|553=USERNAME|554=PASSWORD|1137=7|10=194|8=FIXT.1.1|9=107|35=A|34=189|49=INITIATOR|52=20190531-12:48:30.020|56=ACCEPTOR|98=0|108=20|553=USERNAME|554=PASSWORD|1137=7|10=180|8=FIXT.1.1|9=107|35=A|34=190|49=INITIATOR|52=20190531-12:49:00.051|56=ACCEPTOR|98=0|108=20|553=USERNAME|554=PASSWORD|1137=7|10=174|8=FIXT.1.1|9=107|35=A|34=191|49=INITIATOR|52=20190531-12:49:30.080|56=ACCEPTOR|98=0|108=20|553=USERNAME|554=PASSWORD|1137=7|10=180|8=FIXT.1.1|9=107|35=A|34=192|49=INITIATOR|52=20190531-12:50:00.108|56=ACCEPTOR|98=0|108=20|553=USERNAME|554=PASSWORD|1137=7|10=171|8=FIXT.1.1|9=107|35=A|34=193|49=INITIATOR|52=20190531-12:50:30.137|56=ACCEPTOR|98=0|108=20|553=USERNAME|554=PASSWORD|1137=7|10=177|8=FIXT.1.1|9=107|35=A|34=194|49=INITIATOR|52=20190531-12:51:00.167|56=ACCEPTOR|98=0|108=20|553=USERNAME|554=PASSWORD|1137=7|10=179|8=FIXT.1.1|9=107|35=A|34=195|49=INITIATOR|52=20190531-12:51:30.197|56=ACCEPTOR|98=0|108=20|553=USERNAME|554=PASSWORD|1137=7|10=186|8=FIXT.1.1|9=107|35=A|34=196|49=INITIATOR|52=20190531-12:52:00.228|56=ACCEPTOR|98=0|108=20|553=USERNAME|554=PASSWORD|1137=7|10=180|8=FIXT.1.1|9=107|35=A|34=197|49=INITIATOR|52=20190531-12:52:30.257|56=ACCEPTOR|98=0|108=20|553=USERNAME|554=PASSWORD|1137=7|10=186|8=FIXT.1.1|9=107|35=A|34=198|49=INITIATOR|52=20190531-12:53:00.285|56=ACCEPTOR|98=0|108=20|553=USERNAME|554=PASSWORD|1137=7|10=186|8=FIXT.1.1|9=107|35=A|34=199|49=INITIATOR|52=20190531-12:53:30.315|56=ACCEPTOR|98=0|108=20|553=USERNAME|554=PASSWORD|1137=7|10=184|8=FIXT.1.1|9=107|35=A|34=200|49=INITIATOR|52=20190531-12:54:00.346|56=ACCEPTOR|98=0|108=20|553=USERNAME|554=PASSWORD|1137=7|10=169|8=FIXT.1.1|9=107|35=A|34=201|49=INITIATOR|52=20190531-12:54:30.373|56=ACCEPTOR|98=0|108=20|553=USERNAME|554=PASSWORD|1137=7|10=173|8=FIXT.1.1|9=107|35=A|34=202|49=INITIATOR|52=20190531-12:55:00.404|56=ACCEPTOR|98=0|108=20|553=USERNAME|554=PASSWORD|1137=7|10=167|8=FIXT.1.1|9=107|35=A|34=203|49=INITIATOR|52=20190531-12:55:30.436|56=ACCEPTOR|98=0|108=20|553=USERNAME|554=PASSWORD|1137=7|10=176|8=FIXT.1.1|9=107|35=A|34=204|49=INITIATOR|52=20190531-12:56:00.467|56=ACCEPTOR|98=0|108=20|553=USERNAME|554=PASSWORD|1137=7|10=179|8=FIXT.1.1|9=107|35=A|34=205|49=INITIATOR|52=20190531-12:56:30.498|56=ACCEPTOR|98=0|108=20|553=USERNAME|554=PASSWORD|1137=7|10=187|8=FIXT.1.1|9=107|35=A|34=206|49=INITIATOR|52=20190531-12:57:00.530|56=ACCEPTOR|98=0|108=20|553=USERNAME|554=PASSWORD|1137=7|10=173|8=FIXT.1.1|9=107|35=A|34=207|49=INITIATOR|52=20190531-12:57:30.561|56=ACCEPTOR|98=0|108=20|553=USERNAME|554=PASSWORD|1137=7|10=181|